:020000040000FA
:040000000DEF00F010
:040008000AEF2EF0DD
:10001800FF00B1EF2FF0E4EC38F03901919591979A
:10002800D28E9FEC34F09FEC3CF0000E0001956FEF
:10003800320E946F71EC37F0000E0201BE6F140E91
:10004800BD6F000EAB6F280EAA6F000EB66F000EC4
:10005800B56F000EBA6F000EB96FEA0E0001856F1A
:10006800600E846F0101F951030D6F00CCFF86F01B
:100078006F00D0FF87F0C9EC33F0600010F237F161
:10008800600014F238F1EA0E856F600E846F60002C
:10009800E4F786F0876BC9EC33F0010137510001B2
:1000A800845D0101356F3851000185590101366FB2
:1000B800FBEC39F0000E0101326F000E316FB4EC29
:1000C8003BF0F5EC33F00DEC3AF013EC3BF014ECAC
:1000D8003DF0EFEC0BF00009D8B4FBD7000E00019F
:1000E8009B6F000EC4EC36F0240E976FFE0E986FCF
:1000F80005EC3BF0010E9B6F000EC4EC36F03D0E94
:10010800976FFF0E986F05EC3BF0C2EC39F00201D7
:10011800A16F030EA119D8B404D0050EA119D8A453
:10012800F4D7030EA119D8A4D4D7010E0101596F31
:10013800010E00019B6F000EC4EC36F04E0E976F57
:10014800FF0E986F05EC3BF0BD8C1AD07BEC15F0D8
:100158008BEC17F06DEC2FF09C0AD8A411D0B3ECFF
:1001680032F0040AD8A40CD0BD9C020E01014D6FD8
:10017800B3EC32F0FF0AD8A4FBD7B4EC3BF005D0BF
:10018800020E01014D19D8A4E1D7BDEC3BF0600087
:1001980030F278F1600034F279F101015751D8A4B6
:1001A80004D0100EF0EC23F003D0140EF0EC23F082
:1001B800BDEC3BF0600030F2C9F2600034F2CAF2E4
:1001C800FA0E0101A66FFF0EA76F84EC39F057C134
:1001D80058F101015851D8A40CD0F851250D6F00E1
:1001E800CCFF41F16F00D0FF42F1F6C139F13A6B13
:1001F80008D0FA51250D6F00CCFF41F16F00D0FFF8
:1002080042F1F751250D6F00CCFF3FF16F00D0FF91
:1002180040F137C13DF138C13EF135C13BF136C13E
:100228003CF1BA84BA86010E0201A96F010EA66FCD
:10023800000EB26FBDEC3BF0600030F2A2F260003D
:1002480034F2A3F2F7EC3AF001015851D8A404D0E3
:10025800100E9AEC39F003D0140E9AEC39F0C90E4E
:1002680000018C6F020E8D6F6000F4F48EF0600058
:10027800F8F48FF083EC32F00009D8B447D00201CB
:10028800A951D8B403D0200EC6EC3BF00201B251FC
:10029800D8B43EEF06F0C30E0101BC6F020EBD6F6D
:1002A800040EB9EC20F002019F51C35DBF6FA0514D
:1002B800C459C06FC0BF3EEF06F0C05104E1BF058E
:1002C800D8A03EEF06F06000E4FA84F06000E8FA97
:1002D80085F0000E0001876F030E866F40EC39F041
:1002E8000201BF51000184270201C051000185238A
:1002F800853585338433853585338433600010F242
:10030800B9F2600014F2BAF23EEF06F0600024FB86
:100318008CF0600028FB8DF0010E8F6FF40E8E6F4D
:100328003CEC38F00009D8A4BD9C0201A951D8B40E
:100338004CD1CB0E0101BC6F020EBD6F000EB9ECA3
:1003480020F00009D8B474D30201BABF06D0BA515C
:1003580017E1B90EB95DD8B013D0BAAF06D0480EC0
:10036800B95DFF0EBA59D8A00BD0B9510101415D52
:100378000201BF6FBA51010142590201C06F06D094
:10038800600004F5BFF2600008F5C0F2C70E010175
:10039800BC6F020EBD6F040EB9EC20F06000F4FAD9
:1003A8009EF06000F8FA9FF060002CFBA0F060005F
:1003B80030FBA1F060001CFBA2F0600020FBA3F062
:1003C80005EC2BF0600078F2AEF260007CF2AFF240
:1003D8000201AE51BF5DC051800A0101EB6F0201FD
:1003E800AF51800A0101EB59D8A00ED00201CB51C0
:1003F800BF5DC051800A0101EB6F0201CC51800A38
:100408000101EB59D8B08CD05751D8B40AD06FEC51
:1004180033F00101F65100019D5D000E9E59D8B0E0
:100428007FD0BA94000E0201A96FBDEC3BF06000CA
:1004380030F2B7F2600034F2B8F26000B8FA9FF216
:100448006000BCFAA0F2010E0201B26F000EB16F9B
:10045800000EB06F60002CFB84F0600030FB85F06C
:10046800000E0001876F0A0E866F40EC39F06000BD
:1004780010F28AF0600014F28BF0000E8D6F250EDA
:100488008C6F29EC2FF0600028F2C5F260002CF286
:10049800C6F26000B8FA84F06000BCFA85F0000E7D
:1004A800876F0A0E866F40EC39F0600010F28AF010
:1004B800600014F28BF0000E8D6F250E8C6F29EC06
:1004C8002FF0600028F2BBF260002CF2BCF22E0E76
:1004D8000101A66FFD0EA76F600024FB8EF060007F
:1004E80028FB8FF0BDEC3BF0600030F290F060002C
:1004F80034F291F0D8EC37F0600038F2A8F16000DF
:100508003CF2A9F1600014FBAAF1600018FBABF102
:100518006000ECFAACF16000F0FAADF184EC39F06F
:100528000201A651D8B484D2250EC7250101EB6F6C
:10053800000E0201C8210101EC6F0201CB5101013B
:10054800EB5DEC51800AED6F0201CC51800A01018C
:10055800ED59D8B06DD2000E0201A66F600088FA7E
:100568008EF060008CFA8FF0BDEC3BF0600030F24A
:1005780090F0600034F291F0D8EC37F0600038F277
:10058800A7F260003CF2A8F20201A8511AE1640E39
:10059800A75DD8B016D0A751BD250101EB6F0201A8
:1005A800A851BE210101EC6FD890EC31ED6FEB3111
:1005B8000201BD6F6000B4F7BEF2080ECFEC3BF04D
:1005C80037D2080EC6EC3BF033D2200ECFEC3BF00E
:1005D800BAA460D0AC0E00018C6F020E8D6F000EB5
:1005E8008F6F0F0E8E6F83EC32F00009D8B420D2D3
:1005F800BA94BDEC3BF0600030F2B7F2600034F220
:10060800B8F2CB0E0101BC6F020EBD6F000EB9EC43
:1006180020F060002CFB84F0600030FB85F0000EB9
:100628000001876F0A0E866F40EC39F0600010F207
:100638008AF0600014F28BF0000E8D6F250E8C6F1F
:1006480029EC2FF0600028F2C5F260002CF2C6F207
:10065800E80E0101A66FFD0EA76F600024FB8EF067
:10066800600028FB8FF06000DCFA90F06000E0FA90
:1006780091F0D8EC37F0600038F2A8F160003CF255
:10068800A9F1600014FBAAF1600018FBABF184EC3F
:1006980039F0CED1CB0EBC6F020EBD6F000EB9EC97
:1006A80020F00009D8B4C4D10201B251D8B49FD007
:1006B800C30E0101BC6F020EBD6F040EB9EC20F031
:1006C8000201C351B05DB151800A0101EB6F020113
:1006D800C451800A0101EB59D8B006D060000CFB68
:1006E800B0F2600010FBB1F26000DCFA8CF0600040
:1006F800E0FA8DF0960E0201BD2500018E6F000E06
:100708000201BE2100018F6F3CEC38F00009D8B41B
:100718008FD102019F51B05DBF6FA051B159C06F19
:100728006000E4FA84F06000E8FA85F0000E000149
:10073800876F030E866F40EC39F00201BF5100014C
:1007480084270201C0510001852385358533843310
:10075800853585338433600010F2B9F2600014F2F5
:10076800BAF2000E0201B26F60002CFB84F0600048
:1007780030FB85F0000E0001876F0A0E866F40EC93
:1007880039F0600010F28AF0600014F28BF0000E6D
:100798008D6F250E8C6F29EC2FF0600028F2C5F2C2
:1007A80060002CF2C6F2800E0101A66FFD0EA76F45
:1007B800600024FB8EF0600028FB8FF0BDEC3BF05E
:1007C800600030F290F0600034F291F0D8EC37F02D
:1007D800600038F2A8F160003CF2A9F1600014FB57
:1007E800AAF1600018FBABF184EC39F021D1BAA66C
:1007F80060D0AB5104E1330EAA5DD8A05AD0CE0E1A
:100808000101EB6FFF0EEC6F6000A8FAEDF16000DC
:10081800ACFAEEF1EB51ED27EC51EE23ED513D5DD5
:10082800EE513E59D8A01ED0600024FB8CF0600029
:1008380028FB8DF00201AA5101013D5DEB6F020119
:10084800AB5101013E59EC6F320EEB2500018E6F62
:10085800000E0101EC2100018F6F3CEC38F000091B
:10086800D8B427D0010E0201A66FBDEC3BF06000A2
:1008780030F2A2F2600034F2A3F2BA96B50E01018A
:10088800A66FFE0EA76F600024FB8EF0600028FBA9
:100898008FF0600088FA90F060008CFA91F0D8EC44
:1008A80037F0600038F2A8F160003CF2A9F184EC5E
:1008B80039F06000DCFA8CF06000E0FA8DF060003E
:1008C800F4FAEBF16000F8FAECF1D8900101EB379B
:1008D800EC37FF0EEB1500018E6F0F0E0101EC15C2
:1008E80000018F6F3CEC38F00009D8B4A1D060004B
:1008F8002CFB84F0600030FB85F0000E85BFFF0EF6
:10090800866F876F010E97EC25F0600010F2A2F059
:10091800600014F2A3F0600018F2A4F060001CF26A
:10092800A5F0000E966F000E976FB90E986FC20E65
:10093800996F600004F584F0600008F585F0866B17
:10094800876B000E97EC25F0600010F292F06000C3
:1009580014F293F0600018F294F060001CF295F025
:100968006FEC19F0600048F2A6F060004CF2A7F0B6
:10097800600050F2A8F0600054F2A9F042EC2AF0AE
:10098800D8B056D001015751D8B40AD06FEC33F023
:100998000101F65100019D5D000E9E59D8B048D066
:1009A800BA84BDEC3BF0600030F2ACF2600034F287
:1009B800ADF260002CFB84F0600030FB85F0000E87
:1009C800876F0A0E866F40EC39F0600010F28AF0EB
:1009D800600014F28BF0000E8D6F250E8C6F29ECE1
:1009E8002FF0600028F2C5F260002CF2C6F2100E5B
:1009F8000101A66FFE0EA76F600024FB8EF0600059
:100A080028FB8FF06000B0FA90F06000B4FA91F023
:100A1800D8EC37F0600038F2A8F160003CF2A9F198
:100A2800600014FBAAF1600018FBABF184EC39F00C
:100A38008BEC17F07BEC15F09D0E00018C6F020E0D
:100A48008D6F000E8F6F140E8E6F83EC32F00009DD
:100A5800D8B428EF01F0CB0E0101BC6F020EBD6FB8
:100A6800000EB9EC20F0C70E0101BC6F020EBD6F7D
:100A7800040EB9EC20F06000F4FA9EF06000F8FA79
:100A88009FF060002CFBA0F0600030FBA1F060003C
:100A98001CFBA2F0600020FBA3F005EC2BF060002B
:100AA80078F2AEF260007CF2AFF260002CFB84F0CA
:100AB800600030FB85F0000E876F0A0E866F40ECF1
:100AC80039F0600010F28AF0600014F28BF0000E2A
:100AD8008D6F250E8C6F29EC2FF0600028F2C5F27F
:100AE80060002CF2C6F26000B8FA84F06000BCFA2C
:100AF80085F0000E876F0A0E866F40EC39F06000B3
:100B080010F28AF0600014F28BF0000E8D6F250E43
:100B18008C6F29EC2FF0600028F2BBF260002CF2F9
:100B2800BCF20201C751CB5D0001846F0201C851BC
:100B3800CC590001856F000E876F0A0E866F40EC56
:100B480039F0600010F28AF0600014F28BF0000EA9
:100B58008D6F250E8C6F29EC2FF0600028F2A4F21F
:100B680060002CF2A5F26000C0FA84F06000C4FABC
:100B780085F0000E876F0A0E866F40EC39F0600032
:100B880010F28AF0600014F28BF0000E8D6F250EC3
:100B98008C6F29EC2FF0600028F299F260002CF29B
:100BA8009AF26000E4FA84F06000E8FA85F0000E3A
:100BB800876F0A0E866F40EC39F0600010F28AF0F9
:100BC800600014F28BF0000E8D6F250E8C6F29ECEF
:100BD8002FF0600028F29BF260002CF29CF23B0E92
:100BE8000101A66FFC0EA76F600024FB8EF0600069
:100BF80028FB8FF0BDEC3BF0600030F290F0600015
:100C080034F291F0D8EC37F0600038F2A8F16000C7
:100C18003CF2A9F16FEC33F0600074F2AAF16000C5
:100C280078F2ABF1600014FBACF1600018FBADF199
:100C38006000ECFAAEF16000F0FAAFF1600090FAF3
:100C4800B0F1600094FAB1F16000F4FAB2F160001A
:100C5800F8FAB3F1600064FAB4F1600068FAB5F12B
:100C680060006CFAB6F1600070FAB7F184EC39F004
:100C780028EF01F06FEC33F0600074F231F160009E
:100C880078F232F17B0E0101A66F020EA76FCF0E2C
:100C9800A86FFF0EA96F6000C4F4AAF16000C8F441
:100CA800ABF19CEC33F0010E5A6FF50EA66FFF0EF8
:100CB800A76F84EC39F0030ED6EC28F0040ED6ECBE
:100CC80028F0BDEC3BF0600030F2ACF2600034F28A
:100CD800ADF2BA94BAA60CD0BA96010E0201A66F6C
:100CE800BDEC3BF0600030F2A2F2600034F2A3F2F7
:100CF800010E0201A96F000EB26F01015851D8A46C
:100D080004D0100E9AEC39F003D0140E9AEC39F096
:100D1800C90E00018C6F020E8D6F6000ECF48EF02E
:100D28006000F0F48FF083EC32F00009D8B42AD0D8
:100D3800000E11EC2CF00201A951D8B403D0100E0A
:100D4800C6EC3BF00201B251D8B4E4EF00F0600009
:100D5800D4FA84F06000D8FA85F0000E0001876F9D
:100D6800030E866F40EC39F085358533843385353D
:100D780085338433600010F2B5F2600014F2B6F2E5
:100D8800E4EF00F00201A951D8B40AD1CB0E010159
:100D9800BC6F020EBD6F000EB9EC20F00009D8B48C
:100DA800D5EF0AF0C70E0101BC6F020EBD6F040E2D
:100DB800B9EC20F00201B55101013F5D0201BF6F9E
:100DC800B651010140590201C06FC0BF06D0C051E1
:100DD80008E1260EBF5DD8B004D0000EC06F250E06
:100DE800BF6FBF51C75DC851800A0101EB6F020197
:100DF800C051800A0101EB59D8B079D0BA86000EEB
:100E08000201A96FBDEC3BF0600030F2B7F2600060
:100E180034F2B8F260002CFB9FF2600030FBA0F2C5
:100E2800010E0201B26F60002CFB84F0600030FB01
:100E380085F0000E0001876F0A0E866F40EC39F0CE
:100E4800600010F28AF0600014F28BF0000E8D6FD3
:100E5800250E8C6F29EC2FF0600028F2C5F2600097
:100E68002CF2C6F26000D4FA84F06000D8FA85F05B
:100E7800000E876F0A0E866F40EC39F0600010F2A2
:100E88008AF0600014F28BF0000E8D6F250E8C6FC7
:100E980029EC2FF0600028F2BBF260002CF2BCF2C3
:100EA800120E0101A66FFD0EA76F600024FB8EF0E5
:100EB800600028FB8FF06000DCFA90F06000E0FA38
:100EC80091F0D8EC37F0600038F2A8F160003CF2FD
:100ED800A9F1600014FBAAF1600018FBABF16000F7
:100EE800ECFAACF16000F0FAADF184EC39F00201F3
:100EF800A651D8B456D3DB0E0101EB6FFF0EEC6F91
:100F080060001CFBEDF1600020FBEEF1EB51ED27DA
:100F1800EC51EE23ED510201CB5DCC51800A010169
:100F2800EF6FEE51800AEF59D8B03BD3000E0201A3
:100F3800A66F600088FA8EF060008CFA8FF0BDEC26
:100F48003BF0600030F290F0600034F291F0D8ECA1
:100F580037F0600038F2A7F260003CF2A8F2580EB1
:100F68000201A75D020EA859D8B016D0A751AA252C
:100F78000101EB6F0201A851AB210101EC6FD89080
:100F8800EC31ED6FEB310201AA6F6000B4F7ABF200
:100F9800400ECFEC3BF005D3400EC6EC3BF001D33E
:100FA800100ECFEC3BF0BAA462D0AC0E00018C6FEF
:100FB800020E8D6F000E8F6F0F0E8E6F83EC32F066
:100FC8000009D8B4EED2BA94BDEC3BF0600030F220
:100FD800B7F2600034F2B8F2CB0E0101BC6F020E1A
:100FE800BD6F000EB9EC20F060002CFB84F06000AF
:100FF80030FB85F0000E0001876F0A0E866F40EC0B
:1010080039F0600010F28AF0600014F28BF0000EE4
:101018008D6F250E8C6F29EC2FF0600028F2C5F239
:1010280060002CF2C6F2D40E0101A66FFD0EA76F68
:10103800600024FB8EF0600028FB8FF0BDEC3BF0D5
:10104800600030F290F0600034F291F0D8EC37F0A4
:10105800600038F2A8F160003CF2A9F1600014FBCE
:10106800AAF1600018FBABF184EC39F09AD2CB0EF0
:10107800BC6F020EBD6F000EB9EC20F00009D8B4A9
:1010880090D20201B251D8B4BCD06000DCFA8CF026
:101098006000E0FA8DF05E0EBD2500018E6F010E36
:1010A8000201BE2100018F6F3CEC38F00009D8B472
:1010B80078D2C30E0101BC6F020EBD6F030EB9ECEE
:1010C80020F060000CFBB0F2600010FBB1F20201EE
:1010D8009F51B05DBF6FA051B159C06F6000D4FA85
:1010E80084F06000D8FA85F0000E0001876F030EC7
:1010F800866F40EC39F00201BF51000184258A6FE8
:101108000201C051000185218B6F000E8D6F040E06
:101118008C6F29EC2FF0600028F2B5F260002CF2F9
:10112800B6F2050ED6EC28F0060ED6EC28F0000E26
:101138000201B26F60002CFB84F0600030FB85F088
:10114800000E0001876F0A0E866F40EC39F06000D0
:1011580010F28AF0600014F28BF0000E8D6F250EED
:101168008C6F29EC2FF0600028F2C5F260002CF299
:10117800C6F260000CFB84F0600010FB85F0000EE6
:10118800876F0A0E866F40EC39F0600010F28AF023
:10119800600014F28BF0000E8D6F250E8C6F29EC19
:1011A8002FF0600028F2BBF260002CF2BCF24A0E6D
:1011B8000101A66FFD0EA76F600024FB8EF0600092
:1011C80028FB8FF0BDEC3BF0600030F290F060003F
:1011D80034F291F0D8EC37F0600038F2A8F16000F2
:1011E8003CF2A9F1600014FBAAF1600018FBABF116
:1011F8006000ECFAACF16000F0FAADF184EC39F083
:10120800D0D1C10E0101BC6F020EBD6F050EB9EC45
:1012180020F0B30E0101BC6F020EBD6F060EB9ECD3
:1012280020F0000E0001966F000E976F940E986FD5
:10123800410E996F600004FB84F0600008FB85F0A4
:10124800000E85BFFF0E866F876F010E97EC25F0A5
:10125800600010F292F0600014F293F0600018F24F
:1012680094F060001CF295F06FEC19F0600048F201
:10127800A2F060004CF2A3F0600050F2A4F060000D
:1012880054F2A5F06000CCFA84F06000D0FA85F042
:10129800000E85BFFF0E866F876F010E97EC25F055
:1012A800600010F2A6F0600014F2A7F0600018F2D7
:1012B800A8F060001CF2A9F042EC2AF0D8A005D0F2
:1012C800B3EC32F0040AD8A497D060002CFB84F069
:1012D800600030FB85F0000E876F0A0E866F40ECC9
:1012E80039F0600010F28AF0600014F28BF0000E02
:1012F8008D6F250E8C6F29EC2FF0600028F2C5F257
:1013080060002CF2C6F2600004FB84F0600008FB69
:1013180085F0000E876F0A0E866F40EC39F060008A
:1013280010F28AF0600014F28BF0000E8D6F250E1B
:101338008C6F29EC2FF0600028F2BBF260002CF2D1
:10134800BCF2600004FB84F0600008FB85F0000E2E
:10135800876F0A0E866F40EC39F0600010F28AF051
:10136800600014F28BF0000E8D6F250E8C6F29EC47
:101378002FF0600028F2A4F260002CF2A5F2EE0E25
:101388000101A66FFC0EA76F600024FB8EF06000C1
:1013980028FB8FF0BDEC3BF0600030F290F060006D
:1013A80034F291F0D8EC37F0600038F2A8F1600020
:1013B8003CF2A9F1600014FBAAF1600018FBABF144
:1013C8006000ECFAACF16000F0FAADF1600090FA60
:1013D800AEF1600094FAAFF184EC39F0BD8CBDEC4D
:1013E8003BF0600030F2C9F2600034F2CAF2010E3C
:1013F80011EC2CF0E4EF00F06000DCFA8CF06000F7
:10140800E0FA8DF06000F4FAEBF16000F8FAECF124
:10141800D8900101EB37EC37FF0EEB1500018E6F0A
:101428000F0E0101EC1500018F6F3CEC38F000093C
:10143800D8B4B7D0600004FB84F0600008FB85F0E6
:10144800000E85BFFF0E866F876F010E97EC25F0A3
:10145800600010F2A2F0600014F2A3F0600018F22D
:10146800A4F060001CF2A5F0000E966F000E976FB6
:10147800B90E986FC20E996F6000FCF484F060009A
:1014880000F585F0866B876B000E97EC25F0600001
:1014980010F292F0600014F293F0600018F294F0E9
:1014A80060001CF295F06FEC19F0600048F2A6F0AD
:1014B80060004CF2A7F0600050F2A8F0600054F20F
:1014C800A9F042EC2AF0D8B06CD0BA84BDEC3BF05D
:1014D800600030F2ACF2600034F2ADF260002CFB38
:1014E80084F0600030FB85F0000E876F0A0E866F6F
:1014F80040EC39F0600010F28AF0600014F28BF0D2
:10150800000E8D6F250E8C6F29EC2FF0600028F2ED
:10151800C5F260002CF2C6F2600004FB84F06000A3
:1015280008FB85F0000E876F0A0E866F40EC39F0D5
:10153800600010F28AF0600014F28BF0000E8D6FDC
:10154800250E8C6F29EC2FF0600028F2BBF26000AA
:101558002CF2BCF2FC0E0101A66FFD0EA76F600015
:1015680024FB8EF0600028FB8FF06000B0FA90F04A
:101578006000B4FA91F0D8EC37F0600038F2A8F1C6
:1015880060003CF2A9F1600014FBAAF1600018FBAE
:10159800ABF16000ECFAACF16000F0FAADF184EC6C
:1015A80039F08BEC17F07BEC15F09D0E00018C6F79
:1015B800020E8D6F000E8F6F140E8E6F83EC32F05B
:1015C8000009D8B481EF06F0CB0E0101BC6F020E02
:1015D800BD6F000EB9EC20F0C70E0101BC6F020E02
:1015E800BD6F040EB9EC20F06000F4FA9EF06000C4
:1015F800F8FA9FF060002CFBA0F0600030FBA1F02F
:1016080060001CFBA2F0600020FBA3F005EC2BF0AF
:10161800600078F2AEF260007CF2AFF260002CFB62
:1016280084F0600030FB85F0000E876F0A0E866F2D
:1016380040EC39F0600010F28AF0600014F28BF090
:10164800000E8D6F250E8C6F29EC2FF0600028F2AC
:10165800C5F260002CF2C6F26000B8FA84F06000AF
:10166800BCFA85F0000E876F0A0E866F40EC39F0E1
:10167800600010F28AF0600014F28BF0000E8D6F9B
:10168800250E8C6F29EC2FF0600028F2BBF2600069
:101698002CF2BCF20201C751CB5D0001846F02013C
:1016A800C851CC590001856F000E876F0A0E866FEE
:1016B80040EC39F0600010F28AF0600014F28BF010
:1016C800000E8D6F250E8C6F29EC2FF0600028F22C
:1016D800A4F260002CF2A5F26000C0FA84F0600069
:1016E800C4FA85F0000E876F0A0E866F40EC39F059
:1016F800600010F28AF0600014F28BF0000E8D6F1B
:10170800250E8C6F29EC2FF0600028F299F260000A
:101718002CF29AF26000D4FA84F06000D8FA85F0CE
:10172800000E876F0A0E866F40EC39F0600010F2E9
:101738008AF0600014F28BF0000E8D6F250E8C6F0E
:1017480029EC2FF0600028F29BF260002CF29CF24A
:10175800730E0101A66FFC0EA76F600024FB8EF0CC
:10176800600028FB8FF0BDEC3BF0600030F290F099
:10177800600034F291F0D8EC37F0600038F2A8F14C
:1017880060003CF2A9F1600014FBAAF1600018FBAC
:10179800ABF16000ECFAACF16000F0FAADF160007A
:1017A80090FAAEF1600094FAAFF16000A8FAB0F1D7
:1017B8006000ACFAB1F1600064FAB2F1600068FA56
:1017C800B3F160006CFAB4F1600070FAB5F184EC22
:1017D80039F081EF06F0000E01014D6F000E000197
:1017E8009B6F000EC4EC36F0E80E976FFE0E986FF4
:1017F80005EC3BF0010E9B6F000EC4EC36F0F90EC1
:10180800976FFE0E986F05EC3BF0030E956FE80E90
:10181800946F71EC37F01F0E0101D56F400ED46F35
:10182800000ED36F000ED26F010EE46F800EF0EC45
:1018380023F0000E0101BD6F000EBC6F000E17EC07
:1018480035F0000E0101BD6F000EBC6F010E17ECE4
:1018580035F0BDEC3BF0600030F2DCF1600034F2B2
:10186800DDF13DD0E50E0101BC6F010EBD6F020E2A
:10187800B9EC20F00009D8B422D00101E551D25DBD
:10188800D351800ACD6FE651800ACD59D8B006D021
:10189800600094F7D2F1600098F7D3F1D451E55D78
:1018A800E651800ACD6FD551800ACD59D8B017D0EE
:1018B800600094F7D4F1600098F7D5F110D0BA948D
:1018C800BA96EC0E0101A66FFF0EA76F000EA96F66
:1018D8000A0EA86F84EC39F0000E0101E46FDC0EEB
:1018E80000018C6F010E8D6F010E8F6FF40E8E6FDD
:1018F80083EC32F00009D8B4B5D70101E451D8A47B
:1019080003D00101E4511200D451D225CD6FD55135
:10191800D321CE6FCE35CE31CF6FCD31336F60004E
:101928003CF734F1650EA66FFD0EA76F600050F707
:10193800A8F1600054F7A9F1600048F7AAF1600027
:101948004CF7ABF16000CCF4ACF16000D0F4ADF131
:1019580084EC39F0010134BF06D0830E335D140ED8
:101968003459D8B008D034BF06D08E0E335D120E6D
:101978003459D8B02DD0000E00019B6F000EC4EC76
:1019880036F02C0E976FFF0E986F05EC3BF0010EAA
:101998009B6F000EC4EC36F0670E0101A66F020EB5
:1019A800A76F810EA86FFF0EA96F6000CCF4AAF193
:1019B8006000D0F4ABF19CEC33F0670E0001976F38
:1019C800020E986F05EC3BF0000E0101E46F26D083
:1019D800D451D25DCD6FD551D359CE6FCEBF1ED065
:1019E800CE5104E1650ECD5DD8A018D0000E0001DF
:1019F8009B6F000EC4EC36F02C0E976FFF0E986F9D
:101A080005EC3BF0010E9B6F000EC4EC36F0D70ED0
:101A1800976FFE0E986F05EC3BF0D6D7E451D8B41B
:101A280070D703D2BD9CB3EC32F0FF0AD8A4FBD721
:101A3800B4EC3BF0BD8C000E9B6F000EC4EC36F08E
:101A48005F0E976FFF0E986F05EC3BF0BDEC3BF017
:101A5800010E0101D16FBDEC3BF0600030F2DCF10A
:101A6800600034F2DDF1DC0E8C6F010E8D6F010E1B
:101A78008F6FF40E8E6F83EC32F00009D8B40CD05F
:101A88000101D1513AEC3BF00101D151D8A402D067
:101A9800010E01D0000ED16F6DEC2FF09C0AD8A476
:101AA800E2D7B3EC32F0040AD8A4DDD7010E3AEC41
:101AB8003BF0C00EF0EC23F0100E0101D96F000EC0
:101AC800D86F100EE36F000EE26F000ED76F000E96
:101AD800D66F000EE16F000EE06F78D0E70E0101BF
:101AE800BC6F010EBD6F000EB9EC20F00009D8B430
:101AF80022D00101E751D65DD751800ACD6FE85158
:101B0800800ACD59D8B006D060009CF7D6F16000A5
:101B1800A0F7D7F1D851E75DE851800ACD6FD951C8
:101B2800800ACD59D8B017D060009CF7D8F1600072
:101B3800A0F7D9F110D0BA94BA96EC0E0101A66FAD
:101B4800FF0EA76F000EA96F0A0EA86F84EC39F07C
:101B5800000E0101E46FE90EBC6F010EBD6F010EAE
:101B6800B9EC20F00009D8B422D00101E951E05DB8
:101B7800E151800ACD6FEA51800ACD59D8B006D01C
:101B88006000A4F7E0F16000A8F7E1F1E251E95D37
:101B9800EA51800ACD6FE351800ACD59D8B016D0EA
:101BA8006000A4F7E2F16000A8F7E3F10FD0000E9F
:101BB8000101E46FBA94BA96EC0EA66FFF0EA76FF8
:101BC800000EA96F0A0EA86F84EC39F0DC0E000134
:101BD8008C6F010E8D6F010E8F6FF40E8E6F83EC7C
:101BE80032F00009D8B47AD70101D851D625CD6F83
:101BF800D951D721CE6FCE35CE31CF6FCD31DA6FF7
:101C080060003CF7DBF1E251E025CD6FE351E121C3
:101C1800CE6FCE35CE31CF6FCD31DE6F60003CF761
:101C2800DFF1BD9C670EA66F020EA76F370EA86F77
:101C3800FE0EA96F600068F7AAF160006CF7ABF1BF
:101C4800600078F7ACF160007CF7ADF19CEC33F004
:101C5800A30EA66FFC0EA76F600060F7A8F16000E6
:101C680064F7A9F1600058F7AAF160005CF7ABF1DE
:101C7800600068F7ACF160006CF7ADF184EC39F006
:101C8800C90E0101A66FFC0EA76F600088F7A8F1C6
:101C980060008CF7A9F1600080F7AAF1600084F772
:101CA800ABF1600078F7ACF160007CF7ADF184EC43
:101CB80039F0000E00019B6F000EC4EC36F0670E81
:101CC800976F020E986F05EC3BF0030E956FE80EC8
:101CD800946F71EC37F00101E251E05DCD6FE35193
:101CE800E159CE6FCEBF06D0CE5132E1110ECD5D97
:101CF800D8B02ED0D851D65DCD6FD951D759CE6F27
:101D0800CEBF06D0CE5124E1110ECD5DD8B020D083
:101D1800DBBF06D05F0EDA5D010EDB59D8B018D0F4
:101D2800DBBF06D05F0EDA5D010EDB59D8B010D0EC
:101D3800DFBF0ED0580EDE5D020EDF59D8A008D0E6
:101D4800DFBF19D0070EDE5D040EDF59D8A013D00F
:101D5800000E00019B6F000EC4EC36F0800E976FEA
:101D6800FE0E986F05EC3BF0010E956FF40E946F24
:101D780071EC37F05AD0600068F7BCF160006CF77E
:101D8800BDF1000E17EC35F0600078F7BCF160008B
:101D98007CF7BDF1010E17EC35F0030ED6EC28F0F8
:101DA800040ED6EC28F0050ED6EC28F0060ED6EC7C
:101DB80028F0A30E0101A66FFC0EA76F600060F764
:101DC800A8F1600064F7A9F1600058F7AAF1600073
:101DD8005CF7ABF1600068F7ACF160006CF7ADF14F
:101DE80084EC39F0C90E0101A66FFC0EA76F6000E4
:101DF80088F7A8F160008CF7A9F1600080F7AAF1D4
:101E0800600084F7ABF1600078F7ACF160007CF714
:101E1800ADF184EC39F0000E0001956F320E946F2D
:101E280071EC37F0010E01014D6F01014D51D8B42D
:101E3800F9D5E451D8B465D5BDEC3BF0000E9B6FE5
:101E4800000EC4EC36F06E0E976FFE0E986F05EC20
:101E58003BF0100E0101E36F000EE26F000EE16F20
:101E6800000EE06FA00EF0EC23F0BA84BA86000EE4
:101E78000001956FFA0E946F71EC37F0F7EC3AF0B9
:101E8800BDEC3BF0600030F2DCF1600034F2DDF1D3
:101E980029D0E90E0101BC6F010EBD6F010EB9EC2E
:101EA80020F00101E951E05DE151800ACD6FEA516E
:101EB800800ACD59D8B006D06000A4F7E0F16000E0
:101EC800A8F7E1F1E251E95DEA51800ACD6FE351EB
:101ED800800ACD59D8B006D06000A4F7E2F16000BE
:101EE800A8F7E3F1DC0E00018C6F010E8D6F000E78
:101EF8008F6FFA0E8E6F83EC32F00009D8B4C9D711
:101F08006FEC33F0D8909D379E37D8909D379E3729
:101F1800600074F22FF1600078F230F1000EF0ECFE
:101F280023F0BA94BA96600078F7CDF160007CF798
:101F3800CEF1D8900101CD37CE37E051CD27E15110
:101F4800CE23E251CD27E351CE23600034F784F04D
:101F5800600038F785F00001000E85BFFF0E866F20
:101F6800876F010E97EC25F0600010F2A2F0600078
:101F780014F2A3F0600018F2A4F060001CF2A5F0BF
:101F8800330EA66F330EA76FF30EA86F450EA96F19
:101F980042EC2AF0D8A012D0000E9B6F000EC4ECC1
:101FA80036F01B0E976FFF0E986F05EC3BF0030E93
:101FB800956FE80E946F71EC37F07CD0670E0101D5
:101FC800A66F020EA76F920EA86FFE0EA96F600093
:101FD800BCF484F06000C0F485F00001866B876B68
:101FE8003C0E886F000E896F000E8A6F000E8B6F93
:101FF800E3EC32F0600010F290F0600014F291F01F
:10200800600018F292F060001CF293F0E80E946FF2
:10201800030E956F000E966F000E976FE4EC2EF08E
:10202800600040F2AAF1600044F2ABF19CEC33F09E
:10203800000E00019B6F000EC4EC36F0670E976F20
:10204800020E986F05EC3BF00F0E956FA00E946F83
:1020580071EC37F0010130511AE1C80E2F5DD8B08C
:1020680016D0000E00019B6F000EC4EC36F00A0E6D
:10207800976FFF0E986F05EC3BF0030E956FE80E17
:10208800946F71EC37F0000E0101E46F13D0C50EA8
:102098002F5D090E3059D8A00DD0000E00019B6F9E
:1020A800000EC4EC36F01B0E976FFF0E986F05EC10
:1020B8003BF0E3D7B3EC32F0FF0AD8A4FBD7B4EC7B
:1020C8003BF01FD4B551D96EDA6A6F0078FF8CF1F6
:1020D8006F0074FF8DF1600033F6F6FF600037F68D
:1020E800F7FF000EF86E0F0EF76403D00800F550E6
:1020F80007D06F00DBFFE9FF6F00DFFFEAFFEF505B
:10210800250AD8A440D20001B551D96EDA6ADE2A70
:10211800000EDD22000EC36F000EC26FC2C0C6F0F3
:10212800C3C0C7F0C469C569000E01019D6F000EE8
:1021380018D00001C681B551D96EDA6ADE2A000EC0
:10214800DD2248D00001C683F6D70001C685F3D743
:102158000001C687F0D70001C689EDD7000E9D6F34
:10216800010E9C6F37D00001B551D96EDA6A6F0045
:1021780078FF8CF16F0074FF8DF1600033F6F6FF85
:10218800600037F6F7FF000EF86E0F0EF76403D005
:102198000800F55007D06F00DBFFE9FF6F00DFFF95
:1021A800EAFFEF5001018E6F8F6B8F51000AD8A4A0
:1021B800D5D78E51200AD8B4CBD7030AD8B4CBD7F9
:1021C800080AD8B4C2D7060AD8B4B3D71D0AD8B4F7
:1021D800B9D7C4D701019C519D11D8B4C4D7000107
:1021E800C6B1C693B551D96EDA6A6F0078FF8CF123
:1021F8006F0074FF8DF1600033F6F6FF600037F66C
:10220800F7FF000EF86E0F0EF76403D00800F550C4
:1022180007D06F00DBFFE9FF6F00DFFFEAFFEF5039
:102228002A0AD8A42BD00001B551D96EDA6ADE2A61
:10223800000EDD226000DBF2D9FF6000DFF2DAFF7A
:102248006F007CFF8CF1020EDE266F007CFF8DF1A3
:10225800000EDD22600033F6D9FF600037F6DAFFA2
:102268006F0078FFC2F06F0074FFC3F0C3AF5AD09D
:10227800C681C26DC31FD8B0C32B54D00001B5515D
:10228800D96EDA6A6F0078FF8BF06F0074FF8CF0FC
:10229800FEEC21F060002CF2C2F0600030F2C3F0D6
:1022A80007D00001B551D96EDA6ADE2A000EDD22A8
:1022B800D00E01018C6FFF0E8D6F0001B551D96EE4
:1022C800DA6A6F0078FF8EF16F0074FF8FF160009B
:1022D8003BF6F6FF60003FF6F7FF000EF86E0F0EB4
:1022E800F76403D00800F55007D06F00DBFFE9FF63
:1022F8006F00DFFFEAFFEF500101906F916B8C5187
:1023080090278D519123915106E10A0E905DD8B026
:1023180002D0010E01D0000E9E6F9F6B9E519F113F
:10232800D8A4BFD70001B551D96EDA6A6F0078FF1B
:102338008CF16F0074FF8DF1600033F6F6FF6000DA
:1023480037F6F7FF000EF86E0F0EF76403D008009B
:10235800F55007D06F00DBFFE9FF6F00DFFFEAFFF2
:10236800EF50640AD8B422D00001B551D96EDA6AA8
:102378006F0078FF8CF16F0074FF8DF1600033F609
:10238800F6FF600037F6F7FF000EF86E0F0EF764E1
:1023980003D00800F55007D06F00DBFFE9FF6F009E
:1023A800DFFFEAFFEF50690AD8A454D00001B55105
:1023B800D96EDA6ADE2A000EDD226000DBF2D9FF70
:1023C8006000DFF2DAFF6F007CFF8CF1020EDE2680
:1023D8006F007CFF8DF1000EDD22600033F6D9FF1F
:1023E800600037F6DAFF6F0078FF92F16F0074FF34
:1023F80093F10101000E93BFFF0E946F956F966FD6
:10240800976F986F996F6000CCF2A1F06000D0F2DE
:10241800A2F0600048F6A3F060004CF6A4F060005B
:1024280050F6A5F0600054F6A6F0600058F6A7F044
:1024380060005CF6A8F0600060F6A9F0600064F641
:10244800AAF0AEEC1CF0600084F2B3F0600088F2F1
:10245800B4F012000001B551D96EDA6A6F0078FF46
:102468008CF16F0074FF8DF1600033F6F6FF6000A9
:1024780037F6F7FF000EF86E0F0EF76403D008006A
:10248800F55007D06F00DBFFE9FF6F00DFFFEAFFC1
:10249800EF506E0AD8A434D00001B551D96EDA6A6B
:1024A800DE2A000EDD226000DBF2D9FF6000DFF2D9
:1024B800DAFF6F007CFF8CF1020EDE266F007CFFD6
:1024C8008DF1000EDD22600033F6D9FF600037F68B
:1024D800DAFF6F0078FF9AF16F0074FF9BF16000DC
:1024E8006BF6D9FF60006FF6DAFF600003F3DEFFDA
:1024F800600007F3DDFF000EB46F000EB36F12002B
:102508000001B551D96EDA6A6F0078FF8CF16F005F
:1025180074FF8DF1600033F6F6FF600037F6F7FFC1
:10252800000EF86E0F0EF76403D00800F55007D0C0
:102538006F00DBFFE9FF6F00DFFFEAFFEF50250ABE
:10254800D8A419D00001B551D96EDA6ADE2A000E76
:10255800DD22000E876F250E866F6000CCF288F0B2
:102568006000D0F289F068EC2CF0000E0001B46F26
:10257800010EB36F12000001B551D96EDA6ADE2A76
:10258800000EDD22B8D70001B551D96EDA6A6F00A6
:1025980078FF8CF16F0074FF8DF1600033F6F6FF61
:1025A800600037F6F7FF000EF86E0F0EF76403D0E1
:1025B8000800F55007D06F00DBFFE9FF6F00DFFF71
:1025C800EAFFEF5001018E6F8E510001866F876B15
:1025D8006000CCF288F06000D0F289F068EC2CF052
:1025E8000001B551D96EDA6ADE2A000EDD22BDD7A8
:1025F8004450D96EDA6A6F0078FF47F06F0074FFB5
:1026080048F060001FF1F6FF600023F1F7FF000EAD
:10261800F86E0F0EF76403D00800F55007D06F006E
:10262800DBFFE9FF6F00DFFFEAFFEF50250AD8A4C0
:102638002DD24450D96EDA6ADE2A000EDD22000E51
:102648000001C36F000EC26FC2C0C6F0C3C0C7F09E
:10265800C469C569000E586E000E18D00001C68105
:102668004450D96EDA6ADE2A000EDD2246D0000117
:10267800C683F6D70001C685F3D70001C687F0D711
:102688000001C689EDD7000E586E010E576E35D081
:102698004450D96EDA6A6F0078FF47F06F0074FF14
:1026A80048F060001FF1F6FF600023F1F7FF000E0D
:1026B800F86E0F0EF76403D00800F55007D06F00CE
:1026C800DBFFE9FF6F00DFFFEAFFEF50496E4A6A60
:1026D8004A50000AD8A4D7D74950200AD8B4CDD731
:1026E800030AD8B4CDD7080AD8B4C4D7060AD8B4D0
:1026F800B5D71D0AD8B4BBD7C6D757505810D8B4C9
:10270800C7D70001C6B1C6934450D96EDA6A6F00C4
:1027180078FF47F06F0074FF48F060001FF1F6FF84
:10272800600023F1F7FF000EF86E0F0EF76403D078
:102738000800F55007D06F00DBFFE9FF6F00DFFFEF
:10274800EAFFEF502A0AD8A42BD04450D96EDA6A8F
:10275800DE2A000EDD22600017F1D9FF60001BF1B0
:10276800DAFF6F007CFF47F0020EDE266F007CFF69
:1027780048F0000EDD2260001FF1D9FF600023F150
:10278800DAFF6F0078FFC2F06F0074FFC3F000013A
:10279800C3AF55D0C681C26DC31FD8B0C32B4FD0AD
:1027A8004450D96EDA6A6F0078FF08F06F0074FF42
:1027B80009F0FAEC22F0600020F0C2F0600024F08A
:1027C800C3F006D04450D96EDA6ADE2A000EDD2244
:1027D800D00E476EFF0E486E4450D96EDA6A6F000D
:1027E80078FF49F06F0074FF4AF0600027F1F6FFA8
:1027F80060002BF1F7FF000EF86E0F0EF76403D0A0
:102808000800F55007D06F00DBFFE9FF6F00DFFF1E
:10281800EAFFEF504B6E4C6A47504B2648504C220B
:102828004C5006E10A0E4B5CD8B002D0010E01D024
:10283800000E596E5A6A59505A10D8A4C3D744503A
:10284800D96EDA6A6F0078FF47F06F0074FF48F0BE
:1028580060001FF1F6FF600023F1F7FF000EF86E2D
:102868000F0EF76403D00800F55007D06F00DBFFA8
:10287800E9FF6F00DFFFEAFFEF50640AD8B421D008
:102888004450D96EDA6A6F0078FF47F06F0074FF22
:1028980048F060001FF1F6FF600023F1F7FF000E1B
:1028A800F86E0F0EF76403D00800F55007D06F00DC
:1028B800DBFFE9FF6F00DFFFEAFFEF50690AD8A4EA
:1028C80052D04450D96EDA6ADE2A000EDD2260004A
:1028D80017F1D9FF60001BF1DAFF6F007CFF47F0AA
:1028E800020EDE266F007CFF48F0000EDD2260003D
:1028F8001FF1D9FF600023F1DAFF6F0078FF4DF078
:102908006F0074FF4EF0000E4EBEFF0E4F6E506EFD
:10291800516E526E536E546E600008F11EF06000E6
:102928000CF11FF0600034F120F0600038F121F064
:1029380060003CF122F0600040F123F0600044F1B7
:1029480024F0600048F125F060004CF126F06000AA
:1029580050F127F017EC1EF0600078F042F06000AC
:102968007CF043F012004450D96EDA6A6F0078FFA9
:1029780047F06F0074FF48F060001FF1F6FF600039
:1029880023F1F7FF000EF86E0F0EF76403D008006E
:10299800F55007D06F00DBFFE9FF6F00DFFFEAFFAC
:1029A800EF506E0AD8A433D04450D96EDA6ADE2AC2
:1029B800000EDD22600017F1D9FF60001BF1DAFF7D
:1029C8006F007CFF47F0020EDE266F007CFF48F0A8
:1029D800000EDD2260001FF1D9FF600023F1DAFF4D
:1029E8006F0078FF55F06F0074FF56F0600057F1E4
:1029F800D9FF60005BF1DAFF600003F3DEFF6000DF
:102A080007F3DDFF000E436E000E426E12004450C5
:102A1800D96EDA6A6F0078FF47F06F0074FF48F0EC
:102A280060001FF1F6FF600023F1F7FF000EF86E5B
:102A38000F0EF76403D00800F55007D06F00DBFFD6
:102A4800E9FF6F00DFFFEAFFEF50250AD8A417D08F
:102A58004450D96EDA6ADE2A000EDD22000E046EBA
:102A6800250E036E600008F105F060000CF106F019
:102A7800BFEC2CF0000E436E010E426E1200445063
:102A8800D96EDA6ADE2A000EDD22BCD74450D96E30
:102A9800DA6A6F0078FF47F06F0074FF48F0600053
:102AA8001FF1F6FF600023F1F7FF000EF86E0F0E1E
:102AB800F76403D00800F55007D06F00DBFFE9FF8B
:102AC8006F00DFFFEAFFEF50496E4950036E046A5A
:102AD800600008F105F060000CF106F0BFEC2CF086
:102AE8004450D96EDA6ADE2A000EDD22C3D7C2EC62
:102AF80039F0BC6FBCBFF0D1040EBC19D8B4ECD10E
:102B0800010E0101446FE30EA66FFF0EA76F0001CF
:102B1800BC510101A86FA96BA8BFA90784EC39F0C3
:102B2800ACD1D051D8A40ED0010ED06FF8C1C8F0E6
:102B3800C96BBDEC3BF0600030F22BF1600034F261
:102B48002CF1C2D1D005D8A4C2D0C8C0F8F1010E6A
:102B58000101556F5705D8A4BAD0000E576F010E62
:102B68004F6FB5D0D051D8A405D0020ED06FF9C19F
:102B7800C8F0DED7020ED019D8A4A9D0C8C0F9F180
:102B8800010E0101566FEA0E0001856F600E846F19
:102B98000101F951030D6F00CCFF86F06F00D0FFE3
:102BA80087F0C9EC33F0600010F237F1600014F2DE
:102BB80038F1EA0E856F600E846F6000E4F786F0E6
:102BC800876BC9EC33F0010137510001845D0101C5
:102BD800356F3851000185590101366F78D0D051D1
:102BE800D8A405D0030ED06FF7C1C8F0A1D7030E43
:102BF800D019D8A46CD0C8C0F7F1010E0101536FE9
:102C080066D0D051D8A405D0040ED06FFAC1C8F050
:102C18008FD7040ED019D8A45AD0C8C0FAF1010E23
:102C28000101546F5751D8A452D0010E576F010EAD
:102C38004F6F4DD0D051D8A41AD0050ED06FF6C121
:102C4800C8F0C96BBDEC3BF0600030F22BF16000BE
:102C580034F22CF10101F851FA19D8B435D1575191
:102C6800D8A432D1F8C1FAF1010E546F2DD1050E56
:102C7800D019D8A42CD0C8C0F6F1010E0101506FAC
:102C88005751D8B4D2D723D0D051D8A405D0070EE5
:102C9800D06FF4C1C8F04CD7070ED019D8A417D0FC
:102CA800C8C0F4F1010E0101516F11D0D051D8A460
:102CB80005D0060ED06FF5C1C8F03AD7060ED01968
:102CC800D8A405D0C8C0F5F1010E0101526F000E5D
:102CD8000001D06FF9D0D051D8B4F6D0BDEC3BF09C
:102CE800600030F22BF1600034F22CF140D0010E7C
:102CF800C825C86F000EC921C96FC95104E1510E1A
:102D0800C85DD8A0E1D0000EC96F500E96D0010E54
:102D1800C825C86F000EC921C96FC95104E11A0E30
:102D2800C85DD8A0D1D0000EC96F190E86D0010E8B
:102D3800C825C86F000EC921C96FC95104E11F0E0B
:102D4800C85DD8A0C1D0000EC96F1E0E76D0140E73
:102D5800C825C86F000EC921C96F210EC85D030EB2
:102D6800C959D8A0B1D0030EC96F200E66D0D05172
:102D7800BA6FBB6BBB51000AD8A4A6D0BA51010ADE
:102D8800D8B4B5D7030AD8B4D2D7010AD8B4BFD7B4
:102D9800070AD8B4ACD7010AD8B4D9D7030AD8B42B
:102DA800D6D7010AD8B4D3D78FD0D051D8B48CD0C5
:102DB800BDEC3BF0600030F22BF1600034F22CF1F6
:102DC8003ED0FF0EC825C86FFF0EC921C96FC95173
:102DD8007BE1040EC85DD8B077D0000EC96F040E31
:102DE8002CD0FF0EC825C86FFF0EC921C96FC95165
:102DF8006BE1040EC85DD8A0F0D766D0FF0EC825D9
:102E0800C86FFF0EC921C96FC9515EE10A0EC85DBE
:102E1800D8B05AD0000EC96F0A0E0FD0EC0EC825D4
:102E2800C86FFF0EC921C96FC9514EE1640EC85D54
:102E3800D8B04AD0000EC96F640EC86F45D0D051C3
:102E4800BA6FBB6BBB51000AD8A43ED0BA51010A75
:102E5800D8B4B7D7030AD8B4D1D7010AD8B4C1D7E0
:102E6800070AD8B4AED7010AD8B4D8D7030AD8B459
:102E7800D5D7010AD8B4D2D727D06000F0F2BAF07B
:102E88000001BB6BBABFBB07BB51000AD8A41CD05A
:102E9800BA51000AD8B445D6010AD8B4A0D6030A54
:102EA800D8B460D6010AD8B480D7060AD8B413D7E4
:102EB800030AD8B4A6D6010AD8B4BCD60F0AD8B427
:102EC800E3D6010AD8B4F2D6010E01015A6F010EF9
:102ED800596F010E446F1200D051D8B4120060002F
:102EE800ACF48CF06000B0F48DF0130E8F6F880E88
:102EF8008E6F3CEC38F00009D8B41200010E0101C5
:102F0800596F010E5A6F000E0001D06F12000101B7
:102F18005951D8B440D1ABEC3BF00009D8A43BD10F
:102F2800000E0101596F0001D051D8B408D0060E27
:102F3800D019D8B404D0070ED019D8A436D00101BE
:102F48005751D8A417D0670EA66F020EA76F970E19
:102F5800A86FFD0EA96F6000E4F7AAF1AB6B6000E3
:102F6800DCF7ACF1AD6B6000E0F7AEF1AF6B9CEC59
:102F780033F0F7D0670EA66F020EA76FC00EA86FCA
:102F8800FD0EA96F6000E4F7AAF1AB6B6000DCF7F7
:102F9800ACF1AD6B6000E8F7AEF1AF6B6000D8F74D
:102FA800B0F1B16B9CEC33F0DCD0020ED019D8A490
:102FB8003AD001015751D8A419D0670EA66F020E56
:102FC800A76FAC0EA86FFD0EA96F600020F3AAF1E1
:102FD800600024F3ABF16000DCF7ACF1AD6B60008E
:102FE800E0F7AEF1AF6B9CEC33F0BBD0670EA66F89
:102FF800020EA76FC00EA86FFD0EA96F600020F328
:10300800AAF1600024F3ABF16000DCF7ACF1AD6B22
:103018006000E8F7AEF1AF6B6000D8F7B0F1B16BC4
:103028009CEC33F09ED0030ED019D8A43AD00101FD
:103038005751D8A419D0670EA66F020EA76FAC0E11
:10304800A86FFD0EA96F6000E4F7AAF1AB6B6000F2
:1030580020F3ACF1600024F3ADF16000E0F7AEF1CD
:10306800AF6B9CEC33F07DD0670EA66F020EA76F96
:10307800C00EA86FFD0EA96F6000E4F7AAF1AB6B54
:10308800600020F3ACF1600024F3ADF16000E8F7D4
:10309800AEF1AF6B6000D8F7B0F1B16B9CEC33F0D8
:1030A80060D0D005D8A41AD0670E0101A66F020E11
:1030B800A76FAC0EA86FFD0EA96F6000E4F7AAF128
:1030C800AB6B6000DCF7ACF1AD6B600020F3AEF1E8
:1030D800600024F3AFF19CEC33F043D0040ED01918
:1030E800D8A41ED0670E0101A66F020EA76FC00EEE
:1030F800A86FFD0EA96F6000E4F7AAF1AB6B600042
:10310800DCF7ACF1AD6B600020F3AEF1600024F3A6
:10311800AFF16000D8F7B0F1B16B9CEC33F021D07F
:10312800050ED019D8A41DD0670E0101A66F020E96
:10313800A76FC00EA86FFD0EA96F6000E4F7AAF193
:10314800AB6B6000DCF7ACF1AD6B6000E8F7AEF19B
:10315800AF6B600020F3B0F1600024F3B1F19CEC98
:1031680033F0670E0101A66F020EA76F84EC39F0E9
:10317800000E00019B6F000EC4EC36F0670E936FD3
:10318800020E946FDAEC24F0D051D8B41200010E7C
:103198000101456F120001015A51D8B458D0ABEC67
:1031A8003BF00009D8A453D0000E01015A6F4451D6
:1031B800D8B43AD0000E446F060E0001D019D8A436
:1031C80012D07B0E0101A66F020EA76F4A0EA86FE0
:1031D800FE0EA96F600020F3AAF1600024F3ABF1A2
:1031E8009CEC33F021D0070ED019D8A412D07B0E56
:1031F8000101A66F020EA76F5C0EA86FFE0EA96FE5
:10320800600020F3AAF1600024F3ABF19CEC33F0EA
:103218000BD07B0E0101A66F020EA76FC60EA86F1A
:10322800FE0EA96F9CEC33F07B0EA66F020EA76F03
:1032380084EC39F0010E00019B6F000EC4EC36F0EF
:103248007B0E936F020E946FDAEC24F09DD7010188
:103258004551D8B41200ABEC3BF00009D8A41200D9
:10326800000E0101456F1ED0000E9B6F010EC4ECCD
:1032780036F01200000E9B6F040EC4EC36F01200FC
:10328800000E9B6F080EC4EC36F01200000E9B6F08
:103298000B0EC4EC36F01200000E9B6F0F0EC4EC40
:1032A80036F012000001D051BA6FBB6BBB51000A57
:1032B800D8A41200BA51010AD8B4E2D7030AD8B484
:1032C800D3D7010AD8B4D6D7070AD8B4DFD7010AAA
:1032D800D8A41200E1D79551800B9E6F9551952582
:1032E800A06F94BFA081A051D8B40DD0A029D8A4B4
:1032F80008D0000E926F000E936F000E946F000EB0
:10330800956F948F06D0000E926F000E936F000E8B
:10331800946F000E956F9951800B9F6F9E519F1966
:10332800D8A49E8D995199259F6F98BF9F819F51D1
:10333800D8B40DD09F29D8A408D0000E966F000EDF
:10334800976F000E986F000E996F988F06D0000E39
:10335800966F000E976F000E986F000E996FA05130
:103368009F5DD8B031D09EAD02D0800E9E1B60000C
:1033780080F2A1F060007CF2A0F0600084F29FF07F
:10338800600048F2A1F0600058F292F0600084F208
:1033980096F060004CF2A1F060005CF293F06000DF
:1033A80084F297F0600050F2A1F0600060F294F0AF
:1033B800600084F298F0600054F2A1F0600064F2BA
:1033C80095F0600084F299F0000EA16FA0516000A2
:1033D8007CF29AF09B6B9A5F000E9B5B9BBF2DD093
:1033E8009B5104E11A0E9A5DD8A027D092519311EF
:1033F80094119511D8B402D0010E01D0000EA16F1E
:10340800000E926F000E936F000E946F000E956F72
:1034180060007CF2A0F015D0A1A105D0D890A13110
:103428000109A16F02D0D890A13392B1A18F95352F
:103438009533943393339233A02B9F51A05DD8A03A
:10344800EBD79EBD28D0A051D8A409D0000E926F0A
:10345800000E936F000E946F000E956F1200965138
:10346800922797519323985194239951952395A185
:1034780071D0A1A105D0D890A1310109A16F02D0C6
:10348800D890A13392B1A18F953595339433933366
:103498009233A02B5FD09651925D975193599851D2
:1034A80094599551800A9A6F9951800A9A59D8B0BF
:1034B80025D09251965D9A6F935197599B6F94516D
:1034C80098599C6F955199599D6FFF0E9A25926F47
:1034D800FF0E9B21936FFF0E9C21946FFF0E9D2181
:1034E800956F800E9E1BA16DA151D8A40FD0010E1F
:1034F8009227000E93239423952308D09651925F28
:103508009751935B9851945B9951955B92519311A4
:1035180094119511D8A41CD0A151D8A419D0000E8B
:10352800926F000E936F000E946F000E956F12004D
:10353800D8909237933794379537A1BF9281A1A13C
:1035480002D0D88001D0D890A137A051D8A4A00724
:1035580094AFEED7000E9F6FA1AF0CD0600084F23D
:103568009AF07F0E9A17D8B403D0010E9F6F02D03D
:1035780092B1FBD79F51D8B428D0010E9227000EE4
:1035880093239423952395A120D0600048F29AF0C4
:1035980060004CF29BF0600050F29CF0600054F226
:1035A8009DF09D359D339C339B339A33600068F2C0
:1035B80092F060006CF293F0600070F294F060009A
:1035C80074F295F0A029D8A4A02BA029D8B403D0D0
:1035D800A051D8A40DD0000E926F000E936F000E6C
:1035E800946F000E956FA051D8A402D0000E9E6F64
:1035F800A0A102D0948F01D0949FD890A031956F4C
:103608009EBF958F600048F292F060004CF293F0F4
:10361800600050F294F0600054F295F012005CECF7
:103628003BF0600004F076F0600008F077F00001ED
:10363800786B796B600060F37AF0D82B030ED81999
:10364800D8A402D0000ED86F020ED86104D03E0173
:10365800F89F000E03D03E01F89F030EFD6F000196
:10366800D851C8EC34F000EC3CF0030E00017A614C
:1036780064D17A51040D5C0EF324D96E010EF42046
:10368800DA6E6000DBF1DEFF6000DFF1DEFF600074
:10369800E3F1DEFF6000E7F1DEFF400E7A25D96E28
:1036A800DA6A020EDA22DF2A400E7A25D96EDA6A41
:1036B800020EDA22DF50D8A408D0400E7A25D96E3F
:1036C800DA6A020EDA22010EDF6E7A51D8A41200ED
:1036D8006000D8F16EF06000DCF16FF06000E0F19E
:1036E80070F06000E4F171F0020ED8906E376F3719
:1036F80070377137E82EF9D76000A0F501F0600047
:10370800A4F502F06000A8F503F06000ACF504F041
:10371800030E056E000E066E000E076E000E086E94
:1037280012EC33F06E510124726F6F510220736FE7
:1037380070510320746F71510420756F030E05D00A
:10374800D8907533743373337233E82EF9D7600029
:10375800C8F168F16000CCF169F16000D0F16AF15C
:103768006000D4F16BF16000D8F16EF06000DCF11C
:103778006FF06000E0F170F06000E4F171F0040EA9
:10378800D8906E376F3770377137E82EF9D76000E9
:10379800B0F501F06000B4F502F06000B8F503F090
:1037A8006000BCF504F00F0E056E000E066E000EEC
:1037B800076E000E086E12EC33F06E510124726F22
:1037C8006F510220736F70510320746F7151042080
:1037D800756F050E05D0D890753374337333723313
:1037E800E82EF9D76000C8F16CF16000CCF16DF1FA
:1037F8006000D0F16EF16000D4F16FF16000D8F193
:103808006EF06000DCF16FF06000E0F170F06000D5
:10381800E4F171F0060ED8906E376F377037713754
:10382800E82EF9D76000C0F501F06000C4F502F099
:103838006000C8F503F06000CCF504F03F0E056E9B
:10384800000E066E000E076E000E086E12EC33F0C6
:103858006E510124726F6F510220736F70510320F3
:10386800746F71510420756F070E05D0D8907533A9
:10387800743373337233E82EF9D76000C8F170F1EE
:103888006000CCF171F16000D0F172F16000D4F108
:1038980073F16000D8F16EF06000DCF16FF0600049
:1038A800E0F170F06000E4F171F0090ED8906E3725
:1038B8006F3770377137E82EF9D76000D0F501F00F
:1038C8006000D4F502F06000D8F503F06000DCF584
:1038D80004F0FF0E056E010E066E000E076E000E58
:1038E800086E12EC33F06E510124726F6F51022092
:1038F800736F70510320746F71510420756F0A0E35
:1039080005D0D8907533743373337233E82EF9D7F2
:103918006000C8F174F16000CCF175F16000D0F17D
:1039280076F16000D4F177F140C243F240C244F22C
:1039380040C245F240C246F21200BA94BA96EC0E62
:10394800666FFF0E676F000E696F650E686FE8ECB3
:1039580039F0120060008CF282F1600090F283F17D
:10396800600094F284F1600098F285F160009CF2A6
:1039780086F16000A0F287F16000A4F288F160008F
:10398800A8F289F189AF02D0010E01D0000E806F34
:10399800816B80518111D8B410D0891F881F871F6F
:1039A800861F851F841F831F826D000E8323842337
:1039B800852386238723882389230001C5AFC693DF
:1039C800C5BF05D0C55109E1C405D8B006D0000E61
:1039D80001017D6F010E7C6F06D0600010F37CF151
:1039E800600014F37DF1600008F37EF160000CF3D1
:1039F8007FF1010180518111D8A403D00001C6A52F
:103A080004D001017E07D8A07F07000E01018B6F4B
:103A18001F0E8A6F000E0201666FA2D001018A078D
:103A2800D8A08B07470E8A25D96E020E8B21DA6E35
:103A3800600008F684F060000CF685F0600010F66F
:103A480086F0600014F687F0600018F688F06000D1
:103A58001CF689F0600020F68AF0600024F68BF0EE
:103A68000A0E00018C6F000E8D6F000E8E6F000E17
:103A78008F6F000E906F000E916F000E926F000E08
:103A8800936FA2EC27F0600010F2ABF0600014F224
:103A9800ACF0600018F2ADF060001CF2AEF060000F
:103AA80020F2AFF0600024F2B0F0600028F2B1F02C
:103AB80060002CF2B2F06000ACF296F06000B4F254
:103AC80097F067EC36F09651300FDF6E01017C07F6
:103AD800D8A07D077E07D8A07F07600008F684F08D
:103AE80060000CF685F0600010F686F0600014F6B1
:103AF80087F0600018F688F060001CF689F0600016
:103B080020F68AF0600024F68BF00A0E00018C6F14
:103B1800000E8D6F000E8E6F000E8F6F000E906F6F
:103B2800000E916F000E926F000E936F4AEC26F014
:103B3800600010F282F1600014F283F1600018F264
:103B480084F160001CF285F1600020F286F16000CB
:103B580024F287F1600028F288F160002CF289F1E4
:103B680001018BBF20D08B5103E18A05D8A01BD05F
:103B78008251831184118511861187118811891149
:103B8800D8A44CD77DBF05D07D5102E17C05D8B0C3
:103B980045D77FBF08D07F5103E17E05D8A003D069
:103BA8000001C6B33BD7010180518111D8A403D0CD
:103BB8000001C6A519D001018A07D8A08B0780513A
:103BC8008111D8A404D0000E7B6F2B0E03D0000EF9
:103BD8007B6F2D0E7A6F470E8A25D96E020E8B21C8
:103BE800DA6E6000EBF5DFFF600084F296F06000AB
:103BF80088F297F0470E01018A250001986F020E9E
:103C080001018B210001996F6000F8F59AF06000BE
:103C1800FCF59BF05FEC2BF0600058F2A1F060001F
:103C28005CF2A2F01200600080F038F0600084F0CE
:103C380039F0600088F03AF060008CF03BF06000EA
:103C480090F03CF0600094F03DF0600098F03EF099
:103C580060009CF03FF03FAE02D0010E01D0000E94
:103C6800366E376A36503710D8B410D03F1E3E1E15
:103C78003D1E3C1E3B1E3A1E391E386C000E392272
:103C88003A223B223C223D223E223F220001C5AF80
:103C9800C693C5BF05D0C55108E1C405D8B005D045
:103CA800000E336E010E326E06D0600010F332F053
:103CB800600014F333F0600008F334F060000CF394
:103CC80035F036503710D8A402D0C6A503D0340634
:103CD800D8A03506000E416E1F0E406E000E020180
:103CE800666F9ED04006D8A04106470E4024D96E84
:103CF800020E4120DA6E6000E0F001F06000E4F0AE
:103D080002F06000E8F003F06000ECF004F06000FE
:103D1800F0F005F06000F4F006F06000F8F007F04D
:103D28006000FCF008F00A0E096E000E0A6E000E24
:103D38000B6E000E0C6E000E0D6E000E0E6E000E59
:103D48000F6E000E106E3CEC28F0600004F028F0B6
:103D5800600008F029F060000CF02AF0600010F014
:103D68002BF0600014F02CF0600018F02DF06000CB
:103D78001CF02EF0600020F02FF06000A0F013F08F
:103D88006000A8F014F0A5EC36F01350300FDF6E89
:103D98003206D8A033063406D8A035066000E0F015
:103DA80001F06000E4F002F06000E8F003F0600069
:103DB800ECF004F06000F0F005F06000F4F006F0BC
:103DC8006000F8F007F06000FCF008F00A0E096ED9
:103DD800000E0A6E000E0B6E000E0C6E000E0D6EBD
:103DE800000E0E6E000E0F6E000E106EF6EC26F032
:103DF800600004F038F0600008F039F060000CF062
:103E08003AF0600010F03BF0600014F03CF0600005
:103E180018F03DF060001CF03EF0600020F03FF02C
:103E280041BE20D0415003E14004D8A01BD03850F7
:103E380039103A103B103C103D103E103F10D8A4EA
:103E480051D733BE05D0335002E13204D8B04AD737
:103E580035BE08D0355003E13404D8A003D00001A2
:103E6800C6B340D736503710D8A403D00001C6A532
:103E780018D04006D8A0410636503710D8A404D030
:103E8800000E316E2B0E03D0000E316E2D0E306EEB
:103E9800470E4024D96E020E4120DA6E6000C3F04E
:103EA800DFFF600078F013F060007CF014F0470E3C
:103EB8004024156E020E4120166E6000D0F017F0F7
:103EC8006000D4F018F0AAEC2AF060004CF01EF064
:103ED800600050F01FF01200756F390191970001D2
:103EE8007551040D5C0EF324D96E010EF420DA6EC0
:103EF8006F0078FF76F06F0078FF77F06F0078FF3B
:103F080078F06F0078FF79F0400E7525D96EDA6A7F
:103F1800020EDA22DF50746F390191870001745163
:103F2800D8A466D0000E12006000D8F170F06000CE
:103F3800DCF171F06000E0F172F06000E4F173F020
:103F48000A0E05D0D8907333723371337033E82E6C
:103F5800F9D741D06000D8F170F06000DCF171F061
:103F68006000E0F172F06000E4F173F0070E05D034
:103F7800D8907333723371337033E82EF9D72BD05E
:103F88006000D8F170F06000DCF171F06000E0F1E1
:103F980072F06000E4F173F0050E05D0D890733329
:103FA800723371337033E82EF9D715D06000D8F129
:103FB80070F06000DCF171F06000E0F172F0600018
:103FC800E4F173F0030E05D0D89073337233713374
:103FD8007033E82EF9D76000C0F176F06000C4F1C4
:103FE80077F06000C8F178F06000CCF179F09FD0EC
:103FF8007551706F716B7151000AD8A498D07051C7
:10400800030AD8B4D3D7070AD8B4BAD7010AD8B4A0
:10401800A1D7030AD8B488D78AD06000C8F770F04F
:104028006000CCF771F0000E71BFFF0E726F736FF6
:104038007051765D71517759725178597351795928
:10404800D8B022D06000C8F770F06000CCF771F0EB
:10405800000E71BFFF0E726F736F7651705D766FD1
:1040680077517159776F78517259786F79517359BF
:10407800796F6000D8F170F06000DCF171F0701FAA
:10408800711F704B712B39D06000C8F770F0600059
:10409800CCF771F0000E71BFFF0E726F736F705125
:1040A800765D766F71517759776F72517859786F5D
:1040B80073517959796F6000BBF1D9FF6000BFF186
:1040C800DAFF6000DBF1DEFF6000DFF1DDFF010EEB
:1040D80012000101F0510001765D706F0101F1518C
:1040E80000017759716F09D06000D8F170F0600055
:1040F800DCF171F0D890703771376000BBF1D9FFEF
:104108006000BFF1DAFF6000C3F1DEFF6000C7F1B5
:10411800DDFFDDD7BA94BA96EC0E666FFF0E676FB7
:10412800000E696F680E686FE8EC39F0120075517F
:10413800706F716B7151000AD8A4ECD77051000AE6
:10414800D8B46BD7010AD8B4C4D7030AD8B4CCD72B
:10415800010AD8B462D7070AD8B45FD7010AD8B41D
:104168005CD7030AD8B459D7D5D7C36F390191970B
:104178000101C351040D5C0EF324D96E010EF42025
:10418800DA6E6F0078FFC4F16F0078FFC5F16F0039
:1041980078FFC6F16F0078FFC7F1400EC325D96ECE
:1041A800DA6A020EDA22DF50C26F39019187010103
:1041B800C251D8A466D0000E1200600010F7BEF1FC
:1041C800600014F7BFF1600018F7C0F160001CF739
:1041D800C1F10A0E05D0D890C133C033BF33BE3306
:1041E800E82EF9D741D0600010F7BEF1600014F74F
:1041F800BFF1600018F7C0F160001CF7C1F1070EAD
:1042080005D0D890C133C033BF33BE33E82EF9D7B9
:104218002BD0600010F7BEF1600014F7BFF160000A
:1042280018F7C0F160001CF7C1F1050E05D0D89051
:10423800C133C033BF33BE33E82EF9D715D0600081
:1042480010F7BEF1600014F7BFF1600018F7C0F175
:1042580060001CF7C1F1030E05D0D890C133C033FC
:10426800BF33BE33E82EF9D76000F8F6C4F160001A
:10427800FCF6C5F1600000F7C6F1600004F7C7F16D
:104288009BD0C351BE6FBF6BBF51000AD8A494D056
:10429800BE51030AD8B4D3D7070AD8B4BAD7010A8B
:1042A800D8B4A1D7030AD8B488D786D06000C8F795
:1042B800BEF16000CCF7BFF1000EBFBFFF0EC06FAC
:1042C800C16FBE51C45DBF51C559C051C659C15116
:1042D800C759D8B022D06000C8F7BEF16000CCF74B
:1042E800BFF1000EBFBFFF0EC06FC16FC451BE5DEE
:1042F800C46FC551BF59C56FC651C059C66FC751A4
:10430800C159C76F600010F7BEF1600014F7BFF124
:10431800BE1FBF1FBE4BBF2B35D06000C8F7BEF114
:104328006000CCF7BFF1000EBFBFFF0EC06FC16FBA
:10433800BE51C45DC46FBF51C559C56FC051C65980
:10434800C66FC151C759C76F6000F3F6D9FF600047
:10435800F7F6DAFF600013F7DEFF600017F7DDFFFE
:10436800010E1200F051C45DBE6FF151C559BF6F07
:1043780009D0600010F7BEF1600014F7BFF1D890C3
:10438800BE37BF376000F3F6D9FF6000F7F6DAFFF3
:104398006000FBF6DEFF6000FFF6DDFFE1D7BA94B0
:1043A800BA96EC0EA66FFF0EA76F000EA96F680EE7
:1043B800A86F84EC39F01200C351BE6FBF6BBF51B8
:1043C800000AD8A4ECD7BE51000AD8B46FD7010AA6
:1043D800D8B4C8D7030AD8B4CCD7010AD8B466D79A
:1043E800070AD8B463D7010AD8B460D7030AD8B487
:1043F8005DD7D5D7000E996F000E986F000E926F9B
:10440800000E916F02D08B4B8C2B010E976F6000C2
:104418002FF2F6FF600033F2F7FF000EF86E0F0E72
:10442800F76403D00800F55007D06F00DBFFE9FF01
:104438006F00DFFFEAFFEF50200AD8B429D0F70E4B
:1044480000018D6FFF0E8E6F60002FF2F6FF600087
:1044580033F2F7FF000EF86E0F0EF76403D0080072
:10446800F55007D06F00DBFFE9FF6F00DFFFEAFFC1
:10447800EF5000018F6F906B8D518F278E519023D5
:10448800905104E1050E8F5DD8A002D0000E976F01
:1044980060005CF293F00001946B93519411D8B4CE
:1044A80008D0B1D7000E926F010E916F8B4B8C2BF9
:1044B80052D060002FF2F6FF600033F2F7FF000ED3
:1044C800F86E0F0EF76403D00800F55007D06F00A0
:1044D800DBFFE9FF6F00DFFFEAFFEF5000018D6FA0
:1044E8008E6B8E51000AD8A436D08D512B0AD8B4C1
:1044F800DDD7060AD8B4D6D72ED0600060F284F093
:10450800600064F285F0000E876F0A0E866F40EC3B
:1045180039F060002FF2F6FF600033F2F7FF000E6B
:10452800F86E0F0EF76403D00800F55007D06F003F
:10453800DBFFE9FF6F00DFFFEAFFEF5000018D6F3F
:104548008D51845F000E855B300E8425986F000EB8
:104558008521996FABD7D00E8D6FFF0E8E6F6000DF
:104568002FF2F6FF600033F2F7FF000EF86E0F0E21
:10457800F76403D00800F55007D06F00DBFFE9FFB0
:104588006F00DFFFEAFFEF5000018F6F906B8D51D6
:104598008F278E519023905106E10A0E8F5DD8B077
:1045A80002D0010E01D0000E956F966B95519611B1
:1045B800D8A4A3D791519211D8A411D0600060F269
:1045C8008DF0600064F28EF08D1F8E1F8D4B8E2B48
:1045D800600034F28BF0600038F28CF0120060005A
:1045E80060F28BF0600064F28CF01200000E166E20
:1045F800000E156E000E0F6E000E0E6E02D0084AE9
:10460800092A010E146E600023F0F6FF600027F0FF
:10461800F7FF000EF86E0F0EF76403D00800F55090
:1046280007D06F00DBFFE9FF6F00DFFFEAFFEF5005
:10463800200AD8B427D0F70E0A6EFF0E0B6E600062
:1046480023F0F6FF600027F0F7FF000EF86E0F0E5C
:10465800F76403D00800F55007D06F00DBFFE9FFCF
:104668006F00DFFFEAFFEF500C6E0D6A0A500C2650
:104678000B500D220D5004E1050E0C5CD8A002D0A1
:10468800000E146E600050F010F0116A10501110F6
:10469800D8B408D0B4D7000E0F6E010E0E6E084ABB
:1046A800092A50D0600023F0F6FF600027F0F7FFDA
:1046B800000EF86E0F0EF76403D00800F55007D00F
:1046C8006F00DBFFE9FF6F00DFFFEAFFEF500A6EC4
:1046D8000B6A0B50000AD8A435D00A502B0AD8B45C
:1046E800DED7060AD8B4D7D72DD0600054F001F031
:1046F800600058F002F0000E046E0A0E036E57ECCC
:1047080039F0600023F0F6FF600027F0F7FF000E95
:10471800F86E0F0EF76403D00800F55007D06F004D
:10472800DBFFE9FF6F00DFFFEAFFEF500A6E0A5078
:10473800015E000E025A300E0124156E000E022092
:10474800166EADD7D00E0A6EFF0E0B6E600023F00A
:10475800F6FF600027F0F7FF000EF86E0F0EF76403
:1047680003D00800F55007D06F00DBFFE9FF6F00AA
:10477800DFFFEAFFEF500C6E0D6A0A500C260B5053
:104788000D220D5006E10A0E0C5CD8B002D0010EC5
:1047980001D0000E126E136A12501310D8A4A5D7B8
:1047A8000E500F10D8A411D0600054F00AF0600029
:1047B80058F00BF00A1E0B1E0A4A0B2A600028F05C
:1047C80008F060002CF009F01200600054F008F0C6
:1047D800600058F009F012000101C86FE5EC35F0EF
:1047E8000101CA6FE4EC3CF00101C96FA20EA66F8B
:1047F800FF0EA76F600028F7A8F1A96B84EC39F0C9
:104808000101C951D8A414D07B0EA66F020EA76F60
:10481800700EA86FFF0EA96F9CEC33F0010E5A6F53
:10482800BD80D90EA66FFF0EA76F84EC39F018D0A3
:10483800BDA016D0C951D8B413D07B0EA66F020EF6
:10484800A76FC60EA86FFE0EA96F9CEC33F0010E81
:104858005A6FBD90C10EA66FFF0EA76F84EC39F09A
:104868000101CA05D8B41200CB0EBC6F010EBD6F92
:10487800020EB9EC20F00101CB51335D3451800AAE
:104888000001BA6F0101CC51800A0001BA59D8B0B1
:1048980007D001013351CB5DCB6F3451CC5906D0D1
:1048A8000101CB51335DCB6FCC513459CC6FCCBFA8
:1048B8000AD0CC5104E1970ECB5DD8A004D0800E6D
:1048C800C6EC3BF003D0800ECFEC3BF05705D8A4E4
:1048D80005D0C851040902018F6F03D0600020F78A
:1048E8008FF2F8C190F201015551D8B402D00201FB
:1048F800908FF7C191F201015351D8B402D002014F
:10490800918FF9C192F201015651D8B402D0020137
:10491800928FFAC193F201015451D8B402D0020126
:10492800928FF6C194F201015051D8B402D002011D
:10493800948FF5C195F201015251D8B402D0020109
:10494800958FF4C196F201015151D8B402D00201F9
:10495800968F4EC197F24CC198F28BEC37F001015B
:10496800CA6FB20EA66FFF0EA76F600028F7A8F1F6
:10497800A96B84EC39F08F0E0001846F020E856FED
:10498800000E876F0A0E866F54EC3AF0000E5FEC4B
:1049980035F00101CA6FB20EA66FFF0EA76F600057
:1049A80028F7A8F1A96B84EC39F01200000E966F75
:1049B80093D0000E00019625D96EDA6A030EDA222A
:1049C80060004FF2F6FF600053F2F7FF000EF86E3A
:1049D8000F0EF76403D00800F55007D06F00DBFF17
:1049E800E9FF6F00DFFFEAFFEF50F00B0001D11184
:1049F8000509DF6E962B000E9625D96EDA6A030E2E
:104A0800DA2260004FF2F6FF600053F2F7FF000E63
:104A1800F86E0F0EF76403D00800F55007D06F004A
:104A2800DBFFE9FF6F00DFFFEAFFEF50F00B00014B
:104A3800D111FB09DF6E962B000E9625D96EDA6A26
:104A4800030EDA2260004FF2F6FF600053F2F7FF20
:104A5800000EF86E0F0EF76403D00800F55007D06B
:104A68006F00DBFFE9FF6F00DFFFEAFFEF50000197
:104A7800956F0F0E95179539F00BD1110509DF6E5B
:104A8800962B000E9625D96EDA6A030EDA2260009C
:104A98004FF2F6FF600053F2F7FF000EF86E0F0EAC
:104AA800F76403D00800F55007D06F00DBFFE9FF7B
:104AB8006F00DFFFEAFFEF500001956F0F0E9517AB
:104AC8009539F00BD111FB09DF6E962B934B942B84
:104AD8004F0E966501D018D060004FF2F6FF6000C7
:104AE80053F2F7FF000EF86E0F0EF76403D00800BC
:104AF800F55007D06F00DBFFE9FF6F00DFFFEAFF2B
:104B0800EF500009D8A455D7BFEC37F0000E846FDA
:104B1800030E856F600058F286F0876B54EC3AF00C
:104B2800C6EC3CF012008C6F00018C51D8A487AF02
:104B380022D0600010F288F0600014F289F0600062
:104B480018F28AF060001CF28BF0881F891F8A1FF8
:104B58008B1F882B000E89238A238B23600020F269
:104B68008EF0600024F28FF0600028F290F0600070
:104B78002CF291F00CD0600010F28EF0600014F26C
:104B88008FF0600018F290F060001CF291F08451F0
:104B9800851186118711D8A409D0000E846F000EE4
:104BA800856F000E866F000E876F1200960E8D6F50
:104BB80006D08D2BD890913390338F338E33000EDF
:104BC8008E15886F000E8F15896F000E90158A6FED
:104BD800FE0E91158B6F885189118A118B11D8B4EB
:104BE8000DD0E7D78D2B010E8E27000E8F23902333
:104BF8009123D890913390338F338E33000E8E15D6
:104C0800886F000E8F15896F000E90158A6FFF0E42
:104C180091158B6F885189118A118B11D8B407D0DF
:104C2800E1D78D07D8908E378F379037913790BF5F
:104C380003D0020E8D61F5D78DA1909FD8908D334A
:104C4800600034F288F0896B8A6B8B6B600020F20D
:104C58008BF08A6B896B886B88518E1389518F13FF
:104C68008A5190138B5191138C51D8A487AF01D0DE
:104C7800918F600038F284F060003CF285F06000AB
:104C880040F286F0600044F287F01200000E956F43
:104C980093AF12D0931F921F911F901F8F1F8E1FCB
:104CA8008D1F8C6D000E8D238E238F2390239123CF
:104CB80092239323010E956F8BAF12D08B1F8A1FFF
:104CC800891F881F871F861F851F846D000E8523F7
:104CD80086238723882389238A238B23010E951B08
:104CE80020EE96F0070EDE6AE806FDE28C518D1183
:104CF8008E118F119011911192119311D8B446D041
:104D0800010E946F0AD0D8908C378D378E378F3735
:104D18009037913792379337942B93AFF4D7D89035
:104D280096379737983799379A379B379C379D37F7
:104D38008C51845D8D5185598E5186598F51875973
:104D4800905188599151895992518A5993518B5947
:104D5800D8A011D08C51845F8D51855B8E51865BB4
:104D68008F51875B9051885B9151895B92518A5B27
:104D780093518B5B9681D8909333923391339033D0
:104D88008F338E338D338C33942FC9D79551D8B444
:104D980010D09D1F9C1F9B1F9A1F991F981F971F1C
:104DA800966D000E9723982399239A239B239C237F
:104DB8009D23600058F284F060005CF285F060008A
:104DC80060F286F0600064F287F0600068F288F0B4
:104DD80060006CF289F0600070F28AF0600074F292
:104DE8008BF01200000E126E10AE12D0101E0F1EA5
:104DF8000E1E0D1E0C1E0B1E0A1E096C000E0A222A
:104E08000B220C220D220E220F221022010E126EEE
:104E180008AE12D0081E071E061E051E041E031E1D
:104E2800021E016C000E0222032204220522062221
:104E380007220822010E121A20EE13F0070EDE6A6E
:104E4800E806FDE209500A100B100C100D100E10A8
:104E58000F101010D8B446D0010E116E0AD0D89099
:104E680009360A360B360C360D360E360F36103626
:104E7800112A10AEF4D7D8901336143615361636D4
:104E88001736183619361A360950015C0A50025876
:104E98000B5003580C5004580D5005580E50065826
:104EA8000F50075810500858D8A011D00950015E6B
:104EB8000A50025A0B50035A0C50045A0D50055A06
:104EC8000E50065A0F50075A1050085A1380D8909F
:104ED80010320F320E320D320C320B320A320932D6
:104EE800112EC9D71250D8B410D01A1E191E181E68
:104EF800171E161E151E141E136C000E14221522E2
:104F080016221722182219221A2260004CF001F0EA
:104F1800600050F002F0600054F003F0600058F0B8
:104F280004F060005CF005F0600060F006F06000DE
:104F380064F007F0600068F008F01200000E956F4A
:104F48008BAF12D08B1F8A1F891F881F871F861F50
:104F5800851F846D000E8523862387238823892354
:104F68008A238B23010E956F93AF10D0931F921F46
:104F7800911F901F8F1F8E1F8D1F8C6D000E8D230C
:104F88008E238F2390239123922393238C518D1169
:104F98008E118F119011911192119311D8B43CD0A8
:104FA800010E946F0AD0D8908C378D378E378F3793
:104FB8009037913792379337942B93AFF4D78C511E
:104FC800845D8D5185598E5186598F5187599051DD
:104FD80088599151895992518A5993518B59D8A01E
:104FE80010D08C51845F8D51855B8E51865B8F51BB
:104FF800875B9051885B9151895B92518A5B935191
:105008008B5BD89093339233913390338F338E33B5
:105018008D338C33942FD3D79551D8B410D08B1FA0
:105028008A1F891F881F871F861F851F846D000E92
:10503800852386238723882389238A238B2360005B
:1050480010F284F0600014F285F0600018F286F027
:1050580060001CF287F0600020F288F0600024F203
:1050680089F0600028F28AF060002CF28BF01200C0
:10507800000E126E08AE12D0081E071E061E051E70
:10508800041E031E021E016C000E022203220422CB
:105098000522062207220822010E126E10AE10D039
:1050A800101E0F1E0E1E0D1E0C1E0B1E0A1E096C56
:1050B800000E0A220B220C220D220E220F22102291
:1050C80009500A100B100C100D100E100F101010B4
:1050D800D8B43CD0010E116E0AD0D89009360A36E1
:1050E8000B360C360D360E360F361036112A10AE2A
:1050F800F4D70950015C0A5002580B5003580C5061
:1051080004580D5005580E5006580F5007581050A7
:105118000858D8A010D00950015E0A50025A0B5006
:10512800035A0C50045A0D50055A0E50065A0F5087
:10513800075A1050085AD89010320F320E320D32DA
:105148000C320B320A320932112ED3D71250D8B48E
:1051580010D0081E071E061E051E041E031E021E72
:10516800016C000E022203220422052206220722D5
:105178000822600004F001F0600008F002F060000E
:105188000CF003F0600010F004F0600014F005F07B
:10519800600018F006F060001CF007F0600020F0D6
:1051A80008F012000001BA6F76D0600070F5BCF10B
:1051B800600074F5BDF1600078F5BEF160007CF523
:1051C800BFF1090ED890BC37BD37BE37BF37E82EC0
:1051D800F9D73ED0600070F5BCF1600074F5BDF100
:1051E800600078F5BEF160007CF5BFF1060ED8903E
:1051F800BC37BD37BE37BF37E82EF9D729D0600096
:1052080070F5BCF1600074F5BDF1600078F5BEF191
:1052180060007CF5BFF1040ED890BC37BD37BE37AF
:10522800BF37E82EF9D714D0600070F5BCF16000E4
:1052380074F5BDF1600078F5BEF160007CF5BFF152
:10524800020ED890BC37BD37BE37BF37E82EF9D726
:105258000001BA51040D5C0EF324D96E010EF4203E
:10526800DA6E6000F3F6DEFF6000F7F6DEFF60003E
:10527800FBF6DEFF6000FFF6DEFF24D0BA94BA9694
:10528800EC0EA66FFF0EA76F000EA96F670EA86F32
:1052980084EC39F017D00001BA510101BC6FBD6B25
:1052A800BD51000AD8A4EAD7BC51030AD8B4BCD768
:1052B800070AD8B4A4D7010AD8B48CD7030AD8B43B
:1052C80074D7DCD73901918712004EEC3CF0000905
:1052D800D8A409D02CD047EC3CF0120006EC3DF0E5
:1052E8001200000E1200600048F40AF060004CF44E
:1052F8000BF001D80AD00500FA6E01010651FD6EC7
:105308000751FE6EFF6AFA5012000C6E0D6A0D50BE
:10531800000AD8A4E6D70C50010AD8B4E2D7030A89
:10532800D8B4D9D7010AD8B4D9D7070ADAD787ECBD
:105338003CF00009D8B436D001012351030B000911
:10534800D8B40CD0010E0C6E2351030B0D6E0C500B
:105358000D5E23510D18FC0B0D18236F600077F4B8
:10536800D9FF60007BF4DAFFDF500E6E1D4B1E2B59
:105378001F07D8A020071F512011D8A407D051EC2F
:1053880032F00C6E0C50106E116A04D0000E116EC3
:10539800030E106E600040F00FF00E50B3EC3CF0BE
:1053A8000F501200030E1200000E996F97AF0AD02B
:1053B800971F961F951F946D000E9523962397238C
:1053C800010E996F93AF0AD0931F921F911F906D92
:1053D800000E912392239323010E991B000E9A6FBE
:1053E800000E9B6F000E9C6F000E9D6F94519511DF
:1053F80096119711D8B42AD0010E986F06D0D8907C
:105408009437953796379737982B97AFF8D7D89022
:105418009A379B379C379D379451905D9551915998
:105428009651925997519359D8A009D09451905FA9
:105438009551915B9651925B9751935B9A81D89065
:105448009733963395339433982FE1D79951D8B43D
:1054580008D09D1F9C1F9B1F9A6D000E9B239C23A9
:105468009D23600068F290F060006CF291F060009B
:1054780070F292F0600074F293F01200000EA21520
:10548800AA6F000EA315AB6F800EA415AC6F7F0E2C
:10549800A515AD6FAA51AB11AC11AD11D8A408D0A8
:1054A800000EA26F000EA36F000EA46F000EA56F72
:1054B800000EA615AA6F000EA715AB6F800EA815D3
:1054C800AC6F7F0EA915AD6FAA51AB11AC11AD1120
:1054D800D8A408D0000EA66F000EA76F000EA86F04
:1054E800000EA96FA5AF09D0A26DA31FD8B0A32B3A
:1054F800A41FD8B0A42B800EA557A9AF09D0A66DBC
:10550800A71FD8B0A72BA81FD8B0A82B800EA957C3
:10551800000EA21B000EA31B000EA41B800EA51BD1
:10552800000EA61B000EA71B000EA81B800EA91BB1
:10553800A651A25DA751A359A851A459A951A5598B
:10554800D8B002D0D8901200D88012000001C6A1AD
:105558000ED0600054F00CF0600058F00DF06000C0
:105568004CF00EF0600050F00FF086EC36F018BEEC
:1055780007D060005CF01CF0600060F01DF004D003
:10558800000E1D6E000E1C6E000E1B6E000E1A6EB5
:105598000ED0000E046E200E036E60004CF005F075
:1055A800600050F006F0BFEC2CF01A4A1B2A1C5081
:1055B8001A5C1B50800A196E1D50800A1958D8A011
:1055C800E8D70001C6B10ED0600054F00CF06000BE
:1055D80058F00DF060004CF00EF0600050F00FF045
:1055E80086EC36F0600054F001F0600058F002F0EC
:1055F80023EC38F01C500124136E1D500220146E49
:10560800120000019E51856F846B000E876F140E87
:10561800866FC9EC33F0600010F2A6F0600014F257
:10562800A7F0A86BA96BA251A05DA46FA351A159C3
:10563800A56F600090F284F0600094F285F0000E8F
:1056480085BFFF0E866F876F600098F288F0600054
:105658009CF289F06000A0F28AF06000A4F28BF05E
:10566800E3EC32F0600010F290F0600014F291F078
:10567800600018F292F060001CF293F0000E946F34
:10568800010E956F000E966F000E976FD8EC29F0FB
:10569800600040F2A6F0600044F2A7F0600048F213
:1056A800A8F060004CF2A9F0A651A0259E6FA75162
:1056B800A1219F6F1200C6A10ED0600060F28FF08A
:1056C800600064F290F0600058F291F060005CF2C3
:1056D80092F047EC36F09BBF07D0600068F29FF06D
:1056E80060006CF2A0F004D0000EA06F000E9F6F57
:1056F800000E9E6F000E9D6F0FD0000E876F200E5C
:10570800866F600058F288F060005CF289F068ECFF
:105718002CF000019D4B9E2B9F519D5D9E51800A50
:105728009C6FA051800A9C59D8A0E7D7C6B10ED06B
:10573800600060F28FF0600064F290F0600058F250
:1057480091F060005CF292F047EC36F0600060F295
:1057580084F0600064F285F0F1EC37F09F51842505
:10576800966FA0518521976F1200000EBE6E000E35
:10577800BD6E000EBA6E000EBB6E000EBC6E070E3C
:10578800C66EF30EC26EC00EC36EFD0EC46EBE0EA4
:10579800C56E000E3A01706F0E0E606FF90E506FF5
:1057A800070E806FFB0E406FBE0E716F000E816F8B
:1057B800000E516F000E416FF00E616F000E5A6FB0
:1057C800000E5B6F000E6A6F000E6B6F000E7A6F33
:1057D800000E7B6F000E826F000E426F060E526F36
:1057E800080E626F000E726F4369536963697369CB
:1057F800070E836F44695469646974690F0E846F76
:10580800090EE36F230E096F240E0A6F130E116F32
:10581800100EE56F0A0EE46F1200876F6000F4F255
:1058280084F06000F8F285F06000FCF286F0000178
:10583800D890843785378637600010F2BDF0600055
:1058480014F2BEF0600018F2BFF0100EBF19BD11BF
:10585800BE11D8A406D0010EBD6F000EBE6F000E9B
:10586800BF6F0101285129112A11D8B409D00001AC
:10587800BD51BE11BF11D8B403D0050E01014E5F52
:1058880000018751D8B40ED0BD5101012813000181
:10589800BE51010129130001BF5101012A13050E50
:1058A8004E271200BD1D846FBE1D856FBF1D866FFC
:1058B80084510101281700018551010129170001B0
:1058C800865101012A17120088518911D8B404D0D1
:1058D80088518911D8A404D086517BEC3BF0120082
:1058E80020EE04F08851D9268951DA22DE50DE10E4
:1058F800D8B416D020EE04F08851D9268951DA227E
:1059080010EE02F08851E1268951E222DE50E65C71
:10591800E650800A8E6FDE50800A8E59D8B0120089
:1059280020EE02F08851D9268951DA226F0078FFDB
:105938008AF06F0074FF8BF0600023F2D9FF6000DB
:1059480027F2DAFF6F0078FF8CF06F0074FF8DF09C
:105958008A518C25D96E8B518D21DA6E60001BF22D
:10596800DFFF20EE02F08851D9268951DA22DE2A9B
:10597800000EDD22120005500610D8B404D00550E0
:105988000610D8A404D003508FEC3BF0120020EE90
:1059980004F00550D9260650DA22DE50DE10D8B4BD
:1059A80016D020EE04F00550D9260650DA2210EE63
:1059B80002F00550E1260650E222DE50E65CE65091
:1059C800800A0B6EDE50800A0B58D8B0120020EE09
:1059D80002F00550D9260650DA226F0078FF07F04A
:1059E8006F0074FF08F0600017F0D9FF60001BF02B
:1059F800DAFF6F0078FF09F06F0074FF0AF00750B4
:105A08000924D96E08500A20DA6E60000FF0DFFF13
:105A180020EE02F00550D9260650DA22DE2A000EC2
:105A2800DD221200600004F005F0600008F006F0C6
:105A3800000E086E000E076E400E0A6E000E096E0C
:105A480006D0D8900A320932D8900A320932095061
:105A5800055C0A500658D8B02DD0F3D70950072452
:105A6800036E0A500820046E0350055C0450065863
:105A7800D8A017D009500724036E0A500820046ED6
:105A88000350055E0450065A600024F003F06000DD
:105A980028F004F0D8900336043603500726045043
:105AA8000822D89008320732D8900A320932D890A2
:105AB8000A32093209500A10D8A4D0D760001CF065
:105AC80001F0600020F002F012000001866F010E64
:105AD8000001876F010123B746D0600018F21CF15E
