:020000040000FA
:040000000DEF00F010
:04000800F8EF0CF011
:06001800FF0074EF13F07D
:1010000000B22962268228C818041E3E205E1DA454
:1010100029562A522A6627EC29F4299629E4294ED2
:10102000299022B0213E295072756562610A004400
:0D10300061742025640A00446174610000B1
:10103E00600098F17EF060009CF17FF06000A0F1FE
:10104E0080F06000A4F181F06000A8F182F06000F1
:10105E00ACF183F06000B0F184F06000B4F185F083
:10106E00000185BF3DEF08F040EF08F0010E41EFA3
:10107E0008F0000E7C6F7D6B7C517D11D8B44AEF69
:10108E0008F04CEF08F05CEF08F0851F841F831FFB
:10109E00821F811F801F7F1F7E6D000E7F23802386
:1010AE00812382238323842385233EBE61EF08F0B0
:1010BE0063EF08F064EF08F03F923EBE71EF08F068
:1010CE003E5006E13D04D8B06FEF08F071EF08F026
:1010DE0077EF08F0000E796F010E786F7DEF08F054
:1010EE006000F4F078F06000F8F079F06000ECF059
:1010FE007AF06000F0F07BF07C517D11D8A48AEF7D
:10110E0008F08CEF08F093EF08F03FA491EF08F091
:10111E0093EF08F096EF08F07A07D8A07B07000E41
:10112E00876F1F0E866F000EF16F3DEF09F0860779
:10113E00D8A08707D20E8625D96E000E8721DA6ECB
:10114E006000F8F118F06000FCF119F0600000F298
:10115E001AF0600004F21BF0600008F21CF0600050
:10116E000CF21DF0600010F21EF0600014F21FF081
:10117E000A0E206E000E216E000E226E000E236EE1
:10118E00000E246E000E256E000E266E000E276ECB
:10119E00AAEC0BF0600060F06EF0600064F06FF08F
:1011AE00600068F070F060006CF071F0600070F03C
:1011BE0072F0600074F073F0600078F074F060000C
:1011CE007CF075F06000B8F12AF06000C0F12BF0F1
:1011DE0003EC12F02A50300FDF6E00017807D8A012
:1011EE0079077A07D8A07B076000F8F118F0600045
:1011FE00FCF119F0600000F21AF0600004F21BF02E
:10120E00600008F21CF060000CF21DF0600010F29D
:10121E001EF0600014F21FF00A0E206E000E216EFA
:10122E00000E226E000E236E000E246E000E256E32
:10123E00000E266E000E276EDEEC0AF0600060F0E7
:10124E007EF0600064F07FF0600068F080F0600077
:10125E006CF081F0600070F082F0600074F083F04A
:10126E00600078F084F060007CF085F0000187BFAC
:10127E0049EF09F0875108E18605D8A049EF09F03A
:10128E004BEF09F07BEF09F07E517F118011811138
:10129E008211831184118511D8A458EF09F05AEFE9
:1012AE0009F09EEF08F079BF67EF09F0795106E17A
:1012BE007805D8B065EF09F067EF09F09EEF08F0FA
:1012CE007BBF72EF09F07B5108E17A05D8A072EF6F
:1012DE0009F074EF09F07BEF09F03FB279EF09F0F6
:1012EE007BEF09F09EEF08F07C517D11D8A482EFC0
:1012FE0009F084EF09F08BEF09F03FA489EF09F0B4
:10130E008BEF09F0AAEF09F08607D8A087077C516A
:10131E007D11D8A495EF09F097EF09F09DEF09F034
:10132E00000E776F2B0E766FA1EF09F0000E776F20
:10133E002D0E766FD20E8625D96E000E8721DA6EAF
:10134E006000DBF1DFFF600090F12AF0600094F1A5
:10135E002BF0D20E86252C6E000E87212D6E60008E
:10136E00E8F12EF06000ECF12FF07BEC0DF0600058
:10137E00A8F064F06000ACF065F0120060002BF293
:10138E00D9FF60002FF2DAFF6F007BFFF6FF6F00D0
:10139E0077FFF7FFF86A0800F550250AD8A4DAEFB0
:1013AE0009F0DCEF09F0B9EF0AF060002BF2D9FF7B
:1013BE0060002FF2DAFFDE2A000EDD22000E3C6EF8
:1013CE00000E3B6E6000ECF03FF06000F0F040F07D
:1013DE003D683E6860002BF2D9FF60002FF2DAFF05
:1013EE006F007BFFF6FF6F0077FFF7FFF86A0800CC
:1013FE00F550640AD8B406EF0AF008EF0AF01FEFB2
:10140E000AF060002BF2D9FF60002FF2DAFF6F00B6
:10141E007BFFF6FF6F0077FFF7FFF86A0800F550C5
:10142E00690AD8A41DEF0AF01FEF0AF076EF0AF052
:10143E0060002BF2D9FF60002FF2DAFFDE2A000ED9
:10144E00DD22600033F2D9FF600037F2DAFF6F0061
:10145E007CFF8EF0020EDE266F007CFF8FF0000EFA
:10146E00DD2260003BF2D9FF60003FF2DAFF6F0031
:10147E0078FF90F06F0074FF91F00001000E91BFA5
:10148E00FF0E926F936F946F956F966F976F6000CC
:10149E0020F264F0600024F265F0600040F266F025
:1014AE00600044F267F0600048F268F060004CF2B1
:1014BE0069F0600050F26AF0600054F26BF0600068
:1014CE0058F26CF060005CF26DF01FEC08F06000FA
:1014DE0090F188F0600094F189F0DDEF0AF0600081
:1014EE002BF2D9FF60002FF2DAFF6F007BFFF6FFC1
:1014FE006F0077FFF7FFF86A0800F550250AD8A4A9
:10150E008BEF0AF08DEF0AF0A9EF0AF060002BF2D4
:10151E00D9FF60002FF2DAFFDE2A000EDD22000E68
:10152E001B6E250E1A6E600020F21CF0600024F275
:10153E001DF051EC0FF0000E0001896F010E886F47
:10154E00DDEF0AF060002BF2D9FF60002FF2DAFF18
:10155E00DE2A000EDD22000E0001896F000E886F5C
:10156E00DDEF0AF060002BF2D9FF60002FF2DAFFF8
:10157E006F007BFFF6FF6F0077FFF7FFF86A08003A
:10158E00F5501A6E1B6A600020F21CF0600024F207
:10159E001DF051EC0FF060002BF2D9FF60002FF21E
:1015AE00DAFFDE2A000EDD22A2EF0AF01200000E94
:1015BE00296E27BEE7EF0AF0E5EF0AF0F9EF0AF021
:1015CE00271E261E251E241E231E221E211E206CB3
:1015DE00000E212222222322242225222622272205
:1015EE00010E296E1FBE00EF0BF0FEEF0AF012EF98
:1015FE000BF01F1E1E1E1D1E1C1E1B1E1A1E191E4C
:10160E00186C000E19221A221B221C221D221E22C9
:10161E001F22010E291A20EE2AF0070EDE6AE806B6
:10162E00FDE2205021102210231024102510261028
:10163E002710D8B425EF0BF027EF0BF079EF0BF056
:10164E00010E286E35EF0BF0D8902036213622365B
:10165E0023362436253626362736282A27AE3AEF65
:10166E000BF03CEF0BF02BEF0BF0D8902A362B360D
:10167E002C362D362E362F36303631362050185C1D
:10168E002150195822501A5823501B5824501C58B8
:10169E0025501D5826501E5827501F58D8A05AEFB7
:1016AE000BF05CEF0BF06DEF0BF02050185E21503D
:1016BE00195A22501A5A23501B5A24501C5A25507C
:1016CE001D5A26501E5A27501F5A2A80D89027324C
:1016DE002632253224322332223221322032282E53
:1016EE003CEF0BF02950D8B47FEF0BF081EF0BF0ED
:1016FE0091EF0BF0311E301E2F1E2E1E2D1E2C1E96
:10170E002B1E2A6C000E2B222C222D222E222F2253
:10171E00302231226000A8F018F06000ACF019F011
:10172E006000B0F01AF06000B4F01BF06000B8F08A
:10173E001CF06000BCF01DF06000C0F01EF06000F8
:10174E00C4F01FF01200000E296E1FBEB3EF0BF097
:10175E00B1EF0BF0C5EF0BF01F1E1E1E1D1E1C1E43
:10176E001B1E1A1E191E186C000E19221A221B227D
:10177E001C221D221E221F22010E296E27BECCEF17
:10178E000BF0CAEF0BF0DCEF0BF0271E261E251E0A
:10179E00241E231E221E211E206C000E2122222218
:1017AE0023222422252226222722205021102210F5
:1017BE0023102410251026102710D8B4E9EF0BF0B3
:1017CE00EBEF0BF033EF0CF0010E286EF9EF0BF090
:1017DE00D890203621362236233624362536263624
:1017EE002736282A27AEFEEF0BF000EF0CF0EFEFB6
:1017FE000BF02050185C2150195822501A582350C3
:10180E001B5824501C5825501D5826501E58275022
:10181E001F58D8A015EF0CF017EF0CF027EF0CF0B7
:10182E002050185E2150195A22501A5A23501B5A12
:10183E0024501C5A25501D5A26501E5A27501F5AE6
:10184E00D8902732263225322432233222322132C8
:10185E002032282E00EF0CF02950D8B439EF0CF0BE
:10186E003BEF0CF04BEF0CF01F1E1E1E1D1E1C1E20
:10187E001B1E1A1E191E186C000E19221A221B226C
:10188E001C221D221E221F22600060F018F0600034
:10189E0064F019F0600068F01AF060006CF01BF054
:1018AE00600070F01CF0600074F01DF0600078F0C5
:1018BE001EF060007CF01FF0120057EC14F00009CF
:1018CE00D8B46CEF0CF06EEF0CF0AAEF0CF07BEFCF
:1018DE000CF0D2EC14F0F7EF0CF02BEC15F0F7EF58
:1018EE000CF0000EF7EF0CF06000F8F20AF060005A
:1018FE00FCF20BF002D88EEF0CF00500FA6E000130
:10190E00B251FD6EB351FE6EFF6AFA5012000C6EAC
:10191E000D6A0D50000AD8B497EF0CF078EF0CF06A
:10192E000C50010AD8B478EF0CF0030AD8B470EF5B
:10193E000CF0010AD8B474EF0CF0070AD8B478EFA3
:10194E000CF078EF0CF04CEC14F00009D8B4B2EFB8
:10195E000CF0B4EF0CF0F6EF0CF00001CF51030BCE
:10196E000009D8B4BDEF0CF0BFEF0CF0CBEF0CF0CC
:10197E00010E0C6ECF51030B0D6E0C500D5ECF5140
:10198E000D18FC0B0D18CF6F600027F3D9FF600008
:10199E002BF3DAFFDF50106EC94BCA2BCB07D8A042
:1019AE00CC07CB51CC11D8A4DFEF0CF0E1EF0CF04B
:1019BE00E9EF0CF01FEC10F00C6E0C500E6E0F6A6F
:1019CE00EDEF0CF0000E0F6E030E0E6E600038F091
:1019DE0011F01050DFEC14F01150F7EF0CF0030E75
:1019EE0012006F00D8FF14F06F00DCFF15F06F00CF
:1019FE00E0FF16F06F00D4FF17F0390193A90AEF3C
:101A0E000DF00CEF0DF022EF0DF0A3A911EF0DF07C
:101A1E0013EF0DF022EF0DF002D820EF0DF00500C0
:101A2E00FA6E0001F851FD6EF951FE6EFF6AFA5022
:101A3E0012006EEF0DF093A527EF0DF029EF0DF0CC
:101A4E003EEF0DF0A3A52EEF0DF030EF0DF03EEFB3
:101A5E000DF002D83CEF0DF00500FA6E4150FD6E10
:101A6E004250FE6EFF6AFA5012006EEF0DF092AF0A
:101A7E0043EF0DF045EF0DF04EEF0DF0A2AF4AEF34
:101A8E000DF04CEF0DF04EEF0DF030EF0DF093A387
:101A9E0053EF0DF055EF0DF05EEF0DF0A3A35AEFDF
:101AAE000DF05CEF0DF05EEF0DF030EF0DF093A149
:101ABE0063EF0DF065EF0DF06EEF0DF0A3A16AEF81
:101ACE000DF06CEF0DF06EEF0DF030EF0DF06000DD
:101ADE005FF0F5FF60005BF0F8FF600057F0F7FF76
:101AEE00600053F0F6FF11003FA080EF0DF082EF83
:101AFE000DF090EF0DF06000B0F023F06000B4F048
:101B0E0024F06000A8F025F06000ACF026F04FEC59
:101B1E0012F02FBE95EF0DF097EF0DF09FEF0DF039
:101B2E006000B8F062F06000BCF063F0A4EF0DF05E
:101B3E00000E0001636F000E626F000E0001616FF8
:101B4E00000E606FBAEF0DF0000E1B6E200E1A6EB7
:101B5E006000A8F01CF06000ACF01DF051EC0FF02E
:101B6E000001604B612B6251605D6151800A306EE5
:101B7E006351800A3058D8A0C7EF0DF0C9EF0DF0B1
:101B8E00ABEF0DF03FB0CEEF0DF0D0EF0DF0DEEF7E
:101B9E000DF06000B0F023F06000B4F024F06000AF
:101BAE00A8F025F06000ACF026F04FEC12F06000CB
:101BBE00B0F018F06000B4F019F096EC12F00001DD
:101BCE00625118242A6E635119202B6E12009EEC5E
:101BDE0013F0D28E25EC15F023EC15F0BA948EECA2
:101BEE0014F0600080F0AAF0600084F0ABF0220EDA
:101BFE0097EC14F02BEC14F00009D8B409EF0EF0AA
:101C0E000BEF0EF02AEF0EF036EC14F0600060F0E1
:101C1E00A8F0600064F0A9F0220E97EC14F0370ED5
:101C2E000001A06F100EA16F48EC13F02F0E0001F3
:101C3E00A06F100EA16F6000A0F2A2F06000A4F2DF
:101C4E00A3F048EC13F0AA0E206E000E216E130EB8
:101C5E00236E880E226E12EC11F00009D8B43AEF02
:101C6E000EF03CEF0EF001EF0EF0BAB441EF0EF0B5
:101C7E0044EF0EF0010E45EF0EF0000EFF0A326E2D
:101C8E0032463246BA503218FB0B3218BA6E270E55
:101C9E000001A06F100EA16F48EC13F001EF0EF0D3
:101CAE000DEF00F0000EBE6E000EBD6E000EBA6E91
:101CBE00000EBB6E000EBC6E070EC66EF90EC26E27
:101CCE00C00EC36EE50EC46E7E0EC56E810E3A0159
:101CDE00706FE60E606F5069070E806F4069000EE0
:101CEE00716F000E816F000E516F000E416F000E6E
:101CFE00616F000E5A6F000E5B6F000E6A6F000E62
:101D0E006B6F000E7A6F000E7B6F000E826F000EEF
:101D1E00426F000E526F180E626F000E726F4369A3
:101D2E00536963697369070E836F44695469646903
:101D3E0074690F0E846F140EE26F210E136F130E63
:101D4E00116F220E146F100EE56F130EE16F12005D
:101D5E000001CF89D3EF0EF014EC15F0080E01EF51
:101D6E000FF014EC15F0070E01EF0FF00001CB2968
:101D7E00E4EC14F0040E01EF0FF0070E0001CD1984
:101D8E00D8B4CCEF0EF0CEEF0EF0D0EF0EF017EC85
:101D9E0015F00F0E01EF0FF06000E0F20AF0600098
:101DAE00E4F20BF002D8E5EF0EF00500FA6EAC513E
:101DBE00FD6EAD51FE6EFF6AFA5012000C6E0D6A8A
:101DCE000D50000AD8B4EEEF0EF0C4EF0EF00C502A
:101DDE00010AD8B4C4EF0EF0030AD8B4B8EF0EF06F
:101DEE00010AD8B4B3EF0EF0070AD8B4BDEF0EF067
:101DFE00C4EF0EF0120062EC14F00009D8A40AEF42
:101E0E000FF00CEF0FF00FEF0FF0040E50EF0FF07E
:101E1E000001CF51030B0009D8B418EF0FF01AEFE1
:101E2E000FF026EF0FF0010E0E6ECF51030B0F6E5B
:101E3E000E500F5ECF510F18FC0B0F18CF6FCB0744
:101E4E00D8A0CC07CB51CC11D8B430EF0FF032EF75
:101E5E000FF040EF0FF011EC15F0600027F3D9FFF3
:101E6E0060002BF3DAFFDF6E0001C94BCA2B0CEFBB
:101E7E000FF0AFEC0EF0106E11EC15F0600027F3C2
:101E8E00D9FF60002BF3DAFFDF6E0001C94BCA2BBE
:101E9E00105012001C501D10D8B458EF0FF05AEF0E
:101EAE000FF063EF0FF01C501D10D8A461EF0FF070
:101EBE0063EF0FF068EF0FF01A50FAEC13F09BEF90
:101ECE000FF020EE04F01C50D9261D50DA22DE5001
:101EDE00DE10D8B475EF0FF077EF0FF092EF0FF032
:101EEE0020EE04F01C50D9261D50DA2210EE02F01E
:101EFE001C50E1261D50E222DE50E65CE650800AC0
:101F0E00226EDE50800A2258D8B090EF0FF092EF7A
:101F1E000FF09BEF0FF020EE02F01C50D9261D5053
:101F2E00DA22DE2A000EDD22120039019399E80E24
:101F3E00186E240E196EAFEC14F0000E3D01EC6F0E
:101F4E00000EED6F000EEE6F000EEF6F000EF06FD5
:101F5E00000EF16FB00EF26F800EF36F000EF46F85
:101F6E00670EF56F000EF66F000EF76F000EF86F2E
:101F7E00000EF96F000EFA6F000E186E000E196E3D
:101F8E00BDEC14F0000E186E000E196EB6EC14F0C7
:101F9E00000E186E000E196EC4EC14F0000E436E97
:101FAE00000E456E000E446E080E486E1200056E51
:101FBE0001500210D8B4E6EF0FF0E8EF0FF006EF85
:101FCE0010F00550020DAC0EF324D96E000EF42065
:101FDE00DA6E600007F0DEFF60000BF0DDFF0550EB
:101FEE00020DB80EF324D96E000EF420DA6E6000E6
:101FFE000FF0DEFF600013F0DDFF1EEF10F0055056
:10200E00020DAC0EF324D96E000EF420DA6E5E0EC5
:10201E00DE6E2A0EDD6E0550020DB80EF324D96E5B
:10202E00000EF420DA6E000EDE6E000EDD6E120073
:10203E000001CF8934EF10F014EC15F0070E5EEFAF
:10204E0010F00001CB29E4EC14F0030E5EEF10F05B
:10205E0017EC15F00A0E5EEF10F06000E0F20AF0D9
:10206E006000E4F20BF002D846EF10F00500FA6EB5
:10207E00AC51FD6EAD51FE6EFF6AFA5012000C6E41
:10208E000D6A0D50000AD8B44FEF10F02FEF10F07C
:10209E000C50010AD8B42FEF10F0030AD8B423EF76
:1020AE0010F0060AD8B428EF10F02FEF10F012003F
:1020BE00DAEC11F00001CF51030B0009D8B46AEF2E
:1020CE0010F06CEF10F079EF10F057EC14F00009EF
:1020DE00D8B474EF10F076EF10F079EF10F0100E18
:1020EE000001CD6F0001CD51020D010EF324F66EED
:1020FE00100EF420F76EF86A000EF82209006F0039
:10210E00D4FF12F009006F00D4FF13F002D899EF3C
:10211E0010F00500FA6E1250FD6E1350FE6EFF6A3F
:10212E00FA5012000001CD6F1200600068F29EF0AE
:10213E0060006CF29FF0000E0001D16F000ED06FA8
:10214E00C0EF10F0600060F288F0600064F289F079
:10215E009E0E8A6F000E8B6F600070F28CF0600026
:10216E0074F28DF0C5EC09F000018851D027895129
:10217E00D12360007BF2F6FF60007FF2F7FFF86A72
:10218E000800F5500009D8A4CFEF10F0D1EF10F0F1
:10219E00A9EF10F0600040F398F0600044F399F05E
:1021AE001200FEEC14F0020E0001CE6FEBEF10F0F9
:1021BE00D2EC14F011EF11F02BEC15F011EF11F031
:1021CE00A7EC14F011EF11F06000E8F20AF06000D5
:1021DE00ECF20BF002D8FDEF10F00500FA6EAE51E6
:1021EE00FD6EAF51FE6EFF6AFA5012000C6E0D6A54
:1021FE000D50000AD8B406EF11F0E7EF10F00C50B6
:10220E00020AD8B4DFEF10F0010AD8B4E3EF10F0F1
:10221E00E7EF10F0120089EC13F0600060F028F088
:10222E00600064F029F0600083F0D9FF600087F051
:10223E00DAFF6F0078FF24F06F0074FF25F0245052
:10224E00285C266E25502958276E2250265C235076
:10225E002758D8B035EF11F037EF11F03AEF11F0F3
:10226E00000E47EF11F0600083F0D9FF600087F099
:10227E00DAFF6000A3F0DEFF6000A7F0DDFF010EC5
:10228E001200FC0E0001CF17020ECE6FCF9557EF46
:10229E0011F029EC15F07DEF11F00F0E7DEF11F01E
:1022AE006000F0F20AF06000F4F20BF002D869EF71
:1022BE0011F00500FA6EB051FD6EB151FE6EFF6A5F
:1022CE00FA5012000C6E0D6A0D50000AD8B472EF5F
:1022DE0011F054EF11F00C50020AD8B450EF11F077
:1022EE00010AD8B450EF11F054EF11F01200186E2D
:1022FE004850D8B485EF11F087EF11F07FEF11F051
:10230E00390193B98DEF11F08FEF11F094EF11F0B9
:10231E00600063F0EAFDAAEF11F09399330E4524A5
:10232E00D96EDA6A000EDA22600063F0DFFF452A0A
:10233E00070E4564A5EF11F0A7EF11F0A9EF11F00C
:10234E00000E456E480693891200000E3E01DE6FA8
:10235E00000EDF6F000EE06F000EE16F000EE46FF7
:10236E00000EE56F000EEA6F000EEC6F000EF16FBF
:10237E00010EF36F000EF46F000EF56F000EF66F88
:10238E00000EF76F000EF96F000EFA6F000EFB6F66
:10239E00000EFC6F030EFD6F000EFE6F170EFF6F2B
:1023AE00840EF86F120083EC14F00009D8B4E2EF3B
:1023BE0011F0E4EF11F0E8EF11F020EC15F002EF60
:1023CE0012F06DEC14F00009D8B4F0EF11F0F2EF4A
:1023DE0011F0F6EF11F01AEC15F002EF12F078ECA6
:1023EE0014F00009D8B4FEEF11F000EF12F002EF76
:1023FE0012F01DEC15F012002BBE10EF12F02B5048
:10240E0006E12A04D8B00EEF12F010EF12F022EF10
:10241E0012F06000A8F02CF06000ACF02DF02C1E35
:10242E002D1E2C4A2D2A6000B0F02AF06000B4F068
:10243E002BF028EF12F06000A8F02AF06000ACF04C
:10244E002BF0120020EE02F00A50D9260B50DA22A1
:10245E006F0078FF01F06F0074FF02F060002BF048
:10246E00D9FF60002FF0DAFF6F0078FF03F06F00E6
:10247E0074FF04F05EEC13F0000E066E000E076E95
:10248E00000E086E000E096EEAEC13F0020E12003A
:10249E00000E296E000E286E63EF12F060009CF0A5
:1024AE001AF01B6A600094F01CF0600098F01DF0AA
:1024BE0051EC0FF0284A292A28502324D96E29508E
:1024CE002420DA6EDF50276E2750D8A471EF12F059
:1024DE0073EF12F055EF12F01200080E48607AEF0B
:1024EE0012F07CEF12F093EF12F0330E4424D96EFB
:1024FE00DA6A000EDA22DF503D01EA6F442A070E37
:10250E0044648CEF12F08EEF12F090EF12F0000E8A
:10251E00446E482A95EF12F039019399120060002B
:10252E0060F01AF0600064F01BF0A0EF12F0184A91
:10253E00192A600063F0D9FF600067F0DAFFDF5000
:10254E00D8A4ACEF12F0AEEF12F09EEF12F01A50CC
:10255E00185C186E1B501958196E1200000EB36ECF
:10256E00000EB46E090EB56E8A0EB16ED00EB06E40
:10257E003901A491B0506F00C4FE18F0196A6000C2
:10258E0060F019F0186A1810466E1950476E030E57
:10259E00B26E1200600028F001F060002CF002F024
:1025AE00000E046E010E036E5EEC13F0000E066E4E
:1025BE00000E076E000E086E000E096EEAEC13F0A8
:1025CE00040E1200600028F001F060002CF002F002
:1025DE00000E046E020E036E5EEC13F0000E066E1D
:1025EE00000E076E000E086E000E096EEAEC13F078
:1025FE00020E1200600028F001F060002CF002F0D4
:10260E00000E046E010E036E5EEC13F0000E066EED
:10261E00000E076E000E086E000E096EEAEC13F047
:10262E00020E1200600028F001F060002CF002F0A3
:10263E00000E046E020E036E5EEC13F0000E066EBC
:10264E00000E076E000E086E000E096EEAEC13F017
:10265E00040E12000001CF51FC0B0209CF6FCB0507
:10266E00CC11D8A43DEF13F03FEF13F041EF13F070
:10267E00AFEC0EF0D8800001C835DFEC14F0040E7C
:10268E001200A20E0001A66F000EA76F000E986F2B
:10269E00000E996F600080F29AF0600084F29BF059
:1026AE00A60E9C6F000E9D6F9CEC10F012000001A8
:1026BE00CFA964EF13F066EF13F073EF13F0600021
:1026CE0004F0C9F0600008F0CAF060000CF0CBF026
:1026DE00600010F0CCF0CF99120000EEACF0460E78
:1026EE00EE6AE806FDE100EE33F0130EEE6AE80640
:1026FE00FDE1080ED56E000ED66E000ED76E0001EF
:10270E00EEEF0DF0B2826F00C0FE1FF06F00C4FE40
:10271E001EF01E501A6E1F501C6E600068F01DF0E9
:10272E00600070F018F0600074F019F0120027ECE1
:10273E0015F0C7EC13F059EC0EF009EC14F0EEECBA
:10274E0014F0ACEC11F0B5EC12F020EC14F09CECA3
:10275E000FF0D9EC13F0120008EC15F005EC15F0A3
:10276E000009D8B4BDEF13F0BFEF13F0C5EF13F0AF
:10277E00000EE4EC14F0000EDFEC14F0000E12006C
:10278E00000E3901C06F000EC16F000EC26F000E39
:10279E00C36F000EC46F000EC56F000EC66F000E25
:1027AE00C76F1200040E3D01736F800E746F180E0A
:1027BE00756F030E7B6F000E796F000E7A6F000E31
:1027CE00766F6C691200600018F001F060001CF06A
:1027DE0002F0600020F003F0600024F004F0000E20
:1027EE00DEEC0FF01200196E15EC14F00009D8B4DF
:1027FE0003EF14F005EF14F0FBEF13F019507EEC1D
:10280E0011F01200600E3901D96F000EDB6F000E51
:10281E00DD6F070EDF6F000EDE6F12004850D8A47A
:10282E001BEF14F01EEF14F0010E1FEF14F0000E4C
:10283E001200A00EB96E310EB76E000EB66E3901D3
:10284E00A39F800EB86E12003E01F8A131EF14F076
:10285E0034EF14F0010E35EF14F0000E12003E01AD
:10286E00F0511B6E1A6AEF511A24186E000E1B20BF
:10287E00196E12000001CF51FC0B0209CF6FC85127
:10288E00C825DFEC14F0030E12003D0178BB52EFA9
:10289E0014F055EF14F0010E56EF14F0000E120066
:1028AE003D0174BB5DEF14F060EF14F0010E61EFAB
:1028BE0014F0000E12003D0178B168EF14F06BEFCA
:1028CE0014F0010E6CEF14F0000E12003D0179B5FC
:1028DE0073EF14F076EF14F0010E77EF14F0000E94
:1028EE0012003D0176B97EEF14F081EF14F0010E67
:1028FE0082EF14F0000E12003D0179BF89EF14F043
:10290E008CEF14F0010E8DEF14F0000E120089EC16
:10291E0013F0600060F020F0600064F021F012000F
:10292E00186E600063F0F1FE3E01F88FF881120020
:10293E00E9EC14F00001CF95020ECE6F0F0E1200CF
:10294E00E9EC14F00001CF95000ECE6F0F0E1200C1
:10295E00600060F0F8F0600064F0F9F012006000C2
:10296E0060F0F4F0600064F0F5F01200600060F0CA
:10297E00F6F0600064F0F7F01200600060F0F2F024
:10298E00600064F0F3F012000BEC15F008EC15F09B
:10299E00D9EC14F012000001CB51E4EC14F031EC40
:1029AE0013F012000001CF95000ECE6F0F0E120025
:1029BE00016E600007F06BFD1200016E600007F003
:1029CE006CFD12003D01739F7885738F1200830E8C
:1029DE003E01C16F12000BEC15F0090E12000EEC49
:1029EE0015F0040E12000EEC15F0030E1200000E80
:1029FE003D01796F12005FEC10F012003D016C5139
:102A0E0012003D01739B12003D01748D12003D01B9
:102A1E00749D12003D016A5112003D01738D12002A
:102A2E003D01739D12003D01799512003D0176998D
:102A3E0012003D01799F1200B2801200B88E120072
:102A4E00D29A1200010E1200020E1200050E120092
:042A5E00010E120053
:020000040020DA
:10000000FF0FFF0FFF0FFF0FFF0FFF0FFF0FFF0F80
:020000040030CA
:0A0000008CFFF7FF9FFFFFFFFFFFDB
:00000001FF
