:020000040000FA
:040000000DEF00F010
:0400080062EF0CF0A7
:06001800FF006DEF13F084
:1010000000602C3229FC2AEE19FE1ECC21581E52FB
:101010002C042D002D0C2A9A2CA22C442C922CDE70
:101020002B8C243E23CE2B0A5072756562610A0018
:091030005020256420200D000071
:10103A006000D0F2CCF06000D4F2CDF06000D8F2BB
:10104A00CEF06000DCF2CFF06000E0F2D0F0600099
:10105A00E4F2D1F06000E8F2D2F06000ECF2D3F0F2
:10106A000001D3BF3BEF08F03EEF08F0010E3FEF5F
:10107A0008F0000ECA6FCB6BCA51CB11D8B448EF37
:10108A0008F04AEF08F05AEF08F0D31FD21FD11F19
:10109A00D01FCF1FCE1FCD1FCC6D000ECD23CE2368
:1010AA00CF23D023D123D223D32336BE5FEF08F038
:1010BA0061EF08F062EF08F0379236BE6FEF08F082
:1010CA00365006E13504D8B06DEF08F06FEF08F03E
:1010DA0075EF08F0000EC76F010EC66F7BEF08F0C0
:1010EA006000D4F0C6F06000D8F0C7F06000CCF021
:1010FA00C8F06000D0F0C9F0CA51CB11D8A488EF6B
:10110A0008F08AEF08F091EF08F037A48FEF08F0A3
:10111A0091EF08F094EF08F0C807D8A0C907000EAD
:10112A00D56F1F0ED46F000EAD6F3BEF09F0D407D9
:10113A00D8A0D5078E0ED425D96E000ED521DA6E29
:10114A00600030F318F0600034F319F0600038F3EF
:10115A001AF060003CF31BF0600040F31CF06000E2
:10116A0044F31DF0600048F31EF060004CF31FF0DA
:10117A000A0E206E000E216E000E226E000E236EE5
:10118A00000E246E000E256E000E266E000E276ECF
:10119A00A8EC0BF0600060F0BCF0600064F0BDF0F9
:1011AA00600068F0BEF060006CF0BFF0600070F0A4
:1011BA00C0F0600074F0C1F0600078F0C2F0600026
:1011CA007CF0C3F06000F0F22AF06000F8F22BF035
:1011DA00FCEC12F02A50300FDF6E0001C607D8A0CF
:1011EA00C707C807D8A0C907600030F318F0600025
:1011FA0034F319F0600038F31AF060003CF31BF086
:10120A00600040F31CF0600044F31DF0600048F3F6
:10121A001EF060004CF31FF00A0E206E000E216EC5
:10122A00000E226E000E236E000E246E000E256E36
:10123A00000E266E000E276EDCEC0AF0600060F0ED
:10124A00CCF0600064F0CDF0600068F0CEF0600091
:10125A006CF0CFF0600070F0D0F0600074F0D1F064
:10126A00600078F0D2F060007CF0D3F00001D5BFC6
:10127A0047EF09F0D55108E1D405D8A047EF09F0A6
:10128A0049EF09F079EF09F0CC51CD11CE11CF1108
:10129A00D011D111D211D311D8A456EF09F058EFB9
:1012AA0009F09CEF08F0C7BF65EF09F0C75106E1E6
:1012BA00C605D8B063EF09F065EF09F09CEF08F0B6
:1012CA00C9BF70EF09F0C95108E1C805D8A070EF8D
:1012DA0009F072EF09F079EF09F037B277EF09F008
:1012EA0079EF09F09CEF08F0CA51CB11D8A480EF2E
:1012FA0009F082EF09F089EF09F037A487EF09F0C6
:10130A0089EF09F0A8EF09F0D407D8A0D507CA5188
:10131A00CB11D8A493EF09F095EF09F09BEF09F0F0
:10132A00000EC56F2B0EC46F9FEF09F0000EC56F3C
:10133A002D0EC46F8E0ED425D96E000ED521DA6E0D
:10134A00600013F3DFFF6000C8F22AF06000CCF2FD
:10135A002BF08E0ED4252C6E000ED5212D6E60003A
:10136A0020F32EF0600024F32FF004EC0EF060005E
:10137A00A8F0B2F06000ACF0B3F01200600063F3C2
:10138A00D9FF600067F3DAFF6F007BFFF6FF6F009B
:10139A0077FFF7FFF86A0800F550250AD8A4D8EFB6
:1013AA0009F0DAEF09F0B7EF0AF0600063F3D9FF4A
:1013BA00600067F3DAFFDE2A000EDD22000E346ECB
:1013CA00000E336E6000CCF037F06000D0F038F0D9
:1013DA0035683668600063F3D9FF600067F3DAFFA7
:1013EA006F007BFFF6FF6F0077FFF7FFF86A0800D0
:1013FA00F550640AD8B404EF0AF006EF0AF01DEFBC
:10140A000AF0600063F3D9FF600067F3DAFF6F0048
:10141A007BFFF6FF6F0077FFF7FFF86A0800F550C9
:10142A00690AD8A41BEF0AF01DEF0AF074EF0AF05C
:10143A00600063F3D9FF600067F3DAFFDE2A000E6B
:10144A00DD2260006BF3D9FF60006FF3DAFF6F00F3
:10145A007CFFDCF0020EDE266F007CFFDDF0000E62
:10146A00DD22600073F3D9FF600077F3DAFF6F00C3
:10147A0078FFDEF06F0074FFDFF00001000EDFBFBF
:10148A00FF0EE06FE16FE26FE36FE46FE56F6000FC
:10149A0058F3B2F060005CF3B3F0600078F3B4F094
:1014AA0060007CF3B5F0600080F3B6F0600084F36E
:1014BA00B7F0600088F3B8F060008CF3B9F0600010
:1014CA0090F3BAF0600094F3BBF01DEC08F06000F2
:1014DA00C8F2D6F06000CCF2D7F0DBEF0AF0600079
:1014EA0063F3D9FF600067F3DAFF6F007BFFF6FF53
:1014FA006F0077FFF7FFF86A0800F550250AD8A4AD
:10150A0089EF0AF08BEF0AF0A7EF0AF0600063F3A5
:10151A00D9FF600067F3DAFFDE2A000EDD22000E33
:10152A001B6E250E1A6E600058F31CF060005CF307
:10153A001DF0CEEC0FF0000E0001D76F010ED66F32
:10154A00DBEF0AF0600063F3D9FF600067F3DAFFAC
:10155A00DE2A000EDD22000E0001D76F000ED66FC4
:10156A00DBEF0AF0600063F3D9FF600067F3DAFF8C
:10157A006F007BFFF6FF6F0077FFF7FFF86A08003E
:10158A00F5501A6E1B6A600058F31CF060005CF399
:10159A001DF0CEEC0FF0600063F3D9FF600067F333
:1015AA00DAFFDE2A000EDD22A0EF0AF01200000E9A
:1015BA00296E27BEE5EF0AF0E3EF0AF0F7EF0AF02B
:1015CA00271E261E251E241E231E221E211E206CB7
:1015DA00000E212222222322242225222622272209
:1015EA00010E296E1FBEFEEF0AF0FCEF0AF010EFA3
:1015FA000BF01F1E1E1E1D1E1C1E1B1E1A1E191E50
:10160A00186C000E19221A221B221C221D221E22CD
:10161A001F22010E291A20EE2AF0070EDE6AE806BA
:10162A00FDE220502110221023102410251026102C
:10163A002710D8B423EF0BF025EF0BF077EF0BF060
:10164A00010E286E33EF0BF0D89020362136223661
:10165A0023362436253626362736282A27AE38EF6B
:10166A000BF03AEF0BF029EF0BF0D8902A362B3615
:10167A002C362D362E362F36303631362050185C21
:10168A002150195822501A5823501B5824501C58BC
:10169A0025501D5826501E5827501F58D8A058EFBD
:1016AA000BF05AEF0BF06BEF0BF02050185E215045
:1016BA00195A22501A5A23501B5A24501C5A255080
:1016CA001D5A26501E5A27501F5A2A80D890273250
:1016DA002632253224322332223221322032282E57
:1016EA003AEF0BF02950D8B47DEF0BF07FEF0BF0F7
:1016FA008FEF0BF0311E301E2F1E2E1E2D1E2C1E9C
:10170A002B1E2A6C000E2B222C222D222E222F2257
:10171A00302231226000A8F018F06000ACF019F015
:10172A006000B0F01AF06000B4F01BF06000B8F08E
:10173A001CF06000BCF01DF06000C0F01EF06000FC
:10174A00C4F01FF01200000E296E1FBEB1EF0BF09D
:10175A00AFEF0BF0C3EF0BF01F1E1E1E1D1E1C1E4B
:10176A001B1E1A1E191E186C000E19221A221B2281
:10177A001C221D221E221F22010E296E27BECAEF1D
:10178A000BF0C8EF0BF0DAEF0BF0271E261E251E12
:10179A00241E231E221E211E206C000E212222221C
:1017AA0023222422252226222722205021102210F9
:1017BA0023102410251026102710D8B4E7EF0BF0B9
:1017CA00E9EF0BF031EF0CF0010E286EF7EF0BF09A
:1017DA00D890203621362236233624362536263628
:1017EA002736282A27AEFCEF0BF0FEEF0BF0EDEFC1
:1017FA000BF02050185C2150195822501A582350C7
:10180A001B5824501C5825501D5826501E58275026
:10181A001F58D8A013EF0CF015EF0CF025EF0CF0C1
:10182A002050185E2150195A22501A5A23501B5A16
:10183A0024501C5A25501D5A26501E5A27501F5AEA
:10184A00D8902732263225322432233222322132CC
:10185A002032282EFEEF0BF02950D8B437EF0CF0C7
:10186A0039EF0CF049EF0CF01F1E1E1E1D1E1C1E28
:10187A001B1E1A1E191E186C000E19221A221B2270
:10188A001C221D221E221F22600060F018F0600038
:10189A0064F019F0600068F01AF060006CF01BF058
:1018AA00600070F01CF0600074F01DF0600078F0C9
:1018BA001EF060007CF01FF012006F00D8FF14F0D9
:1018CA006F00DCFF15F06F00E0FF16F06F00D4FF29
:1018DA0017F0390193A974EF0CF076EF0CF08CEF46
:1018EA000CF0A3A97BEF0CF07DEF0CF08CEF0CF061
:1018FA0002D88AEF0CF00500FA6E0001FC51FD6E69
:10190A00FD51FE6EFF6AFA501200EAEF0CF093A541
:10191A0091EF0CF093EF0CF0A8EF0CF0A3A598EF61
:10192A000CF09AEF0CF0A8EF0CF002D8A6EF0CF02E
:10193A000500FA6E3B50FD6E3C50FE6EFF6AFA508F
:10194A001200EAEF0CF092AFADEF0CF0AFEF0CF033
:10195A00B8EF0CF0A2AFB4EF0CF0B6EF0CF0B8EFA2
:10196A000CF09AEF0CF093A3BDEF0CF0BFEF0CF064
:10197A00C8EF0CF0A3A3C4EF0CF0C6EF0CF0C8EF4D
:10198A000CF09AEF0CF093A1CDEF0CF0CFEF0CF026
:10199A00D8EF0CF0A3A1D4EF0CF0D6EF0CF0D8EFEF
:1019AA000CF09AEF0CF091A5DDEF0CF0DFEF0CF0E4
:1019BA00EAEF0CF0A1A5E4EF0CF0E6EF0CF0EAEF89
:1019CA000CF081EC14F0EAEF0CF060005FF0F5FF28
:1019DA0060005BF0F8FF600057F0F7FF600053F01B
:1019EA00F6FF110094EC15F00009D8B4FFEF0CF0E3
:1019FA0001EF0DF03DEF0DF00EEF0DF029EC16F0B2
:101A0A008AEF0DF082EC16F08AEF0DF0000E8AEFE5
:101A1A000DF06000C8F10AF06000CCF10BF002D8BA
:101A2A0021EF0DF00500FA6E00016651FD6E675157
:101A3A00FE6EFF6AFA5012000C6E0D6A0D50000A13
:101A4A00D8B42AEF0DF00BEF0DF00C50010AD8B400
:101A5A000BEF0DF0030AD8B403EF0DF0010AD8B466
:101A6A0007EF0DF0070AD8B40BEF0DF00BEF0DF0EE
:101A7A0089EC15F00009D8B445EF0DF047EF0DF0E9
:101A8A0089EF0DF000018351030B0009D8B450EF20
:101A9A000DF052EF0DF05EEF0DF0010E0C6E83515A
:101AAA00030B0D6E0C500D5E83510D18FC0B0D18B7
:101ABA00836F6000F7F1D9FF6000FBF1DAFFDF50B6
:101ACA00106E7D4B7E2B7F07D8A080077F51801137
:101ADA00D8A472EF0DF074EF0DF07CEF0DF0E6EC88
:101AEA0010F00C6E0C500E6E0F6A80EF0DF0000EA7
:101AFA000F6E030E0E6E600038F011F0105036ECC7
:101B0A0016F011508AEF0DF0030E12001D6E390106
:101B1A0091951D50020D390EF324D96E000EF42052
:101B2A00DA6E6F0078FF1EF06F0074FF1FF03D0E33
:101B3A001D24D96EDA6A000EDA22DF501C6E9185F6
:101B4A001C50D8A4ABEF0DF0ADEF0DF0F2EF0DF095
:101B5A00000E03EF0EF0A60E1E5C040E1F58D8B03E
:101B6A00B9EF0DF0BBEF0DF0DBEF0DF01E50A6083C
:101B7A001E6E1F50D8A0E82A04081F6E600078F075
:101B8A001AF060007CF01BF01A1E1B1E1A4A1B2A50
:101B9A00600063F0D9FF600067F0DAFF60006BF065
:101BAA00DEFF60006FF0DDFFEDEF0DF05A0E1E2430
:101BBA001E6EFB0E1F201F6E600063F0D9FF6000CF
:101BCA0067F0DAFF60007BF0DEFF60007FF0DDFF88
:101BDA00010E03EF0EF0F0EF0DF01D501A6E1B6AA6
:101BEA001B50000AD8B4FCEF0DF0F0EF0DF01A50BC
:101BFA00000AD8B4B0EF0DF0F0EF0DF0120037A0E4
:101C0A0009EF0EF00BEF0EF019EF0EF06000B0F0D6
:101C1A0023F06000B4F024F06000A8F025F0600022
:101C2A00ACF026F048EC13F02FBE1EEF0EF020EFBA
:101C3A000EF028EF0EF06000B8F0B0F06000BCF0D3
:101C4A00B1F02DEF0EF0000E0001B16F000EB06F73
:101C5A00000E0001AF6F000EAE6F43EF0EF0000EE4
:101C6A001B6E200E1A6E6000A8F01CF06000ACF02B
:101C7A001DF0CEEC0FF00001AE4BAF2BB051AE5DB4
:101C8A00AF51800A306EB151800A3058D8A050EF57
:101C9A000EF052EF0EF034EF0EF037B057EF0EF0B1
:101CAA0059EF0EF067EF0EF06000B0F023F060001D
:101CBA00B4F024F06000A8F025F06000ACF026F043
:101CCA0048EC13F06000B0F018F06000B4F019F0BE
:101CDA00B2EC13F00001B05118242A6EB151192048
:101CEA002B6E1200F1EC14F039019195D28E7CEC36
:101CFA0016F07AEC16F0AAEC12F0BA94D6EC15F0BB
:101D0A00600080F000F1600084F001F1020E186EAC
:101D1A00010E196E000E8BEC0DF00009D8B498EF85
:101D2A000EF09AEF0EF0A7EF0EF0300E0001EE6FF4
:101D3A00100EEF6F600008F4F0F060000CF4F1F0A0
:101D4A00B0EC14F0000E206E010E216E130E236EFD
:101D5A00880E226E10EC12F00009D8B4B7EF0EF01C
:101D6A00B9EF0EF08BEF0EF0BAB4BEEF0EF0C1EF82
:101D7A000EF0010EC2EF0EF0000EFF0A326E32466E
:101D8A003246BA503218FB0B3218BA6E270E0001CF
:101D9A00EE6F100EEF6FB0EC14F08BEF0EF00DEF4C
:101DAA0000F0000EBE6E000EBD6E000EBA6E000E82
:101DBA00BB6E000EBC6E070EC66EF90EC26EC00E6A
:101DCA00C36EE50EC46E7E0EC56E810E3A01706F4B
:101DDA00E60E606F5069070E806F4069000E716FE2
:101DEA00000E816F000E516F000E416F000E616F81
:101DFA00000E5A6F000E5B6F000E6A6F000E6B6F5B
:101E0A00000E7A6F000E7B6F000E826F000E426F1B
:101E1A00000E526F180E626F000E726F436953699B
:101E2A0063697369070E836F4469546964697469E5
:101E3A000F0E846F140EE26F210E136F130E116FC3
:101E4A00220E146F100EE56F130EE16F12000001DF
:101E5A00838950EF0FF06BEC16F0080E7EEF0FF04F
:101E6A006BEC16F0070E7EEF0FF000017F293BECBA
:101E7A0016F0040E7EEF0FF0070E00018119D8B498
:101E8A0049EF0FF04BEF0FF04DEF0FF06EEC16F03D
:101E9A000F0E7EEF0FF06000B0F10AF06000B4F1AF
:101EAA000BF002D862EF0FF00500FA6E6051FD6E7A
:101EBA006151FE6EFF6AFA5012000C6E0D6A0D50E7
:101ECA00000AD8B46BEF0FF041EF0FF00C50010A83
:101EDA00D8B441EF0FF0030AD8B435EF0FF0010A76
:101EEA00D8B430EF0FF0070AD8B43AEF0FF041EF49
:101EFA000FF012009FEC15F00009D8A487EF0FF03D
:101F0A0089EF0FF08CEF0FF0040ECDEF0FF0000108
:101F1A008351030B0009D8B495EF0FF097EF0FF038
:101F2A00A3EF0FF0010E0E6E8351030B0F6E0E50CE
:101F3A000F5E83510F18FC0B0F18836F7F07D8A011
:101F4A0080077F518011D8B4ADEF0FF0AFEF0FF0DB
:101F5A00BDEF0FF068EC16F06000F7F1D9FF6000F2
:101F6A00FBF1DAFFDF6E00017D4B7E2B89EF0FF06C
:101F7A002CEC0FF0106E68EC16F06000F7F1D9FF48
:101F8A006000FBF1DAFFDF6E00017D4B7E2B105003
:101F9A0012001C501D10D8B4D5EF0FF0D7EF0FF078
:101FAA00E0EF0FF01C501D10D8A4DEEF0FF0E0EFA9
:101FBA000FF0E5EF0FF01A504DEC15F018EF10F096
:101FCA0020EE04F01C50D9261D50DA22DE50DE1015
:101FDA00D8B4F2EF0FF0F4EF0FF00FEF10F020EE9D
:101FEA0004F01C50D9261D50DA2210EE02F01C50C3
:101FFA00E1261D50E222DE50E65CE650800A226E9F
:10200A00DE50800A2258D8B00DEF10F00FEF10F012
:10201A0018EF10F020EE02F01C50D9261D50DA22DB
:10202A00DE2A000EDD2212003E50D8A41FEF10F067
:10203A0021EF10F050EF10F03D0E3E24D96EDA6A0F
:10204A00000EDA22DF2A3D0E3E24D96EDA6A000E2D
:10205A00DA22DF50D8A434EF10F036EF10F03EEF5A
:10206A0010F03D0E3E24D96EDA6A000EDA22010E15
:10207A00DF6ECBEC15F03E50020D390EF324D96E0B
:10208A00000EF420DA6E600007F0DEFF60000BF04D
:10209A00DDFF52EF10F050EF10F03E2A3E04D8A4B4
:1020AA0059EF10F05BEF10F05DEF10F0000E3E6E8E
:1020BA003E5007EC14F0F7EC15F012003901939931
:1020CA00200E186E270E196EFFEC15F0000E3D015A
:1020DA00EC6F000EED6F000EEE6F000EEF6F000E4C
:1020EA00F06F000EF16FB00EF26F800EF36F000EFC
:1020FA00F46F670EF56F000EF66F000EF76F000EA5
:10210A00F86F000EF96F000EFA6F000E186E000ECF
:10211A00196E0DEC16F0000E186E000E196E06EC14
:10212A0016F0000E186E000E196E14EC16F0000E62
:10213A003F6E000E416E000E406E080E466E120093
:10214A00056E01500210D8B4ADEF10F0AFEF10F0E9
:10215A00CDEF10F00550020D600EF324D96E000E7B
:10216A00F420DA6E600007F0DEFF60000BF0DDFF9E
:10217A000550020D6C0EF324D96E000EF420DA6EAF
:10218A0060000FF0DEFF600013F0DDFFE5EF10F0F6
:10219A000550020D600EF324D96E000EF420DA6E9B
:1021AA000C0EDE6E2D0EDD6E0550020D6C0EF32444
:1021BA00D96E000EF420DA6E000EDE6E000EDD6EB1
:1021CA00120000018389FBEF10F06BEC16F0070E8A
:1021DA0025EF11F000017F293BEC16F0030E25EFE5
:1021EA0011F06EEC16F00A0E25EF11F06000B0F156
:1021FA000AF06000B4F10BF002D80DEF11F00500FF
:10220A00FA6E6051FD6E6151FE6EFF6AFA5012005D
:10221A000C6E0D6A0D50000AD8B416EF11F0F6EFE5
:10222A0010F00C50010AD8B4F6EF10F0030AD8B433
:10223A00EAEF10F0060AD8B4EFEF10F0F6EF10F05C
:10224A001200D3EC12F000018351030B0009D8B439
:10225A0031EF11F033EF11F040EF11F094EC15F07B
:10226A000009D8B43BEF11F03DEF11F040EF11F047
:10227A00100E0001816F00018151020D010EF3243D
:10228A00F66E100EF420F76EF86A000EF8220900B6
:10229A006F00D4FF12F009006F00D4FF13F002D8C8
:1022AA0060EF11F00500FA6E1250FD6E1350FE6ECB
:1022BA00FF6AFA5012000001816F12006000A0F359
:1022CA00ECF06000A4F3EDF0000E00018D6F000E3B
:1022DA008C6F87EF11F0600098F3D6F060009CF3E2
:1022EA00D7F0EC0ED86F000ED96F6000A8F3DAF0C1
:1022FA006000ACF3DBF0C3EC09F00001D6518C2787
:10230A00D7518D236000B3F3F6FF6000B7F3F7FFF0
:10231A00F86A0800F5500009D8A496EF11F098EF72
:10232A0011F070EF11F0600030F2E6F0600034F264
:10233A00E7F0120055EC16F0020E0001826FB2EFC0
:10234A0011F029EC16F0D8EF11F082EC16F0D8EF64
:10235A0011F0EFEC15F0D8EF11F06000B8F10AF0C7
:10236A006000BCF10BF002D8C4EF11F00500FA6E60
:10237A006251FD6E6351FE6EFF6AFA5012000C6ED6
:10238A000D6A0D50000AD8B4CDEF11F0AEEF11F07E
:10239A000C50020AD8B4A6EF11F0010AD8B4AAEF79
:1023AA0011F0AEEF11F01200000E3E01DE6F000ECA
:1023BA00DF6F000EE06F000EE16F000EE46F000E9B
:1023CA00E56F000EEA6F000EEC6F000EF16F010E62
:1023DA00F36F000EF46F000EF56F040EF66F000E29
:1023EA00F76F000EF96F000EFA6F200EFB6F000EEA
:1023FA00FC6F030EFD6F000EFE6F1B0EFF6F840E47
:10240A00F86F3901A1959185120E186E2D0E196E6D
:10241A001BEC16F01200DCEC14F0600060F028F0FF
:10242A00600064F029F0600083F0D9FF600087F053
:10243A00DAFF6F0078FF24F06F0074FF25F0245054
:10244A00285C266E25502958276E2250265C235078
:10245A002758D8B033EF12F035EF12F038EF12F0F8
:10246A00000E45EF12F0600083F0D9FF600087F09C
:10247A00DAFF6000A3F0DEFF6000A7F0DDFF010EC7
:10248A001200FC0E00018317020E826F839555EF2E
:10249A0012F080EC16F07BEF12F00F0E7BEF12F0C9
:1024AA006000C0F10AF06000C4F10BF002D867EFD7
:1024BA0012F00500FA6E6451FD6E6551FE6EFF6AF8
:1024CA00FA5012000C6E0D6A0D50000AD8B470EF63
:1024DA0012F052EF12F00C50020AD8B44EEF12F07A
:1024EA00010AD8B44EEF12F052EF12F01200186E31
:1024FA004650D8B483EF12F085EF12F07DEF12F058
:10250A00390193B98BEF12F08DEF12F092EF12F0BE
:10251A00600063F0EAFDA8EF12F09399840E41245B
:10252A00D96EDA6A000EDA22600063F0DFFF412A10
:10253A00070E4164A3EF12F0A5EF12F0A7EF12F015
:10254A00000E416E460693891200000E3E6E000E82
:10255A001C6E000E1B6E3D0E1B24D96E000E1C2035
:10256A00DA6E000EDF6E1B4A1C2A1CBEC5EF12F083
:10257A001C5008E11B04D8A0C5EF12F0C7EF12F0F7
:10258A00B0EF12F03E50EDEC13F0DFEC15F0320E26
:10259A00186E200E196E1BEC16F01200C0EC15F026
:1025AA000009D8B4DBEF12F0DDEF12F0E1EF12F020
:1025BA0077EC16F0FBEF12F0AAEC15F00009D8B48C
:1025CA00E9EF12F0EBEF12F0EFEF12F071EC16F008
:1025DA00FBEF12F0B5EC15F00009D8B4F7EF12F0E2
:1025EA00F9EF12F0FBEF12F074EC16F012002BBEAA
:1025FA0009EF13F02B5006E12A04D8B007EF13F0C5
:10260A0009EF13F01BEF13F06000A8F02CF0600044
:10261A00ACF02DF02C1E2D1E2C4A2D2A6000B0F095
:10262A002AF06000B4F02BF021EF13F06000A8F05C
:10263A002AF06000ACF02BF0120020EE02F00A50F3
:10264A00D9260B50DA226F0078FF01F06F0074FF71
:10265A0002F060002BF0D9FF60002FF0DAFF6F0064
:10266A0078FF03F06F0074FF04F0C6EC14F0000E5C
:10267A00066E000E076E000E086E000E096E3DEC27
:10268A0015F0020E1200000E296E000E286E5CEF85
:10269A0013F060009CF01AF01B6A600094F01CF0C2
:1026AA00600098F01DF0CEEC0FF0284A292A285035
:1026BA002324D96E29502420DA6EDF50276E275042
:1026CA00D8A46AEF13F06CEF13F04EEF13F0120078
:1026DA00100EF66E2D0EF76E000EF86E09006F00E2
:1026EA00D4FF47F009006F00D4FF48F000EE60F015
:1026FA004E0EEE6AE806FDE100EE33F00F0EEE6ACA
:10270A00E806FDE1080ED56E000ED66E000ED76EF5
:10271A00000177EF0EF0080E466096EF13F098EF7F
:10272A0013F0AFEF13F0840E4024D96EDA6A000E6C
:10273A00DA22DF503D01EA6F402A070E4064A8EF13
:10274A0013F0AAEF13F0ACEF13F0000E406E462A16
:10275A00B1EF13F0390193991200600060F01AF09A
:10276A00600064F01BF0BCEF13F0184A192A6000ED
:10277A0063F0D9FF600067F0DAFFDF50D8A4C8EF32
:10278A0013F0CAEF13F0BAEF13F01A50185C186E70
:10279A001B501958196E1200000EB36E000EB46E5B
:1027AA00090EB56E8A0EB16ED00EB06E3901A491C3
:1027BA00B0506F00C4FE18F0196A600060F019F09A
:1027CA00186A1810426E1950436E030EB26E120048
:1027DA001A6EF5EF13F0220E06EF14F0F3EF13F072
:1027EA001A50186E196A1950000AD8B4FFEF13F07C
:1027FA00F3EF13F01850000AD8B4F0EF13F0F3EF28
:10280A0013F01200036E0FEF14F0220E20EF14F0F3
:10281A000DEF14F00350016E026A0250000AD8B498
:10282A0019EF14F00DEF14F00150000AD8B40AEFB2
:10283A0014F00DEF14F01200600028F001F06000AF
:10284A002CF002F0000E046E010E036EC6EC14F0BA
:10285A00000E066E000E076E000E086E000E096E60
:10286A003DEC15F0040E1200600028F001F0600043
:10287A002CF002F0000E046E020E036EC6EC14F089
:10288A00000E066E000E076E000E086E000E096E30
:10289A003DEC15F0020E1200600028F001F0600015
:1028AA002CF002F0000E046E010E036EC6EC14F05A
:1028BA00000E066E000E076E000E086E000E096E00
:1028CA003DEC15F0020E1200600028F001F06000E5
:1028DA002CF002F0000E046E020E036EC6EC14F029
:1028EA00000E066E000E076E000E086E000E096ED0
:1028FA003DEC15F0040E12003901A1954450451023
:10290A00D8B48AEF14F08CEF14F098EF14F002D8D0
:10291A0098EF14F00500FA6E4450FD6E4550FE6EB5
:10292A00FF6AFA501200120000018351FC0B0209DF
:10293A00836F7F058011D8A4A5EF14F0A7EF14F0D8
:10294A00A9EF14F02CEC0FF0D88000017C3536EC9E
:10295A0016F0040E1200F00E0001F46F000EF56F6F
:10296A00000EE66F000EE76F6000B8F3E8F0600053
:10297A00BCF3E9F0F40EEA6F000EEB6F63EC11F0B2
:10298A001200000183A9CCEF14F0CEEF14F0DBEFB4
:10299A0014F0600004F07DF0600008F07EF0600042
:1029AA000CF07FF0600010F080F083991200B28280
:1029BA006F00C0FE1FF06F00C4FE1EF01E501A6E9C
:1029CA001F501C6E600068F01DF0600070F018F077
:1029DA00600074F019F012007EEC16F01AEC15F093
:1029EA00D6EC0EF05CEC15F045EC16F0D9EC11F0D3
:1029FA00D1EC13F073EC15F063EC10F02CEC15F03D
:102A0A0012005FEC16F05CEC16F00009D8B410EF77
:102A1A0015F012EF15F018EF15F0000E3BEC16F05A
:102A2A00000E36EC16F0000E1200000E3901C06FCF
:102A3A00000EC16F000EC26F000EC36F000EC46F8E
:102A4A00000EC56F000EC66F000EC76F1200040E8F
:102A5A003D01736F800E746F180E756F030E7B6FD6
:102A6A00000E796F000E7A6F000E766F6C69120095
:102A7A00600018F001F060001CF002F0600020F025
:102A8A0003F0600024F004F0000EA5EC10F0120030
:102A9A00196E68EC15F00009D8B456EF15F058EF26
:102AAA0015F04EEF15F019507CEC12F01200600E82
:102ABA003901D96F000EDB6F000EDD6F070EDF6F75
:102ACA00000EDE6F12004650D8A46EEF15F071EFBB
:102ADA0015F0010E72EF15F0000E1200A00EB96E7D
:102AEA00310EB76E000EB66E3901A39F800EB86E16
:102AFA00120000018351FC0B0209836F7C517C2573
:102B0A0036EC16F0030E12003D0178BB8FEF15F07C
:102B1A0092EF15F0010E93EF15F0000E12003D0131
:102B2A0074BB9AEF15F09DEF15F0010E9EEF15F0AC
:102B3A00000E12003D0178B1A5EF15F0A8EF15F0CF
:102B4A00010EA9EF15F0000E12003D0179B5B0EFA4
:102B5A0015F0B3EF15F0010EB4EF15F0000E1200E8
:102B6A003D0176B9BBEF15F0BEEF15F0010EBFEFD0
:102B7A0015F0000E12003D0179BFC6EF15F0C9EF3E
:102B8A0015F0010ECAEF15F0000E12003E01F051C9
:102B9A00046E036AEF510324016E000E0420026ED4
:102BAA001200DCEC14F0600060F020F0600064F0C9
:102BBA0021F01200186E600063F0F1FE3E01F88FFA
:102BCA00F881120040EC16F000018395020E826F24
:102BDA000F0E120040EC16F000018395000E826F72
:102BEA000F0E1200016E600007F0F1FE3E01F88F31
:102BFA00F8811200600060F0FCF0600064F0FDF003
:102C0A001200600060F0F8F0600064F0F9F0120061
:102C1A00600060F0FAF0600064F0FBF012006000FF
:102C2A0060F0F6F0600064F0F7F01200600060F007
:102C3A0044F0600064F045F0120062EC16F05FECBC
:102C4A0016F030EC16F0120000017F513BEC16F042
:102C5A0099EC14F0120000018395000E826F0F0E9A
:102C6A001200016E600007F06BFD1200016E600039
:102C7A0007F06CFD12003D01739F7885738F120077
:102C8A00830E3E01C16F120062EC16F0090E1200AB
:102C9A0065EC16F0040E120065EC16F0030E120035
:102CAA00000E3D01796F120026EC11F012003D0171
:102CBA006C5112003D01739B12003D01748D12008C
:102CCA003D01749D12003D016A5112003D01738D50
:102CDA0012003D01739D12003D01799512003D01DC
:102CEA00769912003D01799F1200B2801200B88EC7
:102CFA001200D29A1200010E1200020E1200050EE4
:0A2D0A001200010E1200A6041200D0
:020000040020DA
:10000000FF0FFF0FFF0FFF0FFF0FFF0FFF0FFF0F80
:020000040030CA
:0A0000008CFFF7FF9FFFFFFFFFFFDB
:00000001FF
