:020000040000FA
:040000000DEF00F010
:04000800C7EF15F039
:06001800FF0003EF1FF0E2
:1010000000C24428415C43BA2CD834B4373234B4DB
:101010004476457245304206450E45A644FE44409E
:1010200044F03A9E393044504354524C205354417A
:1010300052540A00466174616C20256400502025DA
:101040006420200D00502025640A000A45500A0043
:101050000A49500A000000019451800B9D6F945181
:101060009425A36F93AF37EF08F039EF08F03AEF0C
:1010700008F0A381A351D8B440EF08F042EF08F084
:1010800055EF08F0A329D8A448EF08F04AEF08F07C
:1010900052EF08F0000E916F000E926F000E936FEA
:1010A000000E946F938F5DEF08F0000E916F000EAD
:1010B000926F000E936F000E946F9851800B9D1BE2
:1010C000985198259E6F97AF68EF08F06AEF08F087
:1010D0006BEF08F09E819E51D8B471EF08F073EF6A
:1010E00008F086EF08F09E29D8A479EF08F07BEF8E
:1010F00008F083EF08F0000E956F000E966F000E5B
:10110000976F000E986F978F8EEF08F0000E956F17
:10111000000E966F000E976F000E986F9E51D8B418
:1011200094EF08F096EF08F09EEF08F0A351D8A4D2
:101130009CEF08F09EEF08F0A8EF08F0000E916F0A
:10114000000E926F000E936F000E946F70EF0AF016
:10115000975191036F00CCFFA8F06F00D0FFA9F06A
:10116000A8519F6FA06BA16BA26BA951A46FA56B37
:10117000A66BA76B965192036F00CCFFA8F06F008F
:10118000D0FFA9F0A8519F27000EA023A123A223DE
:10119000A951A427000EA523A623A72395519303A5
:1011A0006F00CCFFA8F06F00D0FFA9F0A8519F27D7
:1011B000000EA023A123A223A951A427000EA5233A
:1011C000A623A723600084F2A2F0600080F2A1F0C1
:1011D00060007CF2A0F09F6B955192036F00CCFFF2
:1011E000A8F06F00D0FFA9F0A8519F27A951A02314
:1011F000000EA123000EA223965191036F00CCFF95
:10120000A8F06F00D0FFA9F0A8519F27A951A023F3
:10121000000EA123000EA223600084F2A2F0600061
:1012200080F2A1F060007CF2A0F09F6B95519103D9
:101230006F00CCFFA8F06F00D0FFA9F0A8519F2746
:10124000A951A023000EA123000EA22397519203BF
:101250006F00CCFFA8F06F00D0FFA9F0A851A42721
:10126000A951A523000EA623000EA7239651930390
:101270006F00CCFFA8F06F00D0FFA9F0A851A42701
:10128000A951A523000EA623000EA723975193036F
:101290006F00CCFFA8F06F00D0FFA9F0A851996FA4
:1012A000A9519A6F9B6B9C6B60006CF29CF0600084
:1012B00068F29BF0600064F29AF0996B9951A42750
:1012C0009A51A5239B51A6239C51A72360007CF231
:1012D00099F0600080F29AF0600084F29BF0600068
:1012E00088F29CF0190E7AEF09F0D8909C339B336A
:1012F0009A339933E82E75EF09F09951A4279A5142
:10130000A5239B51A6239C51A723600084F2A2F041
:10131000600080F2A1F060007CF2A0F09F6B9E5113
:1013200060008CF299F09A6B9927000E9A23820E36
:101330009925A86FFF0E9A21A96FB4EF09F0D890F4
:10134000A437A537A637A737A2AFA9EF09F0ABEFAF
:1013500009F0ACEF09F0A481D8909F37A037A137EE
:10136000A237A807D8A0A907A6AFB9EF09F0BBEF2D
:1013700009F09FEF09F0000E9E6FA2AFC2EF09F0D7
:10138000C4EF09F0E8EF09F0FF0E9F15996FFF0E0B
:10139000A0159A6FFF0EA1159B6F7F0EA2159C6F73
:1013A00099519A119B119C11D8B4D9EF09F0DBEF38
:1013B00009F0DFEF09F0010E9E6FE8EF09F0A4A13C
:1013C000E4EF09F0E6EF09F0E8EF09F0DBEF09F0F0
:1013D0009E51D8B4EEEF09F0F0EF09F01CEF0AF0DF
:1013E000010EA427000EA523A623A723A7A1FBEF88
:1013F00009F0FDEF09F01CEF0AF0600090F299F09F
:10140000600094F29AF0600098F29BF060009CF209
:101410009CF09C359C339B339A339933600064F283
:10142000A4F0600068F2A5F060006CF2A6F0600025
:1014300070F2A7F0A84BA92BA9BF27EF0AF0A9517A
:1014400008E1A829D8A027EF0AF029EF0AF033EF26
:101450000AF0000EA46F000EA56F800EA66F7F0E1F
:10146000A76F62EF0AF0A9BF40EF0AF0A95106E1A9
:10147000A805D8B03EEF0AF040EF0AF04CEF0AF0B2
:10148000000EA46F000EA56F000EA66F000EA76FD2
:10149000000E9D6F62EF0AF06000A0F2A3F0FF0E55
:1014A000A417FF0EA5177F0EA617000EA717A3A15E
:1014B0005CEF0AF05EEF0AF05FEF0AF0A68FD890BB
:1014C000A331A76F9D51A713600090F291F06000C7
:1014D00094F292F0600098F293F060009CF294F025
:1014E000120000017B51800B886F7B517B258F6F31
:1014F0007AAF7DEF0AF07FEF0AF080EF0AF08F817C
:101500008F51D8B486EF0AF088EF0AF09DEF0AF009
:101510008F29D8A48EEF0AF090EF0AF098EF0AF026
:10152000000E786F000E796F000E7A6F000E7B6FE1
:101530007A8F000E7B6FA5EF0AF0000E786F000E19
:10154000796F000E7A6F000E7B6F7F51800B881BC6
:101550007F517F25906F7EAFB0EF0AF0B2EF0AF0B7
:10156000B3EF0AF090819051D8B4B9EF0AF0BBEF15
:101570000AF0D0EF0AF09029D8A4C1EF0AF0C3EF27
:101580000AF0CBEF0AF0000E7C6F000E7D6F000EAC
:101590007E6F000E7F6F7E8F000E7F6FD8EF0AF098
:1015A000000E7C6F000E7D6F000E7E6F000E7F6F51
:1015B0007C517D117E117F11D8A4E1EF0AF0E3EF99
:1015C0000AF0FFEF0AF0000E786F000E796F000E40
:1015D0007A6F000E7B6F800E7A137F0E7B1388511B
:1015E0007B136000E0F178F06000E4F179F06000D6
:1015F000E8F17AF06000ECF17BF050EF0CF08F51E5
:10160000D8A405EF0BF007EF0BF011EF0BF0000E75
:10161000786F000E796F000E7A6F000E7B6F50EFBF
:101620000CF0905160003CF280F0816B805F000E06
:10163000815B7F0E8025896F000E81218A6F60009B
:10164000E0F184F06000E4F185F06000E8F186F0FC
:101650006000ECF187F0000E786F000E796F000EDD
:101660007A6F000E7B6F000E8B6F000E8C6F000E7A
:101670008D6F000E8E6F000E906F77EF0BF0905114
:10168000D8B445EF0BF047EF0BF05EEF0BF0D890BE
:101690008437853786378737D890783779377A37E0
:1016A0007B378EAF56EF0BF058EF0BF059EF0BF086
:1016B0007881D8908B378C378D378E377C51845D0D
:1016C0007D5185597E5186597F518759D8A06BEF3E
:1016D0000BF06DEF0BF076EF0BF08E8D7C51845F8D
:1016E0007D51855B7E51865B7F51875B902B190E08
:1016F00090657DEF0BF07FEF0BF03FEF0BF0845127
:10170000851186118711D8B488EF0BF08AEF0BF0A2
:10171000A2EF0BF08B81A2EF0BF0D89078377937DE
:101720007A377B378EAF97EF0BF099EF0BF09AEF8C
:101730000BF07881D8908B378C378D378E378907AF
:10174000D8A08A077AAFA7EF0BF0A9EF0BF08DEFC7
:101750000BF0000E906F8EAFB0EF0BF0B2EF0BF00E
:10176000D6EF0BF0FF0E8B15806FFF0E8C15816F7F
:10177000FF0E8D15826F7F0E8E15836F8051811144
:1017800082118311D8B4C7EF0BF0C9EF0BF0CDEF86
:101790000BF0010E906FD6EF0BF078A1D2EF0BF0AB
:1017A000D4EF0BF0D6EF0BF0C9EF0BF09051D8B49B
:1017B000DCEF0BF0DEEF0BF00AEF0CF0010E7827F8
:1017C000000E79237A237B237BA1E9EF0BF0EBEF6B
:1017D0000BF00AEF0CF06000E0F180F06000E4F143
:1017E00081F06000E8F182F06000ECF183F0833575
:1017F0008333823381338033600000F278F06000FD
:1018000004F279F0600008F27AF060000CF27BF0EC
:10181000894B8A2B8ABF15EF0CF08A5108E1892980
:10182000D8A015EF0CF017EF0CF022EF0CF0000E23
:101830008A6F8969000E786F000E796F000E7A6FDB
:10184000000E7B6F8ABF2FEF0CF08A5106E18905ED
:10185000D8B02DEF0CF02FEF0CF03DEF0CF0000E98
:101860008A6F000E896F000E786F000E796F000E80
:101870007A6F000E7B6F000E886F600024F28FF08D
:101880008FA145EF0CF047EF0CF04AEF0CF07A8F88
:101890004BEF0CF07A9FD8908F317B6FEFEF0AF00F
:1018A0001200600024F2A1F0600028F2A2F06000B3
:1018B0002CF2A3F0600030F2A4F0600034F2A5F046
:1018C000600038F2A6F060003CF2A7F0600040F241
:1018D000A8F00001A8BF6FEF0CF072EF0CF0010E42
:1018E00073EF0CF0000E9F6FA06B9F51A011D8B446
:1018F0007CEF0CF07EEF0CF08EEF0CF0A81FA71F12
:10190000A61FA51FA41FA31FA21FA16D000EA22327
:10191000A323A423A523A623A723A823D9BF93EFFA
:101920000CF095EF0CF096EF0CF0DA93D9BFA3EF23
:101930000CF0D95106E1D805D8B0A1EF0CF0A3EF17
:101940000CF0A9EF0CF0000E9C6F010E9B6FAFEF37
:101950000CF0600060F39BF0600064F39CF06000AA
:1019600058F39DF060005CF39EF09F51A011D8A445
:10197000BCEF0CF0BEEF0CF0C5EF0CF0DAA5C3EF36
:101980000CF0C5EF0CF0C8EF0CF09D07D8A09E0737
:10199000000EAA6F1F0EA96F000E01014B6F70EFB2
:1019A0000DF0A907D8A0AA072C0EA925D96E010E03
:1019B000AA21DA6E600084F26AF0600088F26BF0AF
:1019C00060008CF26CF0600090F26DF0600094F2B8
:1019D0006EF0600098F26FF060009CF270F06000B2
:1019E000A0F271F00A0E726F000E736F000E746F2A
:1019F000000E756F000E766F000E776F000E786F19
:101A0000000E796F52EC14F06000A8F191F06000C4
:101A1000ACF192F06000B0F193F06000B4F194F09A
:101A20006000B8F195F06000BCF196F06000C0F184
:101A300097F06000C4F198F0600044F27CF0600020
:101A40004CF27DF0B5EC1EF000017C51300FDF6EE2
:101A50009B07D8A09C079D07D8A09E07600084F232
:101A60006AF0600088F26BF060008CF26CF060004D
:101A700090F26DF0600094F26EF0600098F26FF0FA
:101A800060009CF270F06000A0F271F00A0E726FBC
:101A9000000E736F000E746F000E756F000E766F80
:101AA000000E776F000E786F000E796FB9EC12F0B0
:101AB0006000A8F1A1F06000ACF1A2F06000B0F10C
:101AC000A3F06000B4F1A4F06000B8F1A5F06000EC
:101AD000BCF1A6F06000C0F1A7F06000C4F1A8F06E
:101AE0000001AABF7CEF0DF0AA5108E1A905D8A01A
:101AF0007CEF0DF07EEF0DF0AEEF0DF0A151A211D5
:101B0000A311A411A511A611A711A811D8A48BEF98
:101B10000DF08DEF0DF0D1EF0CF09CBF9AEF0DF0B2
:101B20009C5106E19B05D8B098EF0DF09AEF0DF0AF
:101B3000D1EF0CF09EBFA5EF0DF09E5108E19D0581
:101B4000D8A0A5EF0DF0A7EF0DF0AEEF0DF0DAB3D2
:101B5000ACEF0DF0AEEF0DF0D1EF0CF09F51A011F6
:101B6000D8A4B5EF0DF0B7EF0DF0BEEF0DF0DAA58C
:101B7000BCEF0DF0BEEF0DF0DDEF0DF0A907D8A022
:101B8000AA079F51A011D8A4C8EF0DF0CAEF0DF01D
:101B9000D0EF0DF0000E9A6F2B0E996FD4EF0DF071
:101BA000000E9A6F2D0E996F2C0EA925D96E010E7D
:101BB000AA21DA6E600067F2DFFF60001CF27CF0A1
:101BC000600020F27DF02C0EA9257E6F010EAA2167
:101BD0007F6F600074F280F0600078F281F07FEC3B
:101BE00018F06000F0F187F06000F4F188F0120066
:101BF000600080F038F0600084F039F0600088F018
:101C00003AF060008CF03BF0600090F03CF0600037
:101C100094F03DF0600098F03EF060009CF03FF0E2
:101C20003FBE15EF0EF018EF0EF0010E19EF0EF09B
:101C3000000E366E376A36503710D8B422EF0EF0E9
:101C400024EF0EF034EF0EF03F1E3E1E3D1E3C1EF4
:101C50003B1E3A1E391E386C000E39223A223B22B6
:101C60003C223D223E223F220001D9BF3AEF0EF036
:101C70003CEF0EF03DEF0EF0DA93D9BF4AEF0EF0D5
:101C8000D95106E1D805D8B048EF0EF04AEF0EF072
:101C900050EF0EF0000E336E010E326E56EF0EF066
:101CA000600060F332F0600064F333F0600058F3DA
:101CB00034F060005CF335F036503710D8A463EF91
:101CC0000EF065EF0EF06CEF0EF0DAA56AEF0EF095
:101CD0006CEF0EF06FEF0EF03406D8A03506000E54
:101CE000416E1F0E406E000E01014B6F16EF0FF09C
:101CF0004006D8A041062C0E4024D96E010E41208A
:101D0000DA6E6000E0F001F06000E4F002F06000E4
:101D1000E8F003F06000ECF004F06000F0F005F093
:101D20006000F4F006F06000F8F007F06000FCF0EE
:101D300008F00A0E096E000E0A6E000E0B6E000E01
:101D40000C6E000E0D6E000E0E6E000E0F6E000E6D
:101D5000106E0DEC15F0600004F028F0600008F043
:101D600029F060000CF02AF0600010F02BF0600009
:101D700014F02CF0600018F02DF060001CF02EF034
:101D8000600020F02FF06000A0F013F06000A8F0D9
:101D900014F04FEC1FF01350300FDF6E3206D8A056
:101DA00033063406D8A035066000E0F001F060008C
:101DB000E4F002F06000E8F003F06000ECF004F002
:101DC0006000F0F005F06000F4F006F06000F8F05C
:101DD00007F06000FCF008F00A0E096E000E0A6EB3
:101DE000000E0B6E000E0C6E000E0D6E000E0E6ED1
:101DF000000E0F6E000E106E86EC13F0600004F003
:101E000038F0600008F039F060000CF03AF0600043
:101E100010F03BF0600014F03CF0600018F03DF072
:101E200060001CF03EF0600020F03FF041BE21EF6A
:101E30000FF0415008E14004D8A021EF0FF023EF4C
:101E40000FF054EF0FF0385039103A103B103C109F
:101E50003D103E103F10D8A430EF0FF032EF0FF0DE
:101E600078EF0EF033BE3FEF0FF0335006E132044F
:101E7000D8B03DEF0FF03FEF0FF078EF0EF035BE2A
:101E80004AEF0FF0355008E13404D8A04AEF0FF0C4
:101E90004CEF0FF054EF0FF00001DAB352EF0FF0F8
:101EA00054EF0FF078EF0EF036503710D8A45BEFF8
:101EB0000FF05DEF0FF065EF0FF00001DAA563EFB3
:101EC0000FF065EF0FF084EF0FF04006D8A0410649
:101ED00036503710D8A46FEF0FF071EF0FF077EF97
:101EE0000FF0000E316E2B0E306E7BEF0FF0000EF8
:101EF000316E2D0E306E2C0E4024D96E010E412015
:101F0000DA6E6000C3F0DFFF600078F013F060006D
:101F10007CF014F02C0E4024156E010E4120166E3C
:101F20006000D0F017F06000D4F018F0F2EC18F078
:101F300060004CF01EF0600050F01FF012006000D6
:101F4000B7F2D9FF6000BBF2DAFF6F007BFFF6FF4C
:101F50006F0077FFF7FFF86A0800F550250AD8A44C
:101F6000B4EF0FF0B6EF0FF090EF10F06000B7F2A3
:101F7000D9FF6000BBF2DAFFDE2A000EDD22000E80
:101F80000001D76F000ED66FD6C0DAF0D7C0DBF0F5
:101F9000D869D9696000B7F2D9FF6000BBF2DAFFF7
:101FA0006F007BFFF6FF6F0077FFF7FFF86A08000E
:101FB000F550640AD8B4DFEF0FF0E1EF0FF0F8EF5F
:101FC0000FF06000B7F2D9FF6000BBF2DAFF6F00DC
:101FD0007BFFF6FF6F0077FFF7FFF86A0800F55008
:101FE000690AD8A4F6EF0FF0F8EF0FF04EEF10F0FB
:101FF0006000B7F2D9FF6000BBF2DAFFDE2A000E04
:10200000DD226000BFF2D9FF6000C3F2DAFF6F008B
:102010007CFFB1F0020EDE266F007CFFB2F0000EF6
:10202000DD226000C7F2D9FF6000CBF2DAFF6F005B
:1020300078FFB3F06F0074FFB4F0000EB4BFFF0E72
:10204000B56FB66FB76FB86FB96FBA6F6000ACF2AB
:1020500087F06000B0F288F06000CCF289F0600098
:10206000D0F28AF06000D4F28BF06000D8F28CF0ED
:102070006000DCF28DF06000E0F28EF06000E4F2CF
:102080008FF06000E8F290F051EC0CF060001CF270
:10209000ABF0600020F2ACF0B5EF10F06000B7F2EA
:1020A000D9FF6000BBF2DAFF6F007BFFF6FF6F0025
:1020B00077FFF7FFF86A0800F550250AD8A463EF08
:1020C00010F065EF10F081EF10F06000B7F2D9FF6B
:1020D0006000BBF2DAFFDE2A000EDD22000E6D6F1B
:1020E000250E6C6F6000ACF26EF06000B0F26FF025
:1020F000BBEC1AF0000E0001AC6F010EAB6FB5EF38
:1021000010F06000B7F2D9FF6000BBF2DAFFDE2A00
:10211000000EDD22000EAC6F000EAB6FB5EF10F0BD
:102120006000B7F2D9FF6000BBF2DAFF6F007BFFFF
:10213000F6FF6F0077FFF7FFF86A0800F55000011F
:102140006C6F6D6B6000ACF26EF06000B0F26FF01F
:10215000BBEC1AF06000B7F2D9FF6000BBF2DAFF07
:10216000DE2A000EDD227AEF10F01200600013F17B
:10217000D9FF600017F1DAFF6F007BFFF6FF6F00F9
:1021800077FFF7FFF86A0800F550250AD8A4CBEFCF
:1021900010F0CDEF10F0A6EF11F0600013F1D9FFB1
:1021A000600017F1DAFFDE2A000EDD22000E0001CA
:1021B000D76F000ED66FD6C0DAF0D7C0DBF0D86983
:1021C000D969600013F1D9FF600017F1DAFF6F00E1
:1021D0007BFFF6FF6F0077FFF7FFF86A0800F55006
:1021E000640AD8B4F6EF10F0F8EF10F00FEF11F02A
:1021F000600013F1D9FF600017F1DAFF6F007BFF79
:10220000F6FF6F0077FFF7FFF86A0800F550690ADC
:10221000D8A40DEF11F00FEF11F065EF11F0600091
:1022200013F1D9FF600017F1DAFFDE2A000EDD227C
:1022300060001BF1D9FF60001FF1DAFF6F007CFF27
:1022400048F0020EDE266F007CFF49F0000EDD2212
:10225000600023F1D9FF600027F1DAFF6F0078FFFB
:102260004AF06F0074FF4BF0000E4BBEFF0E4C6E39
:102270004D6E4E6E4F6E506E516E600008F11EF046
:1022800060000CF11FF0600028F120F060002CF1DC
:1022900021F0600030F122F0600034F123F06000A2
:1022A00038F124F060003CF125F0600040F126F0A8
:1022B000600044F127F0F8EC0DF0600078F042F097
:1022C00060007CF043F0CAEF11F0600013F1D9FF19
:1022D000600017F1DAFF6F007BFFF6FF6F0077FFFA
:1022E000F7FFF86A0800F550250AD8A47AEF11F034
:1022F0007CEF11F097EF11F0600013F1D9FF60004F
:1023000017F1DAFFDE2A000EDD22000E046E250E24
:10231000036E600008F105F060000CF106F007ECB8
:102320001BF0000E436E010E426ECAEF11F060000A
:1023300013F1D9FF600017F1DAFFDE2A000EDD226B
:10234000000E436E000E426ECAEF11F0600013F1F2
:10235000D9FF600017F1DAFF6F007BFFF6FF6F0017
:1023600077FFF7FFF86A0800F550036E046A600013
:1023700008F105F060000CF106F007EC1BF06000BE
:1023800013F1D9FF600017F1DAFFDE2A000EDD221B
:1023900091EF11F012000001726F00017251D8B478
:1023A000D4EF11F0D6EF11F000EF12F06DBFDDEFBA
:1023B00011F0DBEF11F000EF12F06000A8F16EF009
:1023C0006000ACF16FF06000B0F170F06000B4F14B
:1023D00071F06E1F6F1F701F711F6E2B000E6F2329
:1023E000702371236000B8F174F06000BCF175F0E7
:1023F0006000C0F176F06000C4F177F00CEF12F0ED
:102400006000A8F174F06000ACF175F06000B0F10C
:1024100076F06000B4F177F06A516B116C116D11B8
:10242000D8A415EF12F017EF12F021EF12F0000E02
:102430006A6F000E6B6F000E6C6F000E6D6FB8EF61
:1024400012F0960E736F2BEF12F0732BD890773338
:10245000763375337433000E74156E6F000E751578
:102460006F6F000E7615706FFE0E7715716F6E51DF
:102470006F1170117111D8A440EF12F042EF12F0F9
:1024800025EF12F050EF12F0732B010E7427000E9F
:10249000752376237723D890773376337533743367
:1024A000000E74156E6F000E75156F6F000E7615A9
:1024B000706FFF0E7715716F6E516F117011711182
:1024C000D8A465EF12F067EF12F044EF12F06FEF4F
:1024D00012F07307D890743775377637773776BF31
:1024E00074EF12F076EF12F07EEF12F0020E7361CD
:1024F0007CEF12F07EEF12F069EF12F073B183EF10
:1025000012F085EF12F086EF12F0769FD8907333B9
:102510006000CCF16EF06F6B706B716B6000B8F1A6
:1025200071F0706B6F6B6E6B6E5174136F5175132E
:1025300070517613715177137251D8B4A2EF12F023
:10254000A4EF12F0ACEF12F06DBFABEF12F0A9EFF9
:1025500012F0ACEF12F0778F6000D0F16AF06000FB
:10256000D4F16BF06000D8F16CF06000DCF16DF03C
:102570001200000E00017B6F79BFC3EF12F0C1EFB4
:1025800012F0D5EF12F0791F781F771F761F751F95
:10259000741F731F726D000E7323742375237623CB
:1025A000772378237923010E7B6F71BFDCEF12F064
:1025B000DAEF12F0EEEF12F0711F701F6F1F6E1F37
:1025C0006D1F6C1F6B1F6A6D000E6B236C236D23D8
:1025D0006E236F2370237123010E7B1B20EE7CF092
:1025E000070EDE6AE806FDE272517311741175116F
:1025F0007611771178117911D8B401EF13F003EF48
:1026000013F055EF13F0010E7A6F11EF13F0D8901D
:102610007237733774377537763777377837793756
:102620007A2B79AF16EF13F018EF13F007EF13F0D2
:10263000D8907C377D377E377F3780378137823738
:10264000833772516A5D73516B5974516C5975516E
:102650006D5976516E5977516F597851705979513A
:102660007159D8A036EF13F038EF13F049EF13F09B
:1026700072516A5F73516B5B74516C5B75516D5B2A
:1026800076516E5B77516F5B7851705B7951715BFE
:102690007C81D890793378337733763375337433DC
:1026A000733372337A2F18EF13F07B51D8B45BEF8A
:1026B00013F05DEF13F06DEF13F0831F821F811F86
:1026C000801F7F1F7E1F7D1F7C6D000E7D237E235C
:1026D0007F2380238123822383236000F0F16AF02B
:1026E0006000F4F16BF06000F8F16CF06000FCF158
:1026F0006DF0600000F26EF0600004F26FF06000B8
:1027000008F270F060000CF271F01200000E126E10
:1027100010BE8FEF13F08DEF13F0A1EF13F0101E2A
:102720000F1E0E1E0D1E0C1E0B1E0A1E096C000E27
:102730000A220B220C220D220E220F221022010E41
:10274000126E08BEA8EF13F0A6EF13F0BAEF13F065
:10275000081E071E061E051E041E031E021E016C17
:10276000000E02220322042205220622072208224A
:10277000010E121A20EE13F0070EDE6AE806FDE2E3
:1027800009500A100B100C100D100E100F10101025
:10279000D8B4CDEF13F0CFEF13F021EF14F0010E0A
:1027A000116EDDEF13F0D89009360A360B360C3671
:1027B0000D360E360F361036112A10AEE2EF13F03A
:1027C000E4EF13F0D3EF13F0D89013361436153628
:1027D00016361736183619361A360950015C0A5063
:1027E00002580B5003580C5004580D5005580E5009
:1027F00006580F50075810500858D8A002EF14F090
:1028000004EF14F015EF14F00950015E0A50025A5B
:102810000B50035A0C50045A0D50055A0E50065ACC
:102820000F50075A1050085A1380D89010320F32A8
:102830000E320D320C320B320A320932112EE4EF15
:1028400013F01250D8B427EF14F029EF14F039EF39
:1028500014F01A1E191E181E171E161E151E141E01
:10286000136C000E14221522162217221822192288
:102870001A2260004CF001F0600050F002F060009D
:1028800054F003F0600058F004F060005CF005F0D4
:10289000600060F006F0600064F007F0600068F02F
:1028A00008F01200000E00017B6F71BF5CEF14F0A6
:1028B0005AEF14F06EEF14F0711F701F6F1F6E1F30
:1028C0006D1F6C1F6B1F6A6D000E6B236C236D23D5
:1028D0006E236F2370237123010E7B6F79BF75EF19
:1028E00014F073EF14F085EF14F0791F781F771F41
:1028F000761F751F741F731F726D000E7323742370
:1029000075237623772378237923725173117411F9
:1029100075117611771178117911D8B492EF14F0FE
:1029200094EF14F0DCEF14F0010E7A6FA2EF14F0C4
:10293000D89072377337743775377637773778377B
:1029400079377A2B79AFA7EF14F0A9EF14F098EF4D
:1029500014F072516A5D73516B5974516C59755111
:102960006D5976516E5977516F5978517059795127
:102970007159D8A0BEEF14F0C0EF14F0D0EF14F0EE
:1029800072516A5F73516B5B74516C5B75516D5B17
:1029900076516E5B77516F5B7851705B7951715BEB
:1029A000D890793378337733763375337433733320
:1029B00072337A2FA9EF14F07B51D8B4E2EF14F000
:1029C000E4EF14F0F4EF14F0711F701F6F1F6E1F0F
:1029D0006D1F6C1F6B1F6A6D000E6B236C236D23C4
:1029E0006E236F23702371236000A8F16AF06000EA
:1029F000ACF16BF06000B0F16CF06000B4F16DF020
:102A00006000B8F16EF06000BCF16FF06000C0F1E2
:102A100070F06000C4F171F01200000E126E08BE7A
:102A200016EF15F014EF15F028EF15F0081E071E2D
:102A3000061E051E041E031E021E016C000E02224D
:102A4000032204220522062207220822010E126E0A
:102A500010BE2FEF15F02DEF15F03FEF15F0101E03
:102A60000F1E0E1E0D1E0C1E0B1E0A1E096C000EE4
:102A70000A220B220C220D220E220F2210220950B4
:102A80000A100B100C100D100E100F101010D8B4EF
:102A90004CEF15F04EEF15F096EF15F0010E116E9C
:102AA0005CEF15F0D89009360A360B360C360D3629
:102AB0000E360F361036112A10AE61EF15F063EFA7
:102AC00015F052EF15F00950015C0A5002580B50F6
:102AD00003580C5004580D5005580E5006580F500E
:102AE000075810500858D8A078EF15F07AEF15F075
:102AF0008AEF15F00950015E0A50025A0B50035A32
:102B00000C50045A0D50055A0E50065A0F50075AD1
:102B10001050085AD89010320F320E320D320C324B
:102B20000B320A320932112E63EF15F01250D8B46D
:102B30009CEF15F09EEF15F0AEEF15F0081E071E86
:102B4000061E051E041E031E021E016C000E02223C
:102B5000032204220522062207220822600004F034
:102B600001F0600008F002F060000CF003F060007B
:102B700010F004F0600014F005F0600018F006F0AA
:102B800060001CF007F0600020F008F012006F00F9
:102B9000D8FF66F06F00DCFF67F06F00E0FF68F0C1
:102BA0006F00D4FF69F0390193A9D9EF15F0DBEF7D
:102BB00015F0F1EF15F0A3A9E0EF15F0E2EF15F035
:102BC000F1EF15F002D8EFEF15F00500FA6E0001F5
:102BD000EB51FD6EEC51FE6EFF6AFA50120050EFA1
:102BE00016F093A5F6EF15F0F8EF15F00EEF16F0CE
:102BF000A3A5FDEF15F0FFEF15F00EEF16F002D8CC
:102C00000CEF16F00500FA6E0001DE51FD6EDF518B
:102C1000FE6EFF6AFA50120050EF16F092AF13EFFB
:102C200016F015EF16F01EEF16F0A2AF1AEF16F021
:102C30001CEF16F01EEF16F0FFEF15F093A323EF35
:102C400016F025EF16F02EEF16F0A3A32AEF16F0DC
:102C50002CEF16F02EEF16F0FFEF15F093A133EFE7
:102C600016F035EF16F03EEF16F0A3A13AEF16F08E
:102C70003CEF16F03EEF16F0FFEF15F091A543EF95
:102C800016F045EF16F050EF16F0A1A54AEF16F03A
:102C90004CEF16F050EF16F01BEC20F050EF16F052
:102CA0006000A7F1F5FF6000A3F1F8FF60009FF15D
:102CB000F7FF60009BF1F6FF1100C4EC21F0000962
:102CC000D8B465EF16F067EF16F0A3EF16F074EFC7
:102CD00016F05AEC22F0F0EF16F0BBEC22F0F0EF19
:102CE00016F0000EF0EF16F0600048F40AF06000F5
:102CF0004CF40BF002D887EF16F00500FA6E0101D4
:102D00000651FD6E0751FE6EFF6AFA5012000C6EFE
:102D10000D6A0D50000AD8B490EF16F071EF16F05E
:102D20000C50010AD8B471EF16F0030AD8B469EF59
:102D300016F0010AD8B46DEF16F0070AD8B471EF97
:102D400016F071EF16F0B9EC21F00009D8B4ABEF32
:102D500016F0ADEF16F0EFEF16F001012351030B63
:102D60000009D8B4B6EF16F0B8EF16F0C4EF16F0BD
:102D7000010E0C6E2351030B0D6E0C500D5E235192
:102D80000D18FC0B0D18236F600077F4D9FF60005D
:102D90007BF4DAFFDF50106E1D4B1E2B1F07D8A0EF
:102DA00020071F512011D8A4D8EF16F0DAEF16F043
:102DB000E2EF16F0DAEC1BF00C6E0C500E6E0F6AA0
:102DC000E6EF16F0000E0F6E030E0E6E600038F088
:102DD00011F010506CEC22F01150F0EF16F0030ED1
:102DE00012000001AC35AD35B36FB351D8A4FBEF81
:102DF00016F0FDEF16F007EF17F0000EAA6F000EA9
:102E0000AB6F000EAC6F000EAD6F7CEF17F0600083
:102E1000A8F2AEF06000ACF2AFF06000B0F2B0F03B
:102E20006000B4F2B1F0200E1BEF17F0D890B13370
:102E3000B033AF33AE33E82E16EF17F0AE51B26FAA
:102E4000AC8FFF0EAA17FF0EAB17FF0EAC17000ECC
:102E5000AD17960EB35FB3BF32EF17F030EF17F038
:102E600048EF17F0B351800A970FD8B03AEF17F038
:102E70003CEF17F03EEF17F0FDEF16F0D890AD33B2
:102E8000AC33AB33AA33B33F3EEF17F060EF17F02C
:102E90001F0EB3654EEF17F050EF17F058EF17F015
:102EA000FDEF16F0D890AA37AB37AC37AD37B30784
:102EB000B351D8A45EEF17F060EF17F052EF17F0A0
:102EC000B251D8B466EF17F068EF17F070EF17F053
:102ED000AD1FAC1FAB1FAA6D000EAB23AC23AD23FF
:102EE0006000A8F2AAF06000ACF2ABF06000B0F2B3
:102EF000ACF06000B4F2ADF012000001D06F390107
:102F000091950001D051020DDC0EF324D96E000E14
:102F1000F420DA6E6F0078FFD1F06F0074FFD2F00A
:102F2000E00ED025D96EDA6A000EDA22DF50CF6FBC
:102F3000390191850001CF51D8A4A1EF17F0A3EF7B
:102F400017F0F3EF17F0000E04EF18F0A60ED15DA6
:102F5000040ED259D8B0AFEF17F0B1EF17F0D1EFA0
:102F600017F0D151A608D16FD251D8A0E82A040891
:102F7000D26F600044F3CDF0600048F3CEF0CD1F77
:102F8000CE1FCD4BCE2B60002FF3D9FF600033F363
:102F9000DAFF600037F3DEFF60003BF3DDFFE3EFB5
:102FA00017F05A0ED125D16FFB0ED221D26F6000DF
:102FB0002FF3D9FF600033F3DAFF600047F3DEFF41
:102FC00060004BF3DDFF010E04EF18F0BA94340EED
:102FD000C36F100EC46F000EC66F010EC56FC1EC3B
:102FE00020F004EF18F0D051CD6FCE6BCE51000A17
:102FF000D8B4FDEF17F0E6EF17F0CD51000AD8B4C2
:10300000A6EF17F0E6EF17F0120003EC21F03901FC
:103010009195D28E11EC1EF067EC22F0270E000184
:10302000C36F100EC46FC1EC20F006EC22F06000FC
:10303000C8F153F16000CCF154F1530E0001B46FAC
:10304000010EB56F000EB76F320EB66F41EC1DF07A
:103050000009D8A42EEF18F030EF18F01DEF18F08B
:1030600006EC22F06000C8F14CF16000CCF14DF1AB
:103070004C0E0001B46F010EB56F000EB76F640EF9
:10308000B66F41EC1DF00009D8B449EF18F04BEFD2
:1030900018F038EF18F0550E0001CB6F010ECC6F11
:1030A000000E7DEC17F00009D8B459EF18F05BEF73
:1030B00018F068EF18F03D0E0001C36F100EC46FDA
:1030C000600054F5C5F0600058F5C6F0C1EC20F082
:1030D000BAB46DEF18F070EF18F0010E71EF18F040
:1030E000000EFF0A0001D36FD347D347BA50D3195C
:1030F000FB0BD319BA6E38EF18F00DEF00F000019A
:10310000DAA185EF18F087EF18F095EF18F060005E
:10311000F8F175F06000FCF176F06000F0F177F006
:103120006000F4F178F08EEC1EF0000181BF9BEF9F
:1031300018F09DEF18F0A5EF18F0600000F285F090
:10314000600004F286F0A9EF18F0000E866F000E02
:10315000856F000E846F000E836FBEEF18F0000EB7
:103160006D6F200E6C6F6000F0F16EF06000F4F196
:103170006FF0BBEC1AF00001834B842B8551835D0B
:103180008451800A826F8651800A8259D8A0CBEF81
:1031900018F0CDEF18F0AFEF18F0DAB1D2EF18F069
:1031A000D4EF18F0E2EF18F06000F8F175F060006D
:1031B000FCF176F06000F0F177F06000F4F178F067
:1031C0008EEC1EF06000F8F16AF06000FCF16BF02C
:1031D000BEEC1FF0000185516A257C6F86516B2182
:1031E0007D6F12000001DAA1F8EF18F0FAEF18F085
:1031F00008EF19F0600054F00CF0600058F00DF08A
:1032000060004CF00EF0600050F00FF075EC1FF015
:1032100018BE0DEF19F00FEF19F017EF19F060005D
:103220005CF01CF0600060F01DF01BEF19F0000E68
:103230001D6E000E1C6E000E1B6E000E1A6E2FEF20
:1032400019F0000E046E200E036E60004CF005F0C5
:10325000600050F006F007EC1BF01A4A1B2A1C50C5
:103260001A5C1B50800A196E1D50800A1958D8A08C
:103270003CEF19F03EEF19F021EF19F00001DAB13F
:1032800044EF19F046EF19F054EF19F0600054F0D4
:103290000CF0600058F00DF060004CF00EF0600093
:1032A00050F00FF075EC1FF0600054F001F060007A
:1032B00058F002F0DFEC1FF01C500124136E1D507B
:1032C0000220146E12000001E151D8A46AEF19F037
:1032D0006CEF19F0A5EF19F0E00EE125D96EDA6A6E
:1032E000000EDA22E00EE125E16EE26A000EE22233
:1032F000E750656F6529DF6EE00EE125D96EDA6A69
:10330000000EDA22DF50D8A488EF19F08AEF19F006
:1033100092EF19F0E00EE125D96EDA6A000EDA229A
:10332000010EDF6EFBEC21F00001E151020DDC0E1D
:10333000F324D96E000EF420DA6E600007F0DEFF91
:1033400060000BF0DDFFB0EF19F0BA94340E5A6E46
:10335000100E5B6E000E5D6E010E5C6EEDEC20F0EB
:103360000001E12BE105D8A4B8EF19F0BAEF19F08C
:10337000BCEF19F0000EE16FE151DCEC1EF028EC1F
:1033800022F01200000EBE6E000EBD6E000EBA6E70
:10339000000EBB6E000EBC6E070EC66EF90EC26E3E
:1033A000C00EC36EE50EC46E7E0EC56E810E3A0170
:1033B000706FE60E606F5069070E806FFB0E406FF6
:1033C000000E716F000E816F000E516F000E416F85
:1033D000000E616F000E5A6F000E5B6F000E6A6F79
:1033E000000E6B6F000E7A6F000E7B6F000E826F07
:1033F000000E426F000E526F180E626F000E726F59
:103400004369536963697369070E836F446954693B
:10341000646974690F0E846F140EE26F210E136FCE
:10342000130E116F220E146F100EE56F130EE16F65
:103430001200010123893DEF1AF0A1EC22F0080EE1
:103440006BEF1AF0A1EC22F0070E6BEF1AF00101FE
:103450001F2971EC22F0040E6BEF1AF0070E010128
:103460002119D8B436EF1AF038EF1AF03AEF1AF003
:10347000A4EC22F00F0E6BEF1AF0600030F40AF0AB
:10348000600034F40BF002D84FEF1AF00500FA6E2A
:103490000051FD6E0151FE6EFF6AFA5012000C6E73
:1034A0000D6A0D50000AD8B458EF1AF02EEF1AF03A
:1034B0000C50010AD8B42EEF1AF0030AD8B422EF48
:1034C0001AF0010AD8B41DEF1AF0070AD8B427EF92
:1034D0001AF02EEF1AF01200CFEC21F00009D8A458
:1034E00074EF1AF076EF1AF079EF1AF0040EBAEFD3
:1034F0001AF001012351030B0009D8B482EF1AF02E
:1035000084EF1AF090EF1AF0010E0E6E2351030BA8
:103510000F6E0E500F5E23510F18FC0B0F18236F08
:103520001F07D8A020071F512011D8B49AEF1AF016
:103530009CEF1AF0AAEF1AF09EEC22F0600077F4EC
:10354000D9FF60007BF4DAFFDF6E01011D4B1E2BFB
:1035500076EF1AF019EC1AF0106E9EEC22F0600073
:1035600077F4D9FF60007BF4DAFFDF6E01011D4BB9
:103570001E2B1050120000016E516F11D8B4C3EF12
:103580001AF0C5EF1AF0CEEF1AF06E516F11D8A4F1
:10359000CCEF1AF0CEEF1AF0D3EF1AF06C513EECEC
:1035A00021F006EF1BF020EE04F06E51D9266F518A
:1035B000DA22DE50DE10D8B4E0EF1AF0E2EF1AF0B3
:1035C000FDEF1AF020EE04F06E51D9266F51DA2289
:1035D00010EE02F06E51E1266F51E222DE50E65C01
:1035E000E650800A746FDE50800A7459D8B0FBEF41
:1035F0001AF0FDEF1AF006EF1BF020EE02F06E510C
:10360000D9266F51DA22DE2A000EDD221200055083
:103610000610D8B40EEF1BF010EF1BF019EF1BF0E3
:1036200005500610D8A417EF1BF019EF1BF01EEF82
:103630001BF0035070EC21F051EF1BF020EE04F072
:103640000550D9260650DA22DE50DE10D8B42BEF12
:103650001BF02DEF1BF048EF1BF020EE04F005509F
:10366000D9260650DA2210EE02F00550E126065067
:10367000E222DE50E65CE650800A0B6EDE50800AE5
:103680000B58D8B046EF1BF048EF1BF051EF1BF082
:1036900020EE02F00550D9260650DA22DE2A000E6E
:1036A000DD22120039019399340E00016A6F3F0E3A
:1036B0006B6F30EC22F0000E3D01EC6F000EED6FF1
:1036C000000EEE6F000EEF6F000EF06F000EF16F48
:1036D000B00EF26F800EF36F000EF46F670EF56F91
:1036E000000EF66F000EF76F000EF86F000EF96F08
:1036F000000EFA6F000E00016A6F000E6B6F3EEC59
:1037000022F0000E00016A6F000E6B6F37EC22F0A2
:10371000000E00016A6F000E6B6F45EC22F0000E88
:103720000001E26F000EE46F000EE36F080EEF6F12
:103730001200056E01500210D8B4A1EF1BF0A3EFE8
:103740001BF0C1EF1BF00550020D000EF324D96EE3
:10375000010EF420DA6E600007F0DEFF60000BF06F
:10376000DDFF0550020D0C0EF324D96E010EF4207E
:10377000DA6E60000FF0DEFF600013F0DDFFD9EFBE
:103780001BF00550020D000EF324D96E010EF4203B
:10379000DA6E7E0EDE6E450EDD6E0550020D0C0EED
:1037A000F324D96E010EF420DA6E000EDE6E000EE8
:1037B000DD6E120001012389EFEF1BF0A1EC22F076
:1037C000070E19EF1CF001011F2971EC22F0030E06
:1037D00019EF1CF0A4EC22F00A0E19EF1CF06000A7
:1037E00030F40AF0600034F40BF002D801EF1CF062
:1037F0000500FA6E0051FD6E0151FE6EFF6AFA502F
:1038000012000C6E0D6A0D50000AD8B40AEF1CF0BD
:10381000EAEF1BF00C50010AD8B4EAEF1BF0030AE0
:10382000D8B4DEEF1BF0060AD8B4E3EF1BF0EAEFE2
:103830001BF012003EEC1EF001012351030B0009A6
:10384000D8B425EF1CF027EF1CF034EF1CF0C4ECCB
:1038500021F00009D8B42FEF1CF031EF1CF034EF49
:103860001CF0100E0101216F01012151020D010E0A
:10387000F324F66E100EF420F76EF86A000EF822AC
:1038800009006F00D4FF12F009006F00D4FF13F09D
:1038900002D854EF1CF00500FA6E1250FD6E135062
:1038A000FE6EFF6AFA5012000101216F12006000E3
:1038B000F4F2C1F06000F8F2C2F0000E0001D56F22
:1038C000000ED46F7BEF1CF06000ECF2ABF06000F8
:1038D000F0F2ACF0C10EAD6F000EAE6F6000FCF206
:1038E000AFF0600000F3B0F09FEC0FF00001AB51BF
:1038F000D427AC51D523600007F3F6FF60000BF32B
:10390000F7FFF86A0800F5500009D8A48AEF1CF008
:103910008CEF1CF064EF1CF0600050F3BBF0600013
:1039200054F3BCF01200600050F158F0600054F104
:1039300059F0000E0001D56F000ED46FB7EF1CF0E8
:10394000600048F142F060004CF143F0580E446EC4
:10395000000E456E600058F146F060005CF147F0E3
:10396000B6EC10F042500001D4274350D52360003C
:1039700063F1F6FF600067F1F7FFF86A0800F550A1
:103980000009D8A4C6EF1CF0C8EF1CF0A0EF1CF093
:10399000600050F352F0600054F353F012008BECCF
:1039A00022F0020E0101226FE2EF1CF05AEC22F02D
:1039B00008EF1DF0BBEC22F008EF1DF020EC22F028
:1039C00008EF1DF0600038F40AF060003CF40BF0E2
:1039D00002D8F4EF1CF00500FA6E0251FD6E03519F
:1039E000FE6EFF6AFA5012000C6E0D6A0D50000A4E
:1039F000D8B4FDEF1CF0DEEF1CF00C50020AD8B476
:103A0000D6EF1CF0010AD8B4DAEF1CF0DEEF1CF0A0
:103A10001200000E3E01DE6F000EDF6F000EE06F41
:103A2000000EE16F000EE46F000EE56F000EEA6F0E
:103A3000000EEC6F000EF16F010EF36F000EF46FCD
:103A4000000EF56F040EF66F000EF76F000EF96FA3
:103A5000000EFA6F200EFB6F000EFC6F030EFD6F61
:103A6000000EFE6F1B0EFF6F840EF86F3901A195DB
:103A70009185820E00016A6F450E6B6F4CEC22F04F
:103A80001200ABEC20F06000A8F1BCF06000ACF1DB
:103A9000BDF06000D3F2D9FF6000D7F2DAFF6F000B
:103AA00078FFB8F06F0074FFB9F00001B851BC5D49
:103AB000BA6FB951BD59BB6FB651BA5DB751BB5959
:103AC000D8B065EF1DF067EF1DF06AEF1DF0000E36
:103AD00077EF1DF06000D3F2D9FF6000D7F2DAFF74
:103AE0006000F3F2DEFF6000F7F2DDFF010E12006E
:103AF000FC0E01012317020E226F239587EF1DF0A4
:103B0000B9EC22F0ADEF1DF00F0EADEF1DF060002F
:103B100040F40AF0600044F40BF002D899EF1DF075
:103B20000500FA6E0451FD6E0551FE6EFF6AFA50F3
:103B300012000C6E0D6A0D50000AD8B4A2EF1DF0F1
:103B400084EF1DF00C50020AD8B480EF1DF0010A7A
:103B5000D8B480EF1DF084EF1DF0120000016A6FF1
:103B60000001EF51D8B4B7EF1DF0B9EF1DF0B0EF81
:103B70001DF0390193B9BFEF1DF0C1EF1DF0C6EF85
:103B80001DF06000ABF1EAFDDDEF1DF09399240E0E
:103B90000001E425D96EDA6A010EDA226000ABF189
:103BA000DFFFE42B070EE465D8EF1DF0DAEF1DF020
:103BB000DCEF1DF0000EE46FEF073901938912006E
:103BC000016E0001EF51D8B4E8EF1DF0EAEF1DF0EF
:103BD000E1EF1DF0390193B9F0EF1DF0F2EF1DF0A8
:103BE000F7EF1DF0600007F0EAFD0EEF1EF093996D
:103BF000240E0001E425D96EDA6A010EDA22600093
:103C000007F0DFFFE42B070EE46509EF1EF00BEF72
:103C10001EF00DEF1EF0000EE46FEF0739019389DF
:103C20001200000E0001E16F000ECF6F000ECE6F8C
:103C3000E00ECE25D96E000ECF21DA6E000EDF6EBB
:103C4000CE4BCF2BCFBF2DEF1EF0CF5108E1CE05CD
:103C5000D8A02DEF1EF02FEF1EF018EF1EF0E1514F
:103C600067EC1EF00FEC22F0C60E00016A6F320EF8
:103C70006B6F4CEC22F0390191851200F0EC21F0D1
:103C80000009D8B446EF1EF048EF1EF04CEF1EF0CE
:103C9000ADEC22F066EF1EF0DAEC21F00009D8B4AA
:103CA00054EF1EF056EF1EF05AEF1EF0A7EC22F074
:103CB00066EF1EF0E5EC21F00009D8B462EF1EF0CB
:103CC00064EF1EF066EF1EF0AAEC22F01200000175
:103CD000CD6F7BEF1EF0220E8DEF1EF0BA94340EE6
:103CE000C36F100EC46F000EC66F010EC56FC1EC1E
:103CF00020F08DEF1EF00001CD51CB6FCC6BCC517D
:103D0000000AD8B486EF1EF06EEF1EF0CB51000A09
:103D1000D8B46BEF1EF06EEF1EF01200000E000123
:103D20007B6F000E7A6FA4EF1EF06000E4F16CF080
:103D30006D6B6000DCF16EF06000E0F16FF0BBECE9
:103D40001AF000017A4B7B2B7A517525D96E7B5185
:103D50007621DA6EDF50796F7951D8A4B2EF1EF078
:103D6000B4EF1EF095EF1EF0120000017DBFC3EF0F
:103D70001EF07D5106E17C05D8B0C1EF1EF0C3EF07
:103D80001EF0D5EF1EF06000F0F17EF06000F4F15F
:103D90007FF07E1F7F1F7E4B7F2B6000F8F17CF051
:103DA0006000FCF17DF0DBEF1EF06000F0F17CF0D4
:103DB0006000F4F17DF012000001646FF0EF1EF07E
:103DC000220E02EF1FF0BA94340E5A6E100E5B6E84
:103DD000000E5D6E010E5C6EEDEC20F002EF1FF048
:103DE000000164515E6E5F6A5F50000AD8B4FBEF59
:103DF0001EF0E3EF1EF05E50000AD8B4E0EF1EF0B4
:103E0000E3EF1EF01200600EF66E450EF76E000E28
:103E1000F86E00EEF0F010EE05F009006F00D7FF2D
:103E2000EEFFE550E150F9E100EE00F14C0EEE6AD4
:103E3000E806FDE100EED4F0110EEE6AE806FDE1C1
:103E4000080ED56E000ED66E000ED76E000105EF7F
:103E500018F020EE02F00A50D9260B50DA226F003B
:103E600078FF01F06F0074FF02F060002BF0D9FFC3
:103E700060002FF0DAFF6F0078FF03F06F0074FF2F
:103E800004F0D7EC20F0000E066E000E076E000E58
:103E9000086E000E096E60EC21F0020E120014BED6
:103EA0005CEF1FF0145006E11304D8B05AEF1FF076
:103EB0005CEF1FF06EEF1FF060004CF015F060003B
:103EC00050F016F0151E161E154A162A600054F002
:103ED00013F0600058F014F074EF1FF060004CF025
:103EE00013F0600050F014F01200000E126E000E7D
:103EF000116E89EF1FF0600040F003F0046A60006B
:103F000038F005F060003CF006F007EC1BF0114AB9
:103F1000122A11500C24D96E12500D20DA6EDF5087
:103F2000106E1050D8A497EF1FF099EF1FF07BEFA1
:103F30001FF01200080E0001EF61A1EF1FF0A3EFC8
:103F40001FF0BBEF1FF0240EE325D96EDA6A010ED5
:103F5000DA22DF503D01EA6F0001E32B070EE36533
:103F6000B4EF1FF0B6EF1FF0B8EF1FF0000EE36FD5
:103F7000EF2BBDEF1FF03901939912006000A8F1FB
:103F80006CF06000ACF16DF0C9EF1FF000016A4BFE
:103F90006B2B6000ABF1D9FF6000AFF1DAFFDF50AF
:103FA000D8A4D5EF1FF0D7EF1FF0C6EF1FF0000128
:103FB0006C516A5D6A6F6D516B596B6F12006000D6
:103FC00004F003F0600008F004F0E9EF1FF0014A8C
:103FD000022A600007F0D9FF60000BF0DAFFDF5023
:103FE000D8A4F5EF1FF0F7EF1FF0E7EF1FF0035035
:103FF000015C016E04500258026E1200000EB36E96
:10400000000EB46E090EB56EF40EB16E480EB06EB1
:104010003901A491B0506F00C4FE6AF000016B6BCF
:104020006000A8F16BF06A6B6A11E56F6B51E66F87
:10403000030EB26E12003901A1950001ED51EE118F
:10404000D8B425EF20F027EF20F033EF20F002D88E
:1040500033EF20F00500FA6EED51FD6EEE51FE6E6D
:10406000FF6AFA5012001200600028F001F06000B0
:104070002CF002F0000E046E010E036ED7EC20F05F
:10408000000E066E000E076E000E086E000E096E22
:1040900060EC21F0040E1200600028F001F06000D6
:1040A0002CF002F0000E046E020E036ED7EC20F02E
:1040B000000E066E000E076E000E086E000E096EF2
:1040C00060EC21F0020E1200600028F001F06000A8
:1040D0002CF002F0000E046E010E036ED7EC20F0FF
:1040E000000E066E000E076E000E086E000E096EC2
:1040F00060EC21F0020E1200600028F001F0600078
:104100002CF002F0000E046E020E036ED7EC20F0CD
:10411000000E066E000E076E000E086E000E096E91
:1041200060EC21F0040E120001012351FC0B020986
:10413000236F1F052011D8A4A0EF20F0A2EF20F0DC
:10414000A4EF20F019EC1AF0D88001011C356CECBA
:1041500022F0040E1200B2826F00C0FE71F06F00F8
:10416000C4FE70F0000170516C6F71516E6F600091
:10417000B0F16FF06000B8F16AF06000BCF16BF074
:104180001200C50E0001C96F000ECA6F000EBB6F92
:10419000000EBC6F60000CF3BDF0600010F3BEF0C9
:1041A000C90EBF6F000EC06F57EC1CF0120001016A
:1041B00023A9DDEF20F0DFEF20F0ECEF20F060002E
:1041C00004F01DF1600008F01EF160000CF01FF11A
:1041D000600010F020F1239912005C0E0001626F64
:1041E000000E636F000E526E000E536E600068F199
:1041F00054F060006CF155F0620E566E000E576E72
:1042000093EC1CF01200B7EC22F02CEC21F0C2EC85
:1042100019F08BEC21F07BEC22F009EC1DF0FEECA8
:104220001FF0A3EC21F052EC1BF04FEC21F0120038
:1042300095EC22F092EC22F00009D8B422EF21F0A4
:1042400024EF21F02AEF21F0000E71EC22F0000E95
:104250006CEC22F0000E1200000E3901C06F000E4F
:10426000C16F000EC26F000EC36F000EC46F000E50
:10427000C56F000EC66F000EC76F120000016B6F96
:104280007FEC21F00009D8B448EF21F04AEF21F08B
:1042900040EF21F000016B51AEEC1DF01200040E56
:1042A0003D01736F800E746F180E756F030E7B6F78
:1042B000000E796F000E7A6F000E766F6C69120037
:1042C000600018F001F060001CF002F0600020F0C7
:1042D00003F0600024F004F0000E99EC1BF01200D3
:1042E000026E97EC21F00009D8B479EF21F07BEF52
:1042F00021F071EF21F00250E0EC1DF012000001FE
:10430000EF51D8A486EF21F089EF21F0010E8AEF5A
:1043100021F0000E1200600E3901D96F000EDB6F24
:10432000000EDD6F070EDF6F000EDE6F1200000162
:10433000EF51D8A49EEF21F0A1EF21F0010EA2EFE2
:1043400021F0000E1200A10EB96EF90EB76E000E2C
:10435000B66E3901A39F800EB86E12000101235181
:10436000FC0B0209236F1C511C256CEC22F0030E80
:1043700012003D0178BBBFEF21F0C2EF21F0010E2A
:10438000C3EF21F0000E12003D0174BBCAEF21F013
:10439000CDEF21F0010ECEEF21F0000E12003D0115
:1043A00078B1D5EF21F0D8EF21F0010ED9EF21F04F
:1043B000000E12003D0179B5E0EF21F0E3EF21F0AE
:1043C000010EE4EF21F0000E12003D0176B9EBEF93
:1043D00021F0EEEF21F0010EEFEF21F0000E1200C0
:1043E0003D0179BFF6EF21F0F9EF21F0010EFAEF70
:1043F00021F0000E12003E01F051046E036AEF51ED
:104400000324016E000E0420026E1200ABEC20F0BB
:104410006000A8F172F06000ACF173F012000001CE
:104420006A6F6000ABF1F1FE3E01F88FF881120077
:1044300076EC22F001012395020E226F0F0E12007E
:1044400076EC22F001012395000E226F0F0E120070
:10445000016E600007F0F1FE3E01F88FF881120056
:104460006000A8F1EBF06000ACF1ECF0120060002D
:10447000A8F1E7F06000ACF1E8F012006000A8F1EC
:10448000E9F06000ACF1EAF012006000A8F157F129
:104490006000ACF158F112006000A8F1EDF060008E
:1044A000ACF1EEF0120098EC22F095EC22F061EC09
:1044B00022F0120001011F5171EC22F094EC20F067
:1044C000120001012395000E226F0F0E1200B5ECB1
:1044D00022F0B3EC22F01200016E600007F06BFDD9
:1044E0001200016E600007F06CFD12003D01739F29
:1044F0007885738F1200830E3E01C16F120098EC15
:1045000022F0090E12009BEC22F0040E12009BEC2C
:1045100022F0030E1200000E3D01796F12001AEC1A
:104520001CF012003D016C5112003D01739B120002
:104530003D01748D12003D01749D12003D016A51D0
:1045400012003D01738D12003D01739D12003D016B
:10455000799512003D01769912003D01799F120074
:05456000A6040A180A80
:10456600B2801200B88E1200D29A1200010E12000A
:0E457600020E1200050E1200010E12001200BD
:020000040020DA
:10000000FF0FFF0FFF0FFF0FFF0FFF0FFF0FFF0F80
:020000040030CA
:0A0000008CFFF7FF9FFFFFFFFFFFDB
:00000001FF
