:020000040000FA
:040000000DEF00F010
:040008007AEF41F05A
:10001800FF00D8EF44F0010E0301B26F5DEC4DF024
:10002800390191959197EE0E00018B6FA60E8C6F9A
:100038005BEC53F0D28E87EC4AF0DDEC53F0000E07
:1000480000019C6F320E9B6FE4EC4DF0A4EC52F073
:10005800AAEC48F0B1EC51F057EC54F082EC50F0B7
:1000680002D0000EB26F0301B251C2EC1DF00009BC
:10007800D8B4F7D7000EB26F000E0001926F000ED1
:10008800ADEC4CF05D0E00018F6FFD0E906FA8EC8B
:1000980050F0010E926F000EADEC4CF0E90E00012D
:1000A8008F6FFE0E906FA8EC50F044EC4BF00301FC
:1000B800BA6F07D044EC4BF00301BA6F000E59EC4D
:1000C80050F0050E0301BA19D8B404D0030EBA19BA
:1000D800D8A4F0D7050EBA19D8A4C5D7010E0001C7
:1000E800926F000EADEC4CF0D80E00018F6FFE0E33
:1000F800906FA8EC50F0010E926F000EADEC4CF032
:10010800D80E00018F6FFE0E906FA8EC50F0000E15
:100118009C6F0A0E9B6FE4EC4DF0010E56EC52F00A
:10012800000E00019C6F0A0E9B6FE4EC4DF0010E6F
:100138000101C66F010EC56FBD8C46D0A2EC15F04B
:100148002FEC1AF0030E0101C019D8A424D0D3EC67
:1001580042F0010E926F000EADEC4CF0D80E00018B
:100168008F6FFE0E906FA8EC50F0000E9C6F0A0E79
:100178009B6FE4EC4DF0010E56EC52F0000E0001BE
:100188009C6F0A0E9B6FE4EC4DF0010E0101C66FE7
:10019800010EC56FBD8C000E59EC50F050EC44F0C8
:1001A8009C0AD8A411D0EEEC47F0040AD8A40CD0CD
:1001B800BD9C020E0101C06FEEEC47F0FF0AD8A407
:1001C800FBD7A4EC52F005D0020E0101C019D8A447
:1001D800B5D7F0EC52F00009D8A4FBD7000E010106
:1001E800A26F140EA16F000EA06F320E9F6F000E4B
:1001F8009E6F280E9D6F000EBD6F000EBB6F000E28
:10020800BA6F000EDE6F0A0EDD6F000E0201D86FA6
:10021800320ED76F000E0101DA6F320ED96F000E61
:10022800D86F320ED76F000ED66F320ED56F000E14
:10023800AA6F1E0EA96F000ED26F140ED16F000E9A
:10024800D06F140ECF6F000EDC6F000EDB6F000E48
:100258000201D66F000ED56F000E0101AE6F000EC1
:10026800AD6F000ECA6F000EC96F000EC86F000E8A
:10027800C76F000EC16F0201DE5104E1330EDD5D70
:10028800D8A016D0000E00018B6F000E8C6F040EE4
:100298008D6F600074FB8EF0600078FB8FF0906BC0
:1002A8004EEC46F060002CF2CDF1600030F2CEF159
:1002B800EA0E00018C6F600E8B6F0101F851030D7F
:1002C8006F00CCFF8DF06F00D0FF8EF05EEC49F030
:1002D80060002CF24CF2600030F24DF2EA0E8C6FA6
:1002E800600E8B6F6000E0F78DF08E6B5EEC49F06E
:1002F80002014C5100018B5D02014A6F4D51000112
:100308008C5902014B6F000E496F000E486FF4ECD8
:1003180050F00101F451D8A404D0100EBBEC50F0F9
:1003280003D0140EBBEC50F0D5EC52F060004CF248
:10033800CBF1600050F2CCF198EF15F0F4C1C2F1A6
:10034800FB51250D6F00CCFFEFF16F00D0FFF0F1EE
:10035800000E00019D6F000E9E6F140E9F6F420EDF
:10036800A06F0101F651250D6F00CCFF9FF36F00C0
:10037800D0FFA0F360007CFE8BF0600080FE8CF064
:100388000001000E8CBFFF0E8D6F8E6F010E73EC97
:1003980039F060002CF299F0600030F29AF06000B9
:1003A80034F29BF0600038F29CF00CEC2CF060000A
:1003B80064F2AAF3600068F2ABF360006CF2ACF38D
:1003C800600070F2ADF360001CF78BF0600020F75E
:1003D8008CF0000E8CBFFF0E8D6F8E6F010E73ECCC
:1003E80039F060002CF29DF0600030F29EF0600061
:1003F80034F29FF0600038F2A0F06000A8FE99F097
:100408006000ACFE9AF06000B0FE9BF06000B4FEA5
:100418009CF00CEC2CF0600064F2A9F0600068F22B
:10042800AAF060006CF2ABF0600070F2ACF09EECE9
:100438003FF06000A4F2B3F16000A8F2B4F101014A
:10044800F551250D6F00CCFF50F26F00D0FF51F22F
:100458004CC2B1F14DC2B2F1C151D8B408D0E80EC6
:1004680002014A254E6F030E4B214F6F04D04AC23A
:100478004EF24BC24FF20101C251D8A45DD0F751E0
:10048800250D6F00CCFFB5F16F00D0FFB6F1070E58
:1004980003019F6F6000D4F6A0F36000D8F6A1F3C3
:1004A800A26BA1BFA2690101AD510301A05D0001CA
:1004B8008B6F0101AE510301A15900018C6F000E31
:1004C8000101AEBFFF0E0301A25900018D6F60004C
:1004D8006CF78EF0600070F78FF0906B1FEC4BF0AC
:1004E80003019F29A36F05D00001D8908D338C3369
:1004F8008B330301A32FF8D760002CF2EDF16000D5
:1005080030F2EEF10101F9510A0DED51F35CF450AE
:10051800800A03019F6F0101EE51800A03019F5970
:10052800D8B09DD00101F9510A0D6F00CCFFEDF153
:100538006F00D0FFEEF193D0940EB32503019F6FA7
:10054800000E0101B4210301A06F0101AD510301A7
:100558009F5DA051800AA16F0101AE51800A03017D
:10056800A159D8B03BD00101B351AD5D03019F6FD4
:100578000101B451AE590301A06F6C0E9F25000113
:100588009B6FFF0E0301A02100019C6F60006CF7B8
:100598009DF0600070F79EF0FCEC4EF0070E030132
:1005A800A16F0001D8909C339B330301A12FF9D789
:1005B8000101FA510A0D6F00CCFFA2F36F00D0FFC2
:1005C800A3F300019B510301A25D0101ED6F00013E
:1005D8009C510301A3590101EE6F09D00101FA51A1
:1005E8000A0D6F00CCFFEDF16F00D0FFEEF1DC518A
:1005F80004E1150EDB5DD8A02ED0070E03019F6F16
:100608006000B4F7A0F36000B8F7A1F3A26BA1BF34
:10061800A2699F2904D0D890A037A137A237E82E25
:10062800FAD7600080FE8BF0600084FE8CF06000DA
:1006380088FE8DF060006CF78EF0600070F78FF028
:100648000001906B4EEC46F060002CF2B5F16000B2
:1006580030F2B6F104D0000EB66F000EB56FC10EC1
:100668000101466FFA0E476F6000B4F748F1600069
:10067800B8F749F129EC51F003019F6F9F5101012F
:100688004A6F4B6B600084F64CF1600088F64DF1C0
:1006980060007CF64EF1600080F64FF1600044F790
:1006A8008BF0600048F78CF000018D6B8CBF8D07D4
:1006B800450E8E6F000E8F6F000E906F1FEC4BF083
:1006C800600030F28BF0600034F28CF08D6B8CBFE0
:1006D8008D6960002CF250F1600030F251F1600039
:1006E800A4F652F16000A8F653F143EC50F0600014
:1006F800B4F78EF06000B8F78FF00001906B8FBFF1
:100708009007600034F78BF0600038F78CF08D6B41
:100718001FEC4BF060002CF2B3F3600030F2B4F33E
:10072800600034F2B5F36000CCFE8BF06000D0FEC0
:100738008CF06000D4FE8DF0030E8E6F000E8F6F6C
:10074800000E906F1FEC4BF0600030F28BF06000F1
:1007580034F28CF08D6B60002CF2BFF3600030F245
:10076800C0F30301C0BF06D0F40EBF5D010EC0592F
:10077800D8B026D0BA94BC86D5EC52F060004CF2C2
:100788003CF2600050F23DF2CBC1A3F1CCC1A4F120
:10079800CBC13EF2CCC13FF2000E0101D46F010E75
:1007A800D36F560E466FFF0E476FD5EC52F06000C0
:1007B8004CF248F1600050F249F143EC50F03ED061
:1007C800C035C031A06FBF319F6FA0BF06D0F40EF7
:1007D8009F5D010EA059D8B022D0BA84BC96D5EC42
:1007E80052F060004CF2A3F1600050F2A4F1CBC1CA
:1007F8003EF2CCC13FF2000E0101D46F020ED36F5E
:100808004A0E466FFF0E476FD5EC52F060004CF26F
:1008180048F1600050F249F143EC50F00FD0BA842F
:10082800BC86000E0101D46F030ED36FD5EC52F0D5
:1008380060004CF23EF2600050F23FF2BA86010EC0
:100848000101BE6F010EBD6F000EBB6F000EB96FC8
:10085800000EBA6FD5EC52F060004CF29BF16000CC
:1008680050F29CF12FEC52F00101C251D8A404D0EF
:10087800100E59EC50F003D0140E59EC50F0CB0E7A
:100888000001936F010E946F6000C4F695F060004C
:10089800C8F696F0BEEC47F00009D8B43FD0010185
:1008A800BE51D8B411D0200EDEEC52F0EBC1DFF10E
:1008B800ECC1E0F1EBC1E1F1ECC1E2F1EBC1AFF168
:1008C800ECC1B0F150EC28F00101BB51D8B421D0F3
:1008D800000EBB6FE70E606F010E616F040E5AECDD
:1008E80033F0E7C1DFF1E8C1E0F10101E751AF5DA5
:1008F800B051800A03019F6F0101E851800A03018A
:100908009F59D8B004D0E7C1AFF1E8C1B0F150ECBD
:1009180028F0000E0101BE6F7CEF0FF060002CF78D
:1009280093F0600030F794F0010E966FF40E956F17
:10093800E4EC4EF00009D8A4BD9C0101BE51D8B426
:10094800E3EF0BF0EB0E606F010E616F000E5AECD7
:1009580033F00101BD51D8B449D0C70E606F030E02
:10096800616F010E5AEC33F00301C8BF3FD0C85184
:1009780004E1510EC75DD8A039D0000E0101BD6F4A
:1009880060006CF695F0600070F696F0D5EC52F0C9
:1009980060004CF297F0600050F298F080EC4EF056
:1009A800600054F299F1600058F29AF101019A51ED
:1009B8001AE1640E995DD8B016D09951A1250301AA
:1009C8009F6F01019A51A2210301A06FD890A03115
:1009D800A16F9F310101A16F600084FEA2F1080E92
:1009E800E7EC52F003D0080EDEEC52F0E90E0101FC
:1009F800606F010E616F040E5AEC33F0E9C1E3F148
:100A0800EAC1E4F1D7EC48F0600090F2ABF1600085
:100A180094F2ACF160002CF795F0600030F796F096
:100A2800D5EC52F060004CF297F0600050F298F06C
:100A380080EC4EF09551F4080301C76F0001965100
:100A4800D8A0E82A01080301C86F0101AB51ED5D88
:100A580003019F6F0101AC51EE590301A06F6000C3
:100A68007CFE8EF0600080FE8FF00001906B8FBFDF
:100A78009007600034F78BF0600038F78CF08D6BCE
:100A88001FEC4BF060002CF2B3F3600030F2B4F3CB
:100A9800600034F2B5F36000CCFE8BF06000D0FE4D
:100AA8008CF06000D4FE8DF0030E8E6F000E8F6FF9
:100AB800000E906F1FEC4BF0600030F28BF060007E
:100AC80034F28CF08D6B60002CF2BFF3600030F2D2
:100AD800C0F3030E0101D319D411D8A4EAD0D95117
:100AE800E32503019F6F0101DA51E4210301A06F9F
:100AF8000101D75103019F270101D8510301A02308
:100B08006000BCF79BF06000C0F79CF0000E00018D
:100B18009E6F070E9D6FFCEC4EF09C359C339B330B
:100B28009C359C339B339C359C339B3303019F51ED
:100B380000019B5D9C51800A0301A16FA051800AAE
:100B4800A159D8A00FD0C035C031A06FBF319F6F59
:100B5800C7519F5DA051800AA16FC851800AA15951
:100B6800D8B0A7D0BA84BC96000E0101D46F020E8B
:100B7800D36F010EB96FE3C1AFF1E4C1B0F1D5ECA9
:100B880052F060004CF2A3F1600050F2A4F1A3C14E
:100B9800A5F1A4C1A6F1E3C1E1F1E4C1E2F1F80EC7
:100BA8000101466FFA0E476F60002CF795F0600060
:100BB80030F796F0D5EC52F060004CF297F06000F8
:100BC80050F298F080EC4EF0600054F248F160006A
:100BD80058F249F16000ACF78BF06000B0F78CF088
:100BE8008D6B8CBF8D07450E8E6F000E8F6F000EBC
:100BF800906F1FEC4BF0600030F28BF0600034F225
:100C08008CF08D6B8CBF8D6960002CF24AF160000E
:100C180030F24BF160008CF78BF0600090F78CF0AD
:100C28008D6B8CBF8D07450E8E6F000E8F6F000E7B
:100C3800906F1FEC4BF0600030F28BF0600034F2E4
:100C48008CF08D6B8CBF8D6960002CF24CF16000CC
:100C580030F24DF16000ACF64EF16000B0F64FF1A5
:100C6800600064F78BF0600068F78CF08D6B8CBFC8
:100C78008D07450E8E6F000E8F6F000E906F1FEC64
:100C88004BF0600030F28BF0600034F28CF08D6B2A
:100C98008CBF8D6960002CF250F1600030F251F188
:100CA800600034F752F1600038F753F143EC50F02C
:100CB800F5D0020E0101D319D411D8A4EFD0D75121
:100CC800E32503019F6F0101D851E4210301A06FBF
:100CD8006000BCF79BF06000C0F79CF0000E0001BC
:100CE8009E6F070E9D6FFCEC4EF09C359C339B333A
:100CF8009C359C339B339C359C339B3303019F511C
:100D080000019B5D9C51800A0301A16FA051800ADC
:100D1800A159D8A00AD0C751BF5DC051800A9F6FA2
:100D2800C851800A9F59D8B0B9D001019F51A15D1F
:100D3800A051A259D8B009D0BA94BC96A1519F5DD0
:100D48000A0F9F6E3FEC54F002D0BA94BC86B9519A
:100D5800D8B414D0EF51D95DDA51800A03019F6FDE
:100D68000101F051800A03019F59D8B007D0250E20
:100D78000101D925D96F000EDA21DA6F000E0101C1
:100D8800D46F010ED36F010EB96FE3C1AFF1E4C1A7
:100D9800B0F1D5EC52F060004CF23CF2600050F239
:100DA8003DF23CC2A5F13DC2A6F1E3C1E1F1E4C1C7
:100DB800E2F1800E0101466FFB0E476FD5EC52F051
:100DC80060004CF248F1600050F249F16000ACF765
:100DD8008BF06000B0F78CF08D6B8CBF8D07450EE3
:100DE8008E6F000E8F6F000E906F1FEC4BF060003F
:100DF80030F28BF0600034F28CF08D6B8CBF8D6913
:100E080060002CF24AF1600030F24BF160008CF780
:100E18008BF0600090F78CF08D6B8CBF8D07450EC2
:100E28008E6F000E8F6F000E906F1FEC4BF06000FE
:100E380030F28BF0600034F28CF08D6B8CBF8D69D2
:100E480060002CF24CF1600030F24DF16000ACF61D
:100E58004EF16000B0F64FF160005CF78BF0600077
:100E680060F78CF08D6B8CBF8D07450E8E6F000E72
:100E78008F6F000E906F1FEC4BF0600030F28BF01C
:100E8800600034F28CF08D6B8CBF8D6960002CF2A1
:100E980050F1600030F251F143EC50F00101E351A0
:100EA800AF5DB051800A03019F6F0101E451800AD0
:100EB80003019F59D8B004D0E3C1AFF1E4C1B0F148
:100EC8000101B951D8B4BFD0020ED319D411D8A496
:100ED80041D0600094F693F0600098F694F00F0EFD
:100EE8009F250001956F000E0101A0210001966F5A
:100EF800E4EC4EF00009D8B42DD0000E0101B96F12
:100F0800600064F79BF0600068F79CF0000E000139
:100F18009E6F030E9D6FFCEC4EF00101E151000144
:100F28009B5F0101E25100019C5B0101AF5100018F
:100F38009B270101B05100019C239C359C339B33B6
:100F48009C359C339B3360006CF2D9F1600070F2E1
:100F5800DAF145D00101D305D411D8A440D06000FE
:100F680094F693F0600098F694F0230E9F25000104
:100F7800956F000E0101A0210001966FE4EC4EF080
:100F88000009D8B42CD0000E0101B96F60005CF7DD
:100F98009BF0600060F79CF0000E00019E6F030E4E
:100FA8009D6FFCEC4EF00101E15100019B5F0101D6
:100FB800E25100019C5B0101AF5100019B27010137
:100FC800B05100019C239C359C339B339C359C334A
:100FD8009B3360006CF2D7F1600070F2D8F1000E1C
:100FE8000301C26F000EC16F010E0101D32500017C
:100FF8009B6F000E0101D42100019C6F600054F723
:101008009DF0600058F79EF0FCEC4EF060006CF22A
:10101800BDF3600070F2BEF36000F4FE9BF0600068
:10102800F8FE9CF0000E9E6F050E9D6FFCEC4EF0D6
:10103800040E03019F6F00019C359C339B33030111
:101048009F2FF9D772D0030ED319D411D8A407D083
:10105800600064F7C1F3600068F7C2F33CD0020E89
:10106800D319D411D8A407D060005CF7C1F360008D
:1010780060F7C2F330D060004CF79BF0600050F787
:101088009CF060005CFB9DF0600060FB9EF0FCEC57
:101098004EF060006CF2BDF3600070F2BEF36000C9
:1010A800F4FE9BF06000F8FE9CF0000E9E6F050EAB
:1010B8009D6FFCEC4EF0040E03019F6F00019C3500
:1010C8009C339B3303019F2FF9D760006CF2C1F367
:1010D800600070F2C2F360004CF79BF0600050F7BC
:1010E8009CF0600054F79DF0600058F79EF0FCEC0F
:1010F8004EF060006CF2BDF3600070F2BEF3600069
:10110800F4FE9BF06000F8FE9CF0000E9E6F050E4A
:101118009D6FFCEC4EF0040E03019F6F00019C359F
:101128009C339B3303019F2FF9D760006CF2B6F311
:10113800600070F2B7F360002CF793F0600030F7AE
:1011480094F001019F51B15D03019F6F0101A0510E
:10115800B2590301A06FEC0E9F250001956FFF0E99
:101168000301A0210001966FE4EC4EF00009D8A419
:101178008ED04A0E0101EF2503019F6F000E010179
:10118800F0210301A06F0101EB5103019F5DA05104
:10119800800AA16F0101EC51800A0301A159D8A06E
:1011A80076D00101E351EF5DF051800A03019F6F92
:1011B8000101E451800A03019F59D8A068D0C151A8
:1011C8000101E32503019F6FC2510101E4210301DD
:1011D800A06F9F510101EF5DF051800A0301A16FDB
:1011E800A051800AA159D8A052D00101C251D8A457
:1011F8002FD00301C1510101E32503019F6FC251A3
:101208000101E4210301A06F9F510101B55DB651B1
:10121800800A0301A16FA051800AA159D8B018D043
:10122800B6510101AB2503019F6FB7510101AC21F4
:101238000301A06F0101ED5103019F5DA051800AD8
:10124800A16F0101EE51800A0301A159D8B01FD046
:101258000101C205D8A4B0EF0EF00301B651010197
:10126800AB2503019F6FB7510101AC210301A06FAA
:101278000101ED5103019F5DA051800AA16F010199
:10128800EE51800A0301A159D8A0B0EF0EF0BA942C
:10129800BC96010E0101BD6FE3C1E1F1E4C1E2F1C9
:1012A800000EBE6FD5EC52F060004CF2A5F1600064
:1012B80050F2A6F1A5C19BF1A6C19CF160002CF7E4
:1012C80095F0600030F796F0600094F697F06000B3
:1012D80098F698F080EC4EF0600054F240F260000E
:1012E80058F241F2010E0101BB6FEBC1AFF1ECC145
:1012F800B0F1D305D411D8A403D0B951D8B454D07F
:10130800EB51EF5DF051800A03019F6F0101EC5131
:10131800800A03019F59D8A016D0C1510101E325C5
:1013280003019F6FC2510101E4210301A06F9F5186
:101338000101EF5DF051800A0301A16FA051800AFD
:10134800A159D8B031D00101EF51D95DDA51800AE5
:1013580003019F6F0101F051800A03019F59D8B022
:1013680010D0020E0101D319D411D8B405D0030E40
:10137800D319D411D8A405D0B90ED927000EDA2371
:1013880013D00101EF51D75DD851800A03019F6F37
:101398000101F051800A03019F59D8B005D0B90E58
:1013A8000101D727000ED8230101B951D8B40AD0BA
:1013B800010ED3250201446F000E0101D421020160
:1013C800456F04D0D3C144F2D4C145F2030E0101E4
:1013D800D319D411D8A417D06000F8F895F060009C
:1013E800FCF896F0D5EC52F060004CF297F06000F3
:1013F80050F298F080EC4EF0600054F2BBF36000BD
:1014080058F2BCF3A4D0020ED319D411D8A43BD0FF
:101418006000F8F895F06000FCF896F060008CF633
:1014280097F0600090F698F080EC4EF0600054F26F
:101438009FF3600058F2A0F3D5EC52F060004CF234
:1014480097F0600050F298F060008CF695F060001C
:1014580090F696F080EC4EF0600054F29BF060003D
:1014680058F29CF0000E9E6F0A0E9D6FFCEC4EF039
:10147800040E0301A16F0001D8909C339B33030134
:10148800A12FF9D75AD0D305D411D8A460D06000C1
:10149800F8F895F06000FCF896F060008CF697F08C
:1014A800600090F698F080EC4EF0600054F29FF3E4
:1014B800600058F2A0F36000F0F897F06000F4F8CC
:1014C80098F060008CF695F0600090F696F080EC4D
:1014D8004EF0600054F2A1F3600058F2A2F3D890E5
:1014E8000301A137A237D5EC52F060004CF297F017
:1014F800600050F298F06000F0F895F06000F4F8A1
:1015080096F080EC4EF095510301A12500019B6FE8
:1015180096510301A22100019C6F000E9E6F050EDB
:101528009D6FFCEC4EF0040E0301A36F0001D890F0
:101538009C339B330301A32FF9D700019B5103016F
:101548009F25BB6F00019C510301A021BC6F0301C3
:10155800BC5104E1330EBB5DD8A061D00101ACBF22
:101568005ED0AC5104E1330EAB5DD8A058D0020E6A
:1015780003019F6F600034F79BF0600038F79CF020
:10158800000E00019E6F030E9D6FFCEC4EF0600094
:101598006CF2A0F3600070F2A1F30301A26B60008B
:1015A800ECFEA3F36000F0FEA4F3A56B600090FED0
:1015B800A5F360008CFEA4F3A36B60008CFE8BF097
:1015C800600090FE8CF0600094FE8DF06000ACF638
:1015D8008EF06000B0F68FF00001906B8FBF90071F
:1015E8004EEC46F08B510301A025A66F00018C51EB
:1015F8000301A121A76F00018D510301A221A86F4A
:101608009F29A96F04D0D890A833A733A633A92F50
:10161800FAD7600098FECDF160009CFECEF13E0E38
:101628000101CD5D0A0ECE59D8A004D00A0ECE6FA6
:101638003D0E09D0CE5108E1830ECD5DD8B004D05F
:10164800000ECE6F830ECD6F770E466FFA0E476F82
:1016580060002CF795F0600030F796F0D5EC52F06A
:1016680060004CF297F0600050F298F080EC4EF079
:10167800600054F248F1600058F249F16000ACF79C
:101688008BF06000B0F78CF08D6B8CBF8D07450E2A
:101698008E6F000E8F6F000E906F1FEC4BF0600086
:1016A80030F28BF0600034F28CF08D6B8CBF8D695A
:1016B80060002CF24AF1600030F24BF1600084F7D0
:1016C8008BF0600088F78CF08D6B8CBF8D07450E12
:1016D8008E6F000E8F6F000E906F1FEC4BF0600046
:1016E80030F28BF0600034F28CF08D6B8CBF8D691A
:1016F80060002CF24CF1600030F24DF16000ACF665
:101708004EF16000B0F64FF16000BCF78BF060005E
:10171800C0F78CF08D6B8CBF8D07450E8E6F000E59
:101728008F6F000E906F1FEC4BF0600030F28BF063
:10173800600034F28CF08D6B8CBF8D6960002CF2E8
:1017480050F1600030F251F16000B4F752F16000DE
:10175800B8F753F1600054F754F1600058F755F1A9
:10176800600004FF8BF0600008FF8CF08D6B8CBF6D
:101778008D07450E8E6F000E8F6F000E906F1FEC59
:101788004BF0600030F28BF0600034F28CF08D6B1F
:101798008CBF8D6960002CF256F1600030F257F171
:1017A800600034F758F1600038F759F16000ECFE3A
:1017B8005AF16000F0FE5BF143EC50F0CDD2BD5120
:1017C800D8B449D0C70E606F030E616F010E5AEC92
:1017D80033F00301C8BF06D0C8513DE1280EC75DEC
:1017E800D8B039D0000E0101BD6F60006CF695F0DD
:1017F800600070F696F0D5EC52F060004CF297F06D
:10180800600050F298F080EC4EF0600054F299F1CC
:10181800600058F29AF101019A511AE1960E995D09
:10182800D8B016D099519F2503019F6F01019A5195
:10183800A0210301A06FD890A031A16F9F310101B1
:101848009F6F600084FEA0F1080EE7EC52F003D011
:10185800080EDEEC52F0EB0E0101606F010E616FB5
:10186800000E5AEC33F0200EE7EC52F0000EBAB43A
:10187800010EBCB6010EE8A004D003019F6B9F2B9C
:1018880002D003019F6B9F51D8B46CD0600094F6CE
:1018980093F0600098F694F0000E0001966F0F0E1A
:1018A800956FE4EC4EF00009D8A40ED00101EB517D
:1018B800EF5DF051800A03019F6F0101EC51800A2E
:1018C80003019F59D8B04ED0BA94BC96D5EC52F0CB
:1018D80060004CF2A5F1600050F2A6F1EB0E010198
:1018E800606F010E616F000E5AEC33F0D50E0101E6
:1018F800466FFC0E476F60002CF795F0600030F7DC
:1019080096F0600094F697F0600098F698F080ECF6
:101918004EF0600054F248F1600058F249F160005E
:10192800ACF78BF06000B0F78CF08D6B8CBF8D0737
:10193800450E8E6F000E8F6F000E906F1FEC4BF0F0
:10194800600030F28BF0600034F28CF08D6B8CBF4D
:101958008D6960002CF24AF1600030F24BF143ECE3
:1019680050F0FAD10101BB51D8B438D0E70E606FFE
:10197800010E616F040E5AEC33F0E7C1DFF1E8C1E4
:10198800E0F10101E751AF5DB051800A03019F6F9B
:101998000101E851800A03019F59D8B004D0E7C17A
:1019A800AFF1E8C1B0F1600094F693F0600098F6EA
:1019B80094F0960E01019F250001956F000E01011C
:1019C800A0210001966FE4EC4EF00009D8B4C4D110
:1019D800000E0101BB6F50EC28F0BED1BA51D8B44B
:1019E80019D0E70E606F010E616F040E5AEC33F0E8
:1019F8000101E751AF5DB051800A03019F6F0101FA
:101A0800E851800A03019F59D8B004D0E7C1AFF16B
:101A1800E8C1B0F1600094F693F0600098F694F095
:101A280060007CF69FF3600080F6A0F30301D89075
:101A38009F37A037D8909F37A03760007CFE95F07D
:101A4800600080FE96F0E4EC4EF00009D8B484D132
:101A58000101BA51D8B481D0000EBA6FD7EC48F062
:101A68000101AB510001A45D0301C76F0101AC5135
:101A78000001A5590301C86FC8BF0AD0C85104E1C5
:101A88005B0EC75DD8A004D0000EC86F5A0EC76F92
:101A980060001CFF9BF0600020FF9CF0000E00011E
:101AA8009E6F030E9D6FFCEC4EF00101A9510001E1
:101AB8009B270101AA5100019C239C359C339B3331
:101AC8009C359C339B3360006CF2A9F1600070F286
:101AD800AAF10101E151AF5D0301C76F0101E251B4
:101AE800B0590301C86FC8BF0AD0290EC75D010EDF
:101AF800C859D8A004D0010EC86F280EC76F60005F
:101B08001CFF9BF0600020FF9CF0000E00019E6F00
:101B1800030E9D6FFCEC4EF00101D15100019B2793
:101B28000101D25100019C239C359C339B339C3589
:101B38009C339B3360006CF2D1F1600070F2D2F1FB
:101B48000101AAAF04D0000EAA6F000EA96FD2AF90
:101B580004D0000ED26F000ED16FEBC1A7F1ECC11B
:101B6800A8F1D7EC48F0600090F242F2600094F2DD
:101B780043F242C2ABF143C2ACF1A7C1E1F1A8C143
:101B8800E2F10101D235D2310301A06F0101D13157
:101B980003019F6F0101A75103019F250101A76F51
:101BA800A8510301A0210101A86FAA35AA31030198
:101BB800A06F0101A93103019F6F02014251030186
:101BC8009F250201426F43510301A0210201436F87
:101BD8000101D151EB2503019F6F0101D251EC2185
:101BE8000301A06F0101EF5103019F5DA051800A1D
:101BF800A16F0101F051800A0301A159D8B0ACD0FE
:101C0800B60E9F6FFF0EA06F60007CF7A1F3600017
:101C180080F7A2F39F51A127A051A223A15101014E
:101C2800A75DA851800A0301A36FA251800AA35996
:101C3800D8B092D00101C205D8B41BD0B60E0301AA
:101C48009F6FFF0EA06F6000D4F6A1F36000D8F676
:101C5800A2F39F51A127A051A223A1510101A75D81
:101C6800A851800A0301A36FA251800AA359D8B0D2
:101C780073D0BA94BC86D5EC52F060004CF2A5F152
:101C8800600050F2A6F1010E0101BA6FE7C1AFF191
:101C9800E8C1B0F1390E466FFC0E476F60002CF7B3
:101CA80095F0600030F796F0600094F697F06000C9
:101CB80098F698F080EC4EF0600054F248F160001D
:101CC80058F249F16000ACF78BF06000B0F78CF087
:101CD8008D6B8CBF8D07450E8E6F000E8F6F000EBB
:101CE800906F1FEC4BF0600030F28BF0600034F224
:101CF8008CF08D6B8CBF8D6960002CF24AF160000E
:101D080030F24BF1600044F78BF0600048F78CF03C
:101D18008D6B8CBF8D07450E8E6F000E8F6F000E7A
:101D2800906F1FEC4BF0600030F28BF0600034F2E3
:101D38008CF08D6B8CBF8D6960002CF24CF16000CB
:101D480030F24DF1D7EC48F0600090F24EF16000AF
:101D580094F24FF143EC50F02FEC1AF0A2EC15F08E
:101D6800BAA663D001019E5104E1330E9D5DD8A04F
:101D78005CD0CE0E03019F6FFF0EA06F600074F65B
:101D8800A1F3600078F6A2F39F51A127A051A223E6
:101D9800A1510101B15D0301A2510101B259D8A0BD
:101DA8001DD060002CF793F0600030F794F09D513F
:101DB800B15D03019F6F01019E51B2590301A06FEC
:101DC800320E9F250001956F000E0301A02100012E
:101DD800966FE4EC4EF00009D8B427D0010E01014B
:101DE800BC6FD5EC52F060004CF29BF1600050F2F1
:101DF8009CF1BA96180E0101466FFF0E476F6000FE
:101E08002CF795F0600030F796F060006CF697F0CC
:101E1800600070F698F080EC4EF0600054F248F1E3
:101E2800600058F249F143EC50F0B80E0001936F8E
:101E3800030E946F000E966F140E956FBEEC47F06C
:101E48000009D8B438EF04F0C30E0101606F030E27
:101E5800616F010E5AEC33F0BAB605D0000E0301DB
:101E6800AF6F000E04D0000E0301AF6F040EAE6F0B
:101E7800BCB604D0000EB16F000E03D0000EB16FD7
:101E8800020EB06FFA0E0101466FFE0E476FD5ECD9
:101E980052F060004CF248F1600050F249F1BAA4E7
:101EA80004D003019F6B9F2B02D003019F6B9F51AE
:101EB800B025A06F000EB121A16FAE51A025010180
:101EC8004A6F0301AF51A12101014B6F6000A4F7D4
:101ED8004CF16000A8F74DF1D7EC48F0600090F2A3
:101EE8004EF1600094F24FF143EC50F038EF04F0FB
:101EF800D7EC48F0600090F248F2600094F249F2A2
:101F0800C90E0101466F020E476FF30E486FFF0EB0
:101F1800496F600020F94AF1600024F94BF131EC77
:101F280049F0010EC46FF90E466FFF0E476F43EC80
:101F380050F0030E44EC3DF0040E44EC3DF0BA942E
:101F4800BC96BAA60CD0BA96010E0101BC6FD5ECAE
:101F580052F060004CF29BF1600050F29CF1010ECF
:101F68000101BF6F000EBB6F000EBA6F0101C251B5
:101F7800D8A404D0100E59EC50F003D0140E59EC2C
:101F880050F0CB0E0001936F010E946F600038F98A
:101F980095F060003CF996F0BEEC47F00009D8B423
:101FA8002CD0000E0101C16F000E05EC40F00101BC
:101FB800BF51D8B403D0100EDEEC52F0BB51D8B4E8
:101FC80098EF15F0600074F79BF0600078F79CF0CC
:101FD800000E00019E6F030E9D6FFCEC4EF09C35C9
:101FE8009C339B339C359C339B3360006CF2DDF152
:101FF800600070F2DEF198EF15F0EB0E0101606FF2
:10200800010E616F000E5AEC33F0E90E0101606FAA
:10201800010E616F040E5AEC33F0E9C1ADF1EAC16B
:10202800AEF10101BF51D8B423D1DD51B35D030135
:10203800C76F0101DE51B4590301C86FC8BF06D08C
:10204800C85108E1260EC75DD8B004D0000EC86F8D
:10205800250EC76FC7510101E95DEA51800A0301E6
:102068009F6FC851800A9F59D8B08DD0BA86000E8C
:102078000101BF6FD5EC52F060004CF2A5F1600091
:1020880050F2A6F1E9C1E1F1EAC1E2F1010E010164
:10209800BB6F170E466FFC0E476F60002CF795F06C
:1020A800600030F796F0600094F697F0600098F6BC
:1020B80098F080EC4EF0600054F248F1600058F25D
:1020C80049F16000ACF78BF06000B0F78CF08D6BD5
:1020D8008CBF8D07450E8E6F000E8F6F000E906FB0
:1020E8001FEC4BF0600030F28BF0600034F28CF0A3
:1020F8008D6B8CBF8D6960002CF24AF1600030F264
:102108004BF16000A4F78BF06000A8F78CF08D6BA2
:102118008CBF8D07450E8E6F000E8F6F000E906F6F
:102128001FEC4BF0600030F28BF0600034F28CF062
:102138008D6B8CBF8D6960002CF24CF1600030F221
:102148004DF1600074F78BF0600078F78CF08D6BC0
:102158008CBF8D07450E8E6F000E8F6F000E906F2F
:102168001FEC4BF0600030F28BF0600034F28CF022
:102178008D6B8CBF8D6960002CF24EF1600030F2DF
:102188004FF143EC50F00101BC51D8B4DCEF14F02E
:10219800DF51B32503019F6F0101E051B421030111
:1021A800A06FA035A031A26F9F31A16F0101EB5143
:1021B8000301A15DA251800AA36F0101EC51800ABD
:1021C8000301A359D8B01AD0910E9F6FFF0EA06FCC
:1021D8006000A4F7A1F36000A8F7A2F39F51A1271C
:1021E800A051A223A1510101EB5DEC51800A03012A
:1021F800A36FA251800AA359D8B0DAD3000E010107
:10220800BC6F60006CF695F0600070F696F0D5EC47
:1022180052F060004CF297F0600050F298F080ECB9
:102228004EF0600054F299F1600058F29AF1580E9D
:102238000101995D020E9A59D8B016D099519D2581
:1022480003019F6F01019A519E210301A06FD8904D
:10225800A031A16F9F3101019D6F600084FE9EF146
:10226800400EE7EC52F0A4D3400EDEEC52F0A0D3BF
:10227800100EE7EC52F0000EBAB4010EBCB6010E17
:10228800E8A004D003019F6B9F2B02D003019F6B32
:102298009F51D8B466D0600094F693F0600098F629
:1022A80094F0000E0001966F0F0E956FE4EC4EF05F
:1022B8000009D8A40ED00101EB51EF5DF051800A5E
:1022C80003019F6F0101EC51800A03019F59D8B0A7
:1022D80048D0BA94BC96D5EC52F060004CF2A5F107
:1022E800600050F2A6F1C10E0101466FFC0E476F67
:1022F80060002CF795F0600030F796F0D5EC52F0BE
:1023080060004CF297F0600050F298F080EC4EF0CC
:10231800600054F248F1600058F249F16000ACF7EF
:102328008BF06000B0F78CF08D6B8CBF8D07450E7D
:102338008E6F000E8F6F000E906F1FEC4BF06000D9
:1023480030F28BF0600034F28CF08D6B8CBF8D69AD
:1023580060002CF24AF1600030F24BF143EC50F08F
:1023680023D30101BB51D8B455D1600094F693F042
:10237800600098F694F060007CF69FF3600080F6A9
:10238800A0F3D89003019F37A0375E0E9F25000168
:10239800956F010E0301A0210001966FE4EC4EF049
:1023A8000009D8B401D3E70E0101606F010E616F17
:1023B800030E5AEC33F0E7C1D9F2E8C1DAF20101B1
:1023C800E1510201D95D0301C76F0101E251020128
:1023D800DA590301C86F600074F79BF0600078F762
:1023E8009CF0000E00019E6F030E9D6FFCEC4EF0FA
:1023F8000301C75100019B270301C85100019C2319
:102408009C359C339B339C359C339B3360006CF22A
:10241800DDF1600070F2DEF10101B3510201D95D16
:102428000101C96FB4510201DA590101CA6FCABF6B
:1024380005D0CA5115E1C905D8B012D0600024F7FB
:102448009FF3600028F7A0F303019F1FA01F9F4B75
:10245800A02B60007CFEC7F3600080FEC8F306D0A6
:10246800600024F7C7F3600028F7C8F360001CF782
:102478009BF0600020F79CF0000E00019E6F030E99
:102488009D6FFCEC4EF00301C75100019B2703012F
:10249800C85100019C239C359C339B339C359C334D
:1024A8009B3360006CF2C7F1600070F2C8F1010163
:1024B800C8BF0AD0C85104E14B0EC75DD8A004D0EC
:1024C800000EC86F4A0EC76F050E44EC3DF0060EAD
:1024D80044EC3DF0000E0101BB6F270E466FFB0E6A
:1024E800476F60002CF795F0600030F796F0D5EC58
:1024F80052F060004CF297F0600050F298F080ECD7
:102508004EF0600054F248F1600058F249F1600062
:10251800ACF78BF06000B0F78CF08D6B8CBF8D073B
:10252800450E8E6F000E8F6F000E906F1FEC4BF0F4
:10253800600030F28BF0600034F28CF08D6B8CBF51
:102548008D6960002CF24AF1600030F24BF16000B6
:102558009CF78BF06000A0F78CF08D6B8CBF8D071B
:10256800450E8E6F000E8F6F000E906F1FEC4BF0B4
:10257800600030F28BF0600034F28CF08D6B8CBF11
:102588008D6960002CF24CF1600030F24DF1600072
:1025980024F78BF0600028F78CF08D6B8CBF8D07CB
:1025A800450E8E6F000E8F6F000E906F1FEC4BF074
:1025B800600030F28BF0600034F28CF08D6B8CBFD1
:1025C8008D6960002CF24EF1600030F24FF160002E
:1025D8001CF78BF0600020F78CF08D6B8CBF8D079B
:1025E800450E8E6F000E8F6F000E906F1FEC4BF034
:1025F800600030F28BF0600034F28CF08D6B8CBF91
:102608008D6960002CF250F1600030F251F143EC1A
:1026180050F0CAD1E50E606F010E616F050E5AECDD
:1026280033F0DB0E0101606F020E616F060E5AEC8B
:1026380033F0020150510101E52503019F6F0201AA
:1026480051510101E6210301A06F0201DB51030191
:102658009F5DA051800AA16F0201DC51800A03012D
:10266800A159D8A005D0EEEC47F0040AD8A4A6D00A
:10267800F30E0101466FFB0E476F60002CF795F0D3
:10268800600030F796F0D5EC52F060004CF297F00D
:10269800600050F298F080EC4EF0600054F248F17F
:1026A800600058F249F16000ACF78BF06000B0F7B9
:1026B8008CF08D6B8CBF8D07450E8E6F000E8F6F63
:1026C800000E906F1FEC4BF0600030F28BF0600052
:1026D80034F28CF08D6B8CBF8D6960002CF24AF15E
:1026E800600030F24BF1600094F78BF0600098F7CF
:1026F8008CF08D6B8CBF8D07450E8E6F000E8F6F23
:10270800000E906F1FEC4BF0600030F28BF0600011
:1027180034F28CF08D6B8CBF8D6960002CF24CF11B
:10272800600030F24DF1600094F78BF0600098F78C
:102738008CF08D6B8CBF8D07450E8E6F000E8F6FE2
:10274800000E906F1FEC4BF0600030F28BF06000D1
:1027580034F28CF08D6B8CBF8D6960002CF24EF1D9
:10276800600030F24FF143EC50F0BD8C5051010144
:10277800E52503019F6F020151510101E621030183
:10278800A06F0201DB5103019F5DA051800AA16F78
:102798000201DC51800A0301A159D8B0C5D1010E4C
:1027A8000101C16FD5EC52F060004CF2CBF1600032
:1027B80050F2CCF1010E05EC40F0B6D1600094F671
:1027C80093F0600098F694F060007CF69FF3600048
:1027D80080F6A0F30301D8909F37A037D8909F3791
:1027E800A03760007CFE95F0600080FE96F0E4EC77
:1027F8004EF00009D8B4D8D00101BA51D8B43FD0AE
:10280800000EBA6FE151E55D0301C76F0101E251A6
:10281800E6590301C86FC8BF0AD0290EC75D010E6B
:10282800C859D8A004D0010EC86F280EC76F600021
:102838001CFF9BF0600020FF9CF0000E00019E6FC3
:10284800030E9D6FFCEC4EF00101CF5100019B2758
:102858000101D05100019C239C359C339B339C354E
:102868009C339B3360006CF2CFF1600070F2D0F1C2
:102878000101D0AF04D0000ED06F000ECF6FDB0E79
:1028880003019F6FFF0EA06F6000CCF6A1F36000FC
:10289800D0F6A2F39F51A127A051A2230101D03560
:1028A800D0310301A46F0101CF310301A36F0101EE
:1028B800E5510301A3270101E6510301A423A15116
:1028C800A35DA451800AA56FA251800AA559D8B06A
:1028D8006BD0BA94BC86D5EC52F060004CF2A5F1EE
:1028E800600050F2A6F1010E0101BA6FEBC1E1F1EF
:1028F800ECC1E2F1E90E466FFC0E476F60002CF761
:1029080095F0600030F796F0600094F697F060005C
:1029180098F698F080EC4EF0600054F248F16000B0
:1029280058F249F16000ACF78BF06000B0F78CF01A
:102938008D6B8CBF8D07450E8E6F000E8F6F000E4E
:10294800906F1FEC4BF0600030F28BF0600034F2B7
:102958008CF08D6B8CBF8D6960002CF24AF16000A1
:1029680030F24BF1600094F78BF0600098F78CF030
:102978008D6B8CBF8D07450E8E6F000E8F6F000E0E
:10298800906F1FEC4BF0600030F28BF0600034F277
:102998008CF08D6B8CBF8D6960002CF24CF160005F
:1029A80030F24DF143EC50F02FEC1AF0A2EC15F098
:1029B800B80E0001936F030E946F000E966F140EFD
:1029C800956FBEEC47F00009D8B4BAEF0FF0C50E0A
:1029D8000101606F030E616F010E5AEC33F0560E61
:1029E8000101466FFB0E476F60002CF795F0600001
:1029F80030F796F0D5EC52F060004CF297F060009A
:102A080050F298F080EC4EF0600054F248F160000B
:102A180058F249F16000ACF78BF06000B0F78CF029
:102A28008D6B8CBF8D07450E8E6F000E8F6F000E5D
:102A3800906F1FEC4BF0600030F28BF0600034F2C6
:102A48008CF08D6B8CBF8D6960002CF24AF16000B0
:102A580030F24BF1600074F64CF1600078F64DF1FD
:102A6800600064FB8BF0600068FB8CF08D6B8CBFA2
:102A78008D07450E8E6F000E8F6F000E906F1FEC46
:102A88004BF0600030F28BF0600034F28CF08D6B0C
:102A98008CBF8D6960002CF24EF1600030F24FF16E
:102AA800600074F78BF0600078F78CF08D6B8CBF4A
:102AB8008D07450E8E6F000E8F6F000E906F1FEC06
:102AC8004BF0600030F28BF0600034F28CF08D6BCC
:102AD8008CBF8D6960002CF250F1600030F251F12A
:102AE80060003CF78BF0600040F78CF08D6B8CBF7A
:102AF8008D07450E8E6F000E8F6F000E906F1FECC6
:102B08004BF0600030F28BF0600034F28CF08D6B8B
:102B18008CBF8D6960002CF252F1600030F253F1E5
:102B280043EC50F0BAEF0FF0030E0101C019D8A41E
:102B3800A2EF01F0D3EC42F07FEF00F044EC4BF051
:102B48000101766FB851D8A412D0030E7619D8A413
:102B58000ED0080EB86FD5EC52F060004CF238F287
:102B6800600050F239F2010E0101C56F120076BF04
:102B780014EF1AF0040E7619D8B414EF1AF0010EF7
:102B8800C66F010EC56FB50E466FFF0E476F7651C3
:102B9800486F496B48BF490743EC50F00C0E0101E0
:102BA800B819D8A4E4EF19F0000EB86F020E761920
:102BB800D8A40EEF1AF0030EC06F0EEF1AF0B8513A
:102BC800D8A43DD0010EB86FF451D8B404D0B55193
:102BD800B611D8A403D0F7C197F1F0D16000D4F6AC
:102BE8008BF06000D8F68CF0000E00018E6F250E79
:102BF8008D6F94EC44F060002CF297F1600030F295
:102C080098F10101985104E13D0E975DD8A004D0D8
:102C1800000E986F3C0E09D0985108E1040E975D9C
:102C2800D8B004D0000E986F040E976FD5EC52F010
:102C380060004CF238F2600050F239F2EBD3B8057C
:102C4800D8A434D0F405D8A409D0000EF46F010E2E
:102C58000201556F01019751020F03D0F751FB5D37
:102C68009725FB6F020E9725606F000E9821616F04
:102C7800FB51626F636B6051625D61516359D8B0FB
:102C880003D09751020FFB6F3C0EFB6502D03C0E40
:102C980004D0040EFB6102D0040EFB6F010E00018C
:102CA800C36F97C1F7F1010EC46F93D1080EB8191D
:102CB800D8A405D00B0EB86FF5C197F17FD10B0ED4
:102CC800B819D8A486D197C1F5F1010E0201566F43
:102CD80080D1B851D8A405D0020EB86FF8C197F1C9
:102CE8006DD1020EB819D8A430D097C1F8F1010EF1
:102CF8000001C56FEA0E8C6F600E8B6F0101F851F1
:102D0800030D6F00CCFF8DF06F00D0FF8EF05EECEE
:102D180049F060002CF24CF2600030F24DF2EA0EFD
:102D28008C6F600E8B6F6000E0F78DF08E6B5EEC41
:102D380049F002014C5100018B5D02014A6F4D516F
:102D480000018C5902014B6F44D1080EB819D8A460
:102D580040D1090E17D0B851D8A405D0030EB86FCA
:102D6800F6C197F12BD1030EB819D8A406D097C194
:102D7800F6F1010E0001C26F2CD1080EB819D8A4C3
:102D880028D10A0EB86F52D7B851D8A405D0040E6E
:102D9800B86FFBC197F112D1040EB819D8A419D194
:102DA80097C1FBF1010E0001C36F13D1B851D8A42C
:102DB80045D0050EB86FF405D8B404D0ED51EE1126
:102DC800D8A403D0FAC197F1F9D00A0EED25000175
:102DD8008B6F000E0101EE2100018C6F000E8E6FCB
:102DE800140E8D6F94EC44F0D8908B350101976FD9
:102DF80000018C350101986F98511CE1970E975D81
:102E0800D8B018D0985104E10A0E975DD8A007D021
:102E180060005CF664F1600060F665F104D0000EB5
:102E2800656F0A0E646F600090F597F1600094F585
:102E380098F1FCD6000E986F960EF7D6050EB819C5
:102E4800D8A4C7D0FA516000E4F760F1616B605F05
:102E5800000E615B9751602798516123615130E101
:102E6800970E605DD8B02CD0FA516000E4F760F19D
:102E7800616B605F000E615B975160279851612319
:102E8800615104E10A0E605DD8A00FD0FA516000CC
:102E9800E4F760F1616B605F000E615B975160253C
:102EA800686F98516121696F04D0000E696F0A0E2E
:102EB800686F6000A0F566F16000A4F567F104D0C2
:102EC800000E676F960E666F600098F5F9F1FA517B
:102ED8006000CCF760F1616B605F000E615B975139
:102EE800602798516123615130E1970E605DD8B039
:102EF8002CD0FA516000CCF760F1616B605F000E76
:102F0800615B9751602798516123615104E10A0E72
:102F1800605DD8A00FD0FA516000CCF760F1616B0A
:102F2800605F000E615B975160256C6F985161215D
:102F38006D6F04D0000E6D6F0A0E6C6F6000B0F5F7
:102F48006AF16000B4F56BF104D0000E6B6F960E59
:102F58006A6F6000A8F5F3F197C1FAF1010E00015C
:102F6800C06F010EC16F010EBF6F0101F451D8A4EB
:102F780030D0010EF46F010E0201556F230E0101CE
:102F8800FB6F010E0001C36F24D0B851D8A405D03F
:102F9800070EB86FF9C197F111D0070EB819D8A468
:102FA80018D097C1F9F1010E0001C06F12D0B851C5
:102FB800D8A406D0060EB86FF3C197F1986B36D631
:102FC800060EB819D8A405D097C1F3F1010E000177
:102FD800C16F000E0101B86F1DD2B851D8B41AD212
:102FE800D5EC52F060004CF238F2600050F239F241
:102FF800C0D0010E9725976F000E9821986F9851B1
:1030080004E13D0E975DD8A005D2000E986F3C0EE6
:1030180030D1010E9725976F000E9821986F98511F
:10302800F4E13D0E975DD8B0F0D7F4D1010E9725A5
:10303800976F000E9821986F985104E11A0E975DCA
:10304800D8A004D0000E986F190E976FF451D8A429
:103058000CD0F751606F616B9751605D9851615961
:10306800D8B003D0F7C197F1C0D0FB51606F616B46
:103078009751605D98516159D8B0CCD1FBC197F197
:10308800B4D0010E9725976F000E9821986F98512C
:1030980004E11F0E975DD8A0BDD1000E986F1E0EDB
:1030A800E8D0010E9725976F000E9821986F9851D8
:1030B80004E1090E975DD8A0ADD1000E986F080EF7
:1030C800D8D0020E9725606F000E9821616F61516C
:1030D80022E1970E605DD8B01ED0020E9725606F72
:1030E800000E9821616F615104E10A0E605DD8A05D
:1030F80007D0020E97256E6F000E98216F6F04D0CF
:10310800000E6F6F0A0E6E6F6000B8F597F16000E1
:10311800BCF598F17FD1000E986F960EAAD0020EDA
:103128009725606F000E9821616F6151F4E1970E49
:10313800605DD8B0F0D7020E9725606F000E982119
:10314800616F615104E1050E605DD8A007D0020EE1
:103158009725706F000E9821716F04D0000E716F63
:10316800050E706F6000C0F597F16000C4F598F126
:1031780051D10101B851606F616B6151000AD8A447
:1031880049D16051010AD8B434D7030AD8B479D7E1
:10319800010AD8B44BD7070AD8B43BD7010AD8B428
:1031A80090D7030AD8B4BBD7010AD8B4B8D70C0A49
:1031B800D8B477D72FD1B851D8B42CD1D5EC52F098
:1031C80060004CF238F2600050F239F2C8D0FF0EBD
:1031D8009725976FFF0E9821986FF651975D000E0F
:1031E8009859D8B004D0F6C197F1986B13D198517B
:1031F80008E1040E975DD8B004D0000E986F040E55
:1032080038D0040EB819D8A405D1F451D8A402D1E5
:10321800F751975D000E9859D8A024D7FBD0FF0E20
:103228009725976FFF0E9821986F985104E1040E27
:10323800975DD8A0E2D7EED0FF0E9725976FFF0EC7
:103248009821986F985103E10A0E975DD8B0E2D0A3
:10325800000E986F0A0E0DD0FF0E9725976FFF0E80
:103268009821986F97519811D8A4D4D0000E986FD0
:10327800010E976FCFD0FE0E606FFF0E616F60007A
:103288005CF662F1600060F663F16051622761519B
:103298006323635103E1970E625DD8B03CD7FE0EFD
:1032A800606FFF0E616F60005CF662F1600060F6AF
:1032B80063F16051622761516323635104E10A0E8F
:1032C800625DD8A007D0FE0E9725726FFF0E982179
:1032D800736F04D0000E736F0A0E726F6000C8F52A
:1032E80097F16000CCF598F195D0FE0E606FFF0E57
:1032F800616F60005CF662F1600060F663F1605136
:10330800622761516323635103E1970E625DD8B070
:1033180002D7FE0E606FFF0E616F60005CF662F10F
:10332800600060F663F16051622761516323635165
:1033380004E1050E625DD8A007D0FE0E9725746FD4
:10334800FF0E9821756F04D0000E756F050E746F0F
:103358006000D0F597F16000D4F598F15BD00101D9
:10336800B851606F616B6151000AD8A453D06051A5
:10337800010AD8B42CD7030AD8B45ED7010AD8B446
:103388004ED7070AD8B423D7010AD8B474D7030A8A
:10339800D8B4ABD7010AD8B4A8D70C0AD8B45CD72C
:1033A80039D0B851D8A436D00C0EB86FD5EC52F03D
:1033B80060004CF238F2600050F239F2BD802AD039
:1033C8006000D8F560F1616B60BF61076151000A68
:1033D800D8A420D06051000AD8B4E3EF15F0010A50
:1033E800D8B4B9D4030AD8B474D4010AD8B4F5D57A
:1033F800060AD8B4E0D6030AD8B4D8D4010AD8B497
:10340800C3D40F0AD8B4C1D5010AD8B4D0D5030A99
:10341800D8B4C7D7010E0101C56F010EC66F1200DF
:10342800B851D8B412006000E0F893F06000E4F8F6
:1034380094F0130E0001966F880E956FE4EC4EF031
:103448000009D8B41200010E0101C66F010EC56F44
:10345800000EB86F12000101C651D8B422D218EC80
:1034680054F00009D8A41DD2000E0101C66FB8514E
:10347800D8B408D0060EB819D8B404D0070EB819B5
:10348800D8A44CD0030EC019D8B43DD0F451D8A458
:103498001BD0AB0E466F020E476FAC0E486FFC0E8A
:1034A800496F6000E0F74AF14B6B6000D8F74CF1C8
:1034B8004D6B6000DCF74EF14F6B6000ECF750F19C
:1034C800516B31EC49F0D8D1AB0E466F020E476F05
:1034D8004A0E486FFD0E496F6000E0F74AF14B6BEA
:1034E8006000D8F74CF14D6B6000ECF74EF14F6B74
:1034F800FA510A0D6F00CCFF50F16F00D0FF51F167
:1035080031EC49F0B9D1AB0E466F020E476FB60EDB
:10351800486FFE0E496F31EC49F0AED1020EB81972
:10352800D8A441D0F451D8A41DD0AB0E466F020EDA
:10353800476FAC0E486FFC0E496F60005CF64AF1AD
:10354800600060F64BF16000D8F74CF14D6B6000FD
:10355800DCF74EF14F6B6000ECF750F1516B31EC3A
:1035680049F08AD1AB0E466F020E476F4A0E486F7C
:10357800FD0E496F60005CF64AF1600060F64BF1A1
:103588006000D8F74CF14D6B6000ECF74EF14F6BD3
:10359800FA510A0D6F00CCFF50F16F00D0FF51F1C6
:1035A80031EC49F069D1030EB819D8A441D0F451CF
:1035B800D8A41DD0AB0E466F020E476FAC0E486FF5
:1035C800FC0E496F6000E0F74AF14B6B60005CF657
:1035D8004CF1600060F64DF16000DCF74EF14F6B86
:1035E8006000ECF750F1516B31EC49F045D1AB0E6E
:1035F800466F020E476F4A0E486FFD0E496F600016
:10360800E0F74AF14B6B60005CF64CF1600060F645
:103618004DF16000ECF74EF14F6BFA510A0D6F0057
:10362800CCFF50F16F00D0FF51F131EC49F024D1BB
:10363800B805D8A41DD0AB0E466F020E476FAC0E6E
:10364800486FFC0E496F6000E0F74AF14B6B600071
:10365800D8F74CF14D6B60005CF64EF1600060F6F7
:103668004FF16000ECF750F1516B31EC49F004D1A7
:10367800040EB819D8A441D0F451D8A41DD0AB0E6B
:10368800466F020E476FAC0E486FFC0E496F600024
:10369800E0F74AF14B6B6000D8F74CF14D6B6000D6
:1036A800DCF74EF14F6B60005CF650F1600060F69D
:1036B80051F131EC49F0E0D0AB0E466F020E476F86
:1036C8004A0E486FFD0E496F6000E0F74AF14B6BF8
:1036D8006000D8F74CF14D6B60005CF64EF160006D
:1036E80060F64FF1FA510A0D6F00CCFF50F16F00F0
:1036F800D0FF51F131EC49F0BFD0050EB819D8A46C
:1037080031D060005CF69BF0600060F69CF0000E23
:1037180000019E6F0A0E9D6FFCEC4EF060006CF28B
:103728005EF1600070F25FF1AB0E0101466F020EB0
:10373800476F4A0E486FFD0E496F6000E0F74AF187
:103748004B6B6000D8F74CF14D6B6000ECF74EF115
:103758004F6B600078F550F160007CF551F131EC69
:1037680049F08AD00C0EB819D8A40BD0AB0E466F0E
:10377800020E476F940E486FFE0E496F31EC49F008
:103788007BD0090EB819D8A41DD0AB0E466F020E17
:10379800476F830E486FFE0E496F600084F64AF14A
:1037A800600088F64BF160007CF64CF1600080F612
:1037B8004DF1600074F64EF1600078F64FF131EC8F
:1037C80049F05AD00A0EB819D8A442D0AB0E466FA9
:1037D800020E476F320E486FFF0E496F070E5C6F7F
:1037E80060006CF78BF0600070F78CF000018D6B57
:1037F800250E8E6F000E8F6F000E906F1FEC4BF032
:1038080001015C295D6F05D00001D8908D338C33A0
:103818008B3301015D2FF8D760002CF24AF160006C
:1038280030F24BF1600054FB8BF0600058FB8CF0D9
:10383800000E00018E6F250E8D6F5EEC49F0600062
:103848002CF24CF1600030F24DF131EC49F014D01B
:103858000B0EB819D8A410D0AB0E466F020E476FE6
:10386800370E486FFD0E496F60005CF64AF1600044
:1038780060F64BF131EC49F0000E0001926F000E3A
:10388800ADEC4CF0AB0E00018B6F020E8C6FD6ECDA
:103898003DF00101B851D8B41200010E0001BE6F0D
:1038A80012000101C451D8B416D018EC54F0000924
:1038B800D8A411D0000E0101C46F010E0001926F4F
:1038C8000B0EADEC4CF0C90E00018B6F020E8C6F25
:1038D800D6EC3DF0DED70101C551D8B4ECD018ECD8
:1038E80054F00009D8A4E7D0000E0101C56F060EF8
:1038F800B819D8A42DD060005CF69BF0600060F683
:103908009CF0000E00019E6F0A0E9D6FFCEC4EF0BD
:1039180060006CF25EF1600070F25FF1970E0101D9
:10392800466F020E476F970E486FFF0E496F600093
:1039380078F54AF160007CF54BF1F9510A0D6F00FA
:10394800CCFF4CF16F00D0FF4DF131EC49F0A5D020
:10395800070EB819D8A42DD060005CF69BF0600063
:1039680060F69CF0000E00019E6F0A0E9D6FFCEC45
:103978004EF060006CF25EF1600070F25FF1970E3D
:103988000101466F020E476F970E486FFF0E496F91
:10399800F3510A0D6F00CCFF4AF16F00D0FF4BF1D5
:1039A800600078F54CF160007CF54DF131EC49F0A0
:1039B80074D00C0EB819D8A40BD0970E466F020E0F
:1039C800476F620E486FFF0E496F31EC49F065D0C2
:1039D800080EB819D8A40BD0970E466F020E476F81
:1039E800AB0E486FFF0E496F31EC49F056D00B0E05
:1039F800B819D8A40BD0970E466F020E476FA10EC8
:103A0800486FFF0E496F31EC49F047D0090EB819DD
:103A1800D8A40BD0970E466F020E476F3E0E486F24
:103A2800FF0E496F31EC49F038D00A0EB819D8A406
:103A38000BD0970E466F020E476F260E486FFF0E8B
:103A4800496F31EC49F029D0030EC019D8B41BD006
:103A5800970E466F020E476F970E486FFF0E496F1D
:103A6800F3510A0D6F00CCFF4AF16F00D0FF4BF104
:103A7800F9510A0D6F00CCFF4CF16F00D0FF4DF1EA
:103A880031EC49F00AD0970E466F020E476F6D0E63
:103A9800486FFF0E496F31EC49F0010E0001926F3B
:103AA800000EADEC4CF0970E00018B6F020E8C6F80
:103AB800D6EC3DF0F2D60001BE51D8B4120018EC95
:103AC80054F00009D8A41200000EBE6F38D0000EC2
:103AD8000001926F010EADEC4CF01200000E0001D7
:103AE800926F040EADEC4CF01200000E0001926FC4
:103AF800070EADEC4CF01200000E0001926F0A0E9A
:103B0800ADEC4CF01200000E0001926F0F0EADEC00
:103B18004CF01200010E0001926F030EADEC4CF058
:103B28001200010E0001926F080EADEC4CF012006D
:103B3800000E0001926F150EADEC4CF01200010161
:103B4800B8515C6F5D6B5D51000AD8A4F1D75C5128
:103B5800010AD8B4CAD7030AD8B4B9D7010AD8B465
:103B6800BDD7070AD8B4C8D7010AD8B4CCD7030A36
:103B7800D8B4D0D7010AD8B4D4D7DAD7906F000E0A
:103B88000101C06FBA94BC96BA9603019051D8B49B
:103B980065D0010E0001926F000EADEC4CF0A60E40
:103BA80000018F6FFD0E906FA8EC50F0000E926F21
:103BB800000EADEC4CF0D90E00018F6FFD0E906F2A
:103BC800A8EC50F0000E0301936F000E926F000EE8
:103BD8000001926F000EADEC4CF003019251300FD2
:103BE8000201AB6F000E0301956F010E946FAB0ECF
:103BF8009425D96E020E9521DA6E6000AFFADFFFC8
:103C0800944B952B95BFF3D7955104E1100E945D15
:103C1800D8A0EDD7AB0E00018F6F020E906FA8EC05
:103C280050F0010E926F000EADEC4CF0AB0E00019F
:103C38008F6F020E906FA8EC50F0010E9C6F5E0E15
:103C48009B6FE4EC4DF00301924B932B93BFBFD7CE
:103C5800935104E10A0E925DD8A0B9D7000E000175
:103C6800926F000EADEC4CF0500E00018F6FFE0EFF
:103C7800906FA8EC50F0010E926F000EADEC4CF076
:103C8800C80E00018F6FFD0E906FA8EC50F0030E68
:103C98009C6FE80E9B6FE4EC4DF01F0E03019B6FC9
:103CA800400E9A6F000E996F000E986F010E9E6F6E
:103CB800200EBBEC50F00009D8A41DD0000E030163
:103CC8009E6F8D0E0101466FFF0E476F43EC50F05B
:103CD800000E0001926F000EADEC4CF00A0E0001D0
:103CE8008F6FFF0E906FA8EC50F0010E9C6FF40ED2
:103CF8009B6FE4EC4DF0000E0101616F000E606FE8
:103D0800000ED5EC4AF0000E0101616F000E606FE5
:103D1800010ED5EC4AF0D5EC52F060004CF296F367
:103D2800600050F297F345D09C0E0101606F030EBE
:103D3800616F020E5AEC33F00009D8B429D00301A0
:103D48009C51985D9951800A0101916F03019D5121
:103D5800800A01019159D8B006D0600070FE98F32E
:103D6800600074FE99F303019A519C5D9D51800A8D
:103D78000101916F03019B51800A01019159D8B04B
:103D880018D0600070FE9AF3600074FE9BF311D0A7
:103D9800BA94BC96BA96BE0E0101466FFF0E476FE5
:103DA800000E496F160E486F43EC50F0000E0301E9
:103DB8009E6F960E0001936F030E946F010E966F1F
:103DC800F40E956FBEEC47F00009D8B4ADD70301E7
:103DD8009E51D8A403D003019E5112009A519825F0
:103DE8000101916F03019B5199210101926F923555
:103DF8009231936F9131956F60004CF696F1760E83
:103E0800466FFC0E476F600068FE48F160006CFE6C
:103E180049F1600060FE4AF1600064FE4BF1600009
:103E280054F64CF1600058F64DF143EC50F00101A6
:103E380096BF06D0830E955D140E9659D8B008D05B
:103E480096BF06D08E0E955D120E9659D8B02ED01C
:103E5800000E0001926F000EADEC4CF01D0E00013B
:103E68008F6FFE0E906FA8EC50F0010E926F000E4F
:103E7800ADEC4CF0AB0E0101466F020E476F720EAF
:103E8800486FFE0E496F600054F64AF1600058F61C
:103E98004BF131EC49F0AB0E00018F6F020E906FC1
:103EA800A8EC50F0000E03019E6F2CD003019A512C
:103EB800985D0101916F03019B5199590101926F1E
:103EC80092BF20D0925104E1650E915DD8A01AD01E
:103ED800000E0001926F000EADEC4CF01D0E0001BB
:103EE8008F6FFE0E906FA8EC50F0010E926F000ECF
:103EF800ADEC4CF0B70E00018F6FFD0E906FA8EC83
:103F080050F0D0D703019E51D8B465D7A9D0BD9C35
:103F18000ED0E60E0101466FFF0E476FEEEC47F03C
:103F28000101486F496B48BF490743EC50F0EEEC7C
:103F380047F0FF0AD8A4EDD7A4EC52F0BD8C000ED0
:103F4800926F000EADEC4CF0610E00018F6FFE0E0B
:103F5800906FA8EC50F0D5EC52F060004CF296F35C
:103F6800600050F297F3010E0301916FD5EC52F007
:103F780060004CF296F3600050F297F3960E936F40
:103F8800030E946F010E966FF40E956FBEEC47F01A
:103F98000009D8B40CD00301915156EC52F003013A
:103FA8009151D8A402D0010E01D0000E916F50ECAF
:103FB80044F09C0AD8A4E2D7EEEC47F0040AD8A44F
:103FC800DDD7010E56EC52F0BD9CED0E0101466F97
:103FD800FF0E476F43EC50F0400EBBEC50F0000969
:103FE800D8A41DD0000E03019E6F8D0E0101466FEF
:103FF800FF0E476F43EC50F0000E0001926F000E69
:10400800ADEC4CF00C0E00018F6FFE0E906FA8EC1B
:1040180050F0010E9C6FF40E9B6FE4EC4DF0010E16
:1040280001016D6FF40E6C6F010E19EC21F000099F
:10403800D8B403D0010EC06F13D0000E0001926FE8
:10404800000EADEC4CF0820E00018F6FFD0E906FEC
:10405800A8EC50F0010E9C6FF40E9B6FE4EC4DF051
:104068000101C051D8B453D703019E51D8B4B3D677
:10407800CF0E0101466FFF0E476F43EC50F0600E04
:10408800BBEC50F00009D8A41DD0000E03019E6FB0
:104098008D0E0101466FFF0E476F43EC50F0000E86
:1040A8000001926F000EADEC4CF00C0E00018F6F0A
:1040B800FE0E906FA8EC50F0010E9C6FF40E9B6FF3
:1040C800E4EC4DF0BD80BA94BC96000E9C6FC80E0F
:1040D8009B6FE4EC4DF0000E01016D6F640E6C6F88
:1040E800000E19EC21F00009D8A416D0000E030127
:1040F8009E6F000E0001926F000EADEC4CF03F0E6B
:1041080000018F6FFE0E906FA8EC50F0010E9C6FAF
:10411800F40E9B6FE4EC4DF0BD90C70E0101466FA5
:10412800FF0E476F43EC50F0800EBBEC50F00009D7
:10413800D8A41DD0000E03019E6F8D0E0101466F9D
:10414800FF0E476F43EC50F0000E0001926F000E17
:10415800ADEC4CF00C0E00018F6FFE0E906FA8ECCA
:1041680050F0010E9C6FF40E9B6FE4EC4DF0000EC6
:104178009C6F640E9B6FE4EC4DF0BA84BC86010E14
:104188009C6F2C0E9B6FE4EC4DF0000E01016D6FDF
:10419800640E6C6F000E19EC21F00009D8A416D03B
:1041A800000E03019E6F000E0001926F000EADEC31
:1041B8004CF02E0E00018F6FFE0E906FA8EC50F0A1
:1041C800010E9C6FF40E9B6FE4EC4DF0830E010121
:1041D800466FFF0E476F43EC50F0D5EC52F060008D
:1041E8004CF296F3600050F297F3000E5CEC2AF064
:1041F800916F926B915103019E17010E5CEC2AF0AE
:10420800916F926B915103019E17020E5CEC2AF09C
:10421800916F926B915103019E17EEEC47F0FF0AE4
:10422800D8A4FBD7A4EC52F0D6D5796F010E0101C2
:104238007C6F100E806F000E7F6F100E846F000E63
:10424800836F000E7E6F000E7D6F000E826F000E72
:10425800816FD5EC52F060004CF27AF1600050F2B8
:104268007BF131D18D0E0101606F010E616F000E7F
:104278005AEC33F00009D8B47DD001018D517D5D31
:104288007E51800A6E6F8E51800A6E59D8B006D062
:10429800600034F67DF1600038F67EF17F518D5D67
:1042A8008E51800A6E6F8051800A6E59D8B006D040
:1042B800600034F67FF1600038F680F1050E6E6F0D
:1042C800600034F66FF1600038F670F1050ED89092
:1042D8006F377037E82EFBD76000BCF571F16000CE
:1042E800C0F572F1000E72BFFF0E736F746F60003D
:1042F80014F68BF0600018F68CF060001CF68DF058
:10430800600020F68EF01F0E00018F6F000E906F78
:10431800000E916F000E926F1EEC48F00101715172
:1043280000018B250101756F725100018C2101017B
:10433800766F735100018D210101776F745100016F
:104348008E210101786F6E6701D007D078357833F8
:104358007733763375336E2FF6D76000D4F585F151
:104368006000D8F586F16000DCF587F16000E0F5C3
:1043780088F111D0BA94BC96BA96BE0E0101466F68
:10438800FF0E476F000E496F140E486F43EC50F054
:10439800000E01017C6F8F0E0101606F010E616FCD
:1043A800010E5AEC33F00009D8B47DD001018F51C9
:1043B800815D8251800A6E6F9051800A6E59D8B023
:1043C80006D060003CF681F1600040F682F183512E
:1043D8008F5D9051800A6E6F8451800A6E59D8B0F3
:1043E80006D060003CF683F1600040F684F1050ECB
:1043F8006E6F60003CF66FF1600040F670F1050EDC
:10440800D8906F377037E82EFBD76000BCF571F194
:104418006000C0F572F1000E72BFFF0E736F746F0B
:10442800600024F68BF0600028F68CF060002CF613
:104438008DF0600030F68EF01F0E00018F6F000EB9
:10444800906F000E916F000E926F1EEC48F0010104
:10445800715100018B250101756F725100018C218A
:104468000101766F735100018D210101776F74513D
:1044780000018E210101786F6E6701D007D0783571
:1044880078337733763375336E2FF6D76000D4F5EB
:1044980089F16000D8F58AF16000DCF58BF16000E5
:1044A800E0F58CF110D0000E01017C6FBA94BC9637
:1044B800BA96BE0E466FFF0E476F000E496F150E77
:1044C800486F43EC50F07A0E0001936F010E946F21
:1044D8006000B0F595F06000B4F596F0BEEC47F0DA
:1044E8000009D8B4BFD6050E01016E6F600014F63E
:1044F8006FF1600018F670F160001CF671F1600051
:1045080020F672F16E6701D007D0723572337133BD
:1045180070336F336E2FF6D76000BCF585F16000FD
:10452800C0F586F16000C4F587F16000C8F588F130
:10453800050E01016E6F600024F66FF1600028F629
:1045480070F160002CF671F1600030F672F16E6760
:1045580001D007D072357233713370336F336E2FD9
:10456800F6D76000BCF589F16000C0F58AF16000FB
:10457800C4F58BF16000C8F58CF1AB0E0101466FF4
:10458800020E476F240E486FFD0E496F600014F647
:104598004AF1600018F64BF160001CF64CF160001F
:1045A80020F64DF1600024F64EF1600028F64FF138
:1045B80060002CF650F1600030F651F131EC49F012
:1045C800A80E466FFB0E476F6000FCF548F16000CF
:1045D80000F649F16000F4F54AF16000F8F54BF196
:1045E800600014F64CF1600018F64DF160001CF6FE
:1045F8004EF1600020F64FF143EC50F0CE0E010171
:10460800466FFB0E476F60000CF648F1600010F62D
:1046180049F1600004F64AF1600008F64BF16000C9
:1046280024F64CF1600028F64DF160002CF64EF1AE
:10463800600030F64FF143EC50F0000E0001926F2D
:10464800000EADEC4CF0AB0E00018F6F020E906FB8
:10465800A8EC50F0030E9C6FE80E9B6FE4EC4DF055
:1046680001017951D8B47DD08351815D6E6F845139
:1046780082596F6F6FBF06D06F513DE1110E6E5DAD
:10468800D8B039D07F517D5D6E6F80517E596F6F84
:104698006FBF06D06F512FE1110E6E5DD8B02BD0D1
:1046A80088BF09D08851871126E15F0E855D010E0C
:1046B8008659D8B020D088BF1ED08851871186115E
:1046C80004E1280E855DD8A016D08CBF14D08C517B
:1046D8008B1106E1580E895D020E8A59D8A00BD0BD
:1046E8008CBF19D08C518B1106E1070E895D040E21
:1046F8008A59D8A010D0000E0001926F000EADECC0
:104708004CF0000E01017C6F5A0E466FFC0E476F8D
:1047180043EC50F077D0600014F660F1600018F6B2
:1047280061F1000ED5EC4AF0600024F660F16000FB
:1047380028F661F1010ED5EC4AF0030E44EC3DF089
:10474800040E44EC3DF0050E44EC3DF0060E44EC3E
:104758003DF0000E00019C6F320E9B6FE4EC4DF0B3
:1047680051D08351815D6E6F845182596F6F6FBFD5
:1047780006D06F513EE1110E6E5DD8B03AD07F5130
:104788007D5D6E6F80517E596F6F6FBF06D06F5120
:1047980030E1110E6E5DD8B02CD088BF08D088519A
:1047A8008711861126E10B0E855DD8B022D088AF1F
:1047B8000AD0F60E855DFF0E8659FF0E8759FF0E4B
:1047C8008859D8A016D08CAF0AD0F60E895DFF0E96
:1047D8008A59FF0E8B59FF0E8C59D8A00AD08CBF6E
:1047E80011D08C518B118A1104E10B0E895DD8A070
:1047F80009D0110E466FFD0E476F43EC50F0000EC6
:1048080001017C6F01017C511200AA51D96EDA6A4C
:104818006F007BFFF6FF6F0077FFF7FFF86A08006D
:10482800F550250AD8A4FFD1AA51D96EDA6ADE2A32
:10483800000EDD22000EB36F000EB26FB2C0B6F0EC
:10484800B3C0B7F0B469B569000E01013D6F000E41
:1048580018D00001B681AA51D96EDA6ADE2A000E94
:10486800DD2236D00001B683F6D70001B685F3D72E
:104878000001B687F0D70001B689EDD7000E3D6F6D
:10488800010E3C6F25D00001AA51D96EDA6A6F007B
:104898007BFFF6FF6F0077FFF7FFF86A0800F55017
:1048A8000101276F286B2851000AD8A4E7D72751A0
:1048B800200AD8B4DDD7030AD8B4DDD7080AD8B49B
:1048C800D4D7060AD8B4C5D71D0AD8B4CBD7D6D7FB
:1048D80001013C513D11D8B4D6D70001B6B1B69309
:1048E800AA51D96EDA6A6F007BFFF6FF6F0077FF77
:1048F800F7FFF86A0800F5502A0AD8A42AD0AA5166
:10490800D96EDA6ADE2A000EDD226000AFF2D9FF26
:104918006000B3F2DAFF6F007CFF27F1020EDE269B
:104928006F007CFF28F1000EDD2260009FF4D9FFA4
:104938006000A3F4DAFF6F0078FFB2F06F0074FF35
:10494800B3F0B3AF47D0B681B26DB31FD8B0B32BB5
:1049580041D0AA51D96EDA6A6F0078FFA1F06F00D2
:1049680074FFA2F0F4EC37F0600084F2B2F060005B
:1049780088F2B3F007D00001AA51D96EDA6ADE2AAC
:10498800000EDD22D00E0101276FFF0E286F0001F7
:10499800AA51D96EDA6A6F007BFFF6FF6F0077FFC6
:1049A800F7FFF86A0800F5500101296F2A6B2751B3
:1049B800292728512A232A5106E10A0E295DD8B051
:1049C80002D0010E01D0000E3E6F3F6B3E513F11E9
:1049D800D8A4D1D70001AA51D96EDA6A6F007BFF3B
:1049E800F6FF6F0077FFF7FFF86A0800F550640AD2
:1049F800D8B40FD0AA51D96EDA6A6F007BFFF6FFE0
:104A08006F0077FFF7FFF86A0800F550690AD8A425
:104A180053D0AA51D96EDA6ADE2A000EDD22600070
:104A2800AFF2D9FF6000B3F2DAFF6F007CFF27F125
:104A3800020EDE266F007CFF28F1000EDD226000EA
:104A48009FF4D9FF6000A3F4DAFF6F0078FF2BF121
:104A58006F0074FF2CF10101000E2CBFFF0E2D6FAB
:104A68002E6F2F6F306F316F326F6000A0F200F140
:104A78006000A4F201F16000ACF402F16000B0F44F
:104A880003F16000B4F404F16000B8F405F16000CB
:104A9800BCF406F16000C0F407F16000C4F408F14A
:104AA8006000C8F409F14CEC2FF0600000F4A8F0A5
:104AB800600004F4A9F01200AA51D96EDA6A6F00F6
:104AC8007BFFF6FF6F0077FFF7FFF86A0800F550E5
:104AD800780AD8B40FD0AA51D96EDA6A6F007BFF72
:104AE800F6FF6F0077FFF7FFF86A0800F550580ADD
:104AF800D8A467D0AA51D96EDA6A6F007BFFF6FF97
:104B08006F0077FFF7FFF86A08006F00D4FF3BF1EA
:104B1800AA51D96EDA6ADE2A000EDD226000AFF2F1
:104B2800D9FF6000B3F2DAFF6F007CFF27F1020EB5
:104B3800DE266F007CFF28F1000EDD2260009FF466
:104B4800D9FF6000A3F4DAFF6F0078FF29F16F0046
:104B580074FF2AF16000A4F433F16000A8F434F182
:104B68000101356B366B376B386B396B3A6B60000C
:104B7800A0F200F16000A4F201F16000CCF402F1AF
:104B88006000D0F403F16000D4F404F16000D8F4BC
:104B980005F16000DCF406F16000E0F407F1600064
:104BA800E4F408F16000E8F409F16000ECF40AF1BB
:104BB8000DEC32F0600000F4A8F0600004F4A9F0F5
:104BC8001200AA51D96EDA6A6F007BFFF6FF6F00F8
:104BD80077FFF7FFF86A0800F550250AD8A418D01F
:104BE800AA51D96EDA6ADE2A000EDD22000E8E6F17
:104BF800250E8D6F6000A0F28FF06000A4F290F097
:104C0800D2EC41F0000E0001A96F010EA86F12004E
:104C1800AA51D96EDA6ADE2A000EDD22000EA96FCB
:104C2800000EA86F1200AA51D96EDA6A6F007BFFD6
:104C3800F6FF6F0077FFF7FFF86A0800F5508D6FF1
:104C48008E6B6000A0F28FF06000A4F290F0D2ECBE
:104C580041F00001AA51D96EDA6ADE2A000EDD227F
:104C6800D1D74750D96EDA6A6F007BFFF6FF6F0025
:104C780077FFF7FFF86A0800F550250AD8A4EFD1A6
:104C88004750D96EDA6ADE2A000EDD22000E0001D6
:104C9800B36F000EB26FB2C0B6F0B3C0B7F0B4696C
:104CA800B569000E726F000E13D0B6814750D96EE9
:104CB800DA6ADE2A000EDD2230D0B683F7D7B68551
:104CC800F5D7B687F3D7B689F1D7000E726F010E04
:104CD800716F23D04750D96EDA6A6F007BFFF6FFF9
:104CE8006F0077FFF7FFF86A0800F5504A6E4B6AC5
:104CF8004B50000AD8A4E9D74A50200AD8B4E1D7C3
:104D0800030AD8B4E0D7080AD8B4D9D7060AD8B461
:104D1800CCD71D0AD8B4D1D7D8D771517211D8B40D
:104D2800D9D7B6B1B6934750D96EDA6A6F007BFF10
:104D3800F6FF6F0077FFF7FFF86A0800F5502A0AB8
:104D4800D8A42AD04750D96EDA6ADE2A000EDD22AE
:104D5800600023F1D9FF600027F1DAFF6F007CFFC4
:104D68004AF0020EDE266F007CFF4BF0000EDD22BB
:104D780060002BF1D9FF60002FF1DAFF6F0078FF98
:104D8800B2F06F0074FFB3F0B3AF44D0B681B26D28
:104D9800B31FD8B0B32B3ED04750D96EDA6A6F0034
:104DA80078FF08F06F0074FF09F0BBEC38F0600082
:104DB80020F0B2F0600024F0B3F006D04750D96E6E
:104DC800DA6ADE2A000EDD22D00E4A6EFF0E4B6E26
:104DD8004750D96EDA6A6F007BFFF6FF6F0077FFE6
:104DE800F7FFF86A0800F5504C6E4D6A4A504C2699
:104DF8004B504D224D5006E10A0E4C5CD8B002D003
:104E0800010E01D0000E0001736F746B73517411A1
:104E1800D8A4D4D74750D96EDA6A6F007BFFF6FF63
:104E28006F0077FFF7FFF86A0800F550640AD8B4F6
:104E38000FD04750D96EDA6A6F007BFFF6FF6F001C
:104E480077FFF7FFF86A0800F550690AD8A452D02E
:104E58004750D96EDA6ADE2A000EDD22600023F19F
:104E6800D9FF600027F1DAFF6F007CFF4AF0020EDD
:104E7800DE266F007CFF4BF0000EDD2260002BF178
:104E8800D9FF60002FF1DAFF6F0078FF60F06F0044
:104E980074FF61F0000E61BFFF0E626F636F646F95
:104EA800656F666F676F600014F11EF0600018F19F
:104EB8001FF0600080F120F0600084F121F06000B4
:104EC80088F122F060008CF123F0600090F124F06A
:104ED800600094F125F0600098F126F060009CF1E4
:104EE80027F0B5EC30F0600078F045F060007CF019
:104EF80046F012004750D96EDA6A6F007BFFF6FF62
:104F08006F0077FFF7FFF86A0800F550780AD8B401
:104F18000FD04750D96EDA6A6F007BFFF6FF6F003B
:104F280077FFF7FFF86A0800F550580AD8A466D04A
:104F38004750D96EDA6A6F007BFFF6FF6F0077FF84
:104F4800F7FFF86A08006F00D4FF70F04750D96E79
:104F5800DA6ADE2A000EDD22600023F1D9FF600044
:104F680027F1DAFF6F007CFF4AF0020EDE266F00A1
:104F78007CFF4BF0000EDD2260002BF1D9FF6000B2
:104F88002FF1DAFF6F0078FF4CF06F0074FF4DF0DF
:104F9800600030F168F0600034F169F06A6B6B6BA7
:104FA8006C6B6D6B6E6B6F6B600014F11EF06000C4
:104FB80018F11FF06000A0F120F06000A4F121F0CA
:104FC8006000A8F122F06000ACF123F06000B0F1BD
:104FD80024F06000B4F125F06000B8F126F060001C
:104FE800BCF127F06000C0F128F0E9EC35F0600072
:104FF80078F045F060007CF046F012004750D96E1A
:10500800DA6A6F007BFFF6FF6F0077FFF7FFF86A39
:105018000800F550250AD8A417D04750D96EDA6A87
:10502800DE2A000EDD22000E046E250E036E6000DF
:1050380014F105F0600018F106F029EC42F0000EBA
:10504800466E010E456E12004750D96EDA6ADE2AA6
:10505800000EDD22000E466E000E456E120047500F
:10506800D96EDA6A6F007BFFF6FF6F0077FFF7FFF4
:10507800F86A0800F550036E046A600014F105F040
:10508800600018F106F029EC42F04750D96EDA6A50
:10509800DE2A000EDD22D3D709D0060E05D0030E76
:1050A80003D0020E01D0000E6A6F16D0600010F90E
:1050B80060F1600014F961F101016151000AD8A49E
:1050C800F2D76051010AD8B4E8D7030AD8B4E7D7B1
:1050D800010AD8B4E6D7E7D76A5100019B6F9C6BE9
:1050E8009BBF9C070101E151AF5D00019D6F01016C
:1050F800E251B05900019E6FFCEC4EF09C359C319A
:105108000101606F00019B3101016B6F600080F548
:105118006CF10201D751D811D8A40ED06000ACF5BB
:105128009BF06000B0F59CF0000E00019E6F030E2E
:105138009D6FFCEC4EF015D060005CFB9BF06000AE
:1051480060FB9CF0000E00019E6F030E9D6FFCEC4F
:105158004EF001016B5100019B2701016C510001C8
:105168009C239C359C339B339C359C339B3360003C
:105178006CF2D7F2600070F2D8F20101D6AF04D019
:10518800000ED66F000ED56FD7EC48F0600090F295
:105198006BF1600094F26CF10101E0BF7BD0E0514B
:1051A80004E1950EDF5DD8A075D06CBF05D06B29E2
:1051B800070E6C59D8B06ED0AD51DF5D606FAE513F
:1051C800E059616F61356131626F6031686F60000D
:1051D80088F569F1060E606F6000ACF561F160005A
:1051E800B0F562F1636B62BF6369602904D0D8903F
:1051F800613762376337E82EFAD7600084F58BF0A1
:10520800600088F58CF060008CF58DF06000A0F5EA
:105218008EF06000A4F58FF00001906B4EEC46F024
:1052280060002CF268F1600030F269F10101DB5195
:10523800DC11D8A40ED06000A0F59BF06000A4F5A6
:105248009CF0000E00019E6F030E9D6FFCEC4EF06B
:1052580015D060006CF79BF0600070F79CF0000EB2
:1052680000019E6F030E9D6FFCEC4EF0010168512A
:1052780000019B270101695100019C23D8909C33B0
:105288009B33D8909C339B3360006CF2DBF1600059
:1052980070F2DCF101016A5100019B6F9C6B9BBFAE
:1052A8009C070101AB516B5D00019D6F0101AC5181
:1052B8006C5900019E6FFCEC4EF09C359C3101014D
:1052C800606F00019B3101016B6F600080F56CF12C
:1052D800D551D611D8A40ED06000ACF59BF0600073
:1052E800B0F59CF0000E00019E6F030E9D6FFCEC64
:1052F8004EF015D0600054F79BF0600058F79CF012
:10530800000E00019E6F030E9D6FFCEC4EF0010134
:105318006B5100019B2701016C5100019C239C35B6
:105328009C339B339C359C339B3360006CF2D5F1E6
:10533800600070F2D6F10101DF51AF5D6B6FE05193
:10534800B0596C6F6A5100018B6F000E8BBFFF0E56
:105358008C6F8D6F8E6F6000ACF58FF06000B0F5CC
:1053680090F0000E90BFFF0E916F926F1EEC48F008
:1053780060002CF264F1600030F265F1600034F2F4
:1053880066F1600038F267F1600090F58BF060001C
:1053980094F58CF0600098F58DF060009CF58EF027
:1053A800600034F78FF0600038F790F0916B926BE3
:1053B8001EEC48F00A0E05D0D8908E338D338C330E
:1053C8008B33E82EF9D760002CF26BF1600030F2D5
:1053D8006CF101016CBF0AD0E90E6B5D1C0E6C59B3
:1053E800D8A004D0000E6C6FC80E0BD06CBF06D0CE
:1053F8006C5108E14A0E6B5DD8B004D0000E6C6F9A
:10540800020E6B6F600054FB9BF0600058FB9CF031
:10541800000E00019E6F030E9D6FFCEC4EF0010123
:105428006B5100019B2701016C5100019C23D8900E
:105438009C339B33D8909C339B3360006CF2D5F23D
:10544800600070F2D6F2910E0101466FFC0E476FB4
:1054580060006CF748F1600070F749F160007CF774
:105468008BF0600080F78CF000018D6B8CBF8D078E
:10547800450E8E6F000E8F6F000E906F1FEC4BF075
:10548800600030F28BF0600034F28CF08D6B8CBFD2
:105498008D6960002CF24AF1600030F24BF1600037
:1054A80034F74CF1600038F74DF143EC50F012003E
:1054B8000101756F010E0101826F000E0001926FEC
:1054C800000EADEC4CF0700E00018F6FFD0E906F6A
:1054D800A8EC50F0100E01017B6F000E7A6F000EE1
:1054E8007F6F000E7E6FA00EBBEC50F00009D8A4B1
:1054F80030D0000E0101826F8D0E466FFF0E476F90
:1055080043EC50F0000E0001926F000EADEC4CF031
:105518000A0E00018F6FFF0E906FA8EC50F0010E7D
:105528009C6FF40E9B6FE4EC4DF013D0BA94BC86DC
:10553800000E816FFA0E0BD0BA84BC96010E816FF3
:10554800F40E05D0BA84BC86020E816F580E806FA7
:1055580012D001017551736F746B7451000AD8A48D
:105568000AD07351000AD8B4E1D7010AD8B4E4D7F5
:10557800030AD8B4E7D7D8908035786F8135796F2A
:10558800BA86000E00019C6FFA0E9B6FE4EC4DF09A
:105598002FEC52F0D5EC52F060004CF27CF1600038
:1055A80050F27DF129D0830E0101606F010E616F09
:1055B800010E5AEC33F0010183517E5D7F51800A60
:1055C800736F8451800A7359D8B006D060000CF606
:1055D8007EF1600010F67FF17A51835D8451800A74
:1055E800736F7B51800A7359D8B006D060000CF6EF
:1055F8007AF1600010F67BF17C0E0001936F010ECA
:10560800946F000E966FFA0E956FBEEC47F0000986
:10561800D8B4C9D7D7EC48F0D890A437A537D890D4
:10562800A437A537600090F234F2600094F235F2A6
:10563800000EBBEC50F00009D8A41CD0000E0101EC
:10564800826F8D0E466FFF0E476F43EC50F0000ED1
:105658000001926F000EADEC4CF00A0E00018F6F46
:10566800FF0E906FA8EC50F0010E9C6FF40E9B6F2C
:10567800E4EC4DF0BA94BC96BA96010EFAEC4AF0F6
:10568800600080F576F1600084F577F101017E51C4
:105698007625736F7F517721746F6000CCF58BF09E
:1056A8006000D0F58CF00001000E8CBFFF0E8D6FEE
:1056B8008E6F010E73EC39F060002CF299F06000E7
:1056C80030F29AF0600034F29BF0600038F29CF0FF
:1056D800330E9D6F330E9E6FF30E9F6F450EA06FB6
:1056E80036EC3FF0D8A016D0000E926F000EADEC4D
:1056F8004CF0FB0E00018F6FFD0E906FA8EC50F080
:10570800030E9C6FE80E9B6FE4EC4DF0000E010158
:10571800826F7CD0AB0E0101466F020E476F940E6C
:10572800486FFD0E496F6000D0F88BF06000D4F828
:105738008CF000018D6B8E6B3C0E8F6F000E906F9E
:10574800000E916F000E926F1EEC48F060002CF274
:1057580097F0600030F298F0600034F299F0600041
:1057680038F29AF0E80E9B6F030E9C6F000E9D6F47
:10577800000E9E6FC6EC43F060005CF24AF16000D8
:1057880060F24BF131EC49F0000E0001926F000E0F
:10579800ADEC4CF0AB0E00018F6F020E906FA8ECD1
:1057A80050F00F0E9C6FA00E9B6FE4EC4DF00101C2
:1057B80080510201345D0101815102013559D8B08F
:1057C8000ED0000E0001926F000EADEC4CF0EA0E08
:1057D80000018F6FFD0E906FA8EC50F091D73451F7
:1057E8000101785D0201355101017959D8B00ED017
:1057F800000E0001926F000EADEC4CF0FB0E0001A4
:105808008F6FFD0E906FA8EC50F07AD7825112007E
:105818009C51800BA56F9C519C25A76F9BBFA781AE
:10582800A751D8B40DD0A729D8A408D0000E996FD5
:10583800000E9A6F000E9B6F000E9C6F9B8F06D018
:10584800000E996F000E9A6F000E9B6F000E9C6FF2
:10585800A051800BA66FA551A619D8A4A58DA0515B
:10586800A025A66F9FBFA681A651D8B40DD0A629A2
:10587800D8A408D0000E9D6F000E9E6F000E9F6F7B
:10588800000EA06F9F8F06D0000E9D6F000E9E6FBA
:10589800000E9F6F000EA06FA751A65DD8B031D043
:1058A800A5AD02D0800EA51B60009CF2A8F0600098
:1058B80098F2A7F06000A0F2A6F0600064F2A8F0E9
:1058C800600074F299F06000A0F29DF0600068F248
:1058D800A8F0600078F29AF06000A0F29EF06000F4
:1058E8006CF2A8F060007CF29BF06000A0F29FF0E0
:1058F800600070F2A8F0600080F29CF06000A0F2F6
:10590800A0F0000EA86FA751600098F2A1F0A26B5A
:10591800A15F000EA25BA2BF2DD0A25104E11A0E16
:10592800A15DD8A027D099519A119B119C11D8B488
:1059380002D0010E01D0000EA86F000E996F000E64
:105948009A6F000E9B6F000E9C6F600098F2A7F094
:1059580015D0A8A105D0D890A8310109A86F02D008
:10596800D890A83399B1A88F9C359C339B339A3330
:105978009933A72BA651A75DD8A0EBD7A5BD28D0F2
:10598800A751D8A409D0000E996F000E9A6F000E87
:105998009B6F000E9C6F12009D5199279E519A2370
:1059A8009F519B23A0519C239CA171D0A8A105D0F5
:1059B800D890A8310109A86F02D0D890A83399B11E
:1059C800A88F9C359C339B339A339933A72B5FD090
:1059D8009D51995D9E519A599F519B599C51800A9E
:1059E800A16FA051800AA159D8B025D099519D5DC9
:1059F800A16F9A519E59A26F9B519F59A36F9C51B9
:105A0800A059A46FFF0EA125996FFF0EA2219A6FCE
:105A1800FF0EA3219B6FFF0EA4219C6F800EA51B78
:105A2800A86DA851D8A40FD0010E9927000E9A236B
:105A38009B239C2308D09D51995F9E519A5B9F514F
:105A48009B5BA0519C5B99519A119B119C11D8A406
:105A58001CD0A851D8A419D0000E996F000E9A6FC7
:105A6800000E9B6F000E9C6F1200D89099379A37E2
:105A78009B379C37A8BF9981A8A102D0D88001D0B4
:105A8800D890A837A751D8A4A7079BAFEED7000E88
:105A9800A66FA8AF0CD06000A0F2A1F07F0EA117EE
:105AA800D8B403D0010EA66F02D099B1FBD7A65186
:105AB800D8B428D0010E9927000E9A239B239C2343
:105AC8009CA120D0600064F2A1F0600068F2A2F00E
:105AD80060006CF2A3F0600070F2A4F0A435A43367
