:020000040000FA
:040000000DEF00F010
:04000800A2EF3FF034
:10001800FF00BCEF42F0010E0301AE6F83EC4BF022
:10002800390191959197380E00018B6FA30E8C6F53
:1000380080EC51F0D28EAEEC48F002EC52F0000E9B
:1000480000019C6F320E9B6F0AEC4CF0C9EC50F02B
:10005800D1EC46F0D6EC4FF07CEC52F0A7EC4EF029
:1000680002D0000EAE6F0301AE51E9EC1BF000099F
:10007800D8B4F7D7000EAE6F000E0001926F000ED5
:10008800D4EC4AF0680E00018F6FFD0E906FCDEC36
:100098004EF0010E926F000ED4EC4AF0F40E0001FF
:1000A8008F6FFE0E906FCDEC4EF06BEC49F00301B4
:1000B800B66F07D06BEC49F00301B66F000E7EEC0B
:1000C8004EF0050E0301B619D8B404D0030EB619C4
:1000D800D8A4F0D7050EB619D8A4C5D7010E0001CB
:1000E800926F000ED4EC4AF0E30E00018F6FFE0E03
:1000F800906FCDEC4EF0010E0001926F000ED4EC23
:100108004AF0E30E00018F6FFE0E906FCDEC4EF0BB
:10011800000E9C6F0A0E9B6F0AEC4CF0010E7BECF4
:1001280050F0000E00019C6F0A0E9B6F0AEC4CF019
:10013800010E0101CE6F010ECD6FBD8C47D06BEC67
:1001480018F0D8EC14F0030E0101C819D8A425D072
:10015800A8EC40F0010E0001926F000ED4EC4AF0BA
:10016800E30E00018F6FFE0E906FCDEC4EF0000E87
:100178009C6F0A0E9B6F0AEC4CF0010E7BEC50F062
:10018800000E00019C6F0A0E9B6F0AEC4CF0010EEA
:100198000101CE6F010ECD6FBD8C000E7EEC4EF0CE
:1001A80034EC42F09C0AD8A411D015EC46F0040AAD
:1001B800D8A40CD0BD9C020E0101C86F15EC46F006
:1001C800FF0AD8A4FBD7C9EC50F005D0020E0101F4
:1001D800C819D8A4B4D715EC51F00009D8A4FBD796
:1001E800000E01019E6F140E9D6F000E9C6F320E63
:1001F8009B6F000E9A6F280E996F000EC56F000E48
:10020800C36F000EC26F000EE26F0A0EE16F000EA0
:100218000001D16F320ED06F000E0101DE6F320E79
:10022800DD6F000EDC6F320EDB6F000EDA6F320E00
:10023800D96F000EA66F1E0EA56F000ED66F140E96
:10024800D56F000ED46F140ED36F000EE06F000E42
:10025800DF6F000E0201CE6F000ECD6F000E0101A0
:10026800C96F0201D25104E1330ED15DD8A016D076
:10027800000E00018B6F000E8C6F040E8D6F6000F6
:1002880044FB8EF0600048FB8FF0906B75EC44F0F7
:1002980060002CF2D1F1600030F2D2F1000E0101C1
:1002A800AA6F000EA96FEA0E00018C6F600E8B6FAB
:1002B8000101FC51030D6F00CCFF8DF06F00D0FFE2
:1002C8008EF085EC47F060002CF2ADF1600030F262
:1002D800AEF1EA0E8C6F600E8B6F6000F0F78DF058
:1002E8008E6B85EC47F00101AD5100018B5D020179
:1002F800466F0101AE5100018C590201476F000E93
:10030800456F000E446F19EC4FF00101F851D8A465
:1003180004D0100EE0EC4EF003D0140EE0EC4EF0DA
:10032800FAEC50F060004CF2CFF1600050F2D0F1DE
:10033800CEEF14F0F8C1CAF1FF51250D6F00CCFFC4
:10034800F3F16F00D0FFF4F1CD0E00019D6FCC0EDC
:100358009E6F6C0E9F6F410EA06F0101FA51250D23
:100368006F00CCFF9FF36F00D0FFA0F360007CFE0E
:100378008BF0600080FE8CF00001000E8CBFFF0E39
:100388008D6F8E6F010E9BEC37F060002CF299F0A8
:10039800600030F29AF0600034F29BF0600038F2AE
:1003A8009CF035EC2AF0600064F2A9F0600068F275
:1003B800AAF060006CF2ABF0600070F2ACF0C6EC32
:1003C8003DF06000A4F2B1F16000A8F2B2F10101C1
:1003D800F951250D6F00CCFF4AF26F00D0FF4BF2A8
:1003E800ADC1AFF1AEC1B0F1C951D8B408D0E80E73
:1003F80002014625486F030E4721496F04D046C2C3
:1004080048F247C249F20101CA51D8A45DD0FB5154
:10041800250D6F00CCFFB3F16F00D0FFB4F1070ECC
:1004280003019F6F6000CCF6A0F36000D0F6A1F343
:10043800A26BA1BFA2690101A9510301A05D00013E
:100448008B6F0101AA510301A15900018C6F000EA5
:100458000101AABFFF0E0301A25900018D6F6000C0
:100468007CF78EF0600080F78FF0906B46EC49F0D7
:1004780003019F29A36F05D00001D8908D338C33D9
:100488008B330301A32FF8D760002CF2F1F1600041
:1004980030F2F2F10101FD510A0DF151F35CF45013
:1004A800800A03019F6F0101F251800A03019F59DD
:1004B800D8B094D00101FD510A0D6F00CCFFF1F1C5
:1004C8006F00D0FFF2F18AD0250EB12503019F6F8E
:1004D800000E0101B2210301A06F0101A95103011E
:1004E8009F5DA051800AA16F0101AA51800A0301F2
:1004F800A159D8B032D00101B151A95D00019B6F5B
:100508000101B251AA5900019C6F60007CF79DF06F
:10051800600080F79EF021EC4DF0070E03019F6FFD
:100528000001D8909C339B3303019F2FF9D7010119
:10053800FE510A0D6F00CCFFA0F36F00D0FFA1F3AE
:1005480000019B510301A05D0101F16F00019C5165
:100558000301A1590101F26F09D00101FE510A0DF1
:100568006F00CCFFF1F16F00D0FFF2F1E05104E130
:10057800150EDF5DD8A02ED0070E03019F6F600017
:10058800C4F7A0F36000C8F7A1F3A26BA1BFA269EA
:100598009F2904D0D890A037A137A237E82EFAD7E0
:1005A800600080FE8BF0600084FE8CF0600088FEA6
:1005B8008DF060007CF78EF0600080F78FF000010E
:1005C800906B75EC44F060002CF2B3F1600030F2EF
:1005D800B4F104D0000EB46F000EB36FDF0E01014A
:1005E800466FFA0E476F6000C4F748F16000C8F71D
:1005F80049F14EEC4FF003019F6F9F5101014A6F83
:100608004B6B600074F64CF1600078F64DF16000B9
:100618006CF64EF1600070F64FF1600054F78BF005
:10062800600058F78CF000018D6B8CBF8D07450E6C
:100638008E6F000E8F6F000E906F46EC49F06000D1
:1006480030F28BF0600034F28CF08D6B8CBF8D69CA
:1006580060002CF250F1600030F251F1600094F625
:1006680052F1600098F653F168EC4EF06000C4F760
:100678008EF06000C8F78FF00001906B8FBF900775
:10068800600044F78BF0600048F78CF08D6B46EC07
:1006980049F060002CF2AFF3600030F2B0F3600074
:1006A80034F2B1F36000BCFE8BF06000C0FE8CF049
:1006B8006000C4FE8DF0030E8E6F000E8F6F000E6B
:1006C800906F46EC49F0600030F28BF0600034F235
:1006D8008CF08D6B60002CF2BBF3600030F2BCF341
:1006E8000301BCBF06D0F40EBB5D010EBC59D8B0E7
:1006F8001ED0BA84BC96FAEC50F060004CF2B8F008
:10070800600050F2B9F0CFC19FF1D0C1A0F1CFC1C4
:10071800BAF0D0C1BBF0000E0101D86F010ED76F3F
:10072800E70E466FFF0E476F68EC4EF036D0BC35CB
:10073800BC31A06FBB319F6FA0BF06D0F40E9F5D88
:10074800010EA059D8B01AD0BA94BC86FAEC50F071
:1007580060004CF29FF1600050F2A0F1CFC1BAF0F6
:10076800D0C1BBF0000E0101D86F020ED76FE00EAA
:10077800466FFF0E476F68EC4EF00FD0BA84BC8608
:10078800000E0101D86F030ED76FFAEC50F060002D
:100798004CF2BAF0600050F2BBF0BA86010E0101CB
:1007A800C66F010EC56F000EC36F000EC16F000E3D
:1007B800C26FFAEC50F060004CF297F1600050F212
:1007C80098F154EC50F00101CA51D8A404D0100E8D
:1007D8007EEC4EF003D0140E7EEC4EF0CF0E0001EE
:1007E800936F010E946F6000BCF695F06000C0F640
:1007F80096F0E5EC45F00009D8B43FD00101C651A8
:10080800D8B411D0200E03EC51F0EFC1E3F1F0C1E0
:10081800E4F1EFC1E5F1F0C1E6F1EFC1ABF1F0C1F0
:10082800ACF17DEC26F00101C351D8B421D0000E03
:10083800C36FEB0E606F010E616F040E83EC31F035
:10084800EBC1E3F1ECC1E4F10101EB51AB5DAC515B
:10085800800A03019F6F0101EC51800A03019F592F
:10086800D8B004D0EBC1ABF1ECC1ACF17DEC26F013
:10087800000E0101C66F23EF0FF060003CF793F004
:10088800600040F794F0010E966FF40E956F09EC36
:100898004DF00009D8A4BD9C0101C651D8B488EF19
:1008A8000BF0EF0E606F010E616F000E83EC31F0FC
:1008B8000101C551D8B449D0BF0E606F030E616FF6
:1008C800010E83EC31F00301C0BF3FD0C05104E1F9
:1008D800510EBF5DD8A039D0000E0101C56F600070
:1008E8005CF695F0600060F696F0FAEC50F0600067
:1008F8004CF297F0600050F298F08CEC4CF06000ED
:1009080054F295F1600058F296F1010196511AE1FE
:10091800640E955DD8B016D095519D2503019F6F43
:10092800010196519E210301A06FD890A031A16FBB
:100938009F3101019D6F600084FE9EF1080E0CEC52
:1009480051F003D0080E03EC51F0ED0E0101606F79
:10095800010E616F040E83EC31F0EDC1E7F1EEC1D9
:10096800E8F1FEEC46F0600090F2A7F1600094F226
:10097800A8F160003CF795F0600040F796F0FAECBB
:1009880050F060004CF297F0600050F298F08CEC58
:100998004CF09551F4080301BF6F00019651D8A09F
:1009A800E82A01080301C06F0101A751F15D0301A5
:1009B8009F6F0101A851F2590301A06F60007CFEEE
:1009C8008EF0600080FE8FF00001906B8FBF900763
:1009D800600044F78BF0600048F78CF08D6B46ECB4
:1009E80049F060002CF2AFF3600030F2B0F3600021
:1009F80034F2B1F36000BCFE8BF06000C0FE8CF0F6
:100A08006000C4FE8DF0030E8E6F000E8F6F000E17
:100A1800906F46EC49F0600030F28BF0600034F2E1
:100A28008CF08D6B60002CF2BBF3600030F2BCF3ED
:100A3800030E0101D719D811D8A4EAD0DD51E72552
:100A480003019F6F0101DE51E8210301A06F01013D
:100A5800DB5103019F270101DC510301A023600042
:100A6800CCF79BF06000D0F79CF0000E00019E6F61
:100A7800070E9D6F21EC4DF09C359C339B339C35C4
:100A88009C339B339C359C339B3303019F5100015E
:100A98009B5D9C51800A0301A16FA051800AA15956
:100AA800D8A00FD0BC35BC31A06FBB319F6FBF51F0
:100AB8009F5DA051800AA16FC051800AA159D8B08A
:100AC800A7D0BA94BC86000E0101D86F020ED76F6A
:100AD800010EC16FE7C1ABF1E8C1ACF1FAEC50F01F
:100AE80060004CF29FF1600050F2A0F19FC1A1F1AB
:100AF800A0C1A2F1E7C1E5F1E8C1E6F1470E0101A5
:100B0800466FFB0E476F60003CF795F0600040F7BA
:100B180096F0FAEC50F060004CF297F0600050F25A
:100B280098F08CEC4CF0600054F248F1600058F2F8
:100B380049F16000BCF78BF06000C0F78CF08D6B5A
:100B48008CBF8D07450E8E6F000E8F6F000E906F55
:100B580046EC49F0600030F28BF0600034F28CF023
:100B68008D6B8CBF8D6960002CF24AF1600030F209
:100B78004BF160009CF78BF06000A0F78CF08D6B58
:100B88008CBF8D07450E8E6F000E8F6F000E906F15
:100B980046EC49F0600030F28BF0600034F28CF0E3
:100BA8008D6B8CBF8D6960002CF24CF1600030F2C7
:100BB8004DF160009CF64EF16000A0F64FF1600028
:100BC80074F78BF0600078F78CF08D6B8CBF8D0715
:100BD800450E8E6F000E8F6F000E906F46EC49F039
:100BE800600030F28BF0600034F28CF08D6B8CBFBB
:100BF8008D6960002CF250F1600030F251F1600014
:100C080044F752F1600048F753F168EC4EF003D115
:100C1800020E0101D719D811D8A4FDD0DB51E72560
:100C280003019F6F0101DC51E8210301A06F6000FF
:100C3800CCF79BF06000D0F79CF0000E00019E6F8F
:100C4800070E9D6F21EC4DF09C359C339B339C35F2
:100C58009C339B339C359C339B3303019F5100018C
:100C68009B5D9C51800A0301A16FA051800AA15984
:100C7800D8A00AD0BF51BB5DBC51800A9F6FC0513C
:100C8800800A9F59D8B0C7D001019B519D5D9C51E6
:100C98009E59D8B009D0BA94BC969D519B5D040F5B
:100CA8009F6E64EC52F002D0BA84BC96C151D8B49D
:100CB80014D0F351DD5DDE51800A03019F6F0101FD
:100CC800F451800A03019F59D8B007D0250E0101BD
:100CD800DD25DD6F000EDE21DE6F000E0101D86F0D
:100CE800010ED76F010EC16FE7C1ABF1E8C1ACF1DE
:100CF800FAEC50F060004CF2B8F0600050F2B9F035
:100D0800B8C0A1F1B9C0A2F1E7C1E5F1E8C1E6F1C7
:100D1800760E0101466FFB0E476F60003CF795F0B9
:100D2800600040F796F0FAEC50F060004CF297F053
:100D3800600050F298F08CEC4CF0600054F248F1EE
:100D4800600058F249F16000BCF78BF06000C0F712
:100D58008CF08D6B8CBF8D07450E8E6F000E8F6FDC
:100D6800000E906F46EC49F0600030F28BF06000A6
:100D780034F28CF08D6B8CBF8D6960002CF24AF1D7
:100D8800600030F24BF160009CF78BF06000A0F738
:100D98008CF08D6B8CBF8D07450E8E6F000E8F6F9C
:100DA800000E906F46EC49F0600030F28BF0600066
:100DB80034F28CF08D6B8CBF8D6960002CF24CF195
:100DC800600030F24DF160009CF64EF16000A0F634
:100DD8004FF160006CF78BF0600070F78CF08D6B52
:100DE8008CBF8D07450E8E6F000E8F6F000E906FB3
:100DF80046EC49F0600030F28BF0600034F28CF081
:100E08008D6B8CBF8D6960002CF250F1600030F260
:100E180051F168EC4EF00101E751AB5DAC51800A2D
:100E280003019F6F0101E851800A03019F59D8B05F
:100E380004D0E7C1ABF1E8C1ACF10101C151D8B4AC
:100E4800A7D0600084F693F0600088F694F00F0E47
:100E58009B250001956F000E01019C210001966FF2
:100E680009EC4DF00009D8B45FD0000E0101C16F44
:100E7800020ED719D811D8A42AD0600074F79BF0B5
:100E8800600078F79CF0000E00019E6F030E9D6FC6
:100E980021EC4DF00101E55100019B5F0101E65194
:100EA80000019C5B0101AB5100019B270101AC5182
:100EB80000019C239C359C339B339C359C339B338E
:100EC80060006CF2DDF1600070F2DEF12DD0D70524
:100ED800D811D8A429D060006CF79BF0600070F797
:100EE8009CF0000E00019E6F030E9D6F21EC4DF0EB
:100EF8000101E55100019B5F0101E65100019C5B86
:100F08000101AB5100019B270101AC5100019C2359
:100F18009C359C339B339C359C339B3360006CF22F
:100F2800DBF1600070F2DCF1000E0301BE6F000E11
:100F3800BD6F010E0101D72500019B6F000E010155
:100F4800D82100019C6F600064F79DF0600068F78D
:100F58009EF021EC4DF060006CF2B9F3600070F285
:100F6800BAF36000E4FE9BF06000E8FE9CF0000E1F
:100F78009E6F050E9D6F21EC4DF0040E03019F6FCF
:100F880000019C359C339B3303019F2FF9D772D006
:100F9800030ED719D811D8A407D0600074F7BDF391
:100FA800600078F7BEF33CD0020ED719D811D8A448
:100FB80007D060006CF7BDF3600070F7BEF330D067
:100FC80060005CF79BF0600060F79CF0600040F305
:100FD8009DF0600044F39EF021EC4DF060006CF24F
:100FE800B9F3600070F2BAF36000E4FE9BF06000B1
:100FF800E8FE9CF0000E9E6F050E9D6F21EC4DF0F3
:10100800040E03019F6F00019C359C339B33030141
:101018009F2FF9D760006CF2BDF3600070F2BEF349
:1010280060005CF79BF0600060F79CF0600064F77C
:101038009DF0600068F79EF021EC4DF060006CF2C6
:10104800B9F3600070F2BAF36000E4FE9BF0600050
:10105800E8FE9CF0000E9E6F050E9D6F21EC4DF092
:10106800040E03019F6F00019C359C339B330301E1
:101078009F2FF9D760006CF2B2F3600070F2B3F3FF
:1010880060003CF793F0600040F794F001019B5139
:10109800AF5D03019F6F01019C51B0590301A06F1F
:1010A800EC0E9F250001956FFF0E0301A0210001A2
:1010B800966F09EC4DF00009D8A48ED04A0E0101B4
:1010C800F32503019F6F000E0101F4210301A06FB6
:1010D8000101EF5103019F5DA051800AA16F010139
:1010E800F051800A0301A159D8A076D00101E75137
:1010F800F35DF451800A03019F6F0101E851800AF2
:1011080003019F59D8A068D0BD510101E72503010B
:101118009F6FBE510101E8210301A06F9F5101019A
:10112800F35DF451800A0301A16FA051800AA1590F
:10113800D8A052D00101CA51D8A42FD00301BD5163
:101148000101E72503019F6FBE510101E821030159
:10115800A06F9F510101B35DB451800A0301A16FD3
:10116800A051800AA159D8B018D0B2510101A725C1
:1011780003019F6FB3510101A8210301A06F010171
:10118800F15103019F5DA051800AA16F0101F25145
:10119800800A0301A159D8B01FD00101CA05D8A4FB
:1011A80059EF0EF00301B2510101A72503019F6F0A
:1011B800B3510101A8210301A06F0101F1510301FD
:1011C8009F5DA051800AA16F0101F251800A0301BD
:1011D800A159D8A059EF0EF0BA94BC96010E01019E
:1011E800C56FE7C1E5F1E8C1E6F1000EC66FFAEC9C
:1011F80050F060004CF2A1F1600050F2A2F1A1C1E0
:1012080097F1A2C198F160003CF795F0600040F7B3
:1012180096F0600084F697F0600088F698F08CEC01
:101228004CF0600054F23CF2600058F23DF2010EBE
:101238000101C36FEFC1ABF1F0C1ACF1D705D81113
:10124800D8A403D0C151D8B454D0EF51F35DF451B0
:10125800800A03019F6F0101F051800A03019F5921
:10126800D8A016D0BD510101E72503019F6FBE51DB
:101278000101E8210301A06F9F510101F35DF451C1
:10128800800A0301A16FA051800AA159D8B031D0BA
:101298000101F351DD5DDE51800A03019F6F0101F9
:1012A800F451800A03019F59D8B010D0020E0101F1
:1012B800D719D811D8B405D0030ED719D811D8A486
:1012C80005D0B90EDD27000EDE2313D00101F3513E
:1012D800DB5DDC51800A03019F6F0101F451800A34
:1012E80003019F59D8B005D0B90E0101DB27000EC4
:1012F800DC230101C151D8B40AD0010ED72502015F
:10130800406F000E0101D8210201416F04D0D7C1FE
:1013180040F2D8C141F2030E0101D719D811D8A45F
:1013280017D06000E8F295F06000ECF296F0FAEC65
:1013380050F060004CF297F0600050F298F08CEC9E
:101348004CF0600054F2B7F3600058F2B8F3A4D040
:10135800020ED719D811D8A43BD06000E8F295F056
:101368006000ECF296F060007CF697F0600080F682
:1013780098F08CEC4CF0600054F29FF3600058F247
:10138800A0F3FAEC50F060004CF297F0600050F2D5
:1013980098F060007CF695F0600080F696F08CEC92
:1013A8004CF0600054F29BF0600058F29CF0000E84
:1013B8009E6F0A0E9D6F21EC4DF0040E0301A16F84
:1013C8000001D8909C339B330301A12FF9D75AD041
:1013D800D705D811D8A460D06000E8F295F0600075
:1013E800ECF296F060007CF697F0600080F698F0DA
:1013F8008CEC4CF0600054F29FF3600058F2A0F3BC
:101408006000E0F297F06000E4F298F060007CF68B
:1014180095F0600080F696F08CEC4CF0600054F289
:10142800A1F3600058F2A2F3D8900301A137A237C4
:10143800FAEC50F060004CF297F0600050F298F02F
:101448006000E0F295F06000E4F296F08CEC4CF06D
:1014580095510301A12500019B6F96510301A2211B
:1014680000019C6F000E9E6F050E9D6F21EC4DF0E4
:10147800040E0301A36F0001D8909C339B33030132
:10148800A32FF9D700019B5103019F25B76F0001D6
:101498009C510301A021B86F0301B85104E1330E38
:1014A800B75DD8A061D00101A8BF5ED0A85104E102
:1014B800330EA75DD8A058D0020E03019F6F6000BD
:1014C80044F79BF0600048F79CF0000E00019E6F07
:1014D800030E9D6F21EC4DF060006CF2A0F36000EC
:1014E80070F2A1F30301A26B6000DCFEA3F36000BD
:1014F800E0FEA4F3A56B600090FEA5F360008CFEEF
:10150800A4F3A36B60008CFE8BF0600090FE8CF05F
:10151800600094FE8DF060009CF68EF06000A0F6EE
:101528008FF00001906B8FBF900775EC44F08B51E2
:101538000301A025A66F00018C510301A121A76F0B
:1015480000018D510301A221A86F9F29A96F04D022
:10155800D890A833A733A633A92FFAD7600098FEEE
:10156800D1F160009CFED2F13E0E0101D15D0A0E60
:10157800D259D8A004D00A0ED26F3D0E09D0D2514C
:1015880008E1830ED15DD8B004D0000ED26F830E6F
:10159800D16F950E466FFA0E476F60003CF795F0D5
:1015A800600040F796F0FAEC50F060004CF297F0CB
:1015B800600050F298F08CEC4CF0600054F248F166
:1015C800600058F249F16000BCF78BF06000C0F78A
:1015D8008CF08D6B8CBF8D07450E8E6F000E8F6F54
:1015E800000E906F46EC49F0600030F28BF060001E
:1015F80034F28CF08D6B8CBF8D6960002CF24AF14F
:10160800600030F24BF1600094F78BF0600098F7BF
:101618008CF08D6B8CBF8D07450E8E6F000E8F6F13
:10162800000E906F46EC49F0600030F28BF06000DD
:1016380034F28CF08D6B8CBF8D6960002CF24CF10C
:10164800600030F24DF160009CF64EF16000A0F6AB
:101658004FF16000CCF78BF06000D0F78CF08D6B09
:101668008CBF8D07450E8E6F000E8F6F000E906F2A
:1016780046EC49F0600030F28BF0600034F28CF0F8
:101688008D6B8CBF8D6960002CF250F1600030F2D8
:1016980051F16000C4F752F16000C8F753F16000DF
:1016A80064F754F1600068F755F16000F4FE8BF0C0
:1016B8006000F8FE8CF08D6B8CBF8D07450E8E6F29
:1016C800000E8F6F000E906F46EC49F0600030F20C
:1016D8008BF0600034F28CF08D6B8CBF8D696000EC
:1016E8002CF256F1600030F257F1600044F758F1DF
:1016F800600048F759F16000DCFE5AF16000E0FE36
:101708005BF168EC4EF0D1D2C551D8B449D0BF0EC8
:10171800606F030E616F010E83EC31F00301C0BFEF
:1017280006D0C0513DE1280EBF5DD8B039D0000EBB
:101738000101C56F60005CF695F0600060F696F0F8
:10174800FAEC50F060004CF297F0600050F298F01C
:101758008CEC4CF0600054F295F1600058F296F170
:10176800010196511AE1960E955DD8B016D09551A3
:101778009B2503019F6F010196519C210301A06FD6
:10178800D890A031A16F9F3101019B6F600084FE4A
:101798009CF1080E0CEC51F003D0080E03EC51F04C
:1017A800EF0E0101606F010E616F000E83EC31F0E6
:1017B800200E0CEC51F0000EBAB4010EBCB6010EAE
:1017C800E8A004D003019F6B9F2B02D003019F6BFD
:1017D8009F51D8B46CD0600084F693F0600088F60E
:1017E80094F0000E0001966F0F0E956F09EC4DF006
:1017F8000009D8A40ED00101EF51F35DF451800A1D
:1018080003019F6F0101F051800A03019F59D8B06D
:101818004ED0BA94BC96FAEC50F060004CF2A1F1AC
:10182800600050F2A2F1EF0E0101606F010E616FCE
:10183800000E83EC31F0E00E0101466FFC0E476F9D
:1018480060003CF795F0600040F796F0600084F681
:1018580097F0600088F698F08CEC4CF0600054F239
:1018680048F1600058F249F16000BCF78BF0600065
:10187800C0F78CF08D6B8CBF8D07450E8E6F000EF8
:101888008F6F000E906F46EC49F0600030F28BF0DD
:10189800600034F28CF08D6B8CBF8D6960002CF287
:1018A8004AF1600030F24BF168EC4EF0FED10101D4
:1018B800C351D8B438D0EB0E606F010E616F040EBF
:1018C80083EC31F0EBC1E3F1ECC1E4F10101EB5140
:1018D800AB5DAC51800A03019F6F0101EC51800A96
:1018E80003019F59D8B004D0EBC1ABF1ECC1ACF106
:1018F800600084F693F0600088F694F0960E01017B
:101908009B250001956F000E01019C210001966F37
:1019180009EC4DF00009D8B4C8D1000E0101C36F1D
:101928007DEC26F0C2D1C251D8B419D0EB0E606F4D
:10193800010E616F040E83EC31F00101EB51AB5DD8
:10194800AC51800A03019F6F0101EC51800A030129
:101958009F59D8B004D0EBC1ABF1ECC1ACF1600039
:1019680084F693F0600088F694F060006CF69FF3BC
:10197800600070F6A0F30301D8909F37A037D89085
:101988009F37A03760007CFE95F0600080FE96F0DF
:1019980009EC4DF00009D8B488D10101C251D8B47E
:1019A80085D0000EC26FFEEC46F00101A751000180
:1019B800A45D0301BF6F0101A8510001A5590301EE
:1019C800C06FC0BF0AD0C05104E15B0EBF5DD8A094
:1019D80004D0000EC06F5A0EBF6F6000FCFE9BF073
:1019E800600000FF9CF0000E00019E6F030E9D6FCB
:1019F80021EC4DF00101A55100019B25A16F0101CA
:101A0800A65100019C21A26F000EA46F040EA36FC3
:101A180078EC42F0600084F2A5F1600088F2A6F14B
:101A28000101E551AB5D0301BF6F0101E651AC59FE
:101A38000301C06FC0BF0AD0290EBF5D010EC05997
:101A4800D8A004D0010EC06F280EBF6F6000FCFE46
:101A58009BF0600000FF9CF0000E00019E6F030EDB
:101A68009D6F21EC4DF00101D55100019B25A16F1F
:101A78000101D65100019C21A26F000EA46F040E33
:101A8800A36F78EC42F0600084F2D5F1600088F230
:101A9800D6F10101A6AF04D0000EA66F000EA56F07
:101AA800D6AF04D0000ED66F000ED56FEFC1A3F1EC
:101AB800F0C1A4F1FEEC46F0600090F23EF2600046
:101AC80094F23FF23EC2A7F13FC2A8F1A3C1E5F1EB
:101AD800A4C1E6F10101D635D6310301A06F010199
:101AE800D53103019F6F0101A35103019F25010116
:101AF800A36FA4510301A0210101A46FA635A6314B
:101B08000301A06F0101A53103019F6F02013E513E
:101B180003019F2502013E6F3F510301A0210201ED
:101B28003F6F0101D551EF2503019F6F0101D65188
:101B3800F0210301A06F0101F35103019F5DA05142
:101B4800800AA16F0101F451800A0301A159D8B09C
:101B5800ACD0B60E9F6FFF0EA06F60008CF7A1F39C
:101B6800600090F7A2F39F51A127A051A223A15191
:101B78000101A35DA451800A0301A36FA251800A49
:101B8800A359D8B092D00101CA05D8B41BD0B60E5B
:101B980003019F6FFF0EA06F6000CCF6A1F36000F9
:101BA800D0F6A2F39F51A127A051A223A151010170
:101BB800A35DA451800A0301A36FA251800AA3590F
:101BC800D8B073D0BA84BC96FAEC50F060004CF2EE
:101BD800A1F1600050F2A2F1010E0101C26FEBC148
:101BE800ABF1ECC1ACF10D0E466FFC0E476F600017
:101BF8003CF795F0600040F796F0600084F697F0A7
:101C0800600088F698F08CEC4CF0600054F248F1D3
:101C1800600058F249F16000BCF78BF06000C0F733
:101C28008CF08D6B8CBF8D07450E8E6F000E8F6FFD
:101C3800000E906F46EC49F0600030F28BF06000C7
:101C480034F28CF08D6B8CBF8D6960002CF24AF1F8
:101C5800600030F24BF1600054F78BF0600058F7E9
:101C68008CF08D6B8CBF8D07450E8E6F000E8F6FBD
:101C7800000E906F46EC49F0600030F28BF0600087
:101C880034F28CF08D6B8CBF8D6960002CF24CF1B6
:101C9800600030F24DF1FEEC46F0600090F24EF13B
:101CA800600094F24FF168EC4EF0D8EC14F06BEC55
:101CB80018F0BAA663D001019A5104E1330E995D78
:101CC800D8A05CD0CE0E03019F6FFF0EA06F6000FE
:101CD80064F6A1F3600068F6A2F39F51A127A05112
:101CE800A223A1510101AF5D0301A2510101B05925
:101CF800D8A01DD060003CF793F0600040F794F046
:101D08009951AF5D03019F6F01019A51B0590301C9
:101D1800A06F320E9F250001956F000E0301A021D0
:101D28000001966F09EC4DF00009D8B427D0010ED8
:101D38000101C46FFAEC50F060004CF297F16000BA
:101D480050F298F1BA96230E0101466FFF0E476FC5
:101D580060003CF795F0600040F796F060005CF694
:101D680097F0600060F698F08CEC4CF0600054F24C
:101D780048F1600058F249F168EC4EF0B40E0001E9
:101D8800936F030E946F000E966F140E956FE5EC2B
:101D980045F00009D8B4E7EF03F0BAB605D0000E55
:101DA8000301AB6F000E04D0000E0301AB6F040EED
:101DB800AA6FBAB404D0000EAD6F000E03D0000EA7
:101DC800AD6F020EAC6F050E0101466FFF0E476F37
:101DD800FAEC50F060004CF248F1600050F249F122
:101DE800BCA604D003019F6B9F2B02D003019F6BFD
:101DF8009F51AC25A06F000EAD21A16FAA51A0255F
:101E080001014A6F0301AB51A12101014B6F600031
:101E1800BCF74CF16000C0F74DF16000B4F74EF12B
:101E28006000B8F74FF1FEEC46F0600090F250F118
:101E3800600094F251F168EC4EF0E7EF03F0FEEC2D
:101E480046F0600090F244F2600094F245F2C10E50
:101E58000101466F020E476FF40E486FFF0E496F7F
:101E6800600010F94AF1600014F94BF158EC47F0A2
:101E7800010ECC6FFA0E466FFF0E476F68EC4EF0FE
:101E8800030E6CEC3BF0040E6CEC3BF0BA94BC9681
:101E9800BAA60CD0BA96010E0101C46FFAEC50F044
:101EA80060004CF297F1600050F298F1010E0101C8
:101EB800C76F000EC36F000EC26F0101CA51D8A4CC
:101EC80004D0100E7EEC4EF003D0140E7EEC4EF0D3
:101ED800CF0E0001936F010E946F600020F995F00A
:101EE800600024F996F0E5EC45F00009D8B42CD050
:101EF800000E0101C96F000E2DEC3EF00101C75123
:101F0800D8B403D0100E03EC51F0C351D8B4CEEFBF
:101F180014F0600084F79BF0600088F79CF0000ED6
:101F280000019E6F030E9D6F21EC4DF09C359C3394
:101F38009B339C359C339B3360006CF2E1F160006D
:101F480070F2E2F1CEEF14F0EF0E0101606F010EB6
:101F5800616F000E83EC31F0EFC1A9F1F0C1AAF175
:101F68000101C751D8B40AD1ED0E606F010E616F3F
:101F7800040E83EC31F00101E151B15D0301BF6F43
:101F88000101E251B2590301C06FC0BF06D0C05170
:101F980008E1260EBF5DD8B004D0000EC06F250E34
:101FA800BF6FBF510101ED5DEE51800A03019F6FC4
:101FB800C051800A9F59D8B06DD0BA86000E010171
:101FC800C76FFAEC50F060004CF2A1F1600050F2DB
:101FD800A2F1EFC1E5F1F0C1E6F1010E0101C36F15
:101FE8004A0E466FFC0E476F60003CF795F06000A4
:101FF80040F796F0600084F697F0600088F698F055
:102008008CEC4CF0600054F248F1600058F249F151
:102018006000BCF78BF06000C0F78CF08D6B8CBF54
:102028008D07450E8E6F000E8F6F000E906F46EC79
:1020380049F0600030F28BF0600034F28CF08D6B68
:102048008CBF8D6960002CF24AF1600030F24BF1D0
:10205800600084F78BF0600088F78CF08D6B8CBF84
:102068008D07450E8E6F000E8F6F000E906F46EC39
:1020780049F0600030F28BF0600034F28CF08D6B28
:102088008CBF8D6960002CF24CF1600030F24DF18C
:1020980068EC4EF00101C451D8B483D3E351B125A3
:1020A80003019F6F0101E451B2210301A06FA03524
:1020B800A031A26F9F31A16F0101EF510301A15D12
:1020C800A251800AA36F0101F051800A0301A359AC
:1020D800D8B01AD0910E9F6FFF0EA06F6000B4F7B2
:1020E800A1F36000B8F7A2F39F51A127A051A22342
:1020F800A1510101EF5DF051800A0301A36FA251C4
:10210800800AA359D8B04DD3000E0101C46F6000F6
:102118005CF695F0600060F696F0FAEC50F060001E
:102128004CF297F0600050F298F08CEC4CF06000A4
:1021380054F295F1600058F296F1580E0101955D40
:10214800020E9659D8B016D09551992503019F6F64
:10215800010196519A210301A06FD890A031A16F77
:102168009F310101996F600084FE9AF1400E0CECDA
:1021780051F017D3400E03EC51F013D3100E0CECB2
:1021880051F0000EBAB4010EBCB6010EE8A004D09E
:1021980003019F6B9F2B02D003019F6B9F51D8B403
:1021A8006ED0600084F693F0600088F694F0000E1C
:1021B8000001966F0F0E956F09EC4DF00009D8A439
:1021C8000ED00101EF51F35DF451800A03019F6FB6
:1021D8000101F051800A03019F59D8B050D0BA9438
:1021E800BC96FAEC50F060004CF2A1F1600050F29D
:1021F800A2F1EF0E0101606F010E616F000E83EC1A
:1022080031F0CC0E0101466FFC0E476F60003CF7C1
:1022180095F0600040F796F0FAEC50F060004CF250
:1022280097F0600050F298F08CEC4CF0600054F29B
:1022380048F1600058F249F16000BCF78BF060008B
:10224800C0F78CF08D6B8CBF8D07450E8E6F000E1E
:102258008F6F000E906F46EC49F0600030F28BF003
:10226800600034F28CF08D6B8CBF8D6960002CF2AD
:102278004AF1600030F24BF168EC4EF08ED2010169
:10228800C351D8B4BFD0600084F693F0600088F6DC
:1022980094F060006CF69FF3600070F6A0F3D8909D
:1022A80003019F37A0375E0E9F250001956F010E31
:1022B8000301A0210001966F09EC4DF00009D8B484
:1022C8006CD2EB0E0101606F010E616F030E83EC9F
:1022D80031F0EBC1CFF2ECC1D0F20101E5510201BE
:1022E800CF5D0301BF6F0101E6510201D05903011F
:1022F800C06F600084F79BF0600088F79CF0000EC8
:1023080000019E6F030E9D6F21EC4DF00301BF513C
:1023180000019B25A16F0301C05100019C21A26F00
:10232800000EA46F040EA36F78EC42F0600084F2F4
:10233800E1F1600088F2E2F1050E6CEC3BF0060E6C
:102348006CEC3BF0000E0101C36F810E466FFC0E72
:10235800476F60003CF795F0600040F796F0FAECA4
:1023680050F060004CF297F0600050F298F08CEC5E
:102378004CF0600054F248F1600058F249F16000F6
:10238800BCF78BF06000C0F78CF08D6B8CBF8D07AD
:10239800450E8E6F000E8F6F000E906F46EC49F061
:1023A800600030F28BF0600034F28CF08D6B8CBFE3
:1023B8008D6960002CF24AF1600030F24BF1600048
:1023C800ACF78BF06000B0F78CF08D6B8CBF8D078D
:1023D800450E8E6F000E8F6F000E906F46EC49F021
:1023E800600030F28BF0600034F28CF08D6B8CBFA3
:1023F8008D6960002CF24CF1600030F24DF168EC10
:102408004EF0CBD1E90E606F010E616F050E83ECC3
:1024180031F0D20E0101606F616B060E83EC31F072
:1024280002014A510101E92503019F6F02014B5145
:102438000101EA210301A06F0001D25103019F5D50
:10244800A051800AA16F0001D351800A0301A1594C
:10245800D8A005D015EC46F0040AD8A4A6D0E90EF9
:102468000101466FFB0E476F60003CF795F0600076
:1024780040F796F0FAEC50F060004CF297F06000EC
:1024880050F298F08CEC4CF0600054F248F1600087
:1024980058F249F16000BCF78BF06000C0F78CF08F
:1024A8008D6B8CBF8D07450E8E6F000E8F6F000EE3
:1024B800906F46EC49F0600030F28BF0600034F227
:1024C8008CF08D6B8CBF8D6960002CF24AF1600036
:1024D80030F24BF16000A4F78BF06000A8F78CF0A5
:1024E8008D6B8CBF8D07450E8E6F000E8F6F000EA3
:1024F800906F46EC49F0600030F28BF0600034F2E7
:102508008CF08D6B8CBF8D6960002CF24CF16000F3
:1025180030F24DF16000A4F78BF06000A8F78CF062
:102528008D6B8CBF8D07450E8E6F000E8F6F000E62
:10253800906F46EC49F0600030F28BF0600034F2A6
:102548008CF08D6B8CBF8D6960002CF24EF16000B1
:1025580030F24FF168EC4EF0BD8C4A510101E9258B
:1025680003019F6F02014B510101EA210301A06F92
:102578000001D25103019F5DA051800AA16F0001A3
:10258800D351800A0301A159D8B004D2010E010128
:10259800C96FFAEC50F060004CF2CFF1600050F2D5
:1025A800D0F1010E2DEC3EF0F5D1600084F693F0E9
:1025B800600088F694F060006CF69FF3600070F697
:1025C800A0F30301D8909F37A037D8909F37A03742
:1025D80060007CFE95F0600080FE96F009EC4DF0FE
:1025E8000009D8B4DAD00101C251D8B441D0000EE4
:1025F800C26FE551E95D0301BF6F0101E651EA5978
:102608000301C06FC0BF0AD0290EBF5D010EC059BB
:10261800D8A004D0010EC06F280EBF6F6000FCFE6A
:102628009BF0600000FF9CF0000E00019E6F030EFF
:102638009D6F21EC4DF00101D35100019B25A16F45
:102648000101D45100019C21A26F000EA46F040E59
:10265800A36F78EC42F0600084F2D3F1600088F256
:10266800D4F10101D4AF04D0000ED46F000ED36FA3
:10267800DB0E03019F6FFF0EA06F6000C4F6A1F38D
:102688006000C8F6A2F39F51A127A051A22301011F
:10269800D435D4310301A46F0101D3310301A36FF1
:1026A8000101E9510301A3270101EA510301A42310
:1026B800A151A35DA451800AA56FA251800AA55912
:1026C800D8B06BD0BA84BC96FAEC50F060004CF2EB
:1026D800A1F1600050F2A2F1010E0101C26FEFC139
:1026E800E5F1F0C1E6F1F40E466FFC0E476F6000AD
:1026F8003CF795F0600040F796F0600084F697F09C
:10270800600088F698F08CEC4CF0600054F248F1C8
:10271800600058F249F16000BCF78BF06000C0F728
:102728008CF08D6B8CBF8D07450E8E6F000E8F6FF2
:10273800000E906F46EC49F0600030F28BF06000BC
:1027480034F28CF08D6B8CBF8D6960002CF24AF1ED
:10275800600030F24BF16000A4F78BF06000A8F73E
:102768008CF08D6B8CBF8D07450E8E6F000E8F6FB2
:10277800000E906F46EC49F0600030F28BF060007C
:1027880034F28CF08D6B8CBF8D6960002CF24CF1AB
:10279800600030F24DF168EC4EF0D8EC14F06BECC0
:1027A80018F0B40E0001936F030E946F000E966F2D
:1027B800140E956FE5EC45F00009D8B461EF0FF001
:1027C800EF0E0101606F010E616F000E83EC31F0B6
:1027D800ED0E0101606F010E616F040E83EC31F0A4
:1027E800160E0101466FFB0E476F60003CF795F02F
:1027F800600040F796F0FAEC50F060004CF297F069
:10280800600050F298F08CEC4CF0600054F248F103
:10281800600058F249F16000BCF78BF06000C0F727
:102828008CF08D6B8CBF8D07450E8E6F000E8F6FF1
:10283800000E906F46EC49F0600030F28BF06000BB
:1028480034F28CF08D6B8CBF8D6960002CF24AF1EC
:10285800600030F24BF16000BCF79FF36000C0F7F6
:10286800A0F30301A16BA0BFA1690101ED51030110
:102878009F5D00018B6F0101EE510301A05900011A
:102888008C6F000E0101EEBFFF0E0301A15900017C
:102898008D6F450E8E6F000E8F6F000E906F46EC99
:1028A80049F0600030F28BF0600034F28CF08D6BF0
:1028B8008CBF8D6960002CF24CF1600030F24DF154
:1028C800600064F64EF1600068F64FF160003CFB72
:1028D8008BF0600040FB8CF08D6B8CBF8D07450E34
:1028E8008E6F000E8F6F000E906F46EC49F06000FF
:1028F80030F28BF0600034F28CF08D6B8CBF8D69F8
:1029080060002CF250F1600030F251F1600084F761
:102918008BF0600088F78CF08D6B8CBF8D07450EAF
:102928008E6F000E8F6F000E906F46EC49F06000BE
:1029380030F28BF0600034F28CF08D6B8CBF8D69B7
:1029480060002CF252F1600030F253F160004CF755
:102958008BF0600050F78CF08D6B8CBF8D07450EA7
:102968008E6F000E8F6F000E906F46EC49F060007E
:1029780030F28BF0600034F28CF08D6B8CBF8D6977
:1029880060002CF254F1600030F255F168EC4EF022
:1029980061EF0FF0030E0101C819D8A49EEF01F0F2
:1029A800A8EC40F07FEF00F00101CE51D8B422D25C
:1029B8003DEC52F00009D8A41DD2000E0101CE6FE3
:1029C800B751D8B408D0060EB719D8B404D0070E3A
:1029D800B719D8A44CD0030EC819D8B43DD0F851B3
:1029E800D8A41BD0A30E466F020E476FB70E486FD0
:1029F800FC0E496F6000F0F74AF14B6B6000E8F796
:102A08004CF14D6B6000ECF74EF14F6B6000FCF73A
:102A180050F1516B58EC47F0D8D1A30E466F020E17
:102A2800476F550E486FFD0E496F6000F0F74AF189
:102A38004B6B6000E8F74CF14D6B6000FCF74EF112
:102A48004F6BFE510A0D6F00CCFF50F16F00D0FFA5
:102A580051F158EC47F0B9D1A30E466F020E476FFB
:102A6800C10E486FFE0E496F58EC47F0AED1020E0A
:102A7800B719D8A441D0F851D8A41DD0A30E466FD9
:102A8800020E476FB70E486FFC0E496F60004CF698
:102A98004AF1600050F64BF16000E8F74CF14D6BDD
:102AA8006000ECF74EF14F6B6000FCF750F1516B92
:102AB80058EC47F08AD1A30E466F020E476F550EA9
:102AC800486FFD0E496F60004CF64AF1600050F601
:102AD8004BF16000E8F74CF14D6B6000FCF74EF1EC
:102AE8004F6BFE510A0D6F00CCFF50F16F00D0FF05
:102AF80051F158EC47F069D1030EB719D8A441D069
:102B0800F851D8A41DD0A30E466F020E476FB70E1A
:102B1800486FFC0E496F6000F0F74AF14B6B60009C
:102B28004CF64CF1600050F64DF16000ECF74EF1B8
:102B38004F6B6000FCF750F1516B58EC47F045D1F2
:102B4800A30E466F020E476F550E486FFD0E496F74
:102B58006000F0F74AF14B6B60004CF64CF16000F6
:102B680050F64DF16000FCF74EF14F6BFE510A0D27
:102B78006F00CCFF50F16F00D0FF51F158EC47F0D7
:102B880024D1B705D8A41DD0A30E466F020E476FF7
:102B9800B70E486FFC0E496F6000F0F74AF14B6BB7
:102BA8006000E8F74CF14D6B60004CF64EF16000A8
:102BB80050F64FF16000FCF750F1516B58EC47F0BC
:102BC80004D1040EB719D8A441D0F851D8A41DD007
:102BD800A30E466F020E476FB70E486FFC0E496F83
:102BE8006000F0F74AF14B6B6000E8F74CF14D6B71
:102BF8006000ECF74EF14F6B60004CF650F160004E
:102C080050F651F158EC47F0E0D0A30E466F020E93
:102C1800476F550E486FFD0E496F6000F0F74AF197
:102C28004B6B6000E8F74CF14D6B60004CF64EF1D1
:102C3800600050F64FF1FE510A0D6F00CCFF50F1C5
:102C48006F00D0FF51F158EC47F0BFD0050EB7190F
:102C5800D8A431D060004CF69BF0600050F69CF090
:102C6800000E00019E6F0A0E9D6F21EC4DF0600072
:102C78006CF25EF1600070F25FF1A30E0101466F25
:102C8800020E476F550E486FFD0E496F6000F0F752
:102C98004AF14B6B6000E8F74CF14D6B6000FCF7B4
:102CA8004EF14F6B600078F550F160007CF551F102
:102CB80058EC47F08AD00C0EB719D8A40BD0A30E45
:102CC800466F020E476F9F0E486FFE0E496F58EC15
:102CD80047F07BD0090EB719D8A41DD0A30E466FB4
:102CE800020E476F8E0E486FFE0E496F600074F635
:102CF8004AF1600078F64BF160006CF64CF1600028
:102D080070F64DF1600064F64EF1600068F64FF120
:102D180058EC47F05AD00A0EB719D8A442D0A30EDF
:102D2800466F020E476F3D0E486FFF0E496F070E44
:102D38005C6F60007CF78BF0600080F78CF000011E
:102D48008D6B250E8E6F000E8F6F000E906F46EC08
:102D580049F001015C295D6F05D00001D8908D33E1
:102D68008C338B3301015D2FF8D760002CF24AF1C8
:102D7800600030F24BF1600034FB8BF0600038FBF0
:102D88008CF0000E00018E6F250E8D6F85EC47F0DC
:102D980060002CF24CF1600030F24DF158EC47F035
:102DA80014D00B0EB719D8A410D0A30E466F020E7C
:102DB800476F420E486FFD0E496F60004CF64AF1AE
:102DC800600050F64BF158EC47F0000E0001926F8E
:102DD800000ED4EC4AF0A30E00018B6F020E8C6F2C
:102DE800FEEC3BF00101B751D8B41200010E01010D
:102DF800B86F12000101CC51D8B416D03DEC52F096
:102E08000009D8A411D0000E0101CC6F010E0001F9
:102E1800926F0B0ED4EC4AF0C10E00018B6F020EBC
:102E28008C6FFEEC3BF0DED70101CD51D8B4ECD06D
:102E38003DEC52F00009D8A4E7D0000E0101CD6F97
:102E4800060EB719D8A42DD060004CF69BF0600090
:102E580050F69CF0000E00019E6F0A0E9D6F21EC4B
:102E68004DF060006CF25EF1600070F25FF18F0E61
:102E78000101466F020E476F8A0E486FFF0E496FB9
:102E8800600078F54AF160007CF54BF1FD510A0DC0
:102E98006F00CCFF4CF16F00D0FF4DF158EC47F0BC
:102EA800A5D0070EB719D8A42DD060004CF69BF01A
:102EB800600050F69CF0000E00019E6F0A0E9D6F98
:102EC80021EC4DF060006CF25EF1600070F25FF191
:102ED8008F0E0101466F020E476F8A0E486FFF0E74
:102EE800496FF7510A0D6F00CCFF4AF16F00D0FF10
:102EF8004BF1600078F54CF160007CF54DF158EC31
:102F080047F074D00C0EB719D8A40BD08F0E466FAB
:102F1800020E476F550E486FFF0E496F58EC47F089
:102F280065D0080EB719D8A40BD08F0E466F020EC5
:102F3800476F9E0E486FFF0E496F58EC47F056D00A
:102F48000B0EB719D8A40BD08F0E466F020E476F21
:102F5800940E486FFF0E496F58EC47F047D0090EA2
:102F6800B719D8A40BD08F0E466F020E476F490EC3
:102F7800486FFF0E496F58EC47F038D00A0EB71962
:102F8800D8A40BD08F0E466F020E476F310E486FD4
:102F9800FF0E496F58EC47F029D0030EC819D8B472
:102FA8001BD08F0E466F020E476F8A0E486FFF0EBA
:102FB800496FF7510A0D6F00CCFF4AF16F00D0FF3F
:102FC8004BF1FD510A0D6F00CCFF4CF16F00D0FFA3
:102FD8004DF158EC47F00AD08F0E466F020E476F3E
:102FE800600E486FFF0E496F58EC47F0010E000164
:102FF800926F000ED4EC4AF08F0E00018B6F020E18
:103008008C6FFEEC3BF0F2D60101B851D8B4120037
:103018003DEC52F00009D8A41200000E0101B86F6F
:1030280038D0000E0001926F010ED4EC4AF0120065
:10303800000E0001926F040ED4EC4AF01200000E4C
:103048000001926F070ED4EC4AF01200000E000146
:10305800926F0A0ED4EC4AF01200000E0001926F33
:103068000F0ED4EC4AF01200010E0001926F030E0D
:10307800D4EC4AF01200010E0001926F080ED4EC55
:103088004AF01200000E0001926F150ED4EC4AF0BF
:103098001200B7515C6F5D6B5D51000AD8A4F2D77E
:1030A8005C51010AD8B4CBD7030AD8B4BAD7010AFD
:1030B800D8B4BED7070AD8B4C9D7010AD8B4CDD76F
:1030C800030AD8B4D1D7010AD8B4D5D7DBD76BEC6B
:1030D80049F001016C6FB751D8A412D0030E6C19D6
:1030E800D8A40ED0080EB76FFAEC50F060004CF27E
:1030F80038F2600050F239F2010E0101CD6F120072
:103108006CBF48D3040E6C19D8B444D3010ECE6FEB
:10311800010ECD6FA80E466FFF0E476F6C51486FBA
:10312800496B48BF490768EC4EF00C0E0101B7190E
:10313800D8A401D3000EB76F020E6C19D8A424D3FB
:10314800030EC86F21D3B751D8A424D0010EB76F8E
:10315800F851D8A403D0FBC193F110D16000CCF68C
:10316800A1F06000D0F6A2F0000E0001A46F250EB9
:10317800A36F78EC42F0600084F293F1600088F26B
:1031880094F1FAEC50F060004CF238F2600050F222
:1031980039F2FAD2B705D8A413D093C1FBF1010EC6
:1031A800BE6FF805D8A405D0000EF86F010E020115
:1031B8004F6F01019351020FFF6F010EBD6F12D0C7
:1031C800080EB719D8A405D00B0EB76FF9C193F143
:1031D800D5D00B0EB719D8A405D093C1F9F1010EBB
:1031E8000201506F000E010154D0B751D8A405D088
:1031F800020EB76FFCC193F1C1D0020EB719D8A463
:1032080031D093C1FCF1010EBF6FEA0E00018C6F43
:10321800600E8B6F0101FC51030D6F00CCFF8DF028
:103228006F00D0FF8EF085EC47F060002CF2ADF116
:10323800600030F2AEF1EA0E8C6F600E8B6F6000AA
:10324800F0F78DF08E6B85EC47F00101AD51000170
:103258008B5D0201466F0101AE5100018C590201DC
:10326800476FC0D7080EB719D8A4BCD7090E18D015
:10327800B751D8A405D0030EB76FFAC193F17ED029
:10328800030EB719D8A407D093C1FAF1010EBC6F89
:103298007FD0B76F79D2080EB719D8A4A3D70A0E72
:1032A800B76F6FD7B751D8A405D0040EB76FFFC159
:1032B80093F164D0040EB719D8A494D793C1FFF141
:1032C800010EBD6F65D0B751D8A420D0050EB76FD9
:1032D800F851D8A418D00A0EF1250001A16F000EEC
:1032E8000101F2210001A26F000EA46F140EA36F5A
:1032F80078EC42F0D890A1350101936F0001A23516
:103308000101946F3ED7FEC193F138D0050EB7196D
:10331800D8A468D7FE51935DFD27FE51935DF7272A
:1033280093C1FEF1010EBA6F010EBB6F010EB96FAA
:10333800F851D8A457D7010EF86F010E02014F6F4C
:10334800230E0101FF6F010EBD6F4CD7B751D8A4F2
:1033580005D0070EB76FFDC193F110D0070EB7194E
:10336800D8A440D793C1FDF1010EBA6F11D0B7515F
:10337800D8A406D0060EB76FF7C193F1946B01D7A6
:10338800060EB719D8A42ED793C1F7F1010EBB6F5B
:10339800000E7FD7B751D8B4F7D1FAEC50F06000DF
:1033A8004CF238F2600050F239F2A5D0010E9325A4
:1033B800936F000E9421946F945104E13D0E935D38
:1033C800D8A0E2D1000E946F3C0E0ED1010E9325C9
:1033D800936F000E9421946F9451F4E13D0E935D28
:1033E800D8B0F0D7D1D1010E9325936F000E942158
:1033F800946F945104E11A0E935DD8A0C5D1000EC4
:10340800946F190EF1D0010E9325936F000E94213D
:10341800946F945104E11F0E935DD8A0B5D1000EAE
:10342800946F1E0EE1D0010E9325936F000E942128
:10343800946F945104E1090E935DD8A0A5D1000EB4
:10344800946F080ED1D0020E9325606F000E942160
:10345800616F615122E1970E605DD8B01ED0020EF7
:103468009325606F000E9421616F615104E10A0E8B
:10347800605DD8A007D0020E9325646F000E9421DA
:10348800656F04D0000E656F0A0E646F600090F5DA
:1034980093F1600094F594F177D1000E946F960E35
:1034A800A3D0020E9325606F000E9421616F6151C5
:1034B800F4E1970E605DD8B0F0D7020E9325606FE7
:1034C800000E9421616F615104E1050E605DD8A082
:1034D80007D0020E9325666F000E9421676F04D003
:1034E800000E676F050E666F600098F593F1600037
:1034F8009CF594F149D10101B751606F616B61513D
:10350800000AD8A441D16051010AD8B44FD7030AA0
:10351800D8B479D7010AD8B466D7070AD8B456D729
:10352800010AD8B490D7030AD8B4BBD7010AD8B4D3
:10353800B8D70C0AD8B477D727D1B751D8B424D183
:10354800FAEC50F060004CF238F2600050F239F2B8
:10355800C1D0FF0E9325936FFF0E9421946F945161
:1035680008E1040E935DD8B004D0000E946F040EE9
:103578003BD0040EB719D8A407D1F851D8A404D168
:10358800FB51935D000E9459D8B0FED0FBC193F166
:10359800946BFAD0FF0E9325936FFF0E9421946FCE
:1035A800945104E1040E935DD8A0DFD7EDD0FF0E4F
:1035B8009325936FFF0E9421946F945103E10A0EA3
:1035C800935DD8B0E1D0000E946F0A0E0DD0FF0EB7
:1035D8009325936FFF0E9421946F93519411D8A45F
:1035E800D3D0000E946F010E936FCED0FE0E606F95
:1035F800FF0E616F60004CF662F1600050F663F1F7
:103608006051622761516323635103E1970E625D44
:10361800D8B043D7FE0E606FFF0E616F60004CF6A6
:1036280062F1600050F663F16051622761516323D3
:10363800635104E10A0E625DD8A007D0FE0E9325FF
:10364800686FFF0E9421696F04D0000E696F0A0E2F
:10365800686F6000A0F593F16000A4F594F194D030
:10366800FE0E606FFF0E616F60004CF662F1600045
:1036780050F663F16051622761516323635103E19E
:10368800970E625DD8B009D7FE0E606FFF0E616FAE
:1036980060004CF662F1600050F663F160516227F9
:1036A80061516323635104E1050E625DD8A007D020
:1036B800FE0E93256A6FFF0E94216B6F04D0000EE7
:1036C8006B6F050E6A6F6000A8F593F16000ACF5AA
:1036D80094F15AD00101B751606F616B6151000AD2
:1036E800D8A452D06051010AD8B433D7030AD8B449
:1036F8005ED7010AD8B44ED7070AD8B42AD7010A28
:10370800D8B474D7030AD8B4ABD7010AD8B4A8D7A9
:103718000C0AD8B45CD738D0B751D8A435D00C0E21
:10372800B76FFAEC50F060004CF238F2600050F2DB
:1037380039F2BD8029D06000B0F560F1616B60BFDF
:1037480061076151000AD8A41FD06051000AD8B49B
:10375800FAD4010AD8B48CD5030AD8B446D5010ADC
:10376800D8B418D6060AD8B4E8D6030AD8B4ABD564
:10377800010AD8B497D50F0AD8B4E8D5010AD8B445
:10378800F6D5030AD8B4C8D7010E0101CD6F010ED2
:10379800CE6F1200B751D8B412006000E0F893F071
:1037A8006000E4F894F0130E0001966F880E956F90
:1037B80009EC4DF00009D8B41200010E0101CE6FDA
:1037C800010ECD6F000EB76F1200906F000E010151
:1037D800C86FBA94BC96BA9603019051D8B465D014
:1037E800010E0001926F000ED4EC4AF0B10E0001F8
:1037F8008F6FFD0E906FCDEC4EF0000E926F000EA5
:10380800D4EC4AF0E40E00018F6FFD0E906FCDEC02
:103818004EF0000E0301936F000E926F000E000130
:10382800926F000ED4EC4AF003019251300F02015E
:10383800A36F000E0301956F010E946FA30E9425DC
:10384800D96E020E9521DA6E60008FFADFFF944B75
:10385800952B95BFF3D7955104E1100E945DD8A030
:10386800EDD7A30E00018F6F020E906FCDEC4EF0D6
:10387800010E926F000ED4EC4AF0A30E00018F6F78
:10388800020E906FCDEC4EF0010E9C6F5E0E9B6F9A
:103898000AEC4CF00301924B932B93BFBFD7935183
:1038A80004E10A0E925DD8A0B9D7000E0001926F0C
:1038B800000ED4EC4AF05B0E00018F6FFE0E906F85
:1038C800CDEC4EF0010E926F000ED4EC4AF0D30E00
:1038D80000018F6FFD0E906FCDEC4EF0030E9C6FC4
:1038E800E80E9B6F0AEC4CF01F0E03019B6F400E15
:1038F8009A6F000E996F000E986F010E9E6F200E42
:10390800E0EC4EF00009D8A41DD0000E03019E6F14
:10391800800E0101466FFF0E476F68EC4EF0000EF7
:103928000001926F000ED4EC4AF0150E00018F6F63
:10393800FF0E906FCDEC4EF0010E9C6FF40E9B6F56
:103948000AEC4CF0000E0101616F000E606F000E72
:10395800FCEC48F0000E0101616F000E606F010E73
:10396800FCEC48F0FAEC50F060004CF296F3600082
:1039780050F297F345D09C0E0101606F030E616F02
:10398800020E83EC31F00009D8B429D003019C5110
:10399800985D9951800A0201FA6F03019D51800ACE
:1039A8000201FA59D8B006D0600070FE98F36000A2
:1039B80074FE99F303019A519C5D9D51800A02019E
:1039C800FA6F03019B51800A0201FA59D8B018D046
:1039D800600070FE9AF3600074FE9BF311D0BA94F5
:1039E800BC96BA96B10E0101466FFF0E476F000EE6
:1039F800496F160E486F68EC4EF0000E03019E6F7B
:103A0800960E0001936F030E946F010E966FF40EDD
:103A1800956FE5EC45F00009D8B4ADD703019E5188
:103A2800D8A403D003019E5112009A51982502018F
:103A3800FA6F03019B5199210201FB6FFB35FB31A2
:103A4800FC6FFA310101916F6000F0FB92F1660E94
:103A5800466FFC0E476F600068FE48F160006CFE20
:103A680049F1600060FE4AF1600064FE4BF16000BD
:103A780044F64CF1600048F64DF168EC4EF0010157
:103A880092BF06D0830E915D140E9259D8B008D01B
:103A980092BF06D08E0E915D120E9259D8B02ED0DC
:103AA800000E0001926F000ED4EC4AF0280E0001BF
:103AB8008F6FFE0E906FCDEC4EF0010E926F000EE0
:103AC800D4EC4AF0A30E0101466F020E476F7D0E3B
:103AD800486FFE0E496F600044F64AF1600048F6F0
:103AE8004BF158EC47F0A30E00018F6F020E906F58
:103AF800CDEC4EF0000E03019E6F2CD003019A51BD
:103B0800985D0201FA6F03019B5199590201FB6FFD
:103B1800FBBF20D0FB5104E1650EFA5DD8A01AD096
:103B2800000E0001926F000ED4EC4AF0280E00013E
:103B38008F6FFE0E906FCDEC4EF0010E926F000E5F
:103B4800D4EC4AF0C20E00018F6FFD0E906FCDECE1
:103B58004EF0D0D703019E51D8B464D7A9D0BD9CEC
:103B68000ED0D90E0101466FFF0E476F15EC46F0D7
:103B78000101486F496B48BF490768EC4EF015ECE6
:103B880046F0FF0AD8A4EDD7C9EC50F0BD8C000E62
:103B9800926F000ED4EC4AF06C0E00018F6FFE0E8F
:103BA800906FCDEC4EF0FAEC50F060004CF296F3CA
:103BB800600050F297F3010E0301916FFAEC50F098
:103BC80060004CF296F3600050F297F3960E936FF4
:103BD800030E946F010E966FF40E956FE5EC45F0A9
:103BE8000009D8B40CD0030191517BEC50F00301CB
:103BF8009151D8A402D0010E01D0000E916F34EC7F
:103C080042F09C0AD8A4E2D715EC46F0040AD8A4DE
:103C1800DDD7010E7BEC50F0BD9CEE0E0101466F26
:103C2800FF0E476F68EC4EF0400EE0EC4EF00009D6
:103C3800D8A41DD0000E03019E6F800E0101466FAF
:103C4800FF0E476F68EC4EF0000E0001926F000EF9
:103C5800D4EC4AF0170E00018F6FFE0E906FCDEC7A
:103C68004EF0010E9C6FF40E9B6F0AEC4CF0010EA7
:103C780001016D6FF40E6C6F010E46EC1FF0000928
:103C8800D8B403D0010EC86F13D0000E0001926F94
:103C9800000ED4EC4AF08D0E00018F6FFD0E906F70
:103CA800CDEC4EF0010E9C6FF40E9B6F0AEC4CF0BD
:103CB8000101C851D8B453D703019E51D8B4B2D624
:103CC800C20E0101466FFF0E476F68EC4EF0600EA2
:103CD800E0EC4EF00009D8A41DD0000E03019E6F41
:103CE800800E0101466FFF0E476F68EC4EF0000E24
:103CF8000001926F000ED4EC4AF0170E00018F6F8E
:103D0800FE0E906FCDEC4EF0010E9C6FF40E9B6F83
:103D18000AEC4CF0BD80BA94BC96000E00019C6F72
:103D2800C80E9B6F0AEC4CF0000E01016D6F640E1B
:103D38006C6F000E46EC1FF00009D8A416D0000ED8
:103D480003019E6F000E0001926F000ED4EC4AF042
:103D58004A0E00018F6FFE0E906FCDEC4EF0010EF3
:103D68009C6FF40E9B6F0AEC4CF0BD90BA0E0101EB
:103D7800466FFF0E476F68EC4EF0800EE0EC4EF099
:103D88000009D8A41DD0000E03019E6F800E01010A
:103D9800466FFF0E476F68EC4EF0000E0001926F01
:103DA800000ED4EC4AF0170E00018F6FFE0E906FD4
:103DB800CDEC4EF0010E9C6FF40E9B6F0AEC4CF0AC
:103DC800000E00019C6F640E9B6F0AEC4CF0BA84E5
:103DD800BC86010E9C6F2C0E9B6F0AEC4CF0000EFB
:103DE80001016D6F640E6C6F000E46EC1FF0000948
:103DF800D8A416D0000E03019E6F000E0001926F2A
:103E0800000ED4EC4AF0390E00018F6FFE0E906F51
:103E1800CDEC4EF0010E9C6FF40E9B6F0AEC4CF04B
:103E2800760E0101466FFF0E476F68EC4EF0FAEC14
:103E380050F060004CF296F3600050F297F3000ED9
:103E480087EC28F00201FA6FFB6BFA5103019E1709
:103E5800010E87EC28F00201FA6FFB6BFA5103019F
:103E68009E17020E87EC28F00201FA6FFB6BFA51DD
:103E780003019E1715EC46F0FF0AD8A4FBD7C9EC3E
:103E880050F0D0D5796F010E01017C6F100E806F54
:103E9800000E7F6F100E846F000E836F000E7E6F12
:103EA800000E7D6F000E826F000E816FFAEC50F0ED
:103EB80060004CF27AF1600050F27BF131D18D0E46
:103EC8000101606F010E616F000E83EC31F0000993
:103ED800D8B47DD001018D517D5D7E51800A6E6F11
:103EE8008E51800A6E59D8B006D0600034F67DF144
:103EF800600038F67EF17F518D5D8E51800A6E6FBD
:103F08008051800A6E59D8B006D0600034F67FF12F
:103F1800600038F680F1050E6E6F600034F66FF1C0
:103F2800600038F670F1050ED8906F377037E82EBC
:103F3800FBD76000BCF571F16000C0F572F1000EAE
:103F480072BFFF0E736F746F600014F68BF0600021
:103F580018F68CF060001CF68DF0600020F68EF0EC
:103F68001F0E00018F6F000E906F000E916F000EF4
:103F7800926F45EC46F00101715100018B2501015A
:103F8800756F725100018C210101766F7351000128
:103F98008D210101776F745100018E210101786F25
:103FA8006E6701D007D07835783377337633753339
:103FB8006E2FF6D76000D4F585F16000D8F586F14C
:103FC8006000DCF587F16000E0F588F111D0BA9463
:103FD800BC96BA96B10E0101466FFF0E476F000EF0
:103FE800496F140E486F68EC4EF0000E01017C6FAB
:103FF8008F0E0101606F010E616F010E83EC31F0CD
:104008000009D8B47DD001018F51815D8251800AA9
:104018006E6F9051800A6E59D8B006D060003CF699
:1040280081F1600040F682F183518F5D9051800AE2
:104038006E6F8451800A6E59D8B006D060003CF685
:1040480083F1600040F684F1050E6E6F60003CF667
:104058006FF1600040F670F1050ED8906F37703739
:10406800E82EFBD76000BCF571F16000C0F572F175
:10407800000E72BFFF0E736F746F600024F68BF032
:10408800600028F68CF060002CF68DF0600030F6A9
:104098008EF01F0E00018F6F000E906F000E916F53
:1040A800000E926F45EC46F00101715100018B251D
:1040B8000101756F725100018C210101766F7351F6
:1040C80000018D210101776F745100018E210101DA
:1040D800786F6E6701D007D07835783377337633C9
:1040E80075336E2FF6D76000D4F589F16000D8F5E6
:1040F8008AF16000DCF58BF16000E0F58CF110D0FE
:10410800000E01017C6FBA94BC96BA96B10E466F48
:10411800FF0E476F000E496F150E486F68EC4EF0A2
:104128007A0E0001936F010E946F6000B0F595F060
:104138006000B4F596F0E5EC45F00009D8B4BFD6B8
:10414800050E01016E6F600014F66FF1600018F63D
:1041580070F160001CF671F1600020F672F16E6774
:1041680001D007D072357233713370336F336E2FCD
:10417800F6D76000BCF585F16000C0F586F16000F7
:10418800C4F587F16000C8F588F1050E01016E6F6E
:10419800600024F66FF1600028F670F160002CF6DC
:1041A80071F1600030F672F16E6701D007D0723598
:1041B8007233713370336F336E2FF6D76000BCF5EE
:1041C80089F16000C0F58AF16000C4F58BF16000E8
:1041D800C8F58CF1A30E0101466F020E476F2F0E32
:1041E800486FFD0E496F600014F64AF1600018F63A
:1041F8004BF160001CF64CF1600020F64DF16000B8
:1042080024F64EF1600028F64FF160002CF650F1CC
:10421800600030F651F158EC47F09E0E466FFB0EE9
:10422800476F6000FCF548F1600000F649F1600056
:10423800F4F54AF16000F8F54BF1600014F64CF122
:10424800600018F64DF160001CF64EF1600020F693
:104258004FF168EC4EF0C40E0101466FFB0E476F3C
:1042680060000CF648F1600010F649F1600004F6B1
:104278004AF1600008F64BF1600024F64CF160004A
:1042880028F64DF160002CF64EF1600030F64FF143
:1042980068EC4EF0000E0001926F000ED4EC4AF06C
:1042A800A30E00018F6F020E906FCDEC4EF0030E3F
:1042B8009C6FE80E9B6F0AEC4CF001017951D8B461
:1042C8007DD08351815D6E6F845182596F6F6FBF4E
:1042D80006D06F513DE1110E6E5DD8B039D07F51D7
:1042E8007D5D6E6F80517E596F6F6FBF06D06F51C5
:1042F8002FE1110E6E5DD8B02BD088BF09D0885140
:10430800871126E15F0E855D010E8659D8B020D051
:1043180088BF1ED088518711861104E1280E855D5B
:10432800D8A016D08CBF14D08C518B1106E1580E32
:10433800895D020E8A59D8A00BD08CBF19D08C5138
:104348008B1106E1070E895D040E8A59D8A010D09A
:10435800000E0001926F000ED4EC4AF0000E01012D
:104368007C6F2E0E466FFC0E476F68EC4EF077D0D0
:10437800600014F660F1600018F661F1000EFCECC4
:1043880048F0600024F660F1600028F661F1010E43
:10439800FCEC48F0030E6CEC3BF0040E6CEC3BF0CC
:1043A800050E6CEC3BF0060E6CEC3BF0000E0001C9
:1043B8009C6F320E9B6F0AEC4CF051D08351815D9B
:1043C8006E6F845182596F6F6FBF06D06F513EE197
:1043D800110E6E5DD8B03AD07F517D5D6E6F805101
:1043E8007E596F6F6FBF06D06F5130E1110E6E5D51
:1043F800D8B02CD088BF08D088518711861126E103
:104408000B0E855DD8B022D088AF0AD0F60E855D38
:10441800FF0E8659FF0E8759FF0E8859D8A016D06F
:104428008CAF0AD0F60E895DFF0E8A59FF0E8B59A4
:10443800FF0E8C59D8A00AD08CBF11D08C518B118B
:104448008A1104E10B0E895DD8A009D01C0E466FB5
:10445800FD0E476F68EC4EF0000E01017C6F010104
:104468007C511200AA51D96EDA6A6F007BFFF6FF01
:104478006F0077FFF7FFF86A0800F550250AD8A4FF
:10448800FFD1AA51D96EDA6ADE2A000EDD22000EAB
:10449800B36F000EB26FB2C0B6F0B3C0B7F0B46974
:1044A800B569000E01013D6F000E18D00001B681FC
:1044B800AA51D96EDA6ADE2A000EDD2236D0000152
:1044C800B683F6D70001B685F3D70001B687F0D7D3
:1044D8000001B689EDD7000E3D6F010E3C6F25D067
:1044E8000001AA51D96EDA6A6F007BFFF6FF6F00F0
:1044F80077FFF7FFF86A0800F5500101276F286B6E
:104508002851000AD8A4E7D72751200AD8B4DDD704
:10451800030AD8B4DDD7080AD8B4D4D7060AD8B461
:10452800C5D71D0AD8B4CBD7D6D701013C513D1108
:10453800D8B4D6D70001B6B1B693AA51D96EDA6A03
:104548006F007BFFF6FF6F0077FFF7FFF86A080040
:10455800F5502A0AD8A42AD0AA51D96EDA6ADE2AD6
:10456800000EDD226000AFF2D9FF6000B3F2DAFF7F
:104578006F007CFF27F1020EDE266F007CFF28F11A
:10458800000EDD2260009FF4D9FF6000A3F4DAFF7B
:104598006F0078FFB2F06F0074FFB3F0B3AF47D08D
:1045A800B681B26DB31FD8B0B32B41D0AA51D96E22
:1045B800DA6A6F0078FFA1F06F0074FFA2F01CECBC
:1045C80036F0600084F2B2F0600088F2B3F007D0F1
:1045D8000001AA51D96EDA6ADE2A000EDD22D00E59
:1045E8000101276FFF0E286F0001AA51D96EDA6A00
:1045F8006F007BFFF6FF6F0077FFF7FFF86A080090
:10460800F5500101296F2A6B2751292728512A23A0
:104618002A5106E10A0E295DD8B002D0010E01D058
:10462800000E3E6F3F6B3E513F11D8A4D1D7000119
:10463800AA51D96EDA6A6F007BFFF6FF6F0077FF29
:10464800F7FFF86A0800F550640AD8B40FD0AA51E9
:10465800D96EDA6A6F007BFFF6FF6F0077FFF7FF0E
:10466800F86A0800F550690AD8A453D0AA51D96E3F
:10467800DA6ADE2A000EDD226000AFF2D9FF6000A0
:10468800B3F2DAFF6F007CFF27F1020EDE266F001F
:104698007CFF28F1000EDD2260009FF4D9FF600046
:1046A800A3F4DAFF6F0078FF2BF16F0074FF2CF191
:1046B8000101000E2CBFFF0E2D6F2E6F2F6F306F74
:1046C800316F326F6000A0F200F16000A4F201F1D6
:1046D8006000ACF402F16000B0F403F16000B4F4DF
:1046E80004F16000B8F405F16000BCF406F1600064
:1046F800C0F407F16000C4F408F16000C8F409F1DF
:1047080075EC2DF0600000F4A8F0600004F4A9F046
:104718001200AA51D96EDA6A6F007BFFF6FF6F00AC
:1047280077FFF7FFF86A0800F550780AD8B40FD079
:10473800AA51D96EDA6A6F007BFFF6FF6F0077FF28
:10474800F7FFF86A0800F550580AD8A467D0AA51AC
:10475800D96EDA6A6F007BFFF6FF6F0077FFF7FF0D
:10476800F86A08006F00D4FF3BF1AA51D96EDA6AE3
:10477800DE2A000EDD226000AFF2D9FF6000B3F23E
:10478800DAFF6F007CFF27F1020EDE266F007CFF48
:1047980028F1000EDD2260009FF4D9FF6000A3F429
:1047A800DAFF6F0078FF29F16F0074FF2AF16000CB
:1047B800A4F433F16000A8F434F10101356B366BD1
:1047C800376B386B396B3A6B6000A0F200F1600010
:1047D800A4F201F16000CCF402F16000D0F403F11E
:1047E8006000D4F404F16000D8F405F16000DCF452
:1047F80006F16000E0F407F16000E4F408F16000FD
:10480800E8F409F16000ECF40AF136EC30F06000ED
:1048180000F4A8F0600004F4A9F01200AA51D96EBF
:10482800DA6A6F007BFFF6FF6F0077FFF7FFF86A21
:104838000800F550250AD8A418D0AA51D96EDA6A0A
:10484800DE2A000EDD22000E8E6F250E8D6F6000B1
:10485800A0F28FF06000A4F290F0FAEC3FF0000EA6
:104868000001A96F010EA86F1200AA51D96EDA6A69
:10487800DE2A000EDD22000EA96F000EA86F1200BE
:10488800AA51D96EDA6A6F007BFFF6FF6F0077FFD7
:10489800F7FFF86A0800F5508D6F8E6B6000A0F284
:1048A8008FF06000A4F290F0FAEC3FF00001AA51FA
:1048B800D96EDA6ADE2A000EDD22D1D74750D96ECA
:1048C800DA6A6F007BFFF6FF6F0077FFF7FFF86A81
:1048D8000800F550250AD8A4EFD14750D96EDA6AF6
:1048E800DE2A000EDD22000E0001B36F000EB26F4B
:1048F800B2C0B6F0B3C0B7F0B469B569000E726F54
:10490800000E13D0B6814750D96EDA6ADE2A000E3F
:10491800DD2230D0B683F7D7B685F5D7B687F3D77B
:10492800B689F1D7000E726F010E716F23D0475010
:10493800D96EDA6A6F007BFFF6FF6F0077FFF7FF2B
:10494800F86A0800F5504A6E4B6A4B50000AD8A422
:10495800E9D74A50200AD8B4E1D7030AD8B4E0D737
:10496800080AD8B4D9D7060AD8B4CCD71D0AD8B4FF
:10497800D1D7D8D771517211D8B4D9D7B6B1B693A7
:104988004750D96EDA6A6F007BFFF6FF6F0077FF3A
:10499800F7FFF86A0800F5502A0AD8A42AD0475029
:1049A800D96EDA6ADE2A000EDD22600023F1D9FF13
:1049B800600027F1DAFF6F007CFF4AF0020EDE2666
:1049C8006F007CFF4BF0000EDD2260002BF1D9FF59
:1049D80060002FF1DAFF6F0078FFB2F06F0074FF0C
:1049E800B3F0B3AF44D0B681B26DB31FD8B0B32B18
:1049F8003ED04750D96EDA6A6F0078FF08F06F0032
:104A080074FF09F0E3EC36F0600020F0B2F06000CB
:104A180024F0B3F006D04750D96EDA6ADE2A000EC9
:104A2800DD22D00E4A6EFF0E4B6E4750D96EDA6A01
:104A38006F007BFFF6FF6F0077FFF7FFF86A08004B
:104A4800F5504C6E4D6A4A504C264B504D224D50F5
:104A580006E10A0E4C5CD8B002D0010E01D0000E5F
:104A68000001736F746B73517411D8A4D4D7475075
:104A7800D96EDA6A6F007BFFF6FF6F0077FFF7FFEA
:104A8800F86A0800F550640AD8B40FD04750D96EB8
:104A9800DA6A6F007BFFF6FF6F0077FFF7FFF86AAF
:104AA8000800F550690AD8A452D04750D96EDA6A7E
:104AB800DE2A000EDD22600023F1D9FF600027F115
:104AC800DAFF6F007CFF4AF0020EDE266F007CFFE3
:104AD8004BF0000EDD2260002BF1D9FF60002FF1B2
:104AE800DAFF6F0078FF60F06F0074FF61F0000E6E
:104AF80061BFFF0E626F636F646F656F666F676F8C
:104B0800600014F11EF0600018F11FF0600080F1E1
:104B180020F0600084F121F0600088F122F060004C
:104B28008CF123F0600090F124F0600094F125F0FE
:104B3800600098F126F060009CF127F0DEEC2EF082
:104B4800600078F045F060007CF046F012004750B5
:104B5800D96EDA6A6F007BFFF6FF6F0077FFF7FF09
:104B6800F86A0800F550780AD8B40FD04750D96EC3
:104B7800DA6A6F007BFFF6FF6F0077FFF7FFF86ACE
:104B88000800F550580AD8A466D04750D96EDA6A9A
:104B98006F007BFFF6FF6F0077FFF7FFF86A0800EA
:104BA8006F00D4FF70F04750D96EDA6ADE2A000E23
:104BB800DD22600023F1D9FF600027F1DAFF6F00E2
:104BC8007CFF4AF0020EDE266F007CFF4BF0000EE1
:104BD800DD2260002BF1D9FF60002FF1DAFF6F00B2
:104BE80078FF4CF06F0074FF4DF0600030F168F012
:104BF800600034F169F06A6B6B6B6C6B6D6B6E6B9C
:104C08006F6B600014F11EF0600018F11FF0600077
:104C1800A0F120F06000A4F121F06000A8F122F0DA
:104C28006000ACF123F06000B0F124F06000B4F152
:104C380025F06000B8F126F06000BCF127F06000B4
:104C4800C0F128F012EC34F0600078F045F0600014
:104C58007CF046F012004750D96EDA6A6F007BFF8D
:104C6800F6FF6F0077FFF7FFF86A0800F550250A8E
:104C7800D8A417D04750D96EDA6ADE2A000EDD2292
:104C8800000E046E250E036E600014F105F060003E
:104C980018F106F051EC40F0000E466E010E456E1C
:104CA80012004750D96EDA6ADE2A000EDD22000EA5
:104CB800466E000E456E12004750D96EDA6A6F00D4
:104CC8007BFFF6FF6F0077FFF7FFF86A0800F550E3
:104CD800036E046A600014F105F0600018F106F034
:104CE80051EC40F04750D96EDA6ADE2A000EDD2218
:104CF800D3D709D0060E05D0030E03D0020E01D07B
:104D0800000E6A6F16D0600000F960F1600004F9C7
:104D180061F101016151000AD8A4F2D76051010A7A
:104D2800D8B4E8D7030AD8B4E7D7010AD8B4E6D785
:104D3800E7D76A5100019B6F9C6B9BBF9C070101E1
:104D4800E551AB5D00019D6F0101E651AC590001D1
:104D58009E6F21EC4DF09C359C310101606F000184
:104D68009B3101016B6F600080F56CF10001D0513F
:104D7800D111D8A40DD06000ACF59BF06000B0F55F
:104D88009CF0000E9E6F030E9D6F21EC4DF014D029
:104D9800600040F39BF0600044F39CF0000E9E6FAF
:104DA800030E9D6F21EC4DF001016B5100019B2713
:104DB80001016C5100019C239C359C339B339C352D
:104DC8009C339B3360006CF2D0F0600070F2D1F03D
:104DD8000101DAAF04D0000EDA6F000ED96FFEECD5
:104DE80046F0600090F26BF1600094F26CF1010102
:104DF800E4BF7BD0E45104E1950EE35DD8A075D003
:104E08006CBF05D06B29070E6C59D8B06ED0A9516C
:104E1800E35D606FAA51E459616F61356131626F7A
:104E28006031686F600088F569F1060E606F600098
:104E3800ACF561F16000B0F562F1636B62BF636964
:104E4800602904D0D890613762376337E82EFAD7E3
:104E5800600084F58BF0600088F58CF060008CF5BC
:104E68008DF06000A0F58EF06000A4F58FF00001D1
:104E7800906B75EC44F060002CF268F1600030F241
:104E880069F10101DF51E011D8A40ED06000A0F54E
:104E98009BF06000A4F59CF0000E00019E6F030ECD
:104EA8009D6F21EC4DF015D060007CF79BF0600001
:104EB80080F79CF0000E00019E6F030E9D6F21ECA1
:104EC8004DF00101685100019B2701016951000162
:104ED8009C23D8909C339B33D8909C339B336000A1
:104EE8006CF2DFF1600070F2E0F101016A5100013B
:104EF8009B6F9C6B9BBF9C070101A7516B5D0001D9
:104F08009D6F0101A8516C5900019E6F21EC4DF075
:104F18009C359C310101606F00019B3101016B6F71
:104F2800600080F56CF1D951DA11D8A40ED0600078
:104F3800ACF59BF06000B0F59CF0000E00019E6F90
:104F4800030E9D6F21EC4DF015D0600064F79BF0C7
:104F5800600068F79CF0000E00019E6F030E9D6FC5
:104F680021EC4DF001016B5100019B2701016C51AF
:104F780000019C239C359C339B339C359C339B338D
:104F880060006CF2D9F1600070F2DAF10101E351CE
:104F9800AB5D6B6FE451AC596C6F6A5100018B6F5C
:104FA800000E8BBFFF0E8C6F8D6F8E6F6000ACF59F
:104FB8008FF06000B0F590F0000E90BFFF0E916F7B
:104FC800926F45EC46F060002CF264F1600030F21C
:104FD80065F1600034F266F1600038F267F1600054
:104FE80090F58BF0600094F58CF0600098F58DF0EA
:104FF80060009CF58EF0600044F78FF0600048F781
:1050080090F0916B926B45EC46F00A0E05D0D89063
:105018008E338D338C338B33E82EF9D760002CF226
:105028006BF1600030F26CF101016CBF0AD0E90E3F
:105038006B5D1C0E6C59D8A004D0000E6C6FC80EA6
:105048000BD06CBF06D06C5108E14A0E6B5DD8B02E
:1050580004D0000E6C6F020E6B6F600034FB9BF087
:10506800600038FB9CF0000E00019E6F030E9D6FE0
:1050780021EC4DF001016B5100019B2701016C519E
:1050880000019C23D8909C339B33D8909C339B334E
:1050980060006CF2CDF2600070F2CEF29C0E01015D
:1050A800466FFC0E476F60007CF748F1600080F7A0
:1050B80049F160008CF78BF0600090F78CF00001EC
:1050C8008D6B8CBF8D07450E8E6F000E8F6F000E97
:1050D800906F46EC49F0600030F28BF0600034F2DB
:1050E8008CF08D6B8CBF8D6960002CF24AF16000EA
:1050F80030F24BF1600044F74CF1600048F74DF195
:1051080068EC4EF012000101756F010E0101826F0B
:10511800000E0001926F000ED4EC4AF07B0E0001E5
:105128008F6FFD0E906FCDEC4EF0100E01017B6F6E
:10513800000E7A6F000E7F6F000E7E6FA00EE0ECFF
:105148004EF00009D8A42FD0000E826F800E466F53
:10515800FF0E476F68EC4EF0000E0001926F000ED4
:10516800D4EC4AF0150E00018F6FFF0E906FCDEC56
:105178004EF0010E9C6FF40E9B6F0AEC4CF013D0AE
:10518800BA84BC96000E816FFA0E0BD0BA94BC8616
:10519800010E816F900E05D0BA84BC86020E816F15
:1051A800580E806F12D001017551736F746B745172
:1051B800000AD8A40AD07351000AD8B4E1D7010A6A
:1051C800D8B4E4D7030AD8B4E7D7D8908035786F35
:1051D8008135796FBA86000E00019C6FFA0E9B6FBD
:1051E8000AEC4CF054EC50F0FAEC50F060004CF241
:1051F8007CF1600050F27DF129D0830E0101606FCF
:10520800010E616F010E83EC31F0010183517E5D67
:105218007F51800A736F8451800A7359D8B006D0C1
:1052280060000CF67EF1600010F67FF17A51835D24
:105238008451800A736F7B51800A7359D8B006D0A5
:1052480060000CF67AF1600010F67BF17C0E00012C
:10525800936F010E946F000E966FFA0E956FE5EC42
:1052680045F00009D8B4C9D7FEEC46F0D890A43769
:10527800A537D890A437A537600090F234F26000C3
:1052880094F235F2000EE0EC4EF00009D8A41BD0E1
:10529800000E826F800E466FFF0E476F68EC4EF06F
:1052A800000E0001926F000ED4EC4AF0150E0001BA
:1052B8008F6FFF0E906FCDEC4EF0010E9C6FF40EC9
:1052C8009B6F0AEC4CF0BA94BC96BA96010E21EC8E
:1052D80049F0600080F576F1600084F577F101010E
:1052E8007E517625736F7F517721746F6000CCF5FE
:1052F8008BF06000D0F58CF00001000E8CBFFF0E23
:105308008D6F8E6F010E9BEC37F060002CF299F0D8
:10531800600030F29AF0600034F29BF0600038F2DE
:105328009CF0330E9D6F330E9E6FF30E9F6F450EEC
:10533800A06F5EEC3DF0D8A016D0000E926F000E64
:10534800D4EC4AF0060E00018F6FFE0E906FCDEC84
:105358004EF0030E9C6FE80E9B6F0AEC4CF0000EAB
:105368000101826F7CD0A30E0101466F020E476FC8
:105378009F0E486FFD0E496F6000D0F88BF06000FB
:10538800D4F88CF000018D6B8E6B3C0E8F6F000E85
:10539800906F000E916F000E926F45EC46F0600022
:1053A8002CF297F0600030F298F0600034F299F037
:1053B800600038F29AF0E80E9B6F030E9C6F000EA7
:1053C8009D6F000E9E6FEFEC41F060005CF24AF1B9
:1053D800600060F24BF158EC47F0000E0001926F4C
:1053E800000ED4EC4AF0A30E00018F6F020E906FEE
:1053F800CDEC4EF00F0E9C6FA00E9B6F0AEC4CF09C
:10540800010180510201345D0101815102013559C8
:10541800D8B00ED0000E0001926F000ED4EC4AF006
:10542800F50E00018F6FFD0E906FCDEC4EF091D709
:1054380034510101785D0201355101017959D8B023
:105448000ED0000E0001926F000ED4EC4AF0060E4A
:1054580000018F6FFE0E906FCDEC4EF07AD782511F
:1054680012009C51800BA56F9C519C25A76F9BBF78
:10547800A781A751D8B40DD0A729D8A408D0000E69
:10548800996F000E9A6F000E9B6F000E9C6F9B8F9A
:1054980006D0000E996F000E9A6F000E9B6F000EDB
:1054A8009C6FA051800BA66FA551A619D8A4A58DF5
:1054B800A051A025A66F9FBFA681A651D8B40DD034
:1054C800A629D8A408D0000E9D6F000E9E6F000E6E
:1054D8009F6F000EA06F9F8F06D0000E9D6F000E6D
:1054E8009E6F000E9F6F000EA06FA751A65DD8B0EB
:1054F80031D0A5AD02D0800EA51B60009CF2A8F0AB
:10550800600098F2A7F06000A0F2A6F0600064F2D4
:10551800A8F0600074F299F06000A0F29DF06000BD
:1055280068F2A8F0600078F29AF06000A0F29EF0AD
:1055380060006CF2A8F060007CF29BF06000A0F2C2
:105548009FF0600070F2A8F0600080F29CF06000AC
:10555800A0F2A0F0000EA86FA751600098F2A1F089
:10556800A26BA15F000EA25BA2BF2DD0A25104E1E5
:105578001A0EA15DD8A027D099519A119B119C11A0
:10558800D8B402D0010E01D0000EA86F000E996F9A
:10559800000E9A6F000E9B6F000E9C6F600098F2D1
:1055A800A7F015D0A8A105D0D890A8310109A86FF7
:1055B80002D0D890A83399B1A88F9C359C339B33DF
:1055C8009A339933A72BA651A75DD8A0EBD7A5BDD1
:1055D80028D0A751D8A409D0000E996F000E9A6F51
:1055E800000E9B6F000E9C6F12009D5199279E51D3
:1055F8009A239F519B23A0519C239CA171D0A8A1C1
:1056080005D0D890A8310109A86F02D0D890A83346
:1056180099B1A88F9C359C339B339A339933A72B28
:105628005FD09D51995D9E519A599F519B599C51AC
:10563800800AA16FA051800AA159D8B025D09951EC
:105648009D5DA16F9A519E59A26F9B519F59A36F5F
:105658009C51A059A46FFF0EA125996FFF0EA2219E
:105668009A6FFF0EA3219B6FFF0EA4219C6F800EE3
:10567800A51BA86DA851D8A40FD0010E9927000E1C
:105688009A239B239C2308D09D51995F9E519A5B36
:105698009F519B5BA0519C5B99519A119B119C1146
:1056A800D8A41CD0A851D8A419D0000E996F000E08
:1056B8009A6F000E9B6F000E9C6F1200D89099375E
:1056C8009A379B379C37A8BF9981A8A102D0D88068
:1056D80001D0D890A837A751D8A4A7079BAFEED779
:1056E800000EA66FA8AF0CD06000A0F2A1F07F0E4C
:1056F800A117D8B403D0010EA66F02D099B1FBD779
:10570800A651D8B428D0010E9927000E9A239B23BE
:105718009C239CA120D0600064F2A1F0600068F294
:10572800A2F060006CF2A3F0600070F2A4F0A4355F
:10573800A433A333A233A133600084F299F060004C
:1057480088F29AF060008CF29BF0600090F29CF076
:10575800A729D8A4A72BA729D8B403D0A751D8A480
:105768000DD0000E996F000E9A6F000E9B6F000E01
:105778009C6FA751D8A402D0000EA56FA7A102D094
:105788009B8F01D09B9FD890A7319C6FA5BF9C8F02
:10579800600064F299F0600068F29AF060006CF2C0
:1057A8009BF0600070F29CF01200B3EC50F06000C7
:1057B80004F07FF0600008F080F00001816B826BDC
:1057C800600030F383F0CC2B030ECC19D8A402D0A0
:1057D800000ECC6F020ECC6104D03E01F89F000E83
:1057E80003D03E01F89F030EFD6F0001CC515BEC26
:1057F80048F04EEC51F0030E0001836164D18351EF
:10580800040D730EF324D96E020EF420DA6E6000D4
:10581800FFF1DEFF600003F2DEFF600007F2DEFF4B
:1058280060000BF2DEFF240E8325D96EDA6A020EC1
:10583800DA22DF2A240E8325D96EDA6A020EDA22EA
:10584800DF50D8A408D0240E8325D96EDA6A020E58
:10585800DA22010EDF6E8351D8A412006000FCF139
:1058680057F0600000F258F0600004F259F0600050
:1058780008F25AF0020ED8905736583659365A362A
:10588800E82EF9D76000FCF901F0600000FA02F098
:10589800600004FA03F0600008FA04F0030E056ED5
:1058A800000E066E000E076E000E086E74EC46F0D1
:1058B800575001245B6E585002205C6E59500320EB
:1058C8005D6E5A5004205E6E030E05D0D8905E328D
:1058D8005D325C325B32E82EF9D760006CF17FF202
:1058E800600070F180F2600074F181F2600078F17C
:1058F80082F26000FCF157F0600000F258F060009E
:1059080004F259F0600008F25AF0040ED8905736A5
:10591800583659365A36E82EF9D760000CFA01F095
:10592800600010FA02F0600014FA03F0600018FA40
:1059380004F00F0E056E000E066E000E076E000EC8
:10594800086E74EC46F0575001245B6E58500220E4
:105958005C6E595003205D6E5A5004205E6E050E31
:1059680005D0D8905E325D325C325B32E82EF9D7D2
:1059780060006CF183F2600070F184F2600074F1F1
:1059880085F2600078F186F26000FCF157F0600063
:1059980000F258F0600004F259F0600008F25AF082
:1059A800060ED8905736583659365A36E82EF9D753
:1059B80060001CFA01F0600020FA02F0600024FA8E
:1059C80003F0600028FA04F03F0E056E000E066E24
:1059D800000E076E000E086E74EC46F05750012456
:1059E8005B6E585002205C6E595003205D6E5A5011
:1059F80004205E6E070E05D0D8905E325D325C32B0
:105A08005B32E82EF9D760006CF187F2600070F124
:105A180088F2600074F189F2600078F18AF260001F
:105A2800FCF157F0600000F258F0600004F259F001
:105A3800600008F25AF0090ED89057365836593691
:105A48005A36E82EF9D760002CFA01F0600030FAD7
:105A580002F0600034FA03F0600038FA04F0FF0E38
:105A6800056E010E066E000E076E000E086E74ECD1
:105A780046F0575001245B6E585002205C6E595016
:105A880003205D6E5A5004205E6E0A0E05D0D89031
:105A98005E325D325C325B32E82EF9D760006CF121
:105AA8008BF2600070F18CF2600074F18DF260008E
:105AB80078F18EF224C227F224C228F224C229F2F5
:105AC80024C22AF21200BA94BC96BA96B10E7B6F21
:105AD800FF0E7C6F000E7E6F650E7D6F06EC4FF03B
