:020000040000FA
:100000000DEF00F0FF00FF00A5EF39F0FF00FF004B
:10001000FF00FF00FF00FF00FF00F4EF3DF0600075
:1000200094F7B5F0600098F7B6F09F51D8B409D0B6
:10003000A051D8A404D00001EF51D8B402D0BA82A4
:1000400001D0BA9202013A513B11D8A407D0D80E80
:100050000001776FFF0E786FBBEC52F0010E3A256E
:10006000016E000E3B21026E030E046EE80E036E5D
:100070003BEC47F0600004F03AF2600008F03BF21D
:10008000000E086E000E076E0FEC52F00009D8A4A7
:100090000AD0A80E0001776FFF0E786FBBEC52F00C
:1000A000FBEC49F01200E9EC57F00009D8A408D0A5
:1000B000FC0E0001776FFF0E786FBBEC52F0120060
:1000C0000101E505E611D8A4ADD07AEC2CF0600072
:1000D0006CF0B1F0600070F0B2F06000C4F25BF060
:1000E0006000C8F25CF0D8905B365C36D8905B3626
:1000F0005C36D8905B365C366000E8F701F0600053
:10010000ECF702F0000E046E070E036EBAEC51F02D
:100110005B5001265C500222D89002320132D89006
:1001200002320132D89002320132600004F0FAF15A
:10013000600008F0FBF124EC38F060006CF0B3F0E4
:10014000600070F0B4F06000CCF25BF06000D0F2C0
:100150005CF0D8905B365C36D8905B365C36D890D5
:100160005B365C366000E0F701F06000E4F702F017
:10017000000E046E070E036EBAEC51F05B500126C0
:100180005C500222D89002320132D8900232013201
:10019000D89002320132600004F0F8F1600008F0FB
:1001A000F9F1FBEC49F00201384B392BFA0E381902
:1001B0003911D8A404D0000E396F000E386F6000DA
:1001C000C4F293F06000C8F294F06000E8F707F022
:1001D0006000ECF708F0000E0A6E080E096EC1EC24
:1001E00045F060001CF095F0600020F096F0600093
:1001F000CCF297F06000D0F298F06000E0F707F0E2
:100200006000E4F708F0000E0A6E080E096EC1ECFB
:1002100045F060001CF099F0600020F09AF064EC6A
:1002200050F0120015EC50F06000ACF0C3F060002C
:10023000B0F0C4F00001C4AF04D0000EC46F000ED3
:10024000C36FC4BF0AD0F50EC35D010EC459D8A058
:1002500004D0000EC46F000EC36F1FEC37F06000B7
:100260006CF09BF0600070F09CF047EC3CF060009C
:100270006CF09DF0600070F09EF0FBEC49F0020124
:10028000A251D8A420D06EEC23F08BEC57F0DAEC1E
:1002900057F08FEC57F093EC57F0FFEC54F00AEC6A
:1002A00055F0E9EC54F0F4EC54F08BEC57F0DAEC48
:1002B00057F083EC57F07BEC57F0010EA06F000E67
:1002C0000001F06F1200364B372B36513711D8A48E
:1002D00007D0E00E0001776FFF0E786FBBEC52F095
:1002E000010E3625016E000E3721026E030E046EDC
:1002F000E80E036E3BEC47F0600004F036F260005D
:1003000008F037F2020134513511D8A407D0DC0EC1
:100310000001776FFF0E786FBBEC52F0010E3425B1
:10032000016E000E3521026E030E046EE80E036EA0
:100330003BEC47F0600004F034F2600008F035F266
:10034000010E0001C827000EC923CA23CB230201D6
:10035000624B632B5C4B5D2B5A4B5B2B600010F99F
:1003600001F0600014F902F0000E046E190E036E25
:100370003BEC47F0D89001360236000E0124D96ECE
:10038000040E0220DA6E60000FF3DEFF600013F34C
:10039000DDFF000E0001BC6F000EBB6F000EBE6FD4
:1003A000000EBD6FBEBF06D0BE5114E1190EBD5D7B
:1003B000D8B010D0D890BD35D96EBE35DA6E000EEB
:1003C000D926040EDA22DE50BB27DD50BC23BD4BFC
:1003D000BE2BE8D76000ECF201F06000F0F202F012
:1003E000000E046E190E036E44EC4BF0600004F036
:1003F0003EF2600008F03FF2600010F901F060008A
:1004000014F902F0000E046E060E036E3BEC47F08A
:1004100001500210D8A44ED0600010F907F060001F
:1004200014F908F0000E0A6E060E096EC1EC45F0D4
:10043000D89007360836320E0724D96E040E0820ED
:10044000DA6E60000FF3DEFF600013F3DDFF000ED5
:100450000001BC6F000EBB6F000EC06F000EBF6FBF
:10046000C0BF06D0C05114E1190EBF5DD8B010D086
:10047000D890BF35D96EC035DA6E320ED926040E4B
:10048000DA22DE50BB27DD50BC23BF4BC02BE8D7A0
:100490006000ECF201F06000F0F202F0000E046E79
:1004A000190E036E44EC4BF0600004F0CEF06000D7
:1004B00008F0CFF00001F051D8B40FD002015BBFBB
:1004C00009D0B90E5A5D0B0E5B59D8A003D0CBEC06
:1004D00057F008D083EC57F005D0000E02015B6F97
:1004E000000E5A6F5DBF0ED04D0E5C5D1D0E5D5946
:1004F000D8A008D0010E0001F06F1D0E02015D6F43
:100500004D0E5C6F24EC38F060006CF0AFF06000D2
:1005100070F0B0F00001B0BF05D0B05108E1AF05F8
:10052000D8B005D0000EA26F000EA16F15D06000EC
:10053000BCF25BF06000C0F25CF05B3A5C3AF00E3B
:100540005C165B500F0B5C12F00E5B1660006CF1DA
:10055000A1F0600070F1A2F0600084F201F0600090
:1005600088F202F03CEC42F0600004F0C1F0600060
:1005700008F0C2F0C25109E1150EC15DD8B005D036
:10058000000EA46F000EA36F06D0600004F3A3F06A
:10059000600008F3A4F0A351020122270001A45136
:1005A00002012323000E2423000E252363BF93D0D2
:1005B000B90E625D0B0E6359D8A08DD00001D451E5
:1005C0000201505D5B6E0001D551020151595C6E14
:1005D000D8905B34076E5C34086E000E0A6E050E10
:1005E000096EC1EC45F00001D45107240101CF6F21
:1005F0000001D55108200101D06F0001D451020142
:10060000505D076E0001D55102015159086E000E70
:100610000A6E030E096EC1EC45F00001D4510724A7
:100620000101CD6F0001D55108200101CE6F190ED7
:10063000E7255B6E000EE8215C6E5B50CD5DCE5110
:10064000800A5D6E5C50800A5D58D8B006D0190EE5
:10065000E725CD6F000EE821CE6FCD51CF5DD05193
:10066000800A5B6ECE51800A5B58D8B004D0CDC1F1
:10067000CFF1CEC1D0F1D5C1D9F1D6C1DAF1D7C110
:10068000DBF1D8C1DCF150C2D6F051C2D7F0D4C0F2
:1006900052F2D5C053F2E7510001D65DD751800A1E
:1006A0005B6E0101E851800A5B58D8B005D00001AB
:1006B000F051D8A457EC57F0000E0201516F000E14
:1006C000506F000E0001D56FC80ED46F000E0201EE
:1006D000636F000E626F444B452B45BF0AD04551F6
:1006E00004E1960E445DD8A004D0000E456F000EC4
:1006F000446F0001CBBF0FD0CB51CA1106E1310EC0
:10070000C85D750EC959D8A006D06EEC23F0000E56
:100710009D6F000E9E6F02013E514E5D4F51800A4B
:100720005B6E3F51800A5B58D8B004D03EC24EF297
:100730003FC24FF20001C3510201505D5151800A86
:100740005B6E0001C451800A5B58D8B006D06000CF
:100750000CF350F2600010F351F2D451C35DC45158
:10076000800A5B6ED551800A5B58D8B006D0600015
:100770000CF3D4F0600010F3D5F0CE510101CF5D41
:10078000D051800A5B6E0001CF51800A5B58D8B00F
:1007900016D0600038F35BF060003CF35CF0000EB4
:1007A0005CBEFF0E5D6E5E6E5B5002011E275C50EC
:1007B0001F235D5020235E5021234C4B4D2B010104
:1007C000CD510001CE5DCF51800A5B6E0101CE514B
:1007D000800A5B58D8B016D0600038F35BF0600038
:1007E0003CF35CF0000E5CBEFF0E5D6E5E6E5B5017
:1007F00002011A275C501B235D501C235E501D23F1
:100800004A4B4B2B0101CD51CF25076ECE51D02144
:10081000086E000E0A6E020E096EC1EC45F0600013
:100820001CF09FF0600020F0A0F00101E551E611FE
:10083000D8A42DD0E751E925076EE851EA21086ECA
:10084000000E0A6E020E096EC1EC45F00101DB518B
:10085000075C0850800A5B6EDC51800A5B58D8B098
:1008600016D0E7510001CE5DCF51800A5B6E0101C9
:10087000E851800A5B58D8B005D0000E0001B66F71
:10088000020E04D0000E0001B66F040EB56F010118
:10089000CD510001CE5DCF51800A5B6E0101CE517A
:1008A000800A5B58D8B074D1CD5102013E5D3F51F2
:1008B000800A5B6E0101CE51800A5B58D8A068D1D6
:1008C0000001CBBF1BD1CB51CA1106E1910EC85D0F
:1008D000010EC959D8A012D1C8C0BAF2C9C0BBF222
:1008E0000101E1510001DA5DDB51800A5B6E01011B
:1008F000E251800A5B58D8B00CD00001DA510101F6
:10090000E15D0201586F0001DB510101E259020172
:10091000596F000E0001D9BFFF0E5C6E800A5B6E3E
:10092000C851D85DC951D959CA515C58CB51800AB8
:100930005B58D8B009D0D851C85D0201566F00018C
:10094000D951C9590201576F0201BA51BB11D8B42C
:1009500024D0600E0D6EEA0E0E6E000E0F6E000EAD
:10096000106E6000E8FA5BF06000ECFA5CF0D89082
:100970005B365C3660006CF111F0600070F112F0D3
:10098000000E12BEFF0E136E146E8AEC3DF0600076
:1009900034F054F2600038F055F202014DBF31D00E
:1009A0004D5103E14C05D8A02CD0600078F80DF033
:1009B00060007CF80EF0600080F80FF0600084F8B2
:1009C00010F0600030F911F0600034F912F0000E00
:1009D00012BEFF0E136E146E8AEC3DF0600034F010
:1009E000D7F1600038F0D8F1000E02011E6F000E42
:1009F0001F6F000E206F000E216F000E4D6F000E56
:100A00004C6F4BBF31D04B5103E14A05D8A02CD0DD
:100A1000600068F80DF060006CF80EF0600070F88F
:100A20000FF0600074F810F0600028F911F0600019
:100A30002CF912F0000E12BEFF0E136E146E8AEC2B
:100A40003DF0600034F0D5F1600038F0D6F1000ED2
:100A500002014B6F000E4A6F000E1A6F000E1B6FE3
:100A6000000E1C6F000E1D6FC8C0DCF0C9C0DDF0A9
:100A70003EEC1AF0000E0001C86F000EC96F000EA8
:100A8000CA6F000ECB6F000EDB6F000EDA6F000E28
:100A90000101E26F000EE16F000E0001D96F000E40
:100AA000D86F000E02015F6F000E5E6F0001DDBFA8
:100AB00006D0F50EDC5D010EDD59D8B01AD0C2515A
:100AC00009E1150EC15DD8B005D0000EA66F000E6D
:100AD000A56F06D0600004F3A5F0600008F3A6F04F
:100AE000600094F222F2600098F223F20201246B7B
:100AF000256B000E02015B6F000E5A6FC8C060F2DA
:100B0000C9C061F2000E02019D6F000E9E6F46C2C9
:100B1000D1F147C2D2F10001F051D8B435D00F0E57
:100B20000101E7255B6E000EE8215C6ED1515B5C34
:100B30005C50800A5D6ED251800A5D58D8B003D0F7
:100B4000EDEC53F002D00AEC55F0F10E5B6EFF0EA7
:100B50005C6E60009CF75DF06000A0F75EF05B509B
:100B60005D265C505E225D500101D15DD251800A4C
:100B70005F6E5E50800A5F58D8B003D0DDEC53F052
:100B800007D0FFEC54F004D00AEC55F0FFEC54F021
:100B90000001DDBF40D0F50EDC5D010EDD59D8A0AF
:100BA0003AD0600070F301F0600074F302F0000EC0
:100BB000046E090E036EBAEC51F0600004F007F009
:100BC000600008F008F0000E0A6E0A0E096EC1EC13
:100BD00045F060001CF05BF0600020F05CF0000E5F
:100BE0005CBEFF0E5D6E5E6E0001C8515B1813E1C6
:100BF000C9515C1810E1CA515D180DE1CB515E1866
:100C0000D8A409D0000E0201226F000E236F000E3F
:100C1000246F000E256F0001CE510101CF5DD05130
:100C2000800A5B6E0001CF51800A5B58D8B0D9D0E2
:100C300002013E510101CF5DD051800A5B6E02017D
:100C40003F51800A5B58D8A0CCD09C51D8A406D084
:100C5000C8C0E1F1C9C0E2F1010E9C6FC8C05EF2EC
:100C6000C9C05FF2000E9D6F000E9E6F48C2D3F1A7
:100C700049C2D4F10001F051D8B4AED00201A15163
:100C8000D8A4AAD0140E0101E9255B6E000EEA215A
:100C90005C6ED7515B5C5C50800A5D6ED851800AF7
:100CA0005D58D8B011D0140EE9255B6E000EEA2114
:100CB0005C6ED3515B5C5C50800A5D6ED451800ADF
:100CC0005D58D8A0CDEC53F0140E0101E9255B6E00
:100CD000000EEA215C6E5B50D75DD851800A5D6ED4
:100CE0005C50800A5D58D8A00FD0140EE9255B6EC9
:100CF000000EEA215C6E5B50D35DD451800A5D6EBC
:100D00005C50800A5D58D8A0F4EC54F0EC0E5B6E99
:100D1000FF0E5C6E6000A4F75DF06000A8F75EF067
:100D20005B505D265C505E225D500101D75DD8515D
:100D3000800A5F6E5E50800A5F58D8B019D0EC0E02
:100D40005B6EFF0E5C6E6000A4F75DF06000A8F7BC
:100D50005EF05B505D265C505E225D50D35DD451E9
:100D6000800A5F6E5E50800A5F58D8A0BDEC53F0D9
:100D7000EC0E5B6EFF0E5C6E6000A4F75DF0600031
:100D8000A8F75EF05B505D265C505E220101D751F2
:100D90005D5C5E50800A5F6ED851800A5F58D8A0B3
:100DA00018D0EC0E5B6EFF0E5C6E6000A4F75DF079
:100DB0006000A8F75EF05B505D265C505E22D35168
:100DC0005D5C5E50800A5F6ED451800A5F58D8B077
:100DD00024D0E9EC54F021D0F4EC54F0E9EC54F0D8
:100DE0001CD0C80E0101E1255B6E000EE2215C6E95
:100DF000000E5CBEFF0E5E6E800A5D6E0001C85183
:100E00005B5CC9515C58CA515E58CB51800A5D5831
:100E1000D8B003D0000E02019C6FF10E5B6EFF0E86
:100E20005C6E60006CF75DF0600070F75EF05B5028
:100E30005D265C505E225D500001CE5DCF51800A80
:100E40005F6E5E50800A5F58D8A0BED0020E0101CE
:100E5000E519E611D8A4B8D0000E0001B66F040E53
:100E6000B56FC8C0DAF0C9C0DBF0DBBFADD0DB5175
:100E700003E1DA05D8A0A8D0600048F301F06000D3
:100E80004CF302F0000E046E0A0E036E3BEC47F0CA
:100E9000D89001360236610E0124D96E030E02206D
:100EA000DA6E60006BF3DEFF60006FF3DDFF000EB3
:100EB0000101E06F000EDF6F000E0001B86F000E41
:100EC000B76F19D0D890B735D96EB835DA6E610ED4
:100ED000D926030EDA226F0078FF5BF06F0074FFF3
:100EE0005CF00101DF515B24DF6FE0515C20E06FBB
:100EF0000001B74BB82B010ED2255B6E000ED3213B
:100F00005C6E5CBE0BD05C5004E10A0E5B5CD8A04A
:100F100005D0000EA86F0A0EA76F06D0010ED225CD
:100F2000A76F000ED321A86FA751B75DB851800AF3
:100F30005B6EA851800A5B58D8A0C4D7010ED22599
:100F40005B6E000ED3215C6E5CBE0BD05C5004E186
:100F50000A0E5B5CD8A005D0000EAA6F0A0EA96F1E
:100F600006D0010ED225A96F000ED321AA6F600012
:100F70007CF707F0600080F708F06000A4F209F049
:100F80006000A8F20AF0C1EC45F060001CF0DFF14F
:100F9000600020F0E0F10001F051D8B402D0D24B53
:100FA000D32BD3BF0AD0D35104E1640ED25DD8A0B5
:100FB00004D0000ED36F0A0ED26F010E02019E6F95
:100FC000DBC148F2DCC149F20A0E0101D9255B6E92
:100FD000000EDA215C6E0001CE515B5C5C50800A31
:100FE0005D6ECF51800A5D58D8A0F2D0040E010189
:100FF000E519E611D8A4ECD0000E0001B66F020E80
:10100000B56FC8C0D8F0C9C0D9F0D8510101E15DB1
:10101000E251800A5B6E0001D951800A5B58D8B05A
:10102000B2D00101E1510001D85D5B6E0101E251D6
:101030000001D9595C6E600040F301F0600044F398
:1010400002F0000E046E0A0E036E3BEC47F0D890DF
:1010500001360236750E0124D96E030E0220DA6EB7
:1010600060006FF1DEFF600073F1DDFF000E010133
:10107000DE6F000EDD6F000E0001BA6F000EB96F5B
:1010800019D0D890B935D96EBA35DA6E750ED92621
:10109000030EDA226F0078FF5BF06F0074FF5CF0E4
:1010A0000101DD515B24DD6FDE515C20DE6F00014C
:1010B000B94BBA2B010ED0255B6E000ED1215C6EB0
:1010C0005CBE06D05C500BE10B0E5B5CD8B007D069
:1010D000010ED025AB6F000ED121AC6F04D0000EF5
:1010E000AC6F0A0EAB6FAB51B95DBA51800A5B6E43
:1010F000AC51800A5B58D8A0C4D7010ED0255B6ED6
:10110000000ED1215C6E5CBE06D05C500BE10B0E74
:101110005B5CD8B007D0010ED025AD6F000ED12199
:10112000AE6F04D0000EAE6F0A0EAD6F600074F7A4
:1011300007F0600078F708F06000B4F209F0600092
:10114000B8F20AF0C1EC45F060001CF0DDF160007F
:1011500020F0DEF10001F051D8B402D0D04BD12BF9
:10116000D1BF0AD0D15104E1640ED05DD8A004D023
:10117000000ED16F0A0ED06F010E02019D6FD9C112
:1011800046F2DAC147F2600088F801F060008CF89E
:1011900002F0600090F803F0600094F804F04B0E49
:1011A000056E000E066E000E076E000E086E38EC1F
:1011B00045F0600004F0E3F1600008F0E4F1000E97
:1011C0000201226F000E236F000E246F000E256FA8
:1011D00002019E51D8B41FD0600020F95BF060007E
:1011E00024F95CF0D8905B365C36D8905B365C3680
:1011F0000001CE515B24076ECF515C20086E000EBB
:101200000A6E050E096EC1EC45F060001CF048F254
:10121000600020F049F202019D51D8B41FD0600057
:1012200018F95BF060001CF95CF0D8905B365C3616
:10123000D8905B365C360001CE515B24076ECF51EF
:101240005C20086E000E0A6E050E096EC1EC45F0BA
:1012500060001CF046F2600020F047F20001F051FF
:10126000D8B440D00101DEBF09D05F0EDD5D010EB4
:10127000DE59D8A003D053EC57F002D093EC57F0CE
:101280000101E0BF09D05F0EDF5D010EE059D8A07B
:1012900003D04FEC57F002D08FEC57F00101E3512F
:1012A0000201665D6751800A5B6E0101E451800AAC
:1012B0005B58D8B003D04BEC57F002D08BEC57F012
:1012C00064510101E35DE451800A5B6E02016551E6
:1012D000800A5B58D8B003D0C8EC57F00BD0DAECDA
:1012E00057F008D093EC57F08FEC57F08BEC57F099
:1012F000DAEC57F06000D4F2E5F16000D8F2E6F1E4
:10130000120060001FF1D9FF600023F1DAFF6F00C7
:101310007BFFF6FF6F0077FFF7FFF86A0800F550D4
:10132000250AD8A4C1D260001FF1D9FF600023F1C3
:10133000DAFFDE2A000EDD22000E0101C86F000E6A
:10134000C76FC7C1CBF1C8C1CCF1C969CA69000E6A
:101350000001736F000E1BD00101CB810BD0010186
:10136000CB8308D00101CB8505D00101CB8702D00A
:101370000101CB8960001FF1D9FF600023F1DAFF82
:10138000DE2A000EDD222BD0000E736F010E726F6D
:1013900026D060001FF1D9FF600023F1DAFF6F0053
:1013A0007BFFF6FF6F0077FFF7FFF86A0800F55044
:1013B0004B6E4C6A4C50000AD8A4E6D74B50200A1A
:1013C000D8B4D3D7030AD8B4D3D7080AD8B4CAD765
:1013D000060AD8B4C1D71D0AD8B4C1D7D5D70001E1
:1013E00072517311D8B4D5D70101CBB1CB93600042
:1013F0001FF1D9FF600023F1DAFF6F007BFFF6FFDA
:101400006F0077FFF7FFF86A0800F5502A0AD8A4A2
:101410002DD060001FF1D9FF600023F1DAFFDE2A32
:10142000000EDD22600027F1D9FF60002BF1DAFF0A
:101430006F007CFF4BF0020EDE266F007CFF4CF04D
:10144000000EDD2260002FF1D9FF600033F1DAFFDA
:101450006F0078FFC7F16F0074FFC8F1C8AF4DD0BF
:10146000CB81C76DC81FD8B0C82B47D060001FF113
:10147000D9FF600023F1DAFF6F0078FF08F06F00FA
:1014800074FF09F0A3EC2EF0600020F0C7F16000BB
:1014900024F0C8F109D060001FF1D9FF600023F1EA
:1014A000DAFFDE2A000EDD22D00E4B6EFF0E4C6EF0
:1014B00060001FF1D9FF600023F1DAFF6F007BFFAE
:1014C000F6FF6F0077FFF7FFF86A0800F5504D6EE2
:1014D0004E6A4B504D264C504E224E5006E10A0E9D
:1014E0004D5CD8B002D0010E01D0000E0001746F27
:1014F000756B74517511D8A4CED760001FF1D9FF58
:10150000600023F1DAFF6F007BFFF6FF6F0077FFCB
:10151000F7FFF86A0800F550630AD8A434D06000D9
:101520001FF1D9FF600023F1DAFFDE2A000EDD2271
:10153000600027F1D9FF60002BF1DAFF6F007CFF1C
:101540004BF0020EDE266F007CFF4CF0000EDD2219
:1015500060002FF1D9FF600033F1DAFFDF500001A6
:10156000766F600014F11EF0600018F11FF060004B
:10157000D8F120F05EEC4AF0600078F045F06000B1
:101580007CF046F0120060001FF1D9FF600023F1EB
:10159000DAFF6F007BFFF6FF6F0077FFF7FFF86A57
:1015A0000800F550640AD8B412D060001FF1D9FFCA
:1015B000600023F1DAFF6F007BFFF6FF6F0077FF1B
:1015C000F7FFF86A0800F550690AD8A456D0600001
:1015D0001FF1D9FF600023F1DAFFDE2A000EDD22C1
:1015E000600027F1D9FF60002BF1DAFF6F007CFF6C
:1015F0004BF0020EDE266F007CFF4CF0000EDD2269
:1016000060002FF1D9FF600033F1DAFF6F0078FF3F
:1016100060F06F0074FF61F00001000E61BFFF0E0B
:10162000626F636F646F656F666F676F600014F160
:101630001EF0600018F11FF0600080F120F06000E3
:1016400084F121F0600088F122F060008CF123F039
:10165000600090F124F0600094F125F0600098F1B2
:1016600026F060009CF127F0EEEC1BF0600078F0B3
:1016700045F060007CF046F0120060001FF1D9FFD9
:10168000600023F1DAFF6F007BFFF6FF6F0077FF4A
:10169000F7FFF86A0800F550730AD8A43AD0600042
:1016A0001FF1D9FF600023F1DAFFDE2A000EDD22F0
:1016B000600027F1D9FF60002BF1DAFF6F007CFF9B
:1016C0004BF0020EDE266F007CFF4CF0000EDD2298
:1016D00060002FF1D9FF600033F1DAFF6F0078FF6F
:1016E00070F06F0074FF71F0600014F10CF0600096
:1016F00018F10DF06000C0F10EF06000C4F10FF0C1
:10170000BEEC2BF0600030F045F0600034F046F0A5
:10171000120060001FF1D9FF600023F1DAFF6F00B3
:101720007BFFF6FF6F0077FFF7FFF86A0800F550C0
:10173000780AD8B412D060001FF1D9FF600023F1FD
:10174000DAFF6F007BFFF6FF6F0077FFF7FFF86AA5
:101750000800F550580AD8A46DD060001FF1D9FFD9
:10176000600023F1DAFF6F007BFFF6FF6F0077FF69
:10177000F7FFF86A08006F00D4FF76F060001FF1F1
:10178000D9FF600023F1DAFFDE2A000EDD226000BF
:1017900027F1D9FF60002BF1DAFF6F007CFF4BF0DF
:1017A000020EDE266F007CFF4CF0000EDD22600092
:1017B0002FF1D9FF600033F1DAFF6F0078FF4DF0B1
:1017C0006F0074FF4EF0600034F168F0600038F193
:1017D00069F000016A6B6B6B6C6B6D6B6E6B6F6BA2
:1017E000600014F11EF0600018F11FF06000A0F11D
:1017F00020F06000A4F121F06000A8F122F0600068
:10180000ACF123F06000B0F124F06000B4F125F0F9
:101810006000B8F126F06000BCF127F06000D8F15C
:1018200028F09EEC1EF0600078F045F060007CF03F
:1018300046F0120060001FF1D9FF600023F1DAFFCB
:101840006F007BFFF6FF6F0077FFF7FFF86A080075
:10185000F550250AD8A41AD060001FF1D9FF600006
:1018600023F1DAFFDE2A000EDD22000E046E250EC3
:10187000036E600014F105F0600018F106F091ECC1
:1018800041F0000E466E010E456E120060001FF121
:10189000D9FF600023F1DAFFDE2A000EDD22000E00
:1018A000466E000E456E120060001FF1D9FF600009
:1018B00023F1DAFF6F007BFFF6FF6F0077FFF7FF82
:1018C000F86A0800F550036E046A600014F105F030
:1018D000600018F106F091EC41F060001FF1D9FFB3
:1018E000600023F1DAFFDE2A000EDD22CAD7600095
:1018F0002BF5D9FF60002FF5DAFF6F007BFFF6FFB5
:101900006F0077FFF7FFF86A0800F550250AD8A4A2
:10191000B4D260002BF5D9FF60002FF5DAFFDE2A84
:10192000000EDD22000EC86F000EC76FC7C1CBF1DD
:10193000C8C1CCF1C969CA69000E656F000E16D026
:10194000CB8107D0CB8305D0CB8503D0CB8701D00B
:10195000CB8960002BF5D9FF60002FF5DAFFDE2A76
:10196000000EDD222BD0000E656F010E646F26D0B5
:1019700060002BF5D9FF60002FF5DAFF6F007BFFC9
:10198000F6FF6F0077FFF7FFF86A0800F5504E6F1B
:101990004F6B4F51000AD8A4E6D74E51200AD8B455
:1019A000D5D7030AD8B4D4D7080AD8B4CDD7060AF5
:1019B000D8B4C6D71D0AD8B4C5D7D5D764516511D8
:1019C000D8B4D6D7CBB1CB9360002BF5D9FF60004C
:1019D0002FF5DAFF6F007BFFF6FF6F0077FFF7FF51
:1019E000F86A0800F5502A0AD8A42DD060002BF51B
:1019F000D9FF60002FF5DAFFDE2A000EDD2260003D
:101A000033F5D9FF600037F5DAFF6F007CFF4EF148
:101A1000020EDE266F007CFF4FF1000EDD2260001B
:101A20003BF5D9FF60003FF5DAFF6F0078FFC7F1A3
:101A30006F0074FFC8F1C8AF4CD0CB81C76DC81F11
:101A4000D8B0C82B46D060002BF5D9FF60002FF529
:101A5000DAFF6F0078FF0BF16F0074FF0CF1EBEC15
:101A60002DF060002CF4C7F1600030F4C8F109D00B
:101A700060002BF5D9FF60002FF5DAFFDE2A000E9B
:101A8000DD22D00E4E6FFF0E4F6F60002BF5D9FF99
:101A900060002FF5DAFF6F007BFFF6FF6F0077FF26
:101AA000F7FFF86A0800F550506F516B4E51502700
:101AB0004F515123515106E10A0E505DD8B002D06A
:101AC000010E01D0000E666F676B66516711D8A4D6
:101AD000CFD760002BF5D9FF60002FF5DAFF6F003C
:101AE0007BFFF6FF6F0077FFF7FFF86A0800F550FD
:101AF000630AD8A433D060002BF5D9FF60002FF51E
:101B0000DAFFDE2A000EDD22600033F5D9FF600027
:101B100037F5DAFF6F007CFF4EF1020EDE266F0014
:101B20007CFF4FF1000EDD2260003BF5D9FF600025
:101B30003FF5DAFFDF50686F600020F521F16000AB
:101B400024F522F16000A0F523F12DEC4AF06000AD
:101B500084F448F1600088F449F1120060002BF52C
:101B6000D9FF60002FF5DAFF6F007BFFF6FF6F00F3
:101B700077FFF7FFF86A0800F550640AD8B412D06E
:101B800060002BF5D9FF60002FF5DAFF6F007BFFB7
:101B9000F6FF6F0077FFF7FFF86A0800F550690A53
:101BA000D8A455D060002BF5D9FF60002FF5DAFFDF
:101BB000DE2A000EDD22600033F5D9FF600037F524
:101BC000DAFF6F007CFF4EF1020EDE266F007CFF15
:101BD0004FF1000EDD2260003BF5D9FF60003FF5BC
:101BE000DAFF6F0078FF52F16F0074FF53F1000EBF
:101BF00053BFFF0E546F556F566F576F586F596F25
:101C0000600020F521F1600024F522F1600048F524
:101C100023F160004CF524F1600050F525F16000DF
:101C200054F526F1600058F527F160005CF528F1C5
:101C3000600060F529F1600064F52AF147EC1DF0C1
:101C4000600084F448F1600088F449F112006000FB
:101C50002BF5D9FF60002FF5DAFF6F007BFFF6FF51
:101C60006F0077FFF7FFF86A0800F550730AD8A4F1
:101C70003AD060002BF5D9FF60002FF5DAFFDE2A9D
:101C8000000EDD22600033F5D9FF600037F5DAFF82
:101C90006F007CFF4EF1020EDE266F007CFF4FF1DD
:101CA000000EDD2260003BF5D9FF60003FF5DAFF52
:101CB0006F0078FF62F16F0074FF63F1600020F540
:101CC0000FF1600024F510F1600088F511F160005B
:101CD0008CF512F102EC2BF060003CF448F160004E
:101CE00040F449F1120060002BF5D9FF60002FF598
:101CF000DAFF6F007BFFF6FF6F0077FFF7FFF86AF0
:101D00000800F550780AD8B412D060002BF5D9FF3E
:101D100060002FF5DAFF6F007BFFF6FF6F0077FFA3
:101D2000F7FFF86A0800F550580AD8A46CD0600094
:101D30002BF5D9FF60002FF5DAFF6F007BFFF6FF70
:101D40006F0077FFF7FFF86A08006F00D4FF68F1B3
:101D500060002BF5D9FF60002FF5DAFFDE2A000EB8
:101D6000DD22600033F5D9FF600037F5DAFF6F0040
:101D70007CFF4EF1020EDE266F007CFF4FF1000E5D
:101D8000DD2260003BF5D9FF60003FF5DAFF6F0010
:101D900078FF50F16F0074FF51F1600040F55AF187
:101DA000600044F55BF15C6B5D6B5E6B5F6B606B61
:101DB000616B600020F521F1600024F522F16000E4
:101DC00068F523F160006CF524F1600070F525F1F1
:101DD000600074F526F1600078F527F160007CF56D
:101DE00028F1600080F529F1600084F52AF1600097
:101DF000A0F52BF1DFEC1FF0600084F448F16000E7
:101E000088F449F1120060002BF5D9FF60002FF52E
:101E1000DAFF6F007BFFF6FF6F0077FFF7FFF86ACE
:101E20000800F550250AD8A41AD060002BF5D9FF78
:101E300060002FF5DAFFDE2A000EDD22000E076FAC
:101E4000250E066F600020F508F1600024F509F109
:101E50001FEC3FF0000E496F010E486F120060004A
:101E60002BF5D9FF60002FF5DAFFDE2A000EDD2208
:101E7000000E496F000E486F120060002BF5D9FF6D
:101E800060002FF5DAFF6F007BFFF6FF6F0077FF32
:101E9000F7FFF86A0800F550066F076B600020F541
:101EA00008F1600024F509F11FEC3FF060002BF50C
:101EB000D9FF60002FF5DAFFDE2A000EDD22CAD737
:101EC0000001FA51D8A41FD00301E551D8A40BD0CA
:101ED000E50E0001776F030E786FCE0E796FFE0E60
:101EE0007A6F6AEC4CF00301D151D8A41200D10EE4
:101EF0000001776F030E786FBD0E796FFE0E7A6F5B
:101F00006AEC4CF012007AEC56F0600004F0B0F08D
:101F1000600008F0B1F0C8EC56F0600004F0B2F0D8
:101F2000600008F0B3F073EC56F0600004F0BBF012
:101F3000600008F0BCF0C2EC56F0600004F0B9F0AC
:101F4000600008F0BAF06000ECF207F06000F0F218
:101F500008F0030E0A6EE80E096EC1EC45F007505A
:101F60000001A76FA751016E026A01BE0206FC0EB6
:101F7000046E180E036EBAEC51F00001BB5101243F
:101F8000076EBC510220086E000E0A6E0A0E096E22
:101F9000C1EC45F06000E4F207F06000E8F208F000
:101FA000030E0A6EE80E096EC1EC45F00750000101
:101FB000A86FA851016E026A01BE0206FC0E046EF3
:101FC000180E036EBAEC51F00001B9510124076EEE
:101FD000BA510220086E000E0A6E0A0E096EC1EC9C
:101FE00045F088EC56F086EC29F060003CF09BF060
:101FF000600040F09CF044EC2AF060003CF09DF062
:10200000600040F09EF06000C0F207F06000C4F293
:1020100008F0030E0A6EE80E096EC1EC45F0075099
:102020000001B46FB451016E026A01BE0206FC0EDB
:10203000046E180E036EBAEC51F00001B051012489
:10204000076EB1510220086E000E0A6E0A0E096E6C
:10205000C1EC45F007500001A96F6000C8F207F01D
:102060006000CCF208F0030E0A6EE80E096EC1ECB7
:1020700045F007500001B56FB551016E026A01BE0F
:102080000206FC0E046E180E036EBAEC51F000014D
:10209000B2510124076EB3510220086E000E0A6E81
:1020A0000A0E096EC1EC45F007500001AA6FBB5142
:1020B000BC11D8B427D0000E0A6E0A0E096E60005B
:1020C000ECF207F06000F0F208F0C1EC45F06000BF
:1020D0001CF0A5F0600020F0A6F06000E4F207F02C
:1020E0006000E8F208F0600094F209F0600098F2F5
:1020F0000AF0C1EC45F060001CF0B7F0600020F081
:10210000B8F004D0000EB86F000EB76F6000DCF2BC
:1021100007F06000E0F208F0000E0A6E0A0E096E89
:10212000C1EC45F007500001B66FB651F60DF35003
:10213000B725AB6F6FEC52F082EC52F06CEC56F0BE
:10214000600004F09FF0600008F0A0F095EC52F001
:1021500060003CF0A1F0600040F0A2F081EC56F08D
:10216000600004F0A3F0600008F0A4F00001FB514F
:10217000D8A409D093EC4CF0600014F0ACF06000EF
:1021800018F0ADF004D0F90EAC6FFF0EAD6FCEECD1
:1021900057F00009D8A404D0000EAF6F200E03D072
:1021A000000EAF6F640EAE6FE50E776F030E786FA3
:1021B000670E796FFE0E7A6F60008CF27BF0600024
:1021C00090F27CF0B5517D6F7E6B7DBF7E07AA518A
:1021D0007F6F806B7FBF8007B451816F826B81BF3F
:1021E0008207A951836F846B83BF84076000B8F2B4
:1021F00085F06000BCF286F06000B0F287F060000D
:10220000B4F288F06AEC4CF0BD0E776F030E786F75
:10221000810E796FFE0E7A6FB6517B6F7C6B7BBF40
:102220007C07AB517D6F7E6B7DBF7E07600074F2D3
:102230007FF0600078F280F060006CF281F0600066
:1022400070F282F0600084F283F0600088F284F023
:1022500060007CF285F0600080F286F06AEC4CF061
:102260000201884B892B600020FA01F0600024FAFB
:1022700002F0000E046E0A0E036E3BEC47F06000A5
:1022800004F088F2600008F089F212000001FA51AF
:10229000D8A41FD00301E551D8A40BD0E50E01014D
:1022A000716F030E726FCE0E736FFE0E746FEDECD6
:1022B0004AF00301D151D8A41200D10E0101716F6F
:1022C000030E726FBD0E736FFE0E746FEDEC4AF06D
:1022D000120042EC56F0600010F4AAF1600014F411
:1022E000ABF1BCEC56F0600010F4ACF1600014F4FB
:1022F000ADF12AEC55F0600010F4B5F1600014F473
:10230000B6F134EC55F0600010F4B3F1600014F451
:10231000B4F16000D4F60AF16000D8F60BF1030EB8
:102320000D6FE80E0C6F7DEC45F00A51A16FA151C5
:10233000046F056B04BF0507FC0E076F180E066FD0
:102340005EEC51F0B55104250A6FB65105210B6FB3
:10235000000E0D6F0A0E0C6F7DEC45F06000CCF6A0
:102360000AF16000D0F60BF1030E0D6FE80E0C6F52
:102370007DEC45F00A51A26FA251046F056B04BFBA
:102380000507FC0E076F180E066F5EEC51F0B35197
:1023900004250A6FB45105210B6F000E0D6F0A0E54
:1023A0000C6F7DEC45F050EC56F00AEC28F0600024
:1023B00048F495F160004CF496F1C8EC28F0600008
:1023C00048F497F160004CF498F16000A8F60AF127
:1023D0006000ACF60BF1030E0D6FE80E0C6F7DEC98
:1023E00045F00A51AE6FAE51046F056B04BF05078F
:1023F000FC0E076F180E066F5EEC51F0AA51042513
:102400000A6FAB5105210B6F000E0D6F0A0E0C6F9A
:102410007DEC45F00A51A36F6000B0F60AF1600050
:10242000B4F60BF1030E0D6FE80E0C6F7DEC45F06A
:102430000A51AF6FAF51046F056B04BF0507FC0E67
:10244000076F180E066F5EEC51F0AC5104250A6F51
:10245000AD5105210B6F000E0D6F0A0E0C6F7DEC58
:1024600045F00A51A46FB551B611D8B427D0000E6B
:102470000D6F0A0E0C6F6000D4F60AF16000D8F6FA
:102480000BF17DEC45F0600028F49FF160002CF426
:10249000A0F16000CCF60AF16000D0F60BF160000C
:1024A0007CF60CF1600080F60DF17DEC45F06000EB
:1024B00028F4B1F160002CF4B2F104D0000EB26F38
:1024C000000EB16F6000C4F60AF16000C8F60BF1AF
:1024D000000E0D6F0A0E0C6F7DEC45F00A51B06FC7
:1024E000B051F60DF350B125A56F36EC52F049EC22
:1024F00052F03BEC56F0600010F499F1600014F4D7
:102500009AF15CEC52F0600048F49BF160004CF4EE
:102510009CF149EC56F0600010F49DF1600014F459
:102520009EF10001FB51D8A409D041EC4CF06000B1
:1025300020F4A6F1600024F4A7F105D0F90E010102
:10254000A66FFF0EA76FB9EC57F00009D8A405D00D
:10255000000E0101A96F200E04D0000E0101A96F29
:10256000640EA86FE50E716F030E726F670E736FC6
:10257000FE0E746F600074F675F1600078F676F107
:10258000AF51776F786B77BF7807A451796F7A6B0B
:1025900079BF7A07AE517B6F7C6B7BBF7C07A35101
:1025A0007D6F7E6B7DBF7E076000A0F67FF16000CF
:1025B000A4F680F1600098F681F160009CF682F14B
:1025C000EDEC4AF0BD0E716F030E726F810E736FEA
:1025D000FE0E746FB051756F766B75BF7607A5519F
:1025E000776F786B77BF780760005CF679F16000F1
:1025F00060F67AF1600054F67BF1600058F67CF1E9
:1026000060006CF67DF1600070F67EF1600064F6AB
:102610007FF1600068F680F1EDEC4AF00201884B32
:10262000892B600020FA04F1600024FA05F1000E05
:102630000101076F0A0E066F01EC47F0600010F40D
:1026400088F2600014F489F212000001F551D8B448
:1026500026D0F451D8B40ED073EC57F0000E836F2F
:10266000000E826FC60E0001776FFF0E786FBBEC15
:1026700052F015D0020183BF09D0835104E1030E4B
:10268000825DD8A003D0C2EC57F002D0824B832BDE
:10269000CB0E0001776FFF0E786FBBEC52F089EC28
:1026A00055F018EC58F07E0E016EAF0E026E57EC2E
:1026B00056F08AD1BD0E4AEC54F0330EE8EC56F0D9
:1026C0000101F32B16EC58F01200330EE8EC56F033
:1026D000F7D7EE0E4AEC54F0330EE8EC56F0F0D794
:1026E000FF0EE8EC56F0ECD7FF0EE8EC56F0000ECB
:1026F0000101F36FE7D7330EE8EC56F0F8D701018C
:10270000F3515B6E5C6A5C50000AD8A4F4D75B504E
:10271000000AD8B4CFD7010AD8B4D7D7030AD8B49F
:10272000D8D7010AD8B4DCD7070AD8B4D9D7010A58
:10273000D8B4D6D7030AD8B4D3D7010AD8B4D0D7DF
:102740000F0AD8B4CDD7010AD8B4CAD7030AD8B46F
:10275000C7D7010AD8B4C4D7070AD8B4C1D7010A69
:10276000D8B4BED7030AD8B4BBD7010AD8B4B8D7F7
:102770001F0AD8B4B5D7010AD8B4B2D7030AD8B45F
:10278000B3D7B9D7EE0E4AEC54F0330EE8EC56F05E
:1027900097D7330EE8EC56F093D78D0E4AEC54F0F1
:1027A000330EE8EC56F08CD7330EE8EC56F088D7B1
:1027B000B20E4AEC54F0330EE8EC56F081D7FF0E1F
:1027C000E8EC56F07DD7FF0EE8EC56F090D7330ECC
:1027D000E8EC56F08CD70101F3515B6E5C6A5C50FB
:1027E000000AD8A4F4D75B50000AD8B4CBD7010AAA
:1027F000D8B4CFD7030AD8B4D0D7010AD8B4D4D725
:10280000070AD8B4D5D7010AD8B4D9D7030AD8B49F
:10281000D6D7010AD8B4D3D70F0AD8B4D0D7010A73
:10282000D8B4CDD7030AD8B4CAD7010AD8B4C7D709
:10283000070AD8B4C8D7CBD7EE0E4AEC54F02E0E08
:10284000E8EC56F03DD71A0EE8EC56F039D78D0E6D
:102850004AEC54F02E0EE8EC56F032D71A0EE8ECA3
:1028600056F02ED7B20E4AEC54F02E0EE8EC56F08D
:1028700027D7660EE8EC56F023D78D0E4AEC54F0BD
:102880002E0EE8EC56F01CD71A0EE8EC56F018D7CE
:10289000B20E4AEC54F02E0EE8EC56F011D7FF0EB3
:1028A000E8EC56F00DD7EE0E4AEC54F02E0EE8ECA4
:1028B00056F006D71A0EE8EC56F002D78D0E4AEC09
:1028C00054F02E0EE8EC56F0FBD61A0EE8EC56F05B
:1028D000F7D6B20E4AEC54F02E0EE8EC56F0F0D6D5
:1028E000660EE8EC56F0ECD68D0E4AEC54F02E0E47
:1028F000E8EC56F0E5D61A0EE8EC56F0E1D6B20E4A
:102900004AEC54F02E0EE8EC56F0DAD6FF0EE8EC66
:1029100056F0D6D6FF0EE8EC56F0E9D6330EE8ECCA
:1029200056F0E5D60101F3515B6E5C6A5C50000A1B
:10293000D8A4F4D75B50000AD8B47ED7010AD8B423
:1029400082D7030AD8B483D7010AD8B487D7070A35
:10295000D8B488D7010AD8B48CD7030AD8B48DD795
:10296000010AD8B491D70F0AD8B492D7010AD8B4C3
:1029700096D7030AD8B497D7010AD8B49BD7070AC9
:10298000D8B49CD7010AD8B4A0D7030AD8B4A1D729
:10299000010AD8B4A5D71F0AD8B4A6D7010AD8B45B
:1029A000AAD7030AD8B4ABD7010AD8B4AFD7070A5D
:1029B000D8B4ACD7010AD8B4A9D7030AD8B4AAD7D7
:1029C000ADD789EC55F012000001F6515B6E5C6AE0
:1029D0005C50000AD8A4F5D75B50000AD8B4F1D7F0
:1029E000010AD8B48CD6030AD8B4F5D6060AD8B4EE
:1029F00099D7E7D70001F551D8B426D0F451D8B40F
:102A00000ED03BEC57F0000E836F000E826FC60EA7
:102A10000101716FFF0E726FE6EC51F015D00201EB
:102A200083BF09D0835104E1030E825DD8A003D097
:102A300037EC57F002D0824B832BCB0E0101716F24
:102A4000FF0E726FE6EC51F079EC55F014EC58F093
:102A50007E0E0101046FAF0E056F34EC56F087D186
:102A6000BD0E2CEC54F0330EB0EC56F00101F32BFC
:102A700012EC58F01200330EB0EC56F0F7D7EE0E11
:102A80002CEC54F0330EB0EC56F0F0D7FF0EB0EC57
:102A900056F0ECD7FF0EB0EC56F0000E0101F36FCC
:102AA000E7D7330EB0EC56F0F8D7F351836F846B51
:102AB0008451000AD8A4F5D78351000AD8B4D0D7DE
:102AC000010AD8B4D8D7030AD8B4D9D7010AD8B4E0
:102AD000DDD7070AD8B4DAD7010AD8B4D7D7030AA2
:102AE000D8B4D4D7010AD8B4D1D70F0AD8B4CED726
:102AF000010AD8B4CBD7030AD8B4C8D7010AD8B4CE
:102B0000C5D7070AD8B4C2D7010AD8B4BFD7030AB9
:102B1000D8B4BCD7010AD8B4B9D71F0AD8B4B6D72D
:102B2000010AD8B4B3D7030AD8B4B4D7BAD7EE0ED3
:102B30002CEC54F0330EB0EC56F098D7330EB0ECCA
:102B400056F094D78D0E2CEC54F0330EB0EC56F0BA
:102B50008DD7330EB0EC56F089D7B20E2CEC54F072
:102B6000330EB0EC56F082D7FF0EB0EC56F07ED7A5
:102B7000FF0EB0EC56F091D7330EB0EC56F08DD777
:102B8000F351836F846B8451000AD8A4F5D7835125
:102B9000000AD8B4CCD7010AD8B4D0D7030AD8B425
:102BA000D1D7010AD8B4D5D7070AD8B4D6D7010AE5
:102BB000D8B4DAD7030AD8B4D7D7010AD8B4D4D74F
:102BC0000F0AD8B4D1D7010AD8B4CED7030AD8B4E3
:102BD000CBD7010AD8B4C8D7070AD8B4C9D7CCD73D
:102BE000EE0E2CEC54F02E0EB0EC56F03FD71A0E31
:102BF000B0EC56F03BD78D0E2CEC54F02E0EB0EC12
:102C000056F034D71A0EB0EC56F030D7B20E2CEC8A
:102C100054F02E0EB0EC56F029D7660EB0EC56F0FC
:102C200025D78D0E2CEC54F02E0EB0EC56F01ED79E
:102C30001A0EB0EC56F01AD7B20E2CEC54F02E0E41
:102C4000B0EC56F013D7FF0EB0EC56F00FD7EE0EE7
:102C50002CEC54F02E0EB0EC56F008D71A0EB0EC57
:102C600056F004D78D0E2CEC54F02E0EB0EC56F02E
:102C7000FDD61A0EB0EC56F0F9D6B20E2CEC54F08C
:102C80002E0EB0EC56F0F2D6660EB0EC56F0EED644
:102C90008D0E2CEC54F02E0EB0EC56F0E7D61A0E3A
:102CA000B0EC56F0E3D6B20E2CEC54F02E0EB0EC95
:102CB00056F0DCD6FF0EB0EC56F0D8D6FF0EB0ECD6
:102CC00056F0EBD6330EB0EC56F0E7D6F351836FE7
:102CD000846B8451000AD8A4F5D78351000AD8B474
:102CE0007FD7010AD8B483D7030AD8B484D7010A9E
:102CF000D8B488D7070AD8B489D7010AD8B48DD7F1
:102D0000030AD8B48ED7010AD8B492D70F0AD8B420
:102D100093D7010AD8B497D7030AD8B498D7010A31
:102D2000D8B49CD7070AD8B49DD7010AD8B4A1D784
:102D3000030AD8B4A2D7010AD8B4A6D71F0AD8B4B8
:102D4000A7D7010AD8B4ABD7030AD8B4ACD7010AC5
:102D5000D8B4B0D7070AD8B4ADD7010AD8B4AAD727
:102D6000030AD8B4ABD7AED779EC55F01200000106
:102D7000F6510101836F846B8451000AD8A4F4D703
:102D80008351000AD8B4F0D7010AD8B48ED6030A0A
:102D9000D8B4F6D6060AD8B499D7E6D735EC4EF0B3
:102DA000000E30EC50F0010E4AEC50F0000E6A6E4E
:102DB000D28E770E0101716FFF0E726FE6EC51F04B
:102DC000D4EC56F0A4EC56F089EC46F075EC47F0E4
:102DD00056EC4EF0D1EC51F05FEC44F0E8EC41F0F1
:102DE00048EC27F06F00C0FFC6F1C00E0101C61706
:102DF000D8B406D04D0E716FFF0E726FE6EC51F035
:102E000002012651271128112911D8A407D0EC0E50
:102E10000101716FFF0E726FE6EC51F0010E262575
:102E20000101046F000E020127210101056F000E50
:102E3000020128210101066F000E02012921010172
:102E4000076FE00E086F930E096F040E0A6F000EF5
:102E50000B6F1FEC48F0600010F426F2600014F4D1
:102E600027F2600018F428F260001CF429F2A1ECAB
:102E700055F00009D8B4B2D79BEC57F00301F96FB5
:102E8000610EF919D8A403D0410EF2EC44F0620EA1
:102E90000301F919D8A403D0420EF2EC44F0630EFA
:102EA0000301F919D8A403D0430EF2EC44F0640EE8
:102EB0000301F919D8A403D0440EF2EC44F0650ED6
:102EC0000301F919D8A403D0450EF2EC44F0660EC4
:102ED0000301F919D8A403D0460EF2EC44F06F0EAA
:102EE0000301F919D8A403D04F0EF2EC44F0740E8C
:102EF0000301F919D8B45FEC44F0680E0301F91925
:102F0000D8B494EC35F06D0E0301F919D8B490ECF7
:102F100024F0690E0301F919D8B426EC58F0760EA6
:102F2000F919D8A403D0000E30EC50F0560E03016E
:102F3000F919D8A403D0010E30EC50F0300E030183
:102F4000F919D8A407D0000E0101846F000E836F19
:102F50003AEC41F0310E0301F919D8A407D0000E64
:102F60000101846F010E836F3AEC41F0320E0301D0
:102F7000F919D8A407D0000E0101846F020E836FE7
:102F80003AEC41F0330E0301F919D8A407D0000E32
:102F90000101846F030E836F3AEC41F0340E03019C
:102FA000F919D8A407D0000E0101846F040E836FB5
:102FB0003AEC41F0350E0301F919D8A407D0000E00
:102FC0000101846F050E836F3AEC41F0360E030168
:102FD000F919D8A407D0000E0101846F060E836F83
:102FE0003AEC41F0370E0301F919D8A407D0000ECE
:102FF0000101846F070E836F3AEC41F0380E030134
:10300000F919D8A407D0000E0101846F080E836F50
:103010003AEC41F0390E0301F919D8A407D0000E9B
:103020000101846F090E836F3AEC41F0470E0301F2
:10303000F919D8A403D0010E30EC50F0670E03014B
:10304000F919D8A403D0000E30EC50F0520E030151
:10305000F919D8B423EC57F0720E0301F919D8B45A
:1030600027EC57F0640E0301F919D8B42FEC57F090
:10307000440E0301F919D8B42BEC57F06C0E030180
:10308000F919D8A427D03A0E0101716FFD0E726FA5
:103090005BEC2FF0600078F473F160007CF474F165
:1030A000FEEC3AF0600078F475F160007CF476F1A3
:1030B00019EC36F0600078F477F160007CF478F178
:1030C0006DEC3BF0600078F479F160007CF47AF10B
:1030D000E6EC51F0700E0301F919D8B48EEC18F03B
:1030E0007A0E0301F919D8A403D0000E03EC35F0D1
:1030F0005A0E0301F919D8A403D0010E03EC35F0E0
:103100006F0E0301F919D8B4D9EC56F04F0E030134
:10311000F919D8A463D6D4EC56F060D6570E010145
:10312000716FFC0E726FD890020160350101736FF0
:10313000020161350101746FD8900001DA35010197
:10314000756F0001DB350101766FD890E135776F3F
:10315000E235786FD89002015E350101796F020186
:103160005F3501017A6FD8900001D83501017B6F7E
:103170000001D93501017C6FD8900001DC350101D7
:103180007D6F0001DD3501017E6FE6EC51F0470EE9
:103190000101716FFE0E726FD89002015835010166
:1031A000736F020159350101746FD89002015635D1
:1031B0000101756F020157350101766FD890DF3537
:1031C000776FE035786FD890DD35796FDE357A6FBF
:1031D000E6EC51F0920E0101716FFD0E726F60000E
:1031E00058F30AF160005CF30BF1000E0D6F050E51
:1031F0000C6F7DEC45F0600028F473F160002CF456
:1032000074F160004CF70AF1600050F70BF1000E0A
:103210000D6F050E0C6F7DEC45F0600028F475F124
:1032200060002CF476F160006CF70AF1600070F732
:103230000BF1000E0D6F050E0C6F7DEC45F060007C
:1032400028F477F160002CF478F160005CF70AF163
:10325000600060F70BF1000E0D6F050E0C6F7DEC3A
:1032600045F0600028F479F160002CF47AF1E6EC86
:1032700051F0E30E0101716FFD0E726F600048F9AD
:103280000AF160004CF90BF1000E0D6F050E0C6F8A
:103290007DEC45F0600028F473F160002CF474F1CB
:1032A000600044F70AF1600048F70BF1000E0D6F63
:1032B000050E0C6F7DEC45F0600028F475F16000A0
:1032C0002CF476F1600064F70AF1600068F70BF106
:1032D000000E0D6F050E0C6F7DEC45F0600028F4BC
:1032E00077F160002CF478F1600054F70AF1600087
:1032F00058F70BF1000E0D6F050E0C6F7DEC45F0CD
:10330000600028F479F160002CF47AF1E6EC51F0D9
:10331000BB0E0101716FFD0E726F60003CF70AF188
:10332000600040F70BF1000E0D6F050E0C6F7DEC89
:1033300045F0600028F473F160002CF474F1600033
:1033400034F70AF1600038F70BF1000E0D6F050E2F
:103350000C6F7DEC45F0600028F475F160002CF4F2
:1033600076F160008CF777F1600090F778F1E6EC89
:1033700051F0CF0E0101716FFC0E726F6000E8F723
:103380000AF16000ECF70BF1000E0D6F080E0C6FE8
:103390007DEC45F0600028F473F160002CF474F1CA
:1033A0006000E0F70AF16000E4F70BF1000E0D6F2A
:1033B000080E0C6F7DEC45F0600028F475F160009C
:1033C0002CF476F119EC36F0600078F477F16000B7
:1033D0007CF478F16DEC3BF0600078F479F16000FA
:1033E0007CF47AF1E6EC51F0670E0101716FFD0E8D
:1033F000726F6000A8F90AF16000ACF90BF1000EE1
:103400000D6F050E0C6F7DEC45F0600028F473F134
:1034100060002CF474F16000A4F70AF16000A8F7D2
:103420000BF1000E0D6F050E0C6F7DEC45F060008A
:1034300028F475F160002CF476F160009CF70AF135
:103440006000A0F70BF1000E0D6F050E0C6F7DEC08
:1034500045F0600028F477F160002CF478F160000A
:1034600098F979F160009CF97AF1600090F97BF1AC
:10347000600094F97CF1E6EC51F01200570E000167
:10348000776FFC0E786FD890020160350001796F7C
:103490000201613500017A6FD890DA357B6FDB3538
:1034A0007C6FD8900101E13500017D6F0101E235AB
:1034B00000017E6FD89002015E3500017F6F02012E
:1034C0005F350001806FD890D835816FD935826F14
:1034D000D890DC35836FDD35846FBBEC52F0470E3E
:1034E0000001776FFE0E786FD89002015835000109
:1034F000796F0201593500017A6FD8900201563573
:1035000000017B6F0201573500017C6FD8900101EB
:10351000DF3500017D6F0101E03500017E6FD8903D
:103520000101DD3500017F6F0101DE350001806F93
:10353000BBEC52F0920E0001776FFD0E786F6000C9
:1035400058F307F060005CF308F0000E0A6E050EF9
:10355000096EC1EC45F060001CF079F0600020F0CD
:103560007AF060004CF707F0600050F708F0000EAA
:103570000A6E050E096EC1EC45F060001CF07BF090
:10358000600020F07CF060006CF707F0600070F7DE
:1035900008F0000E0A6E050E096EC1EC45F06000E1
:1035A0001CF07DF0600020F07EF060005CF707F01A
:1035B000600060F708F0000E0A6E050E096EC1EC9F
:1035C00045F060001CF07FF0600020F080F0BBEC64
:1035D00052F0E30E0001776FFD0E786F600048F93E
:1035E00007F060004CF908F0000E0A6E050E096E37
:1035F000C1EC45F060001CF079F0600020F07AF03A
:10360000600044F707F0600048F708F0000E0A6E0B
:10361000050E096EC1EC45F060001CF07BF0600007
:1036200020F07CF0600064F707F0600068F708F0B5
:10363000000E0A6E050E096EC1EC45F060001CF02C
:103640007DF0600020F07EF0600054F707F060002D
:1036500058F708F0000E0A6E050E096EC1EC45F031
:1036600060001CF07FF0600020F080F0BBEC52F0B6
:10367000BB0E0001776FFD0E786F60003CF707F01E
:10368000600040F708F0000E0A6E050E096EC1ECEE
:1036900045F060001CF079F0600020F07AF06000E6
:1036A00034F707F0600038F708F0000E0A6E050ED8
:1036B000096EC1EC45F060001CF07BF0600020F06A
:1036C0007CF060008CF77DF0600090F77EF0BBEC42
:1036D00052F0CF0E0001776FFC0E786F6000E8F7B4
:1036E00007F06000ECF708F0000E0A6E080E096E95
:1036F000C1EC45F060001CF079F0600020F07AF039
:103700006000E0F707F06000E4F708F0000E0A6ED2
:10371000080E096EC1EC45F060001CF07BF0600003
:1037200020F07CF01FEC37F060006CF07DF0600062
:1037300070F07EF047EC3CF060006CF07FF06000D1
:1037400070F080F0BBEC52F0670E0001776FFD0E59
:10375000786F6000A8F907F06000ACF908F0000E7F
:103760000A6E050E096EC1EC45F060001CF079F0A0
:10377000600020F07AF06000A4F707F06000A8F77E
:1037800008F0000E0A6E050E096EC1EC45F06000EF
:103790001CF07BF0600020F07CF060009CF707F0EC
:1037A0006000A0F708F0000E0A6E050E096EC1EC6D
:1037B00045F060001CF07DF0600020F07EF06000BD
:1037C00098F97FF060009CF980F0600090F981F03A
:1037D000600094F982F0BBEC52F01200600080F0BF
:1037E00038F0600084F039F0600088F03AF0600052
:1037F0008CF03BF0600090F03CF0600094F03DF005
:10380000600098F03EF060009CF03FF03FAE02D0C8
:10381000010E01D0000E366E376A36503710D8B41C
:1038200010D03F1E3E1E3D1E3C1E3B1E3A1E391E42
:10383000386C000E39223A223B223C223D223E22A5
:103840003F220101CAAFCB93CABF05D0CA5108E1DC
:10385000C905D8B005D0000E336E010E326E06D009
:10386000600024F732F0600028F733F060001CF7A6
:1038700034F0600020F735F036503710D8A402D06D
:10388000CBA503D03406D8A03506000E416E1F0E1E
:10389000406E000E0301A86F9ED04006D8A04106DE
:1038A000890E4024D96E030E4120DA6E6000E0F0EC
:1038B00001F06000E4F002F06000E8F003F0600066
:1038C000ECF004F06000F0F005F06000F4F006F0B9
:1038D0006000F8F007F06000FCF008F00A0E096ED6
:1038E000000E0A6E000E0B6E000E0C6E000E0D6EBA
:1038F000000E0E6E000E0F6E000E106ED6EC33F042
:10390000600004F028F0600008F029F060000CF07E
:103910002AF0600010F02BF0600014F02CF0600032
:1039200018F02DF060001CF02EF0600020F02FF059
:103930006000A0F013F06000A8F014F030EC4FF03D
:103940001350300FDF6E3206D8A033063406D8A0ED
:1039500035066000E0F001F06000E4F002F0600085
:10396000E8F003F06000ECF004F06000F0F005F027
:103970006000F4F006F06000F8F007F06000FCF082
:1039800008F00A0E096E000E0A6E000E0B6E000E95
:103990000C6E000E0D6E000E0E6E000E0F6E000E01
:1039A000106EB4EC30F0600004F038F0600008F005
:1039B00039F060000CF03AF0600010F03BF060006D
:1039C00014F03CF0600018F03DF060001CF03EF098
:1039D000600020F03FF041BE20D0415003E14004A0
:1039E000D8A01BD0385039103A103B103C103D1075
:1039F0003E103F10D8A451D733BE05D0335002E15A
:103A00003204D8B04AD735BE08D0355003E134046B
:103A1000D8A003D00101CBB340D736503710D8A47B
:103A200003D00101CBA518D04006D8A041063650DE
:103A30003710D8A404D0000E316E2B0E03D0000E28
:103A4000316E2D0E306E890E4024D96E030E41204A
:103A5000DA6E6000C3F0DFFF600078F013F0600002
:103A60007CF014F0890E4024156E030E4120166E72
:103A70006000D0F017F06000D4F018F07BEC3FF05D
:103A800060004CF01EF0600050F01FF0120060006B
:103A90008CF43BF1600090F43CF1600094F43DF153
:103AA000600098F43EF160009CF43FF16000A0F4E7
:103AB00040F16000A4F441F16000A8F442F142AF8B
:103AC00002D0010E01D0000E396F3A6B39513A1114
:103AD000D8B410D0421F411F401F3F1F3E1F3D1F43
:103AE0003C1F3B6D000E3C233D233E233F234023E0
:103AF00041234223CAAFCB93CABF05D0CA5108E1C4
:103B0000C905D8B005D0000E366F010E356F06D04E
:103B1000600024F735F1600028F736F160001CF7EB
:103B200037F1600020F738F139513A11D8A402D0AA
:103B3000CBA503D03707D8A03807000E446F1F0E5F
:103B4000436F000E0301A86F9ED04307D8A044071F
:103B5000890E4325D96E030E4421DA6E6000ECF421
:103B600004F16000F0F405F16000F4F406F1600087
:103B7000F8F407F16000FCF408F1600000F509F1C9
:103B8000600004F50AF1600008F50BF10A0E0C6FF5
:103B9000000E0D6F000E0E6F000E0F6F000E106FF7
:103BA000000E116F000E126F000E136FA2EC32F0B8
:103BB000600010F42BF1600014F42CF1600018F494
:103BC0002DF160001CF42EF1600020F42FF1600054
:103BD00024F430F1600028F431F160002CF432F16B
:103BE0006000ACF416F16000B4F417F1D3EC4EF0C1
:103BF0001651300FDF6E3507D8A036073707D8A02B
:103C000038076000ECF404F16000F0F405F16000A6
:103C1000F4F406F16000F8F407F16000FCF408F138
:103C2000600000F509F1600004F50AF1600008F594
:103C30000BF10A0E0C6F000E0D6F000E0E6F000ED2
:103C40000F6F000E106F000E116F000E126F000E3E
:103C5000136F08EC30F0600010F43BF1600014F4D6
:103C60003CF1600018F43DF160001CF43EF160008E
:103C700020F43FF1600024F440F1600028F441F1A9
:103C800060002CF442F1010144BF1FD0445103E114
:103C90004305D8A01AD03B513C113D113E113F11B4
:103CA000401141114211D8A450D736BF05D036512A
:103CB00002E13505D8B049D738BF07D0385103E104
:103CC0003705D8A002D0CBB340D739513A11D8A488
:103CD00002D0CBA518D04307D8A0440739513A11D8
:103CE000D8A404D0000E346F2B0E03D0000E346F16
:103CF0002D0E336F890E4325D96E030E4421DA6EE3
:103D00006000CFF4DFFF600084F416F1600088F4F7
:103D100017F1890E4325186F030E4421196F6000B7
:103D2000DCF41AF16000E0F41BF188EC40F0600074
:103D300058F421F160005CF422F112000101CAAFD5
:103D4000CB93CABF05D0CA5108E1C905D8B005D088
:103D5000000E366E010E356E06D0600024F735F089
:103D6000600028F736F060001CF737F0600020F79D
:103D700038F0CBA904D0FE0E3726FF0E38226000A3
:103D800080F039F0600084F03AF0600088F03BF099
:103D900060008CF03CF0600090F03DF0600094F02A
:103DA0003EF0600098F03FF060009CF040F0000EA4
:103DB000426E1F0E416E000E0301A86FA8D041068F
:103DC000D8A042060F0E3914436E446A44BE08D090
:103DD000445004E10A0E435CD8A002D0570E01D033
:103DE000300E4324436E000E4420446EBF0E296EF5
:103DF000FF0E2A6E28502B6E2C6A29502B262A5033
:103E00002C222C5006E11A0E2B5CD8B002D0010EE9
:103E100001D0000E316E326A31503210D8B42BD03E
:103E20009F0E296EFF0E2A6E200E43102B6E000E81
:103E300044102C6E29502B262A502C222C5006E19F
:103E40001A0E2B5CD8B002D0010E01D0000E336EDA
:103E5000346A33503410D8B40ED060000CF107F03F
:103E6000600010F108F0BCEC4CF060001CF043F076
:103E7000600020F044F0890E4124D96E030E4220E8
:103E8000DA6E60000FF1DFFF3506D8A03606370680
:103E9000D8A038066000E4F029F06000E8F02AF0CD
:103EA0006000ECF02BF06000F0F02CF06000F4F01B
:103EB0002DF06000F8F02EF06000FCF02FF06000B4
:103EC00000F130F0050E09D0D89030322F322E326A
:103ED0002D322C322B322A322932E82EF5D76000CF
:103EE000A4F039F06000A8F03AF06000ACF03BF0CC
:103EF0006000B0F03CF06000B4F03DF06000B8F05D
:103F00003EF06000BCF03FF06000C0F040F042BE08
:103F100021D0425004E1020E415CD8A01BD03950A0
:103F20003A103B103C103D103E103F104010D8A4FA
:103F300046D736BE05D0365002E13504D8B03FD75B
:103F400038BE08D0385003E13704D8A003D00101AF
:103F5000CBB335D70101CBA917D04106D8A0420673
:103F6000890E4124D96E030E4220DA6E6000A3F060
:103F7000DFFF4106D8A04206890E4124D96E030E08
:103F80004220DA6E300EDF6E600078F013F06000D1
:103F90007CF014F0890E4124156E030E4220166E3B
:103FA0006000DCF017F06000E0F018F07BEC3FF010
:103FB00060004CF01EF0600050F01FF01200CAAF1D
:103FC000CB93CABF05D0CA5108E1C905D8B005D006
:103FD000000E396F010E386F06D0600024F738F1FB
:103FE000600028F739F160001CF73AF1600020F713
:103FF0003BF1CBA904D0FE0E3A27FF0E3B23600015
:104000008CF43CF1600090F43DF1600094F43EF1DA
:10401000600098F43FF160009CF440F16000A0F46F
:1040200041F16000A4F442F16000A8F443F1000EF5
:10403000456F1F0E446F000E0301A86FA8D0440700
:10404000D8A045070F0E3C15466F476B47BF08D0F9
:10405000475104E10A0E465DD8A002D0570E01D0A8
:10406000300E4625466F000E4721476FBF0E2C6F5E
:10407000FF0E2D6F2B512E6F2F6B2C512E272D5194
:104080002F232F5106E11A0E2E5DD8B002D0010E5B
:1040900001D0000E346F356B34513511D8B42BD0AC
:1040A0009F0E2C6FFF0E2D6F200E46112E6F000EEF
:1040B00047112F6F2C512E272D512F232F5106E101
:1040C0001A0E2E5DD8B002D0010E01D0000E366F50
:1040D000376B36513711D8B40ED0600018F50AF19D
:1040E00060001CF50BF118EC4CF0600028F446F170
:1040F00060002CF447F1890E4425D96E030E45214A
:10410000DA6E60001BF5DFFF3807D8A039073A07E1
:10411000D8A03B076000F0F42CF16000F4F42DF11E
:104120006000F8F42EF16000FCF42FF1600000F55F
:1041300030F1600004F531F1600008F532F1600003
:104140000CF533F1050E09D0D890333332333133C7
:1041500030332F332E332D332C33E82EF5D7600038
:10416000B0F43CF16000B4F43DF16000B8F43EF10D
:104170006000BCF43FF16000C0F440F16000C4F4A2
:1041800041F16000C8F442F16000CCF443F1010158
:1041900045BF20D0455104E1020E445DD8A01AD09D
:1041A0003C513D113E113F1140114111421143114B
:1041B000D8A445D739BF05D0395102E13805D8B068
:1041C0003ED73BBF07D03B5103E13A05D8A002D010
:1041D000CBB335D7CBA917D04407D8A04507890E54
:1041E0004425D96E030E4521DA6E6000AFF4DFFF7F
:1041F0004407D8A04507890E4425D96E030E4521F2
:10420000DA6E300EDF6E600084F416F1600088F420
:1042100017F1890E4425186F030E4521196F6000B0
:10422000E8F41AF16000ECF41BF188EC40F0600057
:1042300058F421F160005CF422F1120000C298F2FF
:10424000600000F8BDF0E00EBD17D8B402D0010E3A
:1042500001D0000E02019A6F9A51D8B478D0600054
:1042600000F8BDF0050E0001BE6FD890BD33BE2F23
:10427000FCD7070EBD17BD515C6E5D6A6A0E776F85
:10428000FF0E786F600070F179F0600074F17AF0E1
:10429000BBEC52F0050E5C185D10D8B405D0030ECF
:1042A0005C185D10D8A403D0010EA3EC51F05C049F
:1042B0005D10D8B414D0020E5C185D10D8B40FD0C5
:1042C000040E5C185D10D8B40AD0060E5C185D10A0
:1042D000D8B405D0070E5C185D10D8A403D0000E2A
:1042E000A3EC51F0020E5C185D10D8A404D0010EAE
:1042F00070EC34F003D0000E70EC34F0020E5C1859
:104300005D10D8B447EC55F0030E5C185D10D8B4BE
:10431000CEEC56F0040E5C185D10D8A416D047EC15
:1043200055F00009D8A40AD0270E0001776FFE0EC1
:10433000786FBBEC52F067EC57F007D0070E000126
:10434000776FFE0E786FBBEC52F063EC57F0020112
:1043500000A70FD0F2EC56F05CEC4DF05FEC57F09C
:1043600050EC55F0010E776FFF0E786FBBEC52F0FA
:1043700002D0EDEC56F0020100A902D0010E01D0EE
:10438000000E0001EC6FEC51D8B403D0010EA3EC89
:1043900051F00001EC51D8B403D05BEC57F002D0DF
:1043A0005FEC57F00001EC51D8B403D091EC55F01C
:1043B00002D050EC55F002010051140B140AD8A49D
:1043C00002D0010E01D0000E996F9951F7EC56F012
:1043D000600010F8BDF07F0E0001BD17BD511B6ECF
:1043E0001C6A600004F8BEF03F0EBE17BE511D6E81
:1043F0001E6A600008F8BFF03F0EBF17BF511F6E66
:10440000206A60000CF8C0F03F0EC017C051216E4A
:10441000226A60001CF8C1F07F0EC117C151140D53
:104420006F00CCFF23F06F00D0FF24F0600018F87D
:10443000C2F07F0EC217C251140D6F00CCFF25F0E1
:104440006F00D0FF26F05AEC3EF0600010F8BDF08F
:104450007F0E0001BD17BD51016E026A65EC56F07A
:1044600008C232F20201336B09AF0DD0304B312B51
:1044700031BF1200315104E10B0E305DD8A01200A3
:1044800067EC57F012007FEC57F0000E0201316F1D
:10449000000E306F1200000E0201456F000E446FD7
:1044A000000E0001C86F000EC96F000ECA6F000E2B
:1044B000CB6F000E0101056F000E046FD89004351C
:1044C000D96E0535DA6E000ED926040EDA22000EFA
:1044D000DE6E000EDD6ED8900435D96E0535DA6ECD
:1044E000320ED926040EDA22000EDE6E000EDD6ECC
:1044F000044B052B05BFE2D7055104E1190E045DFD
:10450000D8A0DCD7000E076F000E066FD8900635D6
:10451000D96E0735DA6E610ED926030EDA22000E47
:10452000DE6E000EDD6ED8900635D96E0735DA6E78
:10453000750ED926030EDA22000EDE6E000EDD6E39
:10454000064B072B07BFE2D7075104E10A0E065DB1
:10455000D8A0DCD7000E0001D36F000ED26F000E82
:10456000D16F000ED06F000E0201596F000E586F10
:10457000000E576F000E566F000E0101E06F000E27
:10458000DF6F000EDE6F000EDD6F000E0001C86FE2
:10459000000EC96F000ECA6F000ECB6F000E020135
:1045A000636F000E626F000E5D6F000E5C6F000E99
:1045B0005B6F000E5A6F000E0001F06F000EDD6F92
:1045C000000EDC6F000EDB6F000EDA6F000E0101D3
:1045D000E26F000EE16F000E0001D96F000ED86F80
:1045E000000E0201616F000E606F000E5F6F000E23
:1045F0005E6F000E556F000E546F000EBB6F000E05
:10460000BA6F000E0101DC6F000EDB6F000EDA6F77
:10461000000ED96F000E0201496F000E486F000EA8
:10462000476F000E466F000E0101D46F000ED36F6E
:10463000000ED26F000ED16F000E0201516F000EFE
:10464000506F000E0001D56FC80ED46F000E02012E
:104650001E6F000E1F6F000E206F000E216F000EE8
:104660001A6F000E1B6F000E1C6F000E1D6F000EE8
:104670004F6F000E4E6F000E0001CF6F000ECE6F19
:10468000000E0201436F000E426F000E416F000EDC
:10469000406F000E0101D06FC80ECF6F000ECE6FBD
:1046A000000ECD6F000E0201226F000E236F000E70
:1046B000246F000E256F000E0101E46F000EE36F02
:1046C000010E0201A06FD3EC54F020EC55F0C8ECC1
:1046D00054F0BDEC54F01FEC57F01200000E020134
:1046E000456F000E446F000E0001C86F000EC96FC9
:1046F000000ECA6F000ECB6F000E026E000E016E30
:10470000D8900134D96E0234DA6E000ED926040E28
:10471000DA22000EDE6E000EDD6ED8900134D96E06
:104720000234DA6E320ED926040EDA22000EDE6E64
:10473000000EDD6E014A022A02BEE2D7025004E1F9
:10474000190E015CD8A0DCD7000E046E000E036EBB
:10475000D8900334D96E0434DA6E610ED926030E74
:10476000DA22000EDE6E000EDD6ED8900334D96EB4
:104770000434DA6E750ED926030EDA22000EDE6ED0
:10478000000EDD6E034A042A04BEE2D7045004E1A1
:104790000A0E035CD8A0DCD7000E0001D36F000E18
:1047A000D26F000ED16F000ED06F000E0201596F54
:1047B000000E586F000E576F000E566F000E01016D
:1047C000E06F000EDF6F000EDE6F000EDD6F000E7B
:1047D0000001C86F000EC96F000ECA6F000ECB6FCC
:1047E000000E0201636F000E626F000E5D6F000E1F
:1047F0005C6F000E5B6F000E5A6F000E0001F06FD1
:10480000000EDD6F000EDC6F000EDB6F000EDA6F46
:10481000000E0101E26F000EE16F000E0001D96F82
:10482000000ED86F000E0201616F000E606F000E67
:104830005F6F000E5E6F000E556F000E546F000E1E
:10484000BB6F000EBA6F000E0101DC6F000EDB6F54
:10485000000EDA6F000ED96F000E0201496F000ED4
:10486000486F000E476F000E466F000E0101D46FB7
:10487000000ED36F000ED26F000ED16F000E02013A
:10488000516F000E506F000E0001D56FC80ED46F2F
:10489000000E02011E6F000E1F6F000E206F000E33
:1048A000216F000E1A6F000E1B6F000E1C6F000EA2
:1048B0001D6F000E4F6F000E4E6F000E0001CF6F88
:1048C000000ECE6F000E0201436F000E426F000E0D
:1048D000416F000E406F000E0101D06FC80ECF6F08
:1048E000000ECE6F000ECD6F000E0201226F000E83
:1048F000236F000E246F000E256F000E0101E46F80
:10490000000EE36F010E0201A06F0AEC55F0FFEC00
:1049100054F0F4EC54F0E9EC54F083EC57F012004E
:10492000C10E0101716FFF0E726FE6EC51F00101D3
:10493000EF51F011D8B40CD0F0BF06D0F05108E11F
:10494000730EEF5DD8B004D0000EF06F000EEF6F65
:104950006EEC4FF00009D8B4B0D071EC55F0000EF9
:104960000101F06F780EEF6F2FEC40F0600028F43B
:1049700087F160002CF488F160001CF604F16000FF
:1049800020F605F1000E076F150E066F5EEC51F074
:10499000270E0425D96E090E0521DA6E180EDE18D1
:1049A00005E1B00EDE18D8B413EC57F060001CF629
:1049B00004F1600020F605F1000E0101076F150EED
:1049C000066F5EEC51F0270E0425D96E090E052105
:1049D000DA6E200EDE1805E1B00EDE18D8B40FEC4A
:1049E00057F060001CF604F1600020F605F1000E9F
:1049F0000101076F150E066F5EEC51F0270E0425BE
:104A0000D96E090E0521DA6E680EDE1805E1790E01
:104A1000DE18D8B43BEC57F060001CF604F16000DF
:104A200020F605F1000E0101076F150E066F5EEC12
:104A300051F0270E0425D96E090E0521DA6ED20E2B
:104A4000DE1805E1AA0EDE18D8B41BEC57F06000A2
:104A50001CF604F1600020F605F1000E0101076F5D
:104A6000150E066F5EEC51F0270E0425D96E090E67
:104A70000521DA6E1C0EDE1805E1B00EDE18D8B482
:104A800017EC57F060001CF604F1600020F605F109
:104A9000000E0101076F150E066F5EEC51F0270E38
:104AA0000425D96E090E0521DA6E140EDE1805E113
:104AB000B00EDE18D8B41FEC57F00FEC57F013EC23
:104AC00057F01FEC57F017EC57F01BEC57F03BEC8E
:104AD00057F0010E0001FD6F010EFC6F010EFF6F1C
:104AE000000E0101866F0001FD51D8B40CD0FC51BD
:104AF000D8B409D0FF51D8B406D0FE51D8B403D0F1
:104B0000010E0101866F01018651D8B402D0010E59
:104B100001D0000E4AEC50F01200C10E776FFF0E6C
:104B2000786FBBEC52F00101EF51F011D8B40CD00A
:104B3000F0BF06D0F05108E1730EEF5DD8B004D09D
:104B4000000EF06F000EEF6F8CEC4FF00009D8B440
:104B5000ABD081EC55F0000E0101F06F780EEF6FD5
:104B6000E1EC40F060001CF086F0600020F087F07F
:104B7000600018F201F060001CF202F0000E046EFA
:104B8000150E036EBAEC51F0270E0124D96E090EF2
:104B90000220DA6E180EDE1805E1B00EDE18D8B469
:104BA00077EC57F0600018F201F060001CF202F0A0
:104BB000000E046E150E036EBAEC51F0270E0124A0
:104BC000D96E090E0220DA6E200EDE1805E1B00E55
:104BD000DE18D8B46FEC57F0600018F201F06000F6
:104BE0001CF202F0000E046E150E036EBAEC51F0CA
:104BF000270E0124D96E090E0220DA6E680EDE1827
:104C000005E1790EDE18D8B473EC57F0600018F2A5
:104C100001F060001CF202F0000E046E150E036E2F
:104C2000BAEC51F0270E0124D96E090E0220DA6E7B
:104C3000D20EDE1805E1AA0EDE18D8B47FEC57F0CC
:104C4000600018F201F060001CF202F0000E046E29
:104C5000150E036EBAEC51F0270E0124D96E090E21
:104C60000220DA6E1C0EDE1805E1B00EDE18D8B494
:104C70007BEC57F0600018F201F060001CF202F0CB
:104C8000000E046E150E036EBAEC51F0270E0124CF
:104C9000D96E090E0220DA6E140EDE1805E1B00E90
:104CA000DE18D8B483EC57F06FEC57F077EC57F080
:104CB00083EC57F07BEC57F07FEC57F073EC57F038
:104CC000010E0001FD6F010EFC6F010EFF6F000E63
:104CD000856FFD51D8B40BD0FC51D8B408D0FF512A
:104CE000D8B405D0FE51D8B402D0010E856F8551DD
:104CF000D8B402D0010E01D0000E8CEC51F012009D
:104D000042617474657279204661696C20200000EC
:104D10000004001A754D6F6E69746F7220466169E8
:104D20006C202000000004006879436F6E74726F7D
:104D30006C204661696C20200000000400D2AA5655
:104D400065727920486967682050726573000000B9
:104D5000040020B0486967682050726573737572EB
:104D60006520000000040018B04869676820507290
:104D7000657373757265200000000100908C4369B3
:104D80007263756974204661696C2020000000041C
:104D90000014B0476173204661696C75726520200C
:104DA0002000000004001CB0426174746572792018
:104DB0004C6F77202020000000020010B042617488
:104DC00074657279204C6F77202020000000040069
:104DD0000CB045502042656C6F77205365742020DD
:104DE0000000000200FEA845502041626F76652059
:104DF00053657420200000000200E4A849502042BE
:104E0000656C6F772053657420200000000200CA93
:104E1000A849502041626F766520536574202000B8
:104E20000000020062A954646920746F6F206C6FE7
:104E30006E672020000000020008B05464652074F2
:104E40006F6F206C6F6E672020000000020004B0BE
:104E50004F766572204D617820566F6C20200000DF
:104E600000020000B042656C6F77204D696E2056DD
:104E70006F6C200000000200FCAF4E6F20506F7777
:104E8000657220537570706C0000000100F8AF006F
:104E9000000E0201FB6F0001FD51D8B40CD0FC5193
:104EA000D8B409D0FF51D8B406D0FE51D8B403D03D
:104EB000010E0201FB6F0201FB51D8B402D0010EBA
:104EC00001D0000E4AEC50F00201A351D8B41200F8
:104ED000000EA36F000EFF6F000EFE6F6000F8FB68
:104EE00004F16000FCFB05F1000E0101076F150ED7
:104EF000066F5EEC51F0270E0425D96E090E0521D0
:104F0000DA6E6F0078FFF9F26F0074FFFAF201D8E1
:104F10000AD00500FA6E0201F951FD6EFA51FE6EDB
:104F2000FF6AFA5012000009D8A40ED0D8900201EE
:104F3000FE35D96EFF35DA6E260ED926030EDA223B
:104F4000DE50DE10D8B405D00201FE519DEC53F0C6
:104F500003D0FE51ADEC53F00201FE4BFF2BFF518D
:104F600004E1130EFE5DD8A0B9D760EC31F06EEC11
:104F70004FF00009D8B444D02FEC40F0600028F482
:104F8000F7F260002CF4F8F26000DCFB04F1600042
:104F9000E0FB05F1000E076F150E066F5EEC51F099
:104FA000250E0425D96E090E0521DA6E6F0078FFF3
:104FB000FCF26F0074FFFDF202017051FC1904E174
:104FC0007151FD19D8B412006000F0FB70F260005E
:104FD000F4FB71F20101EF51F011D8A405D00201E8
:104FE000FC518CEC54F007D0000E0201716F000EE2
:104FF000706F71EC55F00201FC512DEC56F012006F
:10500000000E0201716F000E706F71EC55F0E3EC51
:1050100056F0120060005CF70AF1600060F70BF1D7
:10502000000E0D6F050E0C6F7DEC45F0600028F44E
:1050300014F160002CF415F160004CF70AF16000E7
:1050400050F70BF1000E0D6F050E0C6F7DEC45F067
:105050000A51145D1551800A166F0B51800A1659BA
:10506000D8A00DD060005CF70AF1600060F70BF18A
:10507000000E0D6F050E0C6F7DEC45F00CD060003E
:105080004CF70AF1600050F70BF1000E0D6F050EA2
:105090000C6F7DEC45F0600028F417F160002CF4F3
:1050A00018F160006CF70AF1600070F70BF1000E68
:1050B0000D6F050E0C6F7DEC45F017510A5D0B511D
:1050C000800A146F1851800A1459D8A013D06000B8
:1050D0006CF70AF1600070F70BF1000E0D6F050E12
:1050E0000C6F7DEC45F0600028F412F160002CF4A8
:1050F00013F1120060005CF70AF1600060F70BF139
:10510000000E0D6F050E0C6F7DEC45F0600028F46D
:1051100014F160002CF415F160004CF70AF1600006
:1051200050F70BF1000E0D6F050E0C6F7DEC45F086
:105130000A51145D1551800A166F0B51800A1659D9
:10514000D8A00DD060005CF70AF1600060F70BF1A9
:10515000000E0D6F050E0C6F7DEC45F00CD060005D
:105160004CF70AF1600050F70BF1000E0D6F050EC1
:105170000C6F7DEC45F0600028F419F160002CF410
:105180001AF1600064F412F1600068F413F1120087
:10519000600054F70AF1600058F70BF1000E0D6F34
:1051A000050E0C6F7DEC45F0600028F414F16000F2
:1051B0002CF415F1600044F70AF1600048F70BF198
:1051C000000E0D6F050E0C6F7DEC45F00A51145D5D
:1051D0001551800A166F0B51800A1659D8A00DD0B0
:1051E000600054F70AF1600058F70BF1000E0D6FE4
:1051F000050E0C6F7DEC45F00CD0600044F70AF111
:10520000600048F70BF1000E0D6F050E0C6F7DEC82
:1052100045F0600028F417F160002CF418F16000EC
:1052200064F70AF1600068F70BF1000E0D6F050ED0
:105230000C6F7DEC45F017510A5D0B51800A146F1D
:105240001851800A1459D8A013D0600064F70AF1ED
:10525000600068F70BF1000E0D6F050E0C6F7DEC12
:1052600045F0600028F412F160002CF413F11200F4
:10527000600054F70AF1600058F70BF1000E0D6F53
:10528000050E0C6F7DEC45F0600028F414F1600011
:105290002CF415F1600044F70AF1600048F70BF1B7
:1052A000000E0D6F050E0C6F7DEC45F00A51145D7C
:1052B0001551800A166F0B51800A1659D8A00DD0CF
:1052C000600054F70AF1600058F70BF1000E0D6F03
:1052D000050E0C6F7DEC45F00CD0600044F70AF130
:1052E000600048F70BF1000E0D6F050E0C6F7DECA2
:1052F00045F0600028F419F160002CF41AF1600008
:1053000064F412F1600068F413F1120060005CF7BD
:1053100007F0600060F708F0000E0A6E050E096ED7
:10532000C1EC45F060001CF011F0600020F012F0BC
:1053300060004CF707F0600050F708F0000E0A6EAE
:10534000050E096EC1EC45F00750115C1250800A41
:10535000136E0850800A1358D8A00DD060005CF777
:1053600007F0600060F708F0000E0A6E050E096E87
:10537000C1EC45F00CD060004CF707F0600050F72E
:1053800008F0000E0A6E050E096EC1EC45F06000D3
:105390001CF014F0600020F015F060006CF707F0CE
:1053A000600070F708F0000E0A6E050E096EC1EC81
:1053B00045F01450075C0850800A116E1550800AA1
:1053C0001158D8A013D060006CF707F0600070F798
:1053D00008F0000E0A6E050E096EC1EC45F0600083
:1053E0001CF00FF0600020F010F0120060005CF77D
:1053F00007F0600060F708F0000E0A6E050E096EF7
:10540000C1EC45F060001CF011F0600020F012F0DB
:1054100060004CF707F0600050F708F0000E0A6ECD
:10542000050E096EC1EC45F00750115C1250800A60
:10543000136E0850800A1358D8A00DD060005CF796
:1054400007F0600060F708F0000E0A6E050E096EA6
:10545000C1EC45F00CD060004CF707F0600050F74D
:1054600008F0000E0A6E050E096EC1EC45F06000F2
:105470001CF016F0600020F017F0600058F00FF0FC
:1054800060005CF010F01200600054F707F060005C
:1054900058F708F0000E0A6E050E096EC1EC45F0D3
:1054A00060001CF011F0600020F012F0600044F782
:1054B00007F0600048F708F0000E0A6E050E096E4E
:1054C000C1EC45F00750115C1250800A136E085071
:1054D000800A1358D8A00DD0600054F707F0600080
:1054E00058F708F0000E0A6E050E096EC1EC45F083
:1054F0000CD0600044F707F0600048F708F0000E99
:105500000A6E050E096EC1EC45F060001CF014F047
:10551000600020F015F0600064F707F0600068F7A5
:1055200008F0000E0A6E050E096EC1EC45F014502D
:10553000075C0850800A116E1550800A1158D8A0D7
:1055400013D0600064F707F0600068F708F0000E01
:105550000A6E050E096EC1EC45F060001CF00FF0FC
:10556000600020F010F01200600054F707F06000B7
:1055700058F708F0000E0A6E050E096EC1EC45F0F2
:1055800060001CF011F0600020F012F0600044F7A1
:1055900007F0600048F708F0000E0A6E050E096E6D
:1055A000C1EC45F00750115C1250800A136E085090
:1055B000800A1358D8A00DD0600054F707F060009F
:1055C00058F708F0000E0A6E050E096EC1EC45F0A2
:1055D0000CD0600044F707F0600048F708F0000EB8
:1055E0000A6E050E096EC1EC45F060001CF016F065
:1055F000600020F017F0600058F00FF060005CF0E1
:1056000010F0120020EED0F210EE14F1060E6F0032
:105610006FFFE3FFE806FBE2600044F41FF1600067
:1056200048F420F11F512011D8A404D0140E1F6F8C
:10563000010E206F60007CF404F1600080F405F13D
:10564000C5EC4BF0600010F423F1600014F424F179
:10565000600024F721F1600028F722F122BF10D06A
:105660002351215D2251800A136F2451800A13595E
:10567000D8B006D0600084F423F1600088F424F1EF
:1056800060008CF421F1600090F422F160001CF7BE
:105690001DF1600020F71EF1CBA10FD018D0000E35
:1056A000076F200E066F60003CF408F1600040F4C4
:1056B00009F11FEC3FF0234B242B1D51235D245196
:1056C000800A136F1E51800A1359D8A0E8D7000E24
:1056D0001C6F000E1B6F26D060007FF4F6FF600089
:1056E00083F4F7FF000EF86E0F0EF76403D0080086
:1056F000F55007D06F00DBFFE1FF6F00DFFFE2FF37
:10570000E7500101136F1351066F076B60003CF403
:1057100008F1600040F409F11FEC3FF01F4B202B13
:105720001B4B1C2B21511B5D1C51800A136F2251F6
:10573000800A1359D8A0D0D7CBB10FD018D0000E03
:10574000076F200E066F60003CF408F1600040F423
:1057500009F11FEC3FF0234B242B1D51235D2451F5
:10576000800A136F1E51800A1359D8A0E8D7600031
:105770008CF40FF1600090F410F1120020EED0F2E2
:1057800010EE11F0060E6F006FFFE3FFE806FBE27C
:10579000600038F01CF060003CF01DF01C501D1043
:1057A000D8A403D0110E1C6E1D6A600070F001F0C9
:1057B000600074F002F00DEC4DF0600004F020F099
:1057C000600008F021F0600024F71EF0600028F768
:1057D0001FF01FBE10D020501E5C1F50800A106E9C
:1057E0002150800A1058D8B006D0600078F020F020
:1057F00060007CF021F0600080F01EF0600084F01A
:105800001FF060001CF71AF0600020F71BF0010188
:10581000CBA10FD018D0000E046E200E036E6000D6
:1058200030F005F0600034F006F091EC41F0204AD1
:10583000212A1A50205C2150800A106E1B50800AC9
:105840001058D8A0E8D7000E196E000E186E25D09B
:10585000600073F0F6FF600077F0F7FF000EF86E5F
:105860000F0EF76403D00800F55007D06F00DBFF80
:10587000E1FF6F00DFFFE2FFE750106E1050036E94
:10588000046A600030F005F0600034F006F091EC3E
:1058900041F01C4A1D2A184A192A1E50185C19503A
:1058A000800A106E1F50800A1058D8A0D1D701016D
:1058B000CBB10FD018D0000E046E200E036E600026
:1058C00030F005F0600034F006F091EC41F0204A31
:1058D000212A1A50205C2150800A106E1B50800A29
:1058E0001058D8A0E8D7600080F00CF0600084F079
:1058F0000DF01200000E086E000E076EC8EC49F0A5
:1059000060001CF023F0600020F024F00101E505A8
:10591000E611D8A407D060008CF01BF0600090F076
:105920001CF012006000E8F707F06000ECF708F0E8
:10593000000E0A6E080E096EC1EC45F060008CF096
:105940001DF0600090F01EF007501D5E08501E5ABA
:10595000600074F025F0600078F026F0276A286A6D
:10596000600094F001F0600098F002F060009CF09C
:1059700003F06000A0F004F0880E056E130E066EB2
:10598000000E076E000E086EBEEC4AF0600004F0D8
:105990000DF0600008F00EF060000CF00FF06000F9
:1059A00010F010F0000E116E100E126E000E136E3D
:1059B000000E146E8AEC3DF0600034F025F06000BB
:1059C00038F026F060003CF027F0600040F028F04E
:1059D000600094F001F0600098F002F060009CF02C
:1059E00003F06000A0F004F0640E056E000E066E79
:1059F000000E076E000E086EBEEC4AF0600004F068
:105A00000DF0600008F00EF060000CF00FF0600088
:105A100010F010F02D0E116E000E126E000E136EAF
:105A2000000E146E8AEC3DF0600034F01FF0600050
:105A300038F020F060003CF021F0600040F022F0EF
:105A400060007CF029F0600080F02AF02AAE04D0DB
:105A5000000E2A6E000E296E6000A4F01BF060009C
:105A6000A8F01CF01200000E0B6F000E0A6F95ECF0
:105A700049F0600028F426F160002CF427F1E505D8
:105A8000E611D8A407D0600098F41EF160009CF4E1
:105A90001FF112006000E8F70AF16000ECF70BF16B
:105AA000000E0D6F080E0C6F7DEC45F0600098F451
:105AB00020F160009CF421F10A51205F0B51215B21
:105AC000600080F428F1600084F429F12A6B2B6BCC
:105AD0006000A0F404F16000A4F405F16000A8F4F3
