:020000040000FA
:100000000DEF00F0FF00FF00EAEF33F0FF00FF000C
:10001000FF00FF00FF00FF00FF0088EF36F06000E8
:100020007CF7B5F0600080F7B6F09F51D8B409D0E6
:10003000A051D8A404D00001F351D8B402D0BA82A0
:1000400001D0BA9202013A513B11D8A407D0D80E80
:100050000001776FFF0E786FE8EC4DF0010E3A2546
:10006000016E000E3B21026E030E046EE80E036E5D
:100070009DEC41F0600004F03AF2600008F03BF2C1
:10008000000E086E000E076E28EC4DF00009D8A493
:100090000AD0A80E0001776FFF0E786FE8EC4DF0E4
:1000A000FFEC44F0120017EC53F00009D8A407D07D
:1000B000FC0E0001776FFF0E786FE8EC4DF0010148
:1000C000DF05E011D8A4ABD076EC25F060006CF031
:1000D000AFF0600070F0B0F06000BCF25BF0600068
:1000E000C0F25CF0D8905B365C36D8905B365C36FC
:1000F000D8905B365C366000D8F701F06000DCF722
:1001000002F0000E046E070E036ED3EC4CF05B5051
:1001100001265C500222D89002320132D89002327D
:100120000132D89002320132600004F0F6F1600032
:1001300008F0F7F123EC3BF060003CF0B1F0600018
:1001400040F0B2F06000C4F25BF06000C8F25CF016
:10015000D8905B365C36D8905B365C36D8905B3690
:100160005C366000D0F701F06000D4F702F0000EBA
:10017000046E070E036ED3EC4CF05B5001265C500E
:100180000222D89002320132D89002320132D89045
:1001900002320132600004F0F4F1600008F0F5F181
:1001A0000201384B392BFA0E38193911D8A478D7F7
:1001B000000E396F000E386F6000BCF293F06000E3
:1001C000C0F294F06000D8F707F06000DCF708F0A8
:1001D000000E0A6E080E096EE1EC3FF060001CF0A4
:1001E00095F0600020F096F06000C4F297F0600097
:1001F000C8F298F06000D0F707F06000D4F708F07C
:10020000000E0A6E080E096EE1EC3FF060001CF073
:1002100099F0600020F09AF066EC4BF041D717ECB3
:100220004BF06000ACF0C1F06000B0F0C2F0000133
:10023000C2AF04D0000EC26F000EC16FC2BF0AD0A1
:10024000F50EC15D010EC259D8A004D0000EC26FD8
:10025000000EC16F50EC3DF060006CF09BF0600050
:1002600070F09CF026EC43F060006CF09DF06000B4
:1002700070F09EF0FFEC44F00201A251D8A420D00F
:1002800098EC21F0BCEC52F008EC53F0C0EC52F0CA
:10029000C4EC52F016EC50F021EC50F000EC50F0B1
:1002A0000BEC50F0BCEC52F008EC53F0B4EC52F014
:1002B000ACEC52F0010EA06F000E0001F46F1200C2
:1002C000364B372B36513711D8A407D0E00E00013A
:1002D000776FFF0E786FE8EC4DF0010E3625016E5A
:1002E000000E3721026E030E046EE80E036E9DECC5
:1002F00041F0600004F036F2600008F037F20201CD
:1003000034513511D8A407D0DC0E0001776FFF0EF1
:10031000786FE8EC4DF0010E3425016E000E3521AA
:10032000026E030E046EE80E036E9DEC41F0600059
:1003300004F034F2600008F035F2010E0001C82725
:10034000000EC923CA23CB230201644B652B5E4BED
:100350005F2B5C4B5D2B600010F901F0600014F91D
:1003600002F0000E046E190E036E9DEC41F0D89061
:1003700001360236000E0124D96E040E0220DA6E18
:10038000600007F3DEFF60000BF3DDFF000E0001ED
:10039000BC6F000EBB6F000EBE6F000EBD6FBEBF08
:1003A00006D0BE5114E1190EBD5DD8B010D0D89062
:1003B000BD35D96EBE35DA6E000ED926040EDA22AE
:1003C000DE50BB27DD50BC23BD4BBE2BE8D7600001
:1003D000ECF201F06000F0F202F0000E046E190E73
:1003E000036E48EC46F0600004F03EF2600008F056
:1003F0003FF2600010F901F0600014F902F0000E05
:10040000046E060E036E9DEC41F001500210D8A45C
:100410004ED0600010F907F0600014F908F0000EEB
:100420000A6E060E096EE1EC3FF0D89007360836EA
:10043000320E0724D96E040E0820DA6E600007F32E
:10044000DEFF60000BF3DDFF000E0001BC6F000E4D
:10045000BB6F000EC06F000EBF6FC0BF06D0C05193
:1004600014E1190EBF5DD8B010D0D890BF35D96E49
:10047000C035DA6E320ED926040EDA22DE50BB27E2
:10048000DD50BC23BF4BC02BE8D76000ECF201F07D
:100490006000F0F202F0000E046E190E036E48ECDC
:1004A00046F0600004F0CEF0600008F0CFF00201EA
:1004B000444B452B45BF0AD0455104E1960E445D9F
:1004C000D8A004D0000E456F000E446F0001F45117
:1004D000D8B40FD002015DBF09D0B90E5C5D0B0E20
:1004E0005D59D8A003D0F9EC52F008D0B4EC52F02A
:1004F00005D0000E02015D6F000E5C6F5FBF0ED075
:100500004D0E5E5D1D0E5F59D8A008D0010E000192
:10051000F46F1D0E02015F6F4D0E5E6F23EC3BF01A
:1005200060003CF0ADF0600040F0AEF00001AEBF06
:1005300005D0AE5108E1AD05D8B005D0000EA26FD0
:10054000000EA16F15D06000B4F25BF06000B8F24D
:100550005CF05B3A5C3AF00E5C165B500F0B5C1281
:10056000F00E5B1660006CF1A1F0600070F1A2F07B
:10057000600084F201F0600088F202F0D0EC3AF002
:10058000600004F0B3F0600008F0B4F0B45109E189
:10059000150EB35DD8B005D0000EA46F000EA36F8A
:1005A00006D06000CCF2A3F06000D0F2A4F0A3511A
:1005B000020122270001A45102012323000E24235B
:1005C000000E252365BF93D0B90E645D0B0E6559EF
:1005D000D8A08DD00001D6510201525D5B6E0001A2
:1005E000D751020153595C6ED8905B34076E5C346E
:1005F000086E000E0A6E050E096EE1EC3FF0000178
:10060000D65107240101CF6F0001D7510820010105
:10061000D06F0001D6510201525D076E0001D75123
:1006200002015359086E000E0A6E030E096EE1ECCA
:100630003FF00001D65107240101CD6F0001D751D1
:1006400008200101CE6F190EE1255B6E000EE2213C
:100650005C6E5B50CD5DCE51800A5D6E5C50800A51
:100660005D58D8B006D0190EE125CD6F000EE221FD
:10067000CE6FCD51CF5DD051800A5B6ECE51800AD6
:100680005B58D8B004D0CDC1CFF1CEC1D0F14EC2AD
:10069000DAF04FC2DBF0D3C1D5F1D4C1D6F152C2EA
:1006A000D8F053C2D9F0D6C054F2D7C055F2E151B8
:1006B0000001D85DD951800A5B6E0101E251800AC8
:1006C0005B58D8B005D00001F451D8A488EC52F0A2
:1006D000000E0201536F000E526F000E0001D76F23
:1006E000C80ED66F000E0201656F000E646F000128
:1006F000CBBF0FD0CB51CA1106E1310EC85D750ECC
:10070000C959D8A006D098EC21F0000E9D6F000EBC
:100710009E6F02013E51505D5151800A5B6E3F5108
:10072000800A5B58D8B004D03EC250F23FC251F2AA
:100730000001C1510201525D5351800A5B6E0001FC
:10074000C251800A5B58D8B006D0600004F352F260
:10075000600008F353F2D651C15DC251800A5B6E4E
:10076000D751800A5B58D8B006D0600004F3D6F0A9
:10077000600008F3D7F0CE510101CF5DD051800A5F
:100780005B6E0001CF51800A5B58D8B016D0600074
:1007900038F35BF060003CF35CF0000E5CBEFF0ED3
:1007A0005D6E5E6E5B5002011E275C501F235D5024
:1007B00020235E5021234C4B4D2B0101CD510001D4
:1007C000CE5DCF51800A5B6E0101CE51800A5B582D
:1007D000D8B016D0600038F35BF060003CF35CF0FA
:1007E000000E5CBEFF0E5D6E5E6E5B5002011A274E
:1007F0005C501B235D501C235E501D234A4B4B2B2A
:100800000101CD51CF25076ECE51D021086E000ECB
:100810000A6E020E096EE1EC3FF060001CF09FF0E2
:10082000600020F0A0F00101DF51E011D8A42DD02C
:10083000E151E325076EE251E421086E000E0A6ED5
:10084000020E096EE1EC3FF00101D551075C085042
:10085000800A5B6ED651800A5B58D8B016D0E15141
:100860000001CE5DCF51800A5B6E0101E251800A2A
:100870005B58D8B005D0000E0001B66F020E04D050
:10088000000E0001B66F040EB56F0101CD510001DD
:10089000CE5DCF51800A5B6E0101CE51800A5B585C
:1008A000D8B04ED1CD5102013E5D3F51800A5B6E02
:1008B0000101CE51800A5B58D8A042D10001CBBFC4
:1008C000F5D0CB51CA1106E1910EC85D010EC95990
:1008D000D8A0ECD0C8C0BAF2C9C0BBF20101DB514C
:1008E0000001DE5DDF51800A5B6E0101DC51800A90
:1008F0005B58D8B00CD00001DE510101DB5D020174
:100900005A6F0001DF510101DC5902015B6F000EDB
:100910000001DDBFFF0E5C6E800A5B6EC851DC5DBE
:10092000C951DD59CA515C58CB51800A5B58D8B0C7
:1009300009D0DC51C85D0201586F0001DD51C95971
:100940000201596F0201BA51BB11D8B424D0600E14
:100950000D6EEA0E0E6E000E0F6E000E106E600031
:10096000E8FA5BF06000ECFA5CF0D8905B365C363D
:1009700060006CF111F0600070F112F0000E12BE18
:10098000FF0E136E146E1EEC36F0600034F056F25B
:10099000600038F057F202014DBF31D04D5103E1F4
:1009A0004C05D8A02CD0600078F80DF060007CF8E1
:1009B0000EF0600080F80FF0600084F810F0600026
:1009C00030F911F0600034F912F0000E12BEFF0E83
:1009D000136E146E1EEC36F0600034F0D3F160003C
:1009E00038F0D4F1000E02011E6F000E1F6F000ED2
:1009F000206F000E216F000E4D6F000E4C6F4BBF2D
:100A000031D04B5103E14A05D8A02CD0600068F8E2
:100A10000DF060006CF80EF0600070F80FF06000F0
:100A200074F810F0600028F911F060002CF912F051
:100A3000000E12BEFF0E136E146E1EEC36F0600038
:100A400034F04EF2600038F04FF2000E02014B6FAE
:100A5000000E4A6F000E1A6F000E1B6F000E1C6F07
:100A6000000E1D6FC8C066F2C9C067F2000E00011B
:100A7000C86F000EC96F000ECA6F000ECB6F000E5C
:100A8000DF6F000EDE6F000E0101DC6F000EDB6F0A
:100A9000000E0001DD6F000EDC6F000E0201616FC1
:100AA000000E606F000E5D6F000E5C6FC8C062F2DA
:100AB000C9C063F2000E02019D6F000E9E6F46C218
:100AC000D4F047C2D5F00001F451D8B435D00F0EA0
:100AD0000101E1255B6E000EE2215C6E0001D45144
:100AE0005B5C5C50800A5D6ED551800A5D58D8B061
:100AF00003D058EC4FF002D021EC50F0F10E5B6EB9
:100B0000FF0E5C6E600084F75DF0600088F75EF0B9
:100B10005B505D265C505E225D50D45DD551800AED
:100B20005F6E5E50800A5F58D8B003D049EC4FF03A
:100B300007D016EC50F004D021EC50F016EC50F039
:100B4000020167BF40D0F50E665D010E6759D8A05F
:100B50003AD0600098F901F060009CF902F0000EB4
:100B6000046E090E036ED3EC4CF0600004F007F045
:100B7000600008F008F0000E0A6E0A0E096EE1EC43
:100B80003FF060001CF05BF0600020F05CF0000EB5
:100B90005CBEFF0E5D6E5E6E0001C8515B1813E116
:100BA000C9515C1810E1CA515D180DE1CB515E18B6
:100BB000D8A409D0000E0201226F000E236F000E90
:100BC000246F000E256F0001CE510101CF5DD05181
:100BD000800A5B6E0001CF51800A5B58D8B0FDD00F
:100BE00002013E510101CF5DD051800A5B6E0201CE
:100BF0003F51800A5B58D8A0F0D09C51D8A42AD08D
:100C0000C8C0DBF1C9C0DCF1010E9C6F600088F840
:100C100001F060008CF802F0600090F803F06000D2
:100C200094F804F0370E056E000E066E000E076E87
:100C3000000E086E58EC3FF0600004F0DDF160003B
:100C400008F0DEF1000E226F000E236F000E246FFD
:100C5000000E256FC8C060F2C9C061F2000E9D6F22
:100C6000000E9E6F48C2D1F149C2D2F10001F45189
:100C7000D8B4AED00201A151D8A4AAD0140E01015B
:100C8000E3255B6E000EE4215C6ED3515B5C5C502F
:100C9000800A5D6ED451800A5D58D8B011D0140E10
:100CA000E3255B6E000EE4215C6ED1515B5C5C5011
:100CB000800A5D6ED251800A5D58D8A0FBEC4EF0E0
:100CC000140E0101E3255B6E000EE4215C6E5B50A7
:100CD000D35DD451800A5D6E5C50800A5D58D8A007
:100CE0000FD0140EE3255B6E000EE4215C6E5B50AA
:100CF000D15DD251800A5D6E5C50800A5D58D8A0EB
:100D00000BEC50F0EC0E5B6EFF0E5C6E60008CF72F
:100D10005DF0600090F75EF05B505D265C505E22F7
:100D20005D500101D35DD451800A5F6E5E50800A30
:100D30005F58D8B019D0EC0E5B6EFF0E5C6E600091
:100D40008CF75DF0600090F75EF05B505D265C50C4
:100D50005E225D50D15DD251800A5F6E5E50800A86
:100D60005F58D8A0EBEC4EF0EC0E5B6EFF0E5C6EA5
:100D700060008CF75DF0600090F75EF05B505D26E0
:100D80005C505E220101D3515D5C5E50800A5F6E53
:100D9000D451800A5F58D8A018D0EC0E5B6EFF0EBD
:100DA0005C6E60008CF75DF0600090F75EF05B5069
:100DB0005D265C505E22D1515D5C5E50800A5F6EA4
:100DC000D251800A5F58D8B024D000EC50F021D026
:100DD0000BEC50F000EC50F01CD0C80E0101DB25EC
:100DE0005B6E000EDC215C6E000E5CBEFF0E5E6E64
:100DF000800A5D6E0001C8515B5CC9515C58CA51E4
:100E00005E58CB51800A5D58D8B003D0000E020165
:100E10009C6FF10E5B6EFF0E5C6E600054F75DF030
:100E2000600058F75EF05B505D265C505E225D50BE
:100E30000001CE5DCF51800A5F6E5E50800A5F5820
:100E4000D8A0BED0020E0101DF19E011D8A4B8D09D
:100E5000000E0001B66F040EB56FC8C0DEF0C9C049
:100E6000DFF0DFBFADD0DF5103E1DE05D8A0A8D0B1
:100E7000600048F301F060004CF302F0000E046ED5
:100E80000A0E036E9DEC41F0D89001360236610ED9
:100E90000124D96E030E0220DA6E60007BF3DEFFC0
:100EA00060007FF3DDFF000E0101DA6F000ED96FE5
:100EB000000E0001B86F000EB76F19D0D890B7358B
:100EC000D96EB835DA6E610ED926030EDA226F00BC
:100ED00078FF5BF06F0074FF5CF00101D9515B2477
:100EE000D96FDA515C20DA6F0001B74BB82B010ED5
:100EF000D2255B6E000ED3215C6E5CBE0BD05C50C5
:100F000004E10A0E5B5CD8A005D0000EA66F0A0EA5
:100F1000A56F06D0010ED225A56F000ED321A66FB6
:100F2000A551B75DB851800A5B6EA651800A5B5827
:100F3000D8A0C4D7010ED2255B6E000ED3215C6E03
:100F40005CBE0BD05C5004E10A0E5B5CD8A005D0FF
:100F5000000EA86F0A0EA76F06D0010ED225A76F4C
:100F6000000ED321A86F600064F707F0600068F7F7
:100F700008F060009CF209F06000A0F20AF0E1ECD9
:100F80003FF060001CF0D9F1600020F0DAF10001C0
:100F9000F451D8B402D0D24BD32BD3BF0AD0D35103
:100FA00004E1640ED25DD8A004D0000ED36F0A0E07
:100FB000D26F010E02019E6FD5C148F2D6C149F22F
:100FC0000A0E0001DA255B6E000EDB215C6ECE514D
:100FD0005B5C5C50800A5D6ECF51800A5D58D8A082
:100FE000CDD0040E0101DF19E011D8A4C7D0000E46
:100FF0000001B66F020EB56FC8C0DCF0C9C0DDF0ED
:10100000DC510101DB5DDC51800A5B6E0001DD51CA
:10101000800A5B58D8B0B2D00101DB510001DC5D21
:101020005B6E0101DC510001DD595C6E600040F334
:1010300001F0600044F302F0000E046E0A0E036E2D
:101040009DEC41F0D89001360236750E0124D96E20
:10105000030E0220DA6E60006FF1DEFF600073F1B4
:10106000DDFF000E0101D86F000ED76F000E0001EA
:10107000BA6F000EB96F19D0D890B935D96EBA359C
:10108000DA6E750ED926030EDA226F0078FF5BF058
:101090006F0074FF5CF00101D7515B24D76FD8510A
:1010A0005C20D86F0001B94BBA2B010ED0255B6EC6
:1010B000000ED1215C6E5CBE06D05C500BE10B0EC5
:1010C0005B5CD8B007D0010ED025A96F000ED121EE
:1010D000AA6F04D0000EAA6F0A0EA96FA951B95DBC
:1010E000BA51800A5B6EAA51800A5B58D8A0C4D757
:1010F000010ED0255B6E000ED1215C6E5CBE06D069
:101100005C500BE10B0E5B5CD8B007D0010ED02514
:10111000AB6F000ED121AC6F04D0000EAC6F0A0E85
:10112000AB6F60005CF707F0600060F708F06000EC
:10113000ACF209F06000B0F20AF0E1EC3FF06000C0
:101140001CF0D7F1600020F0D8F10001F451D8B4C0
:1011500002D0D04BD12BD1BF0AD0D15104E1640EC3
:10116000D05DD8A004D0000ED16F0A0ED06F010E52
:1011700002019D6FDAC046F2DBC047F202019E51C8
:10118000D8B41FD0600020F95BF0600024F95CF057
:10119000D8905B365C36D8905B365C360001CE5119
:1011A0005B24076ECF515C20086E000E0A6E050EA0
:1011B000096EE1EC3FF060001CF048F2600020F0A6
:1011C00049F202019D51D8B41FD0600018F95BF0BC
:1011D00060001CF95CF0D8905B365C36D8905B36CA
:1011E0005C360001CE515B24076ECF515C20086E47
:1011F000000E0A6E050E096EE1EC3FF060001CF077
:1012000046F2600020F047F20001F451D8B440D01B
:101210000101D8BF09D05F0ED75D010ED859D8A003
:1012200003D084EC52F002D0C4EC52F00101DABFDA
:1012300009D05F0ED95D010EDA59D8A003D080EC39
:1012400052F002D0C0EC52F00101DD5102016A5DA2
:101250006B51800A5B6E0101DE51800A5B58D8B089
:1012600003D07CEC52F002D0BCEC52F0685101018A
:10127000DD5DDE51800A5B6E02016951800A5B58B8
:10128000D8B003D0F6EC52F00BD008EC53F008D0F5
:10129000C4EC52F0C0EC52F0BCEC52F008EC53F04D
:1012A0006000D4F2DFF16000D8F2E0F112006000DB
:1012B0001FF1D9FF600023F1DAFF6F007BFFF6FF1B
:1012C0006F0077FFF7FFF86A0800F550250AD8A4E9
:1012D000C1D260001FF1D9FF600023F1DAFFDE2ADE
:1012E000000EDD22000E0101C86F000EC76FC7C1DE
:1012F000CBF1C8C1CCF1C969CA69000E0001736F96
:10130000000E1BD00101CB810BD00101CB8308D093
:101310000101CB8505D00101CB8702D00101CB892A
:1013200060001FF1D9FF600023F1DAFFDE2A000E12
:10133000DD222BD0000E736F010E726F26D060007D
:101340001FF1D9FF600023F1DAFF6F007BFFF6FF8A
:101350006F0077FFF7FFF86A0800F5504B6E4C6A94
:101360004C50000AD8A4E6D74B50200AD8B4D3D7A3
:10137000030AD8B4D3D7080AD8B4CAD7060AD8B44F
:10138000C1D71D0AD8B4C1D7D5D700017251731186
:10139000D8B4D5D70101CBB1CB9360001FF1D9FFF1
:1013A000600023F1DAFF6F007BFFF6FF6F0077FF2D
:1013B000F7FFF86A0800F5502A0AD8A42DD060007B
:1013C0001FF1D9FF600023F1DAFFDE2A000EDD22D3
:1013D000600027F1D9FF60002BF1DAFF6F007CFF7E
:1013E0004BF0020EDE266F007CFF4CF0000EDD227B
:1013F00060002FF1D9FF600033F1DAFF6F0078FF52
:10140000C7F16F0074FFC8F1C8AF4DD0CB81C76D75
:10141000C81FD8B0C82B47D060001FF1D9FF6000AB
:1014200023F1DAFF6F0078FF08F06F0074FF09F016
:1014300069EC2BF0600020F0C7F1600024F0C8F1E7
:1014400009D060001FF1D9FF600023F1DAFFDE2A26
:10145000000EDD22D00E4B6EFF0E4C6E60001FF1B1
:10146000D9FF600023F1DAFF6F007BFFF6FF6F000A
:1014700077FFF7FFF86A0800F5504D6E4E6A4B5043
:101480004D264C504E224E5006E10A0E4D5CD8B00F
:1014900002D0010E01D0000E0001746F756B745103
:1014A0007511D8A4CED760001FF1D9FF600023F1D9
:1014B000DAFF6F007BFFF6FF6F0077FFF7FFF86A38
:1014C0000800F550630AD8A434D060001FF1D9FF9A
:1014D000600023F1DAFFDE2A000EDD22600027F132
:1014E000D9FF60002BF1DAFF6F007CFF4BF0020E9A
:1014F000DE266F007CFF4CF0000EDD2260002FF135
:10150000D9FF600033F1DAFFDF500001766F600031
:1015100014F11EF0600018F11FF06000D8F120F007
:1015200062EC45F0600078F045F060007CF046F039
:10153000120060001FF1D9FF600023F1DAFF6F0095
:101540007BFFF6FF6F0077FFF7FFF86A0800F550A2
:10155000640AD8B412D060001FF1D9FF600023F1F3
:10156000DAFF6F007BFFF6FF6F0077FFF7FFF86A87
:101570000800F550690AD8A456D060001FF1D9FFC1
:10158000600023F1DAFFDE2A000EDD22600027F181
:10159000D9FF60002BF1DAFF6F007CFF4BF0020EE9
:1015A000DE266F007CFF4CF0000EDD2260002FF184
:1015B000D9FF600033F1DAFF6F0078FF60F06F0051
:1015C00074FF61F00001000E61BFFF0E626F636F78
:1015D000646F656F666F676F600014F11EF06000E6
:1015E00018F11FF0600080F120F0600084F121F01C
:1015F000600088F122F060008CF123F0600090F12F
:1016000024F0600094F125F0600098F126F060006D
:101610009CF127F014EC1AF0600078F045F06000BF
:101620007CF046F0120060001FF1D9FF600023F14A
:10163000DAFF6F007BFFF6FF6F0077FFF7FFF86AB6
:101640000800F550730AD8A43AD060001FF1D9FF02
:10165000600023F1DAFFDE2A000EDD22600027F1B0
:10166000D9FF60002BF1DAFF6F007CFF4BF0020E18
:10167000DE266F007CFF4CF0000EDD2260002FF1B3
:10168000D9FF600033F1DAFF6F0078FF70F06F0070
:1016900074FF71F0600014F10CF0600018F10DF0AF
:1016A0006000C0F10EF06000C4F10FF0F5EC29F01D
:1016B000600030F045F0600034F046F01200600049
:1016C0001FF1D9FF600023F1DAFF6F007BFFF6FF07
:1016D0006F0077FFF7FFF86A0800F550780AD8B472
:1016E00012D060001FF1D9FF600023F1DAFF6F0014
:1016F0007BFFF6FF6F0077FFF7FFF86A0800F550F1
:10170000580AD8A46DD060001FF1D9FF600023F102
:10171000DAFF6F007BFFF6FF6F0077FFF7FFF86AD5
:1017200008006F00D4FF76F060001FF1D9FF600061
:1017300023F1DAFFDE2A000EDD22600027F1D9FF57
:1017400060002BF1DAFF6F007CFF4BF0020EDE260B
:101750006F007CFF4CF0000EDD2260002FF1D9FFFE
:10176000600033F1DAFF6F0078FF4DF06F0074FF17
:101770004EF0600034F168F0600038F169F000016B
:101780006A6B6B6B6C6B6D6B6E6B6F6B600014F1E7
:101790001EF0600018F11FF06000A0F120F0600062
:1017A000A4F121F06000A8F122F06000ACF123F078
:1017B0006000B0F124F06000B4F125F06000B8F1F1
:1017C00026F06000BCF127F06000D8F128F0C4ECEE
:1017D0001CF0600078F045F060007CF046F01200EC
:1017E00060001FF1D9FF600023F1DAFF6F007BFF7B
:1017F000F6FF6F0077FFF7FFF86A0800F550250A3B
:10180000D8A41AD060001FF1D9FF600023F1DAFFDD
:10181000DE2A000EDD22000E046E250E036E60002F
:1018200014F105F0600018F106F025EC3AF0000E16
:10183000466E010E456E120060001FF1D9FF600078
:1018400023F1DAFFDE2A000EDD22000E466E000EC6
:10185000456E120060001FF1D9FF600023F1DAFF2E
:101860006F007BFFF6FF6F0077FFF7FFF86A080055
:10187000F550036E046A600014F105F0600018F181
:1018800006F025EC3AF060001FF1D9FF600023F16B
:10189000DAFFDE2A000EDD22CAD760002BF5D9FF61
:1018A00060002FF5DAFF6F007BFFF6FF6F0077FF18
:1018B000F7FFF86A0800F550250AD8A4B4D26000F2
:1018C0002BF5D9FF60002FF5DAFFDE2A000EDD22AE
:1018D000000EC86F000EC76FC7C1CBF1C8C1CCF1F5
:1018E000C969CA69000E656F000E16D0CB8107D09A
:1018F000CB8305D0CB8503D0CB8701D0CB896000CB
:101900002BF5D9FF60002FF5DAFFDE2A000EDD226D
:101910002BD0000E656F010E646F26D060002BF592
:10192000D9FF60002FF5DAFF6F007BFFF6FF6F0035
:1019300077FFF7FFF86A0800F5504E6F4F6B4F5175
:10194000000AD8A4E6D74E51200AD8B4D5D7030A46
:10195000D8B4D4D7080AD8B4CDD7060AD8B4C6D7D5
:101960001D0AD8B4C5D7D5D764516511D8B4D6D718
:10197000CBB1CB9360002BF5D9FF60002FF5DAFFD8
:101980006F007BFFF6FF6F0077FFF7FFF86A080034
:10199000F5502A0AD8A42DD060002BF5D9FF60009D
:1019A0002FF5DAFFDE2A000EDD22600033F5D9FFC5
:1019B000600037F5DAFF6F007CFF4EF1020EDE2685
:1019C0006F007CFF4FF1000EDD2260003BF5D9FF78
:1019D00060003FF5DAFF6F0078FFC7F16F0074FF1A
:1019E000C8F1C8AF4CD0CB81C76DC81FD8B0C82BC9
:1019F00046D060002BF5D9FF60002FF5DAFF6F00AD
:101A000078FF0BF16F0074FF0CF1B1EC2AF060006D
:101A10002CF4C7F1600030F4C8F109D060002BF558
:101A2000D9FF60002FF5DAFFDE2A000EDD22D00E8E
:101A30004E6FFF0E4F6F60002BF5D9FF60002FF542
:101A4000DAFF6F007BFFF6FF6F0077FFF7FFF86AA2
:101A50000800F550506F516B4E5150274F51512394
:101A6000515106E10A0E505DD8B002D0010E01D0EE
:101A7000000E666F676B66516711D8A4CFD7600000
:101A80002BF5D9FF60002FF5DAFF6F007BFFF6FF23
:101A90006F0077FFF7FFF86A0800F550630AD8A4D3
:101AA00033D060002BF5D9FF60002FF5DAFFDE2A76
:101AB000000EDD22600033F5D9FF600037F5DAFF54
:101AC0006F007CFF4EF1020EDE266F007CFF4FF1AF
:101AD000000EDD2260003BF5D9FF60003FF5DAFF24
:101AE000DF50686F600020F521F1600024F522F1DD
:101AF0006000A0F523F131EC45F0600084F448F17A
:101B0000600088F449F1120060002BF5D9FF6000F5
:101B10002FF5DAFF6F007BFFF6FF6F0077FFF7FF0F
:101B2000F86A0800F550640AD8B412D060002BF5AA
:101B3000D9FF60002FF5DAFF6F007BFFF6FF6F0023
:101B400077FFF7FFF86A0800F550690AD8A455D066
:101B500060002BF5D9FF60002FF5DAFFDE2A000EBA
:101B6000DD22600033F5D9FF600037F5DAFF6F0042
:101B70007CFF4EF1020EDE266F007CFF4FF1000E5F
:101B8000DD2260003BF5D9FF60003FF5DAFF6F0012
:101B900078FF52F16F0074FF53F1000E53BFFF0E38
:101BA000546F556F566F576F586F596F600020F51F
:101BB00021F1600024F522F1600048F523F1600076
:101BC0004CF524F1600050F525F1600054F526F144
:101BD000600058F527F160005CF528F1600060F5C1
:101BE00029F1600064F52AF16DEC1BF0600084F4CB
:101BF00048F1600088F449F1120060002BF5D9FF2C
:101C000060002FF5DAFF6F007BFFF6FF6F0077FFB4
:101C1000F7FFF86A0800F550730AD8A43AD06000BC
:101C20002BF5D9FF60002FF5DAFFDE2A000EDD224A
:101C3000600033F5D9FF600037F5DAFF6F007CFFF5
:101C40004EF1020EDE266F007CFF4FF1000EDD220A
:101C500060003BF5D9FF60003FF5DAFF6F0078FFC9
:101C600062F16F0074FF63F1600020F50FF1600016
:101C700024F510F1600088F511F160008CF512F187
:101C800039EC29F060003CF448F1600040F449F17F
:101C9000120060002BF5D9FF60002FF5DAFF6F000E
:101CA0007BFFF6FF6F0077FFF7FFF86A0800F5503B
:101CB000780AD8B412D060002BF5D9FF60002FF558
:101CC000DAFF6F007BFFF6FF6F0077FFF7FFF86A20
:101CD0000800F550580AD8A46CD060002BF5D9FF45
:101CE00060002FF5DAFF6F007BFFF6FF6F0077FFD4
:101CF000F7FFF86A08006F00D4FF68F160002BF569
:101D0000D9FF60002FF5DAFFDE2A000EDD22600029
:101D100033F5D9FF600037F5DAFF6F007CFF4EF135
:101D2000020EDE266F007CFF4FF1000EDD22600008
:101D30003BF5D9FF60003FF5DAFF6F0078FF50F107
:101D40006F0074FF51F1600040F55AF1600044F5F6
:101D50005BF15C6B5D6B5E6B5F6B606B616B60001E
:101D600020F521F1600024F522F1600068F523F1EF
:101D700060006CF524F1600070F525F1600074F5E9
:101D800026F1600078F527F160007CF528F160000D
:101D900080F529F1600084F52AF16000A0F52BF1AF
:101DA00005EC1EF0600084F448F1600088F449F10D
:101DB000120060002BF5D9FF60002FF5DAFF6F00ED
:101DC0007BFFF6FF6F0077FFF7FFF86A0800F5501A
:101DD000250AD8A41AD060002BF5D9FF60002FF592
:101DE000DAFFDE2A000EDD22000E076F250E066FD9
:101DF000600020F508F1600024F509F1B3EC37F03C
:101E0000000E496F010E486F120060002BF5D9FFDC
:101E100060002FF5DAFFDE2A000EDD22000E496F8A
:101E2000000E486F120060002BF5D9FF60002FF5FF
:101E3000DAFF6F007BFFF6FF6F0077FFF7FFF86AAE
:101E40000800F550066F076B600020F508F1600090
:101E500024F509F1B3EC37F060002BF5D9FF6000F1
:101E60002FF5DAFFDE2A000EDD22CAD70001FE516F
:101E7000D8A41FD00301E551D8A40BD0E50E000172
:101E8000776F030E786FCE0E796FFE0E7A6F45EC8A
:101E900047F00301D151D8A41200D10E0001776F91
:101EA000030E786FBD0E796FFE0E7A6F45EC47F02A
:101EB0001200A7EC51F0600004F0B0F0600008F0F0
:101EC000B1F0F5EC51F0600004F0B2F0600008F001
:101ED000B3F0A0EC51F0600004F0BBF0600008F03B
:101EE000BCF0EFEC51F0600004F0B9F0600008F0D5
:101EF000BAF06000ECF207F06000F0F208F0030EB8
:101F00000A6EE80E096EE1EC3FF007500001A76F82
:101F1000A751016E026A01BE0206FC0E046E180E85
:101F2000036ED3EC4CF00001BB510124076EBC5191
:101F30000220086E000E0A6E0A0E096EE1EC3FF0F8
:101F40006000E4F207F06000E8F208F0030E0A6EA9
:101F5000E80E096EE1EC3FF007500001A86FA851B0
:101F6000016E026A01BE0206FC0E046E180E036EBC
:101F7000D3EC4CF00001B9510124076EBA51022094
:101F8000086E000E0A6E0A0E096EE1EC3FF0B5EC29
:101F900051F07BEC28F060003CF09BF0600040F0DA
:101FA0009CF03CEC4DF060003CF09DF0600040F097
:101FB0009EF06000C0F207F06000C4F208F0030E6B
:101FC0000A6EE80E096EE1EC3FF007500001B46FB5
:101FD000B451016E026A01BE0206FC0E046E180EB8
:101FE000036ED3EC4CF00001B0510124076EB151E7
:101FF0000220086E000E0A6E0A0E096EE1EC3FF038
:1020000007500001A96F6000C8F207F06000CCF231
:1020100008F0030E0A6EE80E096EE1EC3FF007507F
:102020000001B56FB551016E026A01BE0206FC0ED9
:10203000046E180E036ED3EC4CF00001B251012473
:10204000076EB3510220086E000E0A6E0A0E096E6A
:10205000E1EC3FF007500001AA6FBB51BC11D8B4AE
:1020600027D0000E0A6E0A0E096E6000ECF207F02F
:102070006000F0F208F0E1EC3FF060001CF0A5F029
:10208000600020F0A6F06000E4F207F06000E8F2E3
:1020900008F0600094F209F0600098F20AF0E1ECB8
:1020A0003FF060001CF0B7F0600020F0B8F004D002
:1020B000000EB86F000EB76F6000DCF207F0600032
:1020C000E0F208F0000E0A6E0A0E096EE1EC3FF035
:1020D00007500001B66FB651F60DF350B725AB6F40
:1020E0009CEC4DF0AFEC4DF099EC51F0600004F039
:1020F0009FF0600008F0A0F0C2EC4DF060003CF0F2
:10210000A1F0600040F0A2F0AEEC51F0600004F0ED
:10211000A3F0600008F0A4F00001FF51D8A409D09A
:10212000E7EC47F0600014F0ACF0600018F0ADF0A0
:1021300004D0F90EAC6FFF0EAD6FFCEC52F000094D
:10214000D8A404D0000EAF6F200E03D0000EAF6FE6
:10215000640EAE6FE50E776F030E786F670E796FC2
:10216000FE0E7A6F60008CF27BF0600090F27CF0E3
:10217000B5517D6F7E6B7DBF7E07AA517F6F806BEF
:102180007FBF8007B451816F826B81BF8207A951E5
:10219000836F846B83BF84076000B8F285F06000B2
:1021A000BCF286F06000B0F287F06000B4F288F014
:1021B00045EC47F0BD0E776F030E786F810E796F97
:1021C000FE0E7A6FB6517B6F7C6B7BBF7C07AB5189
:1021D0007D6F7E6B7DBF7E07600074F27FF06000D4
:1021E00078F280F060006CF281F0600070F282F0B2
:1021F000600084F283F0600088F284F060007CF27A
:1022000085F0600080F286F045EC47F00201884BD3
:10221000892B600020FA01F0600024FA02F0000E21
:10222000046E0A0E036E9DEC41F0600004F088F22B
:10223000600008F089F212000001FE51D8A41FD0FE
:102240000301E551D8A40BD0E50E0101716F030E17
:10225000726FCE0E736FFE0E746FF1EC45F00301DA
:10226000D151D8A41200D10E0101716F030E726F0B
:10227000BD0E736FFE0E746FF1EC45F012006FEC43
:1022800051F0600010F4AAF1600014F4ABF1E9EC35
:1022900051F0600010F4ACF1600014F4ADF15FECAB
:1022A00050F0600010F4B5F1600014F4B6F169EC80
:1022B00050F0600010F4B3F1600014F4B4F1600069
:1022C000D4F60AF16000D8F60BF1030E0D6FE80E9C
:1022D0000C6F9DEC3FF00A51A16FA151046F056B8B
:1022E00004BF0507FC0E076F180E066F60EC4CF07C
:1022F000B55104250A6FB65105210B6F000E0D6F05
:102300000A0E0C6F9DEC3FF06000CCF60AF1600005
:10231000D0F60BF1030E0D6FE80E0C6F9DEC3FF045
:102320000A51A26FA251046F056B04BF0507FC0E92
:10233000076F180E066F60EC4CF0B35104250A6F5E
:10234000B45105210B6F000E0D6F0A0E0C6F9DEC42
:102350003FF07DEC51F0BDEC27F0600048F495F1C2
:1023600060004CF496F177EC4CF0600048F497F183
:1023700060004CF498F16000A8F60AF16000ACF639
:102380000BF1030E0D6FE80E0C6F9DEC3FF00A5140
:10239000AE6FAE51046F056B04BF0507FC0E076FEF
:1023A000180E066F60EC4CF0AA5104250A6FAB5171
:1023B00005210B6F000E0D6F0A0E0C6F9DEC3FF0A8
:1023C0000A51A36F6000B0F60AF16000B4F60BF199
:1023D000030E0D6FE80E0C6F9DEC3FF00A51AF6FCE
:1023E000AF51046F056B04BF0507FC0E076F180E95
:1023F000066F60EC4CF0AC5104250A6FAD5105211D
:102400000B6F000E0D6F0A0E0C6F9DEC3FF00A5122
:10241000A46FB551B611D8B427D0000E0D6F0A0EB7
:102420000C6F6000D4F60AF16000D8F60BF19DEC59
:102430003FF0600028F49FF160002CF4A0F16000F0
:10244000CCF60AF16000D0F60BF160007CF60CF1DE
:10245000600080F60DF19DEC3FF0600028F4B1F1D2
:1024600060002CF4B2F104D0000EB26F000EB16F18
:102470006000C4F60AF16000C8F60BF1000E0D6FA3
:102480000A0E0C6F9DEC3FF00A51B06FB051F60D83
:10249000F350B125A56F63EC4DF076EC4DF068EC90
:1024A00051F0600010F499F1600014F49AF189EC95
:1024B0004DF0600048F49BF160004CF49CF176EC28
:1024C00051F0600010F49DF1600014F49EF10001E1
:1024D000FF51D8A409D0BFEC47F0600020F4A6F16A
:1024E000600024F4A7F105D0F90E0101A66FFF0EDC
:1024F000A76FE7EC52F00009D8A405D0000E010147
:10250000A96F200E04D0000E0101A96F640EA86F00
:10251000E50E716F030E726F670E736FFE0E746FB0
:10252000600074F675F1600078F676F1AF51776F60
:10253000786B77BF7807A451796F7A6B79BF7A0788
:10254000AE517B6F7C6B7BBF7C07A3517D6F7E6B35
:102550007DBF7E076000A0F67FF16000A4F680F1E9
:10256000600098F681F160009CF682F1F1EC45F094
:10257000BD0E716F030E726F810E736FFE0E746F5E
:10258000B051756F766B75BF7607A551776F786B15
:1025900077BF780760005CF679F1600060F67AF149
:1025A000600054F67BF1600058F67CF160006CF638
:1025B0007DF1600070F67EF1600064F67FF16000EE
:1025C00068F680F1F1EC45F00201884B892B600040
:1025D00020FA04F1600024FA05F1000E0101076FF2
:1025E0000A0E066F63EC41F0600010F488F26000A0
:1025F00014F489F212000001F951D8B426D0F85130
:10260000D8B40ED0A4EC52F0000E836F000E826F8F
:10261000C60E0001776FFF0E786FE8EC4DF015D015
:10262000020183BF09D0835104E1030E825DD8A06B
:1026300003D0F0EC52F002D0824B832BCB0E000182
:10264000776FFF0E786FE8EC4DF0B6EC50F046EC8B
:1026500053F0DA0E016EA50E026E84EC51F08AD1B1
:10266000BD0E76EC4FF0330E15EC52F00101EF2B5E
:1026700044EC53F01200330E15EC52F0F7D7EE0E87
:1026800076EC4FF0330E15EC52F0F0D7FF0E15EC50
:1026900052F0ECD7FF0E15EC52F0000E0101EF6F77
:1026A000E7D7330E15EC52F0F8D70101EF515B6E0E
:1026B0005C6A5C50000AD8A4F4D75B50000AD8B416
:1026C000CFD7010AD8B4D7D7030AD8B4D8D7010ACC
:1026D000D8B4DCD7070AD8B4D9D7010AD8B4D6D72A
:1026E000030AD8B4D3D7010AD8B4D0D70F0AD8B4C4
:1026F000CDD7010AD8B4CAD7030AD8B4C7D7010ABC
:10270000D8B4C4D7070AD8B4C1D7010AD8B4BED741
:10271000030AD8B4BBD7010AD8B4B8D71F0AD8B4B3
:10272000B5D7010AD8B4B2D7030AD8B4B3D7B9D74A
:10273000EE0E76EC4FF0330E15EC52F097D7330EC9
:1027400015EC52F093D78D0E76EC4FF0330E15EC5E
:1027500052F08CD7330E15EC52F088D7B20E76ECCF
:102760004FF0330E15EC52F081D7FF0E15EC52F0FE
:102770007DD7FF0E15EC52F090D7330E15EC52F0CA
:102780008CD70101EF515B6E5C6A5C50000AD8A4E3
:10279000F4D75B50000AD8B4CBD7010AD8B4CFD74E
:1027A000030AD8B4D0D7010AD8B4D4D7070AD8B40A
:1027B000D5D7010AD8B4D9D7030AD8B4D6D7010AD5
:1027C000D8B4D3D70F0AD8B4D0D7010AD8B4CDD74C
:1027D000030AD8B4CAD7010AD8B4C7D7070AD8B4ED
:1027E000C8D7CBD7EE0E76EC4FF02E0E15EC52F08C
:1027F0003DD71A0E15EC52F039D78D0E76EC4FF00E
:102800002E0E15EC52F032D71A0E15EC52F02ED7D0
:10281000B20E76EC4FF02E0E15EC52F027D7660E66
:1028200015EC52F023D78D0E76EC4FF02E0E15ECF2
:1028300052F01CD71A0E15EC52F018D7B20E76ECE7
:102840004FF02E0E15EC52F011D7FF0E15EC52F092
:102850000DD7EE0E76EC4FF02E0E15EC52F006D79B
:102860001A0E15EC52F002D78D0E76EC4FF02E0EAC
:1028700015EC52F0FBD61A0E15EC52F0F7D6B20E4C
:1028800076EC4FF02E0E15EC52F0F0D6660E15ECED
:1028900052F0ECD68D0E76EC4FF02E0E15EC52F079
:1028A000E5D61A0E15EC52F0E1D6B20E76EC4FF0EA
:1028B0002E0E15EC52F0DAD6FF0E15EC52F0D6D6ED
:1028C000FF0E15EC52F0E9D6330E15EC52F0E5D6BA
:1028D0000101EF515B6E5C6A5C50000AD8A4F4D72A
:1028E0005B50000AD8B47ED7010AD8B482D7030A55
:1028F000D8B483D7010AD8B487D7070AD8B488D701
:10290000010AD8B48CD7030AD8B48DD7010AD8B439
:1029100091D70F0AD8B492D7010AD8B496D7030A30
:10292000D8B497D7010AD8B49BD7070AD8B49CD794
:10293000010AD8B4A0D7030AD8B4A1D7010AD8B4E1
:10294000A5D71F0AD8B4A6D7010AD8B4AAD7030AB4
:10295000D8B4ABD7010AD8B4AFD7070AD8B4ACD72C
:10296000010AD8B4A9D7030AD8B4AAD7ADD7B6EC10
:1029700050F012000001FA515B6E5C6A5C50000A74
:10298000D8A4F5D75B50000AD8B4F1D7010AD8B45F
:102990008CD6030AD8B4F5D6060AD8B499D7E7D7A7
:1029A0000001F951D8B426D0F851D8B40ED068EC53
:1029B00052F0000E836F000E826FC60E0101716F20
:1029C000FF0E726FFFEC4CF015D0020183BF09D0EF
:1029D000835104E1030E825DD8A003D064EC52F071
:1029E00002D0824B832BCB0E0101716FFF0E726FF1
:1029F000FFEC4CF0A6EC50F042EC53F0DA0E010183
:102A0000046FA50E056F61EC51F087D1BD0E3AEC55
:102A10004FF0330EDDEC51F00101EF2B40EC53F0A1
:102A20001200330EDDEC51F0F7D7EE0E3AEC4FF01A
:102A3000330EDDEC51F0F0D7FF0EDDEC51F0ECD7AA
:102A4000FF0EDDEC51F0000E0101EF6FE7D7330E02
:102A5000DDEC51F0F8D7EF51836F846B8451000A9D
:102A6000D8A4F5D78351000AD8B4D0D7010AD8B476
:102A7000D8D7030AD8B4D9D7010AD8B4DDD7070A02
:102A8000D8B4DAD7010AD8B4D7D7030AD8B4D4D780
:102A9000010AD8B4D1D70F0AD8B4CED7010AD8B416
:102AA000CBD7030AD8B4C8D7010AD8B4C5D7070A08
:102AB000D8B4C2D7010AD8B4BFD7030AD8B4BCD798
:102AC000010AD8B4B9D71F0AD8B4B6D7010AD8B406
:102AD000B3D7030AD8B4B4D7BAD7EE0E3AEC4FF056
:102AE000330EDDEC51F098D7330EDDEC51F094D776
:102AF0008D0E3AEC4FF0330EDDEC51F08DD7330EE6
:102B0000DDEC51F089D7B20E3AEC4FF0330EDDEC2C
:102B100051F082D7FF0EDDEC51F07ED7FF0EDDECD9
:102B200051F091D7330EDDEC51F08DD7EF51836F1B
:102B3000846B8451000AD8A4F5D78351000AD8B415
:102B4000CCD7010AD8B4D0D7030AD8B4D1D7010A58
:102B5000D8B4D5D7070AD8B4D6D7010AD8B4DAD7AB
:102B6000030AD8B4D7D7010AD8B4D4D70F0AD8B437
:102B7000D1D7010AD8B4CED7030AD8B4CBD7010A2B
:102B8000D8B4C8D7070AD8B4C9D7CCD7EE0E3AEC18
:102B90004FF02E0EDDEC51F03FD71A0EDDEC51F068
:102BA0003BD78D0E3AEC4FF02E0EDDEC51F034D7C2
:102BB0001A0EDDEC51F030D7B20E3AEC4FF02E0E7B
:102BC000DDEC51F029D7660EDDEC51F025D78D0EE6
:102BD0003AEC4FF02E0EDDEC51F01ED71A0EDDEC64
:102BE00051F01AD7B20E3AEC4FF02E0EDDEC51F048
:102BF00013D7FF0EDDEC51F00FD7EE0E3AEC4FF08D
:102C00002E0EDDEC51F008D71A0EDDEC51F004D792
:102C10008D0E3AEC4FF02E0EDDEC51F0FDD61A0E73
:102C2000DDEC51F0F9D6B20E3AEC4FF02E0EDDECA1
:102C300051F0F2D6660EDDEC51F0EED68D0E3AEC88
:102C40004FF02E0EDDEC51F0E7D61A0EDDEC51F010
:102C5000E3D6B20E3AEC4FF02E0EDDEC51F0DCD69E
:102C6000FF0EDDEC51F0D8D6FF0EDDEC51F0EBD6C7
:102C7000330EDDEC51F0E7D6EF51836F846B845156
:102C8000000AD8A4F5D78351000AD8B47FD7010A27
:102C9000D8B483D7030AD8B484D7010AD8B488D764
:102CA000070AD8B489D7010AD8B48DD7030AD8B493
:102CB0008ED7010AD8B492D70F0AD8B493D7010A95
:102CC000D8B497D7030AD8B498D7010AD8B49CD7F8
:102CD000070AD8B49DD7010AD8B4A1D7030AD8B43B
:102CE000A2D7010AD8B4A6D71F0AD8B4A7D7010A19
:102CF000D8B4ABD7030AD8B4ACD7010AD8B4B0D78C
:102D0000070AD8B4ADD7010AD8B4AAD7030AD8B4F1
:102D1000ABD7AED7A6EC50F012000001FA5101017A
:102D2000836F846B8451000AD8A4F4D78351000ABE
:102D3000D8B4F0D7010AD8B48ED6030AD8B4F6D6E0
:102D4000060AD8B499D7E6D737EC49F0000E32EC32
:102D50004BF0010E4CEC4BF0000E6A6ED28E770EEB
:102D60000101716FFF0E726FFFEC4CF001EC52F03D
:102D7000D1EC51F0EAEC40F0D7EC41F058EC49F0DE
:102D8000EAEC4CF07FEC3EF07CEC3AF0FBEC26F009
:102D90006F00C0FFC6F1C00E0101C617D8B406D03F
:102DA0004D0E716FFF0E726FFFEC4CF00201265159
:102DB000271128112911D8A407D0EC0E0101716F39
:102DC000FF0E726FFFEC4CF0010E26250101046F1F
:102DD000000E020127210101056F000E02012821CA
:102DE0000101066F000E020129210101076FE00EAB
:102DF000086F930E096F040E0A6F000E0B6F81ECC3
:102E000042F0600010F426F2600014F427F2600033
:102E100018F428F260001CF429F2CEEC50F00009FE
:102E2000D8B4B2D7CCEC52F00301F96F610EF919A6
:102E3000D8A403D0410E12EC3FF0620E0301F91941
:102E4000D8A403D0420E12EC3FF0630E0301F9192F
:102E5000D8A403D0430E12EC3FF0640E0301F9191D
:102E6000D8A403D0440E12EC3FF0650E0301F9190B
:102E7000D8A403D0450E12EC3FF0660E0301F919F9
:102E8000D8A403D0460E12EC3FF06F0E0301F919DF
:102E9000D8A403D04F0E12EC3FF0740E0301F919C1
:102EA000D8B47FEC3EF0680E0301F919D8B464EC95
:102EB00032F06D0E0301F919D8B4BEEC22F0690EA0
:102EC0000301F919D8B454EC53F0760EF919D8A4CB
:102ED00003D0000E32EC4BF0560E0301F919D8A4C2
:102EE00003D0010E32EC4BF0300E0301F919D8A4D7
:102EF00007D0000E0101846F000E836FCEEC39F015
:102F0000310E0301F919D8A407D0000E0101846F16
:102F1000010E836FCEEC39F0320E0301F919D8A4FB
:102F200007D0000E0101846F020E836FCEEC39F0E2
:102F3000330E0301F919D8A407D0000E0101846FE4
:102F4000030E836FCEEC39F0340E0301F919D8A4C7
:102F500007D0000E0101846F040E836FCEEC39F0B0
:102F6000350E0301F919D8A407D0000E0101846FB2
:102F7000050E836FCEEC39F0360E0301F919D8A493
:102F800007D0000E0101846F060E836FCEEC39F07E
:102F9000370E0301F919D8A407D0000E0101846F80
:102FA000070E836FCEEC39F0380E0301F919D8A45F
:102FB00007D0000E0101846F080E836FCEEC39F04C
:102FC000390E0301F919D8A407D0000E0101846F4E
:102FD000090E836FCEEC39F0470E0301F919D8A41E
:102FE00003D0010E32EC4BF0670E0301F919D8A49F
:102FF00003D0000E32EC4BF0520E0301F919D8B495
:1030000050EC52F0720E0301F919D8B454EC52F09E
:10301000640E0301F919D8B45CEC52F0440E0301BC
:10302000F919D8B458EC52F06C0E0301F919D8A470
:1030300027D03A0E0101716FFD0E726F21EC2CF05A
:10304000600078F473F160007CF474F168EC40F097
:10305000600048F475F160004CF476F169EC3CF0E6
:10306000600078F477F160007CF478F1B8EC42F01D
:10307000600078F479F160007CF47AF1FFEC4CF0B8
:10308000700E0301F919D8B464EC18F07A0E03013C
:10309000F919D8A403D0000ED3EC31F05A0E030175
:1030A000F919D8A403D0010ED3EC31F06F0E03014F
:1030B000F919D8B406EC52F04F0E0301F919D8A44F
:1030C00063D601EC52F060D6570E0101716FFC0E11
:1030D000726FD890020162350101736F020163358E
:1030E0000101746FD8900001DE350101756F000198
:1030F000DF350101766FD890DB35776FDC35786F7F
:10310000D890020160350101796F0201613501013A
:103110007A6FD8900001DC3501017B6F0001DD354D
:1031200001017C6FD8900201663501017D6F0201BB
:10313000673501017E6FFFEC4CF0470E0101716FA6
:10314000FE0E726FD89002015A350101736F0201B1
:103150005B350101746FD890020158350101756F1C
:10316000020159350101766FD890D935776FDA357C
:10317000786FD890D735796FD8357A6FFFEC4CF0EF
:10318000920E0101716FFD0E726F600060F30AF123
:10319000600064F30BF1000E0D6F050E0C6F9DECDB
:1031A0003FF0600028F473F160002CF474F16000CB
:1031B00044F70AF1600048F70BF1000E0D6F050EA1
:1031C0000C6F9DEC3FF0600028F475F160002CF46A
:1031D00076F1600054F70AF1600058F70BF1000E29
:1031E0000D6F050E0C6F9DEC3FF0600028F477F139
:1031F00060002CF478F160004CF70AF1600050F7A1
:103200000BF1000E0D6F050E0C6F9DEC3FF0600092
:1032100028F479F160002CF47AF1FFEC4CF0E30E25
:103220000101716FFD0E726F600050F90AF16000CC
:1032300054F90BF1000E0D6F050E0C6F9DEC3FF075
:10324000600028F473F160002CF474F1600050F316
:103250000AF1600054F30BF1000E0D6F050E0C6FB8
:103260009DEC3FF0600028F475F160002CF476F1DD
:10327000600068F30AF160006CF30BF1000E0D6F53
:10328000050E0C6F9DEC3FF0600028F477F16000B4
:103290002CF478F1600038F90AF160003CF90BF188
:1032A000000E0D6F050E0C6F9DEC3FF0600028F4D2
:1032B00079F160002CF47AF1FFEC4CF0BB0E0101C7
:1032C000716FFD0E726F60003CF70AF1600040F70D
:1032D0000BF1000E0D6F050E0C6F9DEC3FF06000C2
:1032E00028F473F160002CF474F1600034F70AF1F3
:1032F000600038F70BF1000E0D6F050E0C6F9DECA2
:103300003FF0600028F475F160002CF476F1600065
:1033100074F777F1600078F778F1FFEC4CF0CF0E9E
:103320000101716FFC0E726F6000D8F70AF1600046
:10333000DCF70BF1000E0D6F080E0C6F9DEC3FF0EB
:10334000600028F473F160002CF474F16000D0F791
:103350000AF16000D4F70BF1000E0D6F080E0C6F30
:103360009DEC3FF0600028F475F160002CF476F1DC
:1033700069EC3CF0600078F477F160007CF478F15F
:10338000B8EC42F0600078F479F160007CF47AF1F6
:10339000FFEC4CF0670E0101716FFD0E726F600063
:1033A000B8F90AF16000BCF90BF1000E0D6F050EC3
:1033B0000C6F9DEC3FF0600028F473F160002CF47A
:1033C00074F160008CF70AF1600090F70BF1000EC9
:1033D0000D6F050E0C6F9DEC3FF0600028F475F149
:1033E00060002CF476F1600084F70AF1600088F741
:1033F0000BF1000E0D6F050E0C6F9DEC3FF06000A1
:1034000028F477F160002CF478F16000A8F979F1E4
:103410006000ACF97AF16000A0F97BF16000A4F9DA
:103420007CF1FFEC4CF01200600080F038F060009E
:1034300084F039F0600088F03AF060008CF03BF0E6
:10344000600090F03CF0600094F03DF0600098F077
:103450003EF060009CF03FF03FAE02D0010E01D084
:10346000000E366E376A36503710D8B410D03F1E73
:103470003E1E3D1E3C1E3B1E3A1E391E386C000E81
:1034800039223A223B223C223D223E223F220101A8
:10349000CAAFCB93CABF05D0CA5108E1C905D8B09D
:1034A00005D0000E336E010E326E06D0600024F798
:1034B00032F0600028F733F060001CF734F0600051
:1034C00020F735F036503710D8A402D0CBA503D062
:1034D0003406D8A03506000E416E1F0E406E000E59
:1034E0000301A86F9ED04006D8A04106890E402453
:1034F000D96E030E4120DA6E6000E0F001F060004A
:10350000E4F002F06000E8F003F06000ECF004F09A
:103510006000F0F005F06000F4F006F06000F8F0F4
:1035200007F06000FCF008F00A0E096E000E0A6E4B
:10353000000E0B6E000E0C6E000E0D6E000E0E6E69
:10354000000E0F6E000E106EA6EC30F0600004F05E
:1035500028F0600008F029F060000CF02AF060000C
:1035600010F02BF0600014F02CF0600018F02DF03B
:1035700060001CF02EF0600020F02FF06000A0F042
:1035800013F06000A8F014F032EC4AF01350300F42
:10359000DF6E3206D8A033063406D8A035066000A8
:1035A000E0F001F06000E4F002F06000E8F003F009
:1035B0006000ECF004F06000F0F005F06000F4F062
:1035C00006F06000F8F007F06000FCF008F00A0E6A
:1035D000096E000E0A6E000E0B6E000E0C6E000ED1
:1035E0000D6E000E0E6E000E0F6E000E106E84EC4F
:1035F0002DF0600004F038F0600008F039F0600051
:103600000CF03AF0600010F03BF0600014F03CF079
:10361000600018F03DF060001CF03EF0600020F00B
:103620003FF041BE20D0415003E14004D8A01BD060
:10363000385039103A103B103C103D103E103F10EE
:10364000D8A451D733BE05D0335002E13204D8B0EC
:103650004AD735BE08D0355003E13404D8A003D092
:103660000101CBB340D736503710D8A403D00101A5
:10367000CBA518D04006D8A0410636503710D8A4A4
:1036800004D0000E316E2B0E03D0000E316E2D0EC5
:10369000306E890E4024D96E030E4120DA6E600030
:1036A000C3F0DFFF600078F013F060007CF014F0EE
:1036B000890E4024156E030E4120166E6000D0F076
:1036C00017F06000D4F018F00FEC38F060004CF008
:1036D0001EF0600050F01FF0120060008CF43BF10F
:1036E000600090F43CF1600094F43DF1600098F4C7
:1036F0003EF160009CF43FF16000A0F440F16000F6
:10370000A4F441F16000A8F442F142AF02D0010EEE
:1037100001D0000E396F3A6B39513A11D8B410D03C
:10372000421F411F401F3F1F3E1F3D1F3C1F3B6D5F
:10373000000E3C233D233E233F23402341234223CD
:10374000CAAFCB93CABF05D0CA5108E1C905D8B0EA
:1037500005D0000E366F010E356F06D0600024F7DD
:1037600035F1600028F736F160001CF737F1600092
:1037700020F738F139513A11D8A402D0CBA503D0A3
:103780003707D8A03807000E446F1F0E436F000E96
:103790000301A86F9ED04307D8A04407890E432594
:1037A000D96E030E4421DA6E6000ECF404F160007F
:1037B000F0F405F16000F4F406F16000F8F407F1AC
:1037C0006000FCF408F1600000F509F1600004F508
:1037D0000AF1600008F50BF10A0E0C6F000E0D6F78
:1037E000000E0E6F000E0F6F000E106F000E116FA7
:1037F000000E126F000E136F72EC2FF0600010F4C9
:103800002BF1600014F42CF1600018F42DF160002D
:103810001CF42EF1600020F42FF1600024F430F14C
:10382000600028F431F160002CF432F16000ACF457
:1038300016F16000B4F417F1D5EC49F01651300FD1
:10384000DF6E3507D8A036073707D8A038076000E5
:10385000ECF404F16000F0F405F16000F4F406F11A
:103860006000F8F407F16000FCF408F1600000F576
:1038700009F1600004F50AF1600008F50BF10A0E89
:103880000C6F000E0D6F000E0E6F000E0F6F000E0E
:10389000106F000E116F000E126F000E136FD8EC38
:1038A0002CF0600010F43BF1600014F43CF1600077
:1038B00018F43DF160001CF43EF1600020F43FF18B
:1038C000600024F440F1600028F441F160002CF421
:1038D00042F1010144BF1FD0445103E14305D8A088
:1038E0001AD03B513C113D113E113F114011411185
:1038F0004211D8A450D736BF05D0365102E1350564
:10390000D8B049D738BF07D0385103E13705D8A020
:1039100002D0CBB340D739513A11D8A402D0CBA5AD
:1039200018D04307D8A0440739513A11D8A404D07D
:10393000000E346F2B0E03D0000E346F2D0E336F3C
:10394000890E4325D96E030E4421DA6E6000CFF450
:10395000DFFF600084F416F1600088F417F1890E2F
:103960004325186F030E4421196F6000DCF41AF12F
:103970006000E0F41BF11CEC39F0600058F421F118
:1039800060005CF422F112000101CAAFCB93CABF00
:1039900005D0CA5108E1C905D8B005D0000E366E71
:1039A000010E356E06D0600024F735F0600028F770
:1039B00036F060001CF737F0600020F738F0CBA934
:1039C00004D0FE0E3726FF0E3822600080F039F05A
:1039D000600084F03AF0600088F03BF060008CF00A
:1039E0003CF0600090F03DF0600094F03EF060002C
:1039F00098F03FF060009CF040F0000E426E1F0E09
:103A0000416E000E0301A86FA8D04106D8A042065F
:103A10000F0E3914436E446A44BE08D0445004E18A
:103A20000A0E435CD8A002D0570E01D0300E4324BA
:103A3000436E000E4420446EBF0E296EFF0E2A6EA8
:103A400028502B6E2C6A29502B262A502C222C50C1
:103A500006E11A0E2B5CD8B002D0010E01D0000E88
:103A6000316E326A31503210D8B42BD09F0E296E8D
:103A7000FF0E2A6E200E43102B6E000E44102C6E8B
:103A800029502B262A502C222C5006E11A0E2B5C92
:103A9000D8B002D0010E01D0000E336E346A33501C
:103AA0003410D8B40ED060000CF107F0600010F1B3
:103AB00008F06EEC47F060001CF043F0600020F06E
:103AC00044F0890E4124D96E030E4220DA6E600064
:103AD0000FF1DFFF3506D8A036063706D8A0380626
:103AE0006000E4F029F06000E8F02AF06000ECF0FB
:103AF0002BF06000F0F02CF06000F4F02DF060008E
:103B0000F8F02EF06000FCF02FF0600000F130F0D3
:103B1000050E09D0D89030322F322E322D322C3271
:103B20002B322A322932E82EF5D76000A4F039F082
:103B30006000A8F03AF06000ACF03BF06000B0F03C
:103B40003CF06000B4F03DF06000B8F03EF0600082
:103B5000BCF03FF06000C0F040F042BE21D04250C7
:103B600004E1020E415CD8A01BD039503A103B1042
:103B70003C103D103E103F104010D8A446D736BE32
:103B800005D0365002E13504D8B03FD738BE08D052
:103B9000385003E13704D8A003D00101CBB335D7A7
:103BA0000101CBA917D04106D8A04206890E4124B5
:103BB000D96E030E4220DA6E6000A3F0DFFF4106EB
:103BC000D8A04206890E4124D96E030E4220DA6E37
:103BD000300EDF6E600078F013F060007CF014F0BF
:103BE000890E4124156E030E4220166E6000DCF033
:103BF00017F06000E0F018F00FEC38F060004CF0C7
:103C00001EF0600050F01FF01200CAAFCB93CABF85
:103C100005D0CA5108E1C905D8B005D0000E396FEA
:103C2000010E386F06D0600024F738F1600028F7E5
:103C300039F160001CF73AF1600020F73BF1CBA9A5
:103C400004D0FE0E3A27FF0E3B2360008CF43CF1BB
:103C5000600090F43DF1600094F43EF1600098F44F
:103C60003FF160009CF440F16000A0F441F160007D
:103C7000A4F442F16000A8F443F1000E456F1F0E5A
:103C8000446F000E0301A86FA8D04407D8A04507D1
:103C90000F0E3C15466F476B47BF08D0475104E1F4
:103CA0000A0E465DD8A002D0570E01D0300E462530
:103CB000466F000E4721476FBF0E2C6FFF0E2D6F12
:103CC0002B512E6F2F6B2C512E272D512F232F511F
:103CD00006E11A0E2E5DD8B002D0010E01D0000E02
:103CE000346F356B34513511D8B42BD09F0E2C6FF7
:103CF000FF0E2D6F200E46112E6F000E47112F6FF5
:103D00002C512E272D512F232F5106E11A0E2E5DF7
:103D1000D8B002D0010E01D0000E366F376B36518D
:103D20003711D8B40ED0600018F50AF160001CF508
:103D30000BF11CEC47F0600028F446F160002CF415
:103D400047F1890E4425D96E030E4521DA6E6000D5
:103D50001BF5DFFF3807D8A039073A07D8A03B0783
:103D60006000F0F42CF16000F4F42DF16000F8F440
:103D70002EF16000FCF42FF1600000F530F16000DE
:103D800004F531F1600008F532F160000CF533F113
:103D9000050E09D0D89033333233313330332F33DB
:103DA0002E332D332C33E82EF5D76000B0F43CF1E0
:103DB0006000B4F43DF16000B8F43EF16000BCF482
:103DC0003FF16000C0F440F16000C4F441F16000D4
:103DD000C8F442F16000CCF443F1010145BF20D0AA
:103DE000455104E1020E445DD8A01AD03C513D116A
:103DF0003E113F114011411142114311D8A445D742
:103E000039BF05D0395102E13805D8B03ED73BBFA4
:103E100007D03B5103E13A05D8A002D0CBB335D748
:103E2000CBA917D04407D8A04507890E4425D96EE1
:103E3000030E4521DA6E6000AFF4DFFF4407D8A01F
:103E40004507890E4425D96E030E4521DA6E300EE2
:103E5000DF6E600084F416F1600088F417F1890EBB
:103E60004425186F030E4521196F6000E8F41AF11C
:103E70006000ECF41BF11CEC39F0600058F421F107
:103E800060005CF422F1120000C298F2600000F8B9
:103E9000BDF0E00EBD17D8B402D0010E01D0000E67
:103EA00002019A6F9A51D8B478D0600000F8BDF042
:103EB000050E0001BE6FD890BD33BE2FFCD7070E94
:103EC000BD17BD515C6E5D6A6A0E776FFF0E786F2D
:103ED000600070F179F0600074F17AF0E8EC4DF078
:103EE000050E5C185D10D8B405D0030E5C185D108B
:103EF000D8A403D0010EBCEC4CF05C045D10D8B427
:103F000014D0020E5C185D10D8B40FD0040E5C18EB
:103F10005D10D8B40AD0060E5C185D10D8B405D078
:103F2000070E5C185D10D8A403D0000EBCEC4CF05A
:103F3000020E5C185D10D8A404D0010E40EC31F0E4
:103F400003D0000E40EC31F0020E5C185D10D8B4C6
:103F50007CEC50F0030E5C185D10D8B4FBEC51F013
:103F6000040E5C185D10D8A416D07CEC50F000094B
:103F7000D8A40AD0270E0001776FFE0E786FE8EC08
:103F80004DF098EC52F007D0070E0001776FFE0E4F
:103F9000786FE8EC4DF094EC52F0020100A70FD0DE
:103FA0001FEC52F05EEC48F090EC52F085EC50F0D3
:103FB000010E776FFF0E786FE8EC4DF002D01AEC2F
:103FC00052F0020100A902D0010E01D0000E000142
:103FD000F06FF051D8B403D0010EBCEC4CF00001EE
:103FE000F051D8B403D08CEC52F002D090EC52F0E7
:103FF0000001F051D8B403D0BEEC50F002D085ECF3
:1040000050F002010051140B140AD8A402D0010E82
:1040100001D0000E996F995124EC52F0600010F815
:10402000BDF07F0E0001BD17BD511B6E1C6A600004
:1040300004F8BEF03F0EBE17BE511D6E1E6A600032
:1040400008F8BFF03F0EBF17BF511F6E206A600017
:104050000CF8C0F03F0EC017C051216E226A6000FC
:104060001CF8C1F07F0EC117C151140D6F00CCFFB9
:1040700023F06F00D0FF24F0600018F8C2F07F0E2C
:10408000C217C251140D6F00CCFF25F06F00D0FF96
:1040900026F0EEEC36F0600010F8BDF07F0E000167
:1040A000BD17BD51016E026A92EC51F008C232F2A6
:1040B0000201336B09AF0DD0304B312B31BF1200F1
:1040C000315104E10B0E305DD8A0120098EC52F093
:1040D0001200B0EC52F0000E0201316F000E306F92
:1040E0001200000E0201456F000E446F000E000129
:1040F000C86F000EC96F000ECA6F000ECB6F000EA6
:104100000101056F000E046FD8900435D96E053596
:10411000DA6E000ED926040EDA22000EDE6E000ED4
:10412000DD6ED8900435D96E0535DA6E320ED9269B
:10413000040EDA22000EDE6E000EDD6E044B052B3F
:1041400005BFE2D7055104E1190E045DD8A0DCD704
:10415000000E076F000E066FD8900635D96E073532
:10416000DA6E610ED926030EDA22000EDE6E000E24
:10417000DD6ED8900635D96E0735DA6E750ED92604
:10418000030EDA22000EDE6E000EDD6E064B072BEC
:1041900007BFE2D7075104E10A0E065DD8A0DCD7BD
:1041A000000E0001D36F000ED26F000ED16F000E13
:1041B000D06F000E02015B6F000E5A6F000E596F38
:1041C000000E586F000E0101DA6F000ED96F000E5D
:1041D000D86F000ED76F000E0001C86F000EC96FB8
:1041E000000ECA6F000ECB6F000E0201656F000E4D
:1041F000646F000E5F6F000E5E6F000E5D6F000E4D
:104200005C6F000E0001F46F000E0201676F000E7C
:10421000666F000E0001DF6F000EDE6F000E010101
:10422000DC6F000EDB6F000E0001DD6F000EDC6F37
:10423000000E0201636F000E626F000E616F000ED0
:10424000606F000E576F000E566F000EBB6F000EB2
:10425000BA6F000E0101D66F000ED56F000E00017F
:10426000DB6F000EDA6F000E0201496F000E486F1F
:10427000000E476F000E466F000E0101D26F000E58
:10428000D16F000E0001D56F000ED46F000E020139
:10429000536F000E526F000E0001D76FC80ED66F1D
:1042A000000E02011E6F000E1F6F000E206F000E29
:1042B000216F000E1A6F000E1B6F000E1C6F000E98
:1042C0001D6F000E516F000E506F000E0001CF6F7A
:1042D000000ECE6F000E0201436F000E426F000E03
:1042E000416F000E406F000E0101D06FC80ECF6FFE
:1042F000000ECE6F000ECD6F000E0201226F000E79
:10430000236F000E246F000E256F000E0101DE6F7B
:10431000000EDD6F010E0201A06FEAEC4FF04BECD6
:1043200050F041EC50F037EC50F04CEC52F01200F1
:10433000000E0201456F000E446F000E0001C86FB1
:10434000000EC96F000ECA6F000ECB6F000E026E1A
:10435000000E016ED8900134D96E0234DA6E000E70
:10436000D926040EDA22000EDE6E000EDD6ED89025
:104370000134D96E0234DA6E320ED926040EDA22F6
:10438000000EDE6E000EDD6E014A022A02BEE2D78A
:10439000025004E1190E015CD8A0DCD7000E046EB7
:1043A000000E036ED8900334D96E0434DA6E610EB9
:1043B000D926030EDA22000EDE6E000EDD6ED890D6
:1043C0000334D96E0434DA6E750ED926030EDA2260
:1043D000000EDE6E000EDD6E034A042A04BEE2D734
:1043E000045004E10A0E035CD8A0DCD7000E0001E3
:1043F000D36F000ED26F000ED16F000ED06F000E83
:1044000002015B6F000E5A6F000E596F000E586F5D
:10441000000E0101DA6F000ED96F000ED86F000E8A
:10442000D76F000E0001C86F000EC96F000ECA6F73
:10443000000ECB6F000E0201656F000E646F000E60
:104440005F6F000E5E6F000E5D6F000E5C6F000E02
:104450000001F46F000E0201676F000E666F000E20
:104460000001DF6F000EDE6F000E0101DC6F000E39
:10447000DB6F000E0001DD6F000EDC6F000E02012D
:10448000636F000E626F000E616F000E606F000EB2
:10449000576F000E566F000EBB6F000EBA6F000E06
:1044A0000101D66F000ED56F000E0001DB6F000E0C
:1044B000DA6F000E0201496F000E486F000E476F61
:1044C000000E466F000E0101D26F000ED16F000E7C
:1044D0000001D56F000ED46F000E0201536F000E65
:1044E000526F000E0001D76FC80ED66F000E02018A
:1044F0001E6F000E1F6F000E206F000E216F000E4A
:104500001A6F000E1B6F000E1C6F000E1D6F000E49
:10451000516F000E506F000E0001CF6F000ECE6F76
:10452000000E0201436F000E426F000E416F000E3D
:10453000406F000E0101D06FC80ECF6F000ECE6F1E
:10454000000ECD6F000E0201226F000E236F000ED1
:10455000246F000E256F000E0101DE6F000EDD6F6F
:10456000010E0201A06F21EC50F016EC50F00BECA4
:1045700050F000EC50F0B4EC52F01200C10E01010A
:10458000716FFF0E726FFFEC4CF00101EB51EC11FB
:10459000D8B40CD0ECBF06D0EC5108E1730EEB5D43
:1045A000D8B004D0000EEC6F000EEB6F70EC4AF048
:1045B0000009D8B4B0D09EEC50F0000E0101EC6FB1
:1045C000780EEB6FC3EC38F0600028F487F16000E0
:1045D0002CF488F160001CF604F1600020F605F16F
:1045E000000E076F150E066F60EC4CF0270E0425C9
:1045F000D96E090E0521DA6E740EDE1805E1A60EDD
:10460000DE18D8B440EC52F060001CF604F16000F3
:1046100020F605F1000E0101076F150E066F60EC24
:104620004CF0270E0425D96E090E0521DA6E7C0E9A
:10463000DE1805E1A60EDE18D8B43CEC52F060009E
:104640001CF604F1600020F605F1000E0101076F71
:10465000150E066F60EC4CF0270E0425D96E090E7E
:104660000521DA6E900EDE1805E16A0EDE18D8B468
:1046700068EC52F060001CF604F1600020F605F1D1
:10468000000E0101076F150E066F60EC4CF0270E4F
:104690000425D96E090E0521DA6EAA0EDE1805E191
:1046A000A00EDE18D8B448EC52F060001CF604F1FD
:1046B000600020F605F1000E0101076F150E066F70
:1046C00060EC4CF0270E0425D96E090E0521DA6E38
:1046D000780EDE1805E1A60EDE18D8B444EC52F0D0
:1046E00060001CF604F1600020F605F1000E0101E7
:1046F000076F150E066F60EC4CF0270E0425D96E7F
:10470000090E0521DA6E700EDE1805E1A60EDE1820
:10471000D8B44CEC52F03CEC52F040EC52F04CEC83
:1047200052F044EC52F048EC52F068EC52F0010EBA
:104730000101F96F010EF86F010EFB6F000E866F1D
:10474000F951D8B40BD0F851D8B408D0FB51D8B433
:1047500005D0FA51D8B402D0010E866F8651D8B474
:1047600002D0010E01D0000E4CEC4BF01200C10E35
:10477000776FFF0E786FE8EC4DF00101EB51EC1113
:10478000D8B40CD0ECBF06D0EC5108E1730EEB5D51
:10479000D8B004D0000EEC6F000EEB6F8EEC4AF038
:1047A0000009D8B4ABD0AEEC50F0000E0101EC6FB4
:1047B000780EEB6F75EC39F060001CF082F0600051
:1047C00020F083F0600008F201F060000CF202F0CB
:1047D000000E046E150E036ED3EC4CF0270E012470
:1047E000D96E090E0220DA6E740EDE1805E1A60EEF
:1047F000DE18D8B4A8EC52F0600008F201F06000B6
:104800000CF202F0000E046E150E036ED3EC4CF0A9
:10481000270E0124D96E090E0220DA6E7C0EDE18F6
:1048200005E1A60EDE18D8B4A0EC52F0600008F244
:1048300001F060000CF202F0000E046E150E036E23
:10484000D3EC4CF0270E0124D96E090E0220DA6E4B
:10485000900EDE1805E16A0EDE18D8B4A4EC52F012
:10486000600008F201F060000CF202F0000E046E2D
:10487000150E036ED3EC4CF0270E0124D96E090EF1
:104880000220DA6EAA0EDE1805E1A00EDE18D8B4FA
:10489000B0EC52F0600008F201F060000CF202F09F
:1048A000000E046E150E036ED3EC4CF0270E01249F
:1048B000D96E090E0220DA6E780EDE1805E1A60E1A
:1048C000DE18D8B4ACEC52F0600008F201F06000E1
:1048D0000CF202F0000E046E150E036ED3EC4CF0D9
:1048E000270E0124D96E090E0220DA6E700EDE1832
:1048F00005E1A60EDE18D8B4B4EC52F0A0EC52F0EC
:10490000A8EC52F0B4EC52F0ACEC52F0B0EC52F037
:10491000A4EC52F0010E0101F96F010EF86F010EC7
:10492000FB6F000E0001816F0101F951D8B40CD06A
:10493000F851D8B409D0FB51D8B406D0FA51D8B444
:1049400003D0010E0001816F00018151D8B402D063
:10495000010E01D0000EA5EC4CF0120042617474FF
:10496000657279204661696C20200000000400AC6B
:10497000694D6F6E69746F72204661696C2020000A
:1049800000000400906A436F6E74726F6C20466181
:10499000696C20200000000400AAA05665727920EE
:1049A00048696768205072657300000004007CA6A7
:1049B00048696768205072657373757265200000DE
:1049C00000040074A64869676820507265737375A7
:1049D00072652000000001005281436972637569AD
:1049E00074204661696C2020000000040070A64716
:1049F0006173204661696C7572652020200000009B
:104A0000040078A642617474657279204C6F772037
:104A1000202000000002006CA64261747465727967
:104A2000204C6F77202020000000040068A645502D
:104A30002042656C6F7720536574202000000002CF
:104A400000709F45502041626F7665205365742049
:104A5000200000000200569F49502042656C6F778D
:104A600020536574202000000002003C9F49502024
:104A700041626F76652053657420200000000200BB
:104A8000229F54646920746F6F206C6F6E672020C2
:104A9000000000020064A654646520746F6F206CEF
:104AA0006F6E672020000000020060A64F766572DE
:104AB000204D617820566F6C202000000002005CC1
:104AC000A642656C6F77204D696E20566F6C200092
:104AD0000000020058A64E6F20506F776572205379
:104AE0007570706C000000010054A600000E086E86
:104AF000000E076ECCEC44F060001CF023F0600068
:104B000020F024F00101DF05E011D8A407D06000F7
:104B10008CF01BF0600090F01CF012006000D8F7E1
:104B200007F06000DCF708F0000E0A6E080E096E50
:104B3000E1EC3FF060008CF01DF0600090F01EF0A2
:104B400007501D5E08501E5A600074F027F0600088
:104B500078F028F0296A2A6A2AAE08D0000E276E5B
:104B6000000E286E000E296E000E2A6E60009CF06A
:104B700001F06000A0F002F06000A4F003F060001B
:104B8000A8F004F0710E056E020E066E000E076EA0
:104B9000000E086EC2EC45F0600004F00DF06000FD
:104BA00008F00EF060000CF00FF0600010F010F054
:104BB000000E116E020E126E000E136E000E146EB9
:104BC0001EEC36F0600034F027F0600038F028F07A
:104BD00060003CF029F0600040F02AF060009CF09A
:104BE00001F06000A0F002F06000A4F003F06000AB
:104BF000A8F004F0140E056E000E066E000E076E8F
:104C0000000E086EC2EC45F0600004F00DF060008C
:104C100008F00EF060000CF00FF0600010F010F0E3
:104C2000090E116E000E126E000E136E000E146E41
:104C30001EEC36F0600034F01FF0600038F020F019
:104C400060003CF021F0600040F022F060007CF059
:104C500025F0600080F026F026AE04D0000E266E0F
:104C6000000E256E600094F01BF0600098F01CF0C0
:104C70001200000E0B6F000E0A6F99EC44F06000FA
:104C800028F426F160002CF427F1DF05E011D8A408
:104C900007D0600098F41EF160009CF41FF1120030
:104CA0006000D8F70AF16000DCF70BF1000E0D6F21
:104CB000080E0C6F9DEC3FF0600098F420F160004E
:104CC0009CF421F10A51205F0B51215B600080F4BC
:104CD0002AF1600084F42BF12C6B2D6B2DAF08D0E2
:104CE000000E2A6F000E2B6F000E2C6F000E2D6F22
:104CF0006000A8F404F16000ACF405F16000B0F4C9
:104D000006F16000B4F407F1710E086F020E096F2E
:104D1000000E0A6F000E0B6F93EC45F0600010F46C
:104D200010F1600014F411F1600018F412F1600049
:104D30001CF413F1000E146F020E156F000E166FA7
:104D4000000E176FB4EC35F0600040F42AF16000FB
:104D500044F42BF1600048F42CF160004CF42DF188
:104D60006000A8F404F16000ACF405F16000B0F458
:104D700006F16000B4F407F1140E086F000E096F1D
:104D8000000E0A6F000E0B6F93EC45F0600010F4FC
:104D900010F1600014F411F1600018F412F16000D9
:104DA0001CF413F1090E146F000E156F000E166F30
:104DB000000E176FB4EC35F0600040F422F1600093
:104DC00044F423F1600048F424F160004CF425F130
:104DD000600088F428F160008CF429F129AF04D038
:104DE000000E296F000E286F6000A0F41EF1600015
:104DF000A4F41FF11200000E0201FB6F0101F95132
:104E0000D8B40CD0F851D8B409D0FB51D8B406D0DE
:104E1000FA51D8B403D0010E0201FB6F0201FB511D
:104E2000D8B402D0010E01D0000E4CEC4BF00201C0
:104E3000A351D8B41200000EA36F000EFF6F000E36
:104E4000FE6F6000F8FB04F16000FCFB05F1000E52
:104E50000101076F150E066F60EC4CF0270E04255C
:104E6000D96E090E0521DA6E6F0078FFF9F26F0036
:104E700074FFFAF201D80AD00500FA6E0201F95166
:104E8000FD6EFA51FE6EFF6AFA5012000009D8A4B6
:104E90000ED0D8900201FE35D96EFF35DA6E260E9F
:104EA000D926030EDA22DE50DE10D8B405D0020176
:104EB000FE51CBEC4EF003D0FE51DBEC4EF0020184
:104EC000FE4BFF2BFF5104E1130EFE5DD8A0B9D7B6
:104ED00030EC2EF070EC4AF00009D8B444D0C3ECAA
:104EE00038F0600028F4F7F260002CF4F8F260006B
:104EF000DCFB04F16000E0FB05F1000E076F150E0E
:104F0000066F60EC4CF0250E0425D96E090E0521C4
:104F1000DA6E6F0078FFFCF26F0074FFFDF20201A1
:104F20007451FC1904E17551FD19D8B412006000E8
:104F3000F0FB74F26000F4FB75F20101EB51EC112F
:104F4000D8A405D00201FC51C5EC4FF007D0000EEB
:104F50000201756F000E746F9EEC50F00201FC515F
:104F60005AEC51F01200000E0201756F000E746FC2
:104F70009EEC50F010EC52F0120060004CF70AF179
:104F8000600050F70BF1000E0D6F050E0C6F9DECDD
:104F90003FF0600028F414F160002CF415F160007B
:104FA00044F70AF1600048F70BF1000E0D6F050E93
:104FB0000C6F9DEC3FF00A51145D1551800A166F7D
:104FC0000B51800A1659D8A00DD060004CF70AF199
:104FD000600050F70BF1000E0D6F050E0C6F9DEC8D
:104FE0003FF00CD0600044F70AF1600048F70BF185
:104FF000000E0D6F050E0C6F9DEC3FF0600028F465
:1050000017F160002CF418F1600054F70AF1600009
:1050100058F70BF1000E0D6F050E0C6F9DEC3FF075
:1050200017510A5D0B51800A146F1851800A1459E8
:10503000D8A013D0600054F70AF1600058F70BF1C4
:10504000000E0D6F050E0C6F9DEC3FF0600028F414
:1050500012F160002CF413F1120060004CF70AF119
:10506000600050F70BF1000E0D6F050E0C6F9DECFC
:105070003FF0600028F414F160002CF415F160009A
:1050800044F70AF1600048F70BF1000E0D6F050EB2
:105090000C6F9DEC3FF00A51145D1551800A166F9C
:1050A0000B51800A1659D8A00DD060004CF70AF1B8
:1050B000600050F70BF1000E0D6F050E0C6F9DECAC
:1050C0003FF00CD0600044F70AF1600048F70BF1A4
:1050D000000E0D6F050E0C6F9DEC3FF0600028F484
:1050E00019F160002CF41AF1600064F412F1600010
:1050F00068F413F1120060004CF707F0600050F7FD
:1051000008F0000E0A6E050E096EE1EC3FF060003B
:105110001CF011F0600020F012F0600044F707F07E
:10512000600048F708F0000E0A6E050E096EE1EC0B
:105130003FF00750115C1250800A136E0850800A2D
:105140001358D8A00DD060004CF707F0600050F75E
:1051500008F0000E0A6E050E096EE1EC3FF00CD06F
:10516000600044F707F0600048F708F0000E0A6E90
:10517000050E096EE1EC3FF060001CF014F06000D9
:1051800020F015F0600054F707F0600058F708F0C1
:10519000000E0A6E050E096EE1EC3FF01450075C3C
:1051A0000850800A116E1550800A1158D8A013D0EB
:1051B000600054F707F0600058F708F0000E0A6E20
:1051C000050E096EE1EC3FF060001CF00FF060008E
:1051D00020F010F0120060004CF707F0600050F76C
:1051E00008F0000E0A6E050E096EE1EC3FF060005B
:1051F0001CF011F0600020F012F0600044F707F09E
:10520000600048F708F0000E0A6E050E096EE1EC2A
:105210003FF00750115C1250800A136E0850800A4C
:105220001358D8A00DD060004CF707F0600050F77D
:1052300008F0000E0A6E050E096EE1EC3FF00CD08E
:10524000600044F707F0600048F708F0000E0A6EAF
:10525000050E096EE1EC3FF060001CF016F06000F6
:1052600020F017F0600058F00FF060005CF010F0D4
:10527000120020EED0F210EE14F1060E6F006FFF58
:10528000E3FFE806FBE2600044F41FF1600048F42D
:1052900020F11F512011D8A404D0140E1F6F010E4D
:1052A000206F60007CF404F1600080F405F1C9EC2B
:1052B00046F0600010F423F1600014F424F1600063
:1052C00024F721F1600028F722F122BF10D02351EA
:1052D000215D2251800A136F2451800A1359D8B0DE
:1052E00006D0600084F423F1600088F424F16000AB
:1052F0008CF421F1600090F422F160001CF71DF1A4
:10530000600020F71EF1CBA10FD018D0000E076F60
:10531000200E066F60003CF408F1600040F409F1D3
:10532000B3EC37F0234B242B1D51235D2451800A0D
:10533000136F1E51800A1359D8A0E8D7000E1C6FB6
:10534000000E1B6F26D060007FF4F6FF600083F430
:10535000F7FF000EF86E0F0EF76403D00800F5504B
:1053600007D06F00DBFFE1FF6F00DFFFE2FFE750D8
:105370000101136F1351066F076B60003CF408F1D5
:10538000600040F409F1B3EC37F01F4B202B1B4BAE
:105390001C2B21511B5D1C51800A136F2251800A66
:1053A0001359D8A0D0D7CBB10FD018D0000E076FAB
:1053B000200E066F60003CF408F1600040F409F133
:1053C000B3EC37F0234B242B1D51235D2451800A6D
:1053D000136F1E51800A1359D8A0E8D760008CF4CF
:1053E0000FF1600090F410F1120020EED0F210EEF8
:1053F00011F0060E6F006FFFE3FFE806FBE26000AE
:1054000038F01CF060003CF01DF01C501D10D8A4BA
:1054100003D0110E1C6E1D6A600070F001F0600078
:1054200074F002F00FEC48F0600004F020F060002F
:1054300008F021F0600024F71EF0600028F71FF04C
:105440001FBE10D020501E5C1F50800A106E2150CD
:10545000800A1058D8B006D0600078F020F06000C4
:105460007CF021F0600080F01EF0600084F01FF0FE
:1054700060001CF71AF0600020F71BF00101CBA1BF
:105480000FD018D0000E046E200E036E600030F0B6
:1054900005F0600034F006F025EC3AF0204A212AAD
:1054A0001A50205C2150800A106E1B50800A105840
:1054B000D8A0E8D7000E196E000E186E25D0600037
:1054C00073F0F6FF600077F0F7FF000EF86E0F0E36
:1054D000F76403D00800F55007D06F00DBFFE1FF51
:1054E0006F00DFFFE2FFE750106E1050036E046A9A
:1054F000600030F005F0600034F006F025EC3AF082
:105500001C4A1D2A184A192A1E50185C1950800A74
:10551000106E1F50800A1058D8A0D1D70101CBB10E
:105520000FD018D0000E046E200E036E600030F015
:1055300005F0600034F006F025EC3AF0204A212A0C
:105540001A50205C2150800A106E1B50800A10589F
:10555000D8A0E8D7600080F00CF0600084F00DF077
:105560001200000E196F000E186F000E126F000E61
:10557000116F02D00B4B0C2B010E176F60002FF434
:10558000F6FF600033F4F7FFF86A0800F550200AD0
:10559000D8B41BD0F70E0D6FFF0E0E6F60002FF406
:1055A000F6FF600033F4F7FFF86A0800F5500F6F5C
:1055B000106B0D510F270E511023105104E1050EF1
:1055C0000F5DD8A002D0000E176F60005CF413F1DD
:1055D000146B13511411D8B408D0CCD7000E126F2D
:1055E000010E116F0B4B0C2B36D060002FF4F6FF21
:1055F000600033F4F7FFF86A0800F5500D6F0E6B8A
:105600000E51000AD8A427D00D512B0AD8B4EAD7DE
:10561000060AD8B4E3D71FD0600060F404F160003C
:1056200064F405F1000E076F0A0E066F60EC4CF093
:1056300060002FF4F6FF600033F4F7FFF86A08000B
:10564000F550045F000E055B300E0425186F000E48
:105650000521196FC7D7D00E0D6FFF0E0E6F6000BA
:105660002FF4F6FF600033F4F7FFF86A0800F550F6
:105670000F6F106B0D510F270E511023105106E1C3
:105680000A0E0F5DD8B002D0010E01D0000E156FCA
:10569000166B15511611D8A4BFD711511211D8A4E9
:1056A00011D0600060F40DF1600064F40EF10D1F84
:1056B0000E1F0D4B0E2B600034F40BF1600038F41C
:1056C0000CF11200600060F40BF1600064F40CF166
:1056D0001200000E166E000E156E000E0F6E000EFC
:1056E0000E6E02D0084A092A010E146E600023F0E3
:1056F000F6FF600027F0F7FFF86A0800F550200A6F
:10570000D8B41BD0F70E0A6EFF0E0B6E600023F0AC
:10571000F6FF600027F0F7FFF86A0800F5500C6EFE
:105720000D6A0A500C260B500D220D5004E1050E97
:105730000C5CD8A002D0000E146E600050F010F087
:10574000116A10501110D8B408D0CCD7000E0F6ECB
:10575000010E0E6E084A092A36D0600023F0F6FFCB
:10576000600027F0F7FFF86A0800F5500A6E0B6A30
:105770000B50000AD8A427D00A502B0AD8B4EAD775
:10578000060AD8B4E3D71FD0600054F001F06000DF
:1057900058F002F0000E046E0A0E036ED3EC4CF0CB
:1057A000600023F0F6FF600027F0F7FFF86A0800BA
:1057B000F550015E000E025A300E0124156E000EE7
:1057C0000220166EC7D7D00E0A6EFF0E0B6E600059
:1057D00023F0F6FF600027F0F7FFF86A0800F550A5
:1057E0000C6E0D6A0A500C260B500D220D5006E16E
:1057F0000A0E0C5CD8B002D0010E01D0000E126E61
:10580000136A12501310D8A4BFD70E500F10D8A48B
:1058100011D0600054F00AF0600058F00BF00A1E3E
:105820000B1E0A4A0B2A600028F008F060002CF0DA
:1058300009F01200600054F008F0600058F009F020
:105840001200000E0B6F000E0A6F78EC49F060003A
:1058500028F426F160002CF427F16000D8F70AF153
:105860006000DCF70BF1000E0D6F080E0C6F9DEC65
:105870003FF0600098F420F160009CF421F10A519F
:10588000205F0B51215B600080F42AF1600084F4FA
:105890002BF12C6B2D6B2DAF08D0000E2A6F000E54
:1058A0002B6F000E2C6F000E2D6F6000A8F404F11A
:1058B0006000ACF405F16000B0F406F16000B4F4EF
:1058C00007F1710E086F020E096F000E0A6F000ECD
:1058D0000B6F93EC45F0600010F410F1600014F4CD
:1058E00011F1600018F412F160001CF413F1000EC5
:1058F000146F020E156F000E166F000E176FB4ECCA
:1059000035F0600040F42AF1600044F42BF16000AF
:1059100048F42CF160004CF42DF16000A8F404F17F
:105920006000ACF405F16000B0F406F16000B4F47E
:1059300007F1140E086F000E096F000E0A6F000EBB
:105940000B6F93EC45F0600010F410F1600014F45C
:1059500011F1600018F412F160001CF413F1090E4B
:10596000146F000E156F000E166F000E176FB4EC5B
:1059700035F0600040F422F1600044F423F160004F
:1059800048F424F160004CF425F1600088F428F11B
:1059900060008CF429F129AF04D0000E296F000EAD
:1059A000286F6000A0F41EF16000A4F41FF1120043
:1059B000000E156F13AF12D0131F121F111F101FEF
:1059C0000F1F0E1F0D1F0C6D000E0D230E230F2336
:1059D0001023112312231323010E156F0BAF12D0C6
:1059E0000B1F0A1F091F081F071F061F051F046D35
:1059F000000E052306230723082309230A230B236C
:105A0000010E151B20EE16F1070EDE6AE806FDE218
:105A10000C510D110E110F11101111111211131142
:105A2000D8B446D0010E146F0AD0D8900C370D3779
:105A30000E370F371037113712371337142B13AFB8
:105A4000F4D7D89016371737183719371A371B3746
:105A50001C371D370C51045D0D5105590E51065967
:105A60000F510759105108591151095912510A592A
:105A700013510B59D8A011D00C51045F0D51055B87
:105A80000E51065B0F51075B1051085B1151095B0A
:105A900012510A5B13510B5B1681D89013331233EA
:105AA000113310330F330E330D330C33142FC9D78A
:105AB0001551D8B410D01D1F1C1F1B1F1A1F191FF2
:105AC000181F171F166D000E1723182319231A23EA
:105AD0001B231C231D23600058F404F160005CF4B8
